{
	"contracts/ERC20.sol": {
		"MonopolyToken": {
			"abi": [
				{
					"inputs": [],
					"stateMutability": "nonpayable",
					"type": "constructor"
				},
				{
					"anonymous": false,
					"inputs": [
						{
							"indexed": true,
							"internalType": "address",
							"name": "owner",
							"type": "address"
						},
						{
							"indexed": true,
							"internalType": "address",
							"name": "spender",
							"type": "address"
						},
						{
							"indexed": false,
							"internalType": "uint256",
							"name": "value",
							"type": "uint256"
						}
					],
					"name": "Approval",
					"type": "event"
				},
				{
					"anonymous": false,
					"inputs": [
						{
							"indexed": true,
							"internalType": "address",
							"name": "from",
							"type": "address"
						},
						{
							"indexed": true,
							"internalType": "address",
							"name": "to",
							"type": "address"
						},
						{
							"indexed": false,
							"internalType": "uint256",
							"name": "value",
							"type": "uint256"
						}
					],
					"name": "Transfer",
					"type": "event"
				},
				{
					"inputs": [
						{
							"internalType": "address",
							"name": "owner",
							"type": "address"
						},
						{
							"internalType": "address",
							"name": "spender",
							"type": "address"
						}
					],
					"name": "allowance",
					"outputs": [
						{
							"internalType": "uint256",
							"name": "",
							"type": "uint256"
						}
					],
					"stateMutability": "view",
					"type": "function"
				},
				{
					"inputs": [
						{
							"internalType": "address",
							"name": "spender",
							"type": "address"
						},
						{
							"internalType": "uint256",
							"name": "amount",
							"type": "uint256"
						}
					],
					"name": "approve",
					"outputs": [
						{
							"internalType": "bool",
							"name": "",
							"type": "bool"
						}
					],
					"stateMutability": "nonpayable",
					"type": "function"
				},
				{
					"inputs": [
						{
							"internalType": "address",
							"name": "account",
							"type": "address"
						}
					],
					"name": "balanceOf",
					"outputs": [
						{
							"internalType": "uint256",
							"name": "",
							"type": "uint256"
						}
					],
					"stateMutability": "view",
					"type": "function"
				},
				{
					"inputs": [
						{
							"internalType": "uint256",
							"name": "",
							"type": "uint256"
						}
					],
					"name": "boardBank",
					"outputs": [
						{
							"internalType": "address",
							"name": "",
							"type": "address"
						}
					],
					"stateMutability": "view",
					"type": "function"
				},
				{
					"inputs": [
						{
							"internalType": "uint256",
							"name": "boardId",
							"type": "uint256"
						},
						{
							"internalType": "address",
							"name": "player",
							"type": "address"
						}
					],
					"name": "burnBankrupt",
					"outputs": [],
					"stateMutability": "nonpayable",
					"type": "function"
				},
				{
					"inputs": [
						{
							"internalType": "uint256",
							"name": "boardId",
							"type": "uint256"
						},
						{
							"internalType": "address",
							"name": "bankAddress",
							"type": "address"
						}
					],
					"name": "createGameBoard",
					"outputs": [],
					"stateMutability": "nonpayable",
					"type": "function"
				},
				{
					"inputs": [],
					"name": "decimals",
					"outputs": [
						{
							"internalType": "uint8",
							"name": "",
							"type": "uint8"
						}
					],
					"stateMutability": "view",
					"type": "function"
				},
				{
					"inputs": [
						{
							"internalType": "address",
							"name": "spender",
							"type": "address"
						},
						{
							"internalType": "uint256",
							"name": "subtractedValue",
							"type": "uint256"
						}
					],
					"name": "decreaseAllowance",
					"outputs": [
						{
							"internalType": "bool",
							"name": "",
							"type": "bool"
						}
					],
					"stateMutability": "nonpayable",
					"type": "function"
				},
				{
					"inputs": [
						{
							"internalType": "address",
							"name": "spender",
							"type": "address"
						},
						{
							"internalType": "uint256",
							"name": "addedValue",
							"type": "uint256"
						}
					],
					"name": "increaseAllowance",
					"outputs": [
						{
							"internalType": "bool",
							"name": "",
							"type": "bool"
						}
					],
					"stateMutability": "nonpayable",
					"type": "function"
				},
				{
					"inputs": [],
					"name": "initialMoney",
					"outputs": [
						{
							"internalType": "uint256",
							"name": "",
							"type": "uint256"
						}
					],
					"stateMutability": "view",
					"type": "function"
				},
				{
					"inputs": [
						{
							"internalType": "uint256",
							"name": "boardId",
							"type": "uint256"
						},
						{
							"internalType": "address[]",
							"name": "players",
							"type": "address[]"
						}
					],
					"name": "mintToPlayers",
					"outputs": [],
					"stateMutability": "nonpayable",
					"type": "function"
				},
				{
					"inputs": [],
					"name": "name",
					"outputs": [
						{
							"internalType": "string",
							"name": "",
							"type": "string"
						}
					],
					"stateMutability": "view",
					"type": "function"
				},
				{
					"inputs": [],
					"name": "symbol",
					"outputs": [
						{
							"internalType": "string",
							"name": "",
							"type": "string"
						}
					],
					"stateMutability": "view",
					"type": "function"
				},
				{
					"inputs": [],
					"name": "totalSupply",
					"outputs": [
						{
							"internalType": "uint256",
							"name": "",
							"type": "uint256"
						}
					],
					"stateMutability": "view",
					"type": "function"
				},
				{
					"inputs": [
						{
							"internalType": "address",
							"name": "to",
							"type": "address"
						},
						{
							"internalType": "uint256",
							"name": "amount",
							"type": "uint256"
						}
					],
					"name": "transfer",
					"outputs": [
						{
							"internalType": "bool",
							"name": "",
							"type": "bool"
						}
					],
					"stateMutability": "nonpayable",
					"type": "function"
				},
				{
					"inputs": [
						{
							"internalType": "address",
							"name": "from",
							"type": "address"
						},
						{
							"internalType": "address",
							"name": "to",
							"type": "address"
						},
						{
							"internalType": "uint256",
							"name": "amount",
							"type": "uint256"
						}
					],
					"name": "transferFrom",
					"outputs": [
						{
							"internalType": "bool",
							"name": "",
							"type": "bool"
						}
					],
					"stateMutability": "nonpayable",
					"type": "function"
				},
				{
					"inputs": [
						{
							"internalType": "uint256",
							"name": "boardId",
							"type": "uint256"
						},
						{
							"internalType": "address",
							"name": "from",
							"type": "address"
						},
						{
							"internalType": "uint256",
							"name": "amount",
							"type": "uint256"
						}
					],
					"name": "transferToBank",
					"outputs": [],
					"stateMutability": "nonpayable",
					"type": "function"
				},
				{
					"inputs": [
						{
							"internalType": "uint256",
							"name": "boardId",
							"type": "uint256"
						},
						{
							"internalType": "address",
							"name": "from",
							"type": "address"
						},
						{
							"internalType": "address",
							"name": "to",
							"type": "address"
						},
						{
							"internalType": "uint256",
							"name": "amount",
							"type": "uint256"
						}
					],
					"name": "transferToPlayer",
					"outputs": [],
					"stateMutability": "nonpayable",
					"type": "function"
				}
			],
			"devdoc": {
				"events": {
					"Approval(address,address,uint256)": {
						"details": "Emitted when the allowance of a `spender` for an `owner` is set by a call to {approve}. `value` is the new allowance."
					},
					"Transfer(address,address,uint256)": {
						"details": "Emitted when `value` tokens are moved from one account (`from`) to another (`to`). Note that `value` may be zero."
					}
				},
				"kind": "dev",
				"methods": {
					"allowance(address,address)": {
						"details": "See {IERC20-allowance}."
					},
					"approve(address,uint256)": {
						"details": "See {IERC20-approve}. NOTE: If `amount` is the maximum `uint256`, the allowance is not updated on `transferFrom`. This is semantically equivalent to an infinite approval. Requirements: - `spender` cannot be the zero address."
					},
					"balanceOf(address)": {
						"details": "See {IERC20-balanceOf}."
					},
					"decimals()": {
						"details": "Returns the number of decimals used to get its user representation. For example, if `decimals` equals `2`, a balance of `505` tokens should be displayed to a user as `5.05` (`505 / 10 ** 2`). Tokens usually opt for a value of 18, imitating the relationship between Ether and Wei. This is the value {ERC20} uses, unless this function is overridden; NOTE: This information is only used for _display_ purposes: it in no way affects any of the arithmetic of the contract, including {IERC20-balanceOf} and {IERC20-transfer}."
					},
					"decreaseAllowance(address,uint256)": {
						"details": "Atomically decreases the allowance granted to `spender` by the caller. This is an alternative to {approve} that can be used as a mitigation for problems described in {IERC20-approve}. Emits an {Approval} event indicating the updated allowance. Requirements: - `spender` cannot be the zero address. - `spender` must have allowance for the caller of at least `subtractedValue`."
					},
					"increaseAllowance(address,uint256)": {
						"details": "Atomically increases the allowance granted to `spender` by the caller. This is an alternative to {approve} that can be used as a mitigation for problems described in {IERC20-approve}. Emits an {Approval} event indicating the updated allowance. Requirements: - `spender` cannot be the zero address."
					},
					"name()": {
						"details": "Returns the name of the token."
					},
					"symbol()": {
						"details": "Returns the symbol of the token, usually a shorter version of the name."
					},
					"totalSupply()": {
						"details": "See {IERC20-totalSupply}."
					},
					"transfer(address,uint256)": {
						"details": "See {IERC20-transfer}. Requirements: - `to` cannot be the zero address. - the caller must have a balance of at least `amount`."
					},
					"transferFrom(address,address,uint256)": {
						"details": "See {IERC20-transferFrom}. Emits an {Approval} event indicating the updated allowance. This is not required by the EIP. See the note at the beginning of {ERC20}. NOTE: Does not update the allowance if the current allowance is the maximum `uint256`. Requirements: - `from` and `to` cannot be the zero address. - `from` must have a balance of at least `amount`. - the caller must have allowance for ``from``'s tokens of at least `amount`."
					}
				},
				"version": 1
			},
			"evm": {
				"assembly": "    /* \"contracts/ERC20.sol\":173:2092  contract MonopolyToken is ERC20 {... */\n  mstore(0x40, 0x80)\n    /* \"contracts/ERC20.sol\":324:341  1500 * (10 ** 18) */\n  0x5150ae84a8cdf00000\n    /* \"contracts/ERC20.sol\":297:341  uint public initialMoney = 1500 * (10 ** 18) */\n  0x06\n  sstore\n    /* \"contracts/ERC20.sol\":378:425  constructor() ERC20(\"Monopoly Money\", \"MNY\") {} */\n  callvalue\n  dup1\n  iszero\n  tag_1\n  jumpi\n  0x00\n  dup1\n  revert\ntag_1:\n  pop\n    /* \"https://github.com/OpenZeppelin/openzeppelin-contracts/blob/v4.7.3/contracts/token/ERC20/ERC20.sol\":1978:2091  constructor(string memory name_, string memory symbol_) {... */\n  mload(0x40)\n  dup1\n  0x40\n  add\n  0x40\n  mstore\n  dup1\n  0x0e\n  dup2\n  mstore\n  0x20\n  add\n  0x4d6f6e6f706f6c79204d6f6e6579000000000000000000000000000000000000\n  dup2\n  mstore\n  pop\n  mload(0x40)\n  dup1\n  0x40\n  add\n  0x40\n  mstore\n  dup1\n  0x03\n  dup2\n  mstore\n  0x20\n  add\n  0x4d4e590000000000000000000000000000000000000000000000000000000000\n  dup2\n  mstore\n  pop\n    /* \"https://github.com/OpenZeppelin/openzeppelin-contracts/blob/v4.7.3/contracts/token/ERC20/ERC20.sol\":2052:2057  name_ */\n  dup2\n    /* \"https://github.com/OpenZeppelin/openzeppelin-contracts/blob/v4.7.3/contracts/token/ERC20/ERC20.sol\":2044:2049  _name */\n  0x03\n    /* \"https://github.com/OpenZeppelin/openzeppelin-contracts/blob/v4.7.3/contracts/token/ERC20/ERC20.sol\":2044:2057  _name = name_ */\n  swap1\n  dup2\n  tag_5\n  swap2\n  swap1\n  tag_6\n  jump\t// in\ntag_5:\n  pop\n    /* \"https://github.com/OpenZeppelin/openzeppelin-contracts/blob/v4.7.3/contracts/token/ERC20/ERC20.sol\":2077:2084  symbol_ */\n  dup1\n    /* \"https://github.com/OpenZeppelin/openzeppelin-contracts/blob/v4.7.3/contracts/token/ERC20/ERC20.sol\":2067:2074  _symbol */\n  0x04\n    /* \"https://github.com/OpenZeppelin/openzeppelin-contracts/blob/v4.7.3/contracts/token/ERC20/ERC20.sol\":2067:2084  _symbol = symbol_ */\n  swap1\n  dup2\n  tag_7\n  swap2\n  swap1\n  tag_6\n  jump\t// in\ntag_7:\n  pop\n    /* \"https://github.com/OpenZeppelin/openzeppelin-contracts/blob/v4.7.3/contracts/token/ERC20/ERC20.sol\":1978:2091  constructor(string memory name_, string memory symbol_) {... */\n  pop\n  pop\n    /* \"contracts/ERC20.sol\":173:2092  contract MonopolyToken is ERC20 {... */\n  jump(tag_9)\n    /* \"#utility.yul\":7:106   */\ntag_10:\n    /* \"#utility.yul\":59:65   */\n  0x00\n    /* \"#utility.yul\":93:98   */\n  dup2\n    /* \"#utility.yul\":87:99   */\n  mload\n    /* \"#utility.yul\":77:99   */\n  swap1\n  pop\n    /* \"#utility.yul\":7:106   */\n  swap2\n  swap1\n  pop\n  jump\t// out\n    /* \"#utility.yul\":112:292   */\ntag_11:\n    /* \"#utility.yul\":160:237   */\n  0x4e487b7100000000000000000000000000000000000000000000000000000000\n    /* \"#utility.yul\":157:158   */\n  0x00\n    /* \"#utility.yul\":150:238   */\n  mstore\n    /* \"#utility.yul\":257:261   */\n  0x41\n    /* \"#utility.yul\":254:255   */\n  0x04\n    /* \"#utility.yul\":247:262   */\n  mstore\n    /* \"#utility.yul\":281:285   */\n  0x24\n    /* \"#utility.yul\":278:279   */\n  0x00\n    /* \"#utility.yul\":271:286   */\n  revert\n    /* \"#utility.yul\":298:478   */\ntag_12:\n    /* \"#utility.yul\":346:423   */\n  0x4e487b7100000000000000000000000000000000000000000000000000000000\n    /* \"#utility.yul\":343:344   */\n  0x00\n    /* \"#utility.yul\":336:424   */\n  mstore\n    /* \"#utility.yul\":443:447   */\n  0x22\n    /* \"#utility.yul\":440:441   */\n  0x04\n    /* \"#utility.yul\":433:448   */\n  mstore\n    /* \"#utility.yul\":467:471   */\n  0x24\n    /* \"#utility.yul\":464:465   */\n  0x00\n    /* \"#utility.yul\":457:472   */\n  revert\n    /* \"#utility.yul\":484:804   */\ntag_13:\n    /* \"#utility.yul\":528:534   */\n  0x00\n    /* \"#utility.yul\":565:566   */\n  0x02\n    /* \"#utility.yul\":559:563   */\n  dup3\n    /* \"#utility.yul\":555:567   */\n  div\n    /* \"#utility.yul\":545:567   */\n  swap1\n  pop\n    /* \"#utility.yul\":612:613   */\n  0x01\n    /* \"#utility.yul\":606:610   */\n  dup3\n    /* \"#utility.yul\":602:614   */\n  and\n    /* \"#utility.yul\":633:651   */\n  dup1\n    /* \"#utility.yul\":623:704   */\n  tag_35\n  jumpi\n    /* \"#utility.yul\":689:693   */\n  0x7f\n    /* \"#utility.yul\":681:687   */\n  dup3\n    /* \"#utility.yul\":677:694   */\n  and\n    /* \"#utility.yul\":667:694   */\n  swap2\n  pop\n    /* \"#utility.yul\":623:704   */\ntag_35:\n    /* \"#utility.yul\":751:753   */\n  0x20\n    /* \"#utility.yul\":743:749   */\n  dup3\n    /* \"#utility.yul\":740:754   */\n  lt\n    /* \"#utility.yul\":720:738   */\n  dup2\n    /* \"#utility.yul\":717:755   */\n  sub\n    /* \"#utility.yul\":714:798   */\n  tag_36\n  jumpi\n    /* \"#utility.yul\":770:788   */\n  tag_37\n  tag_12\n  jump\t// in\ntag_37:\n    /* \"#utility.yul\":714:798   */\ntag_36:\n    /* \"#utility.yul\":535:804   */\n  pop\n    /* \"#utility.yul\":484:804   */\n  swap2\n  swap1\n  pop\n  jump\t// out\n    /* \"#utility.yul\":810:951   */\ntag_14:\n    /* \"#utility.yul\":859:863   */\n  0x00\n    /* \"#utility.yul\":882:885   */\n  dup2\n    /* \"#utility.yul\":874:885   */\n  swap1\n  pop\n    /* \"#utility.yul\":905:908   */\n  dup2\n    /* \"#utility.yul\":902:903   */\n  0x00\n    /* \"#utility.yul\":895:909   */\n  mstore\n    /* \"#utility.yul\":939:943   */\n  0x20\n    /* \"#utility.yul\":936:937   */\n  0x00\n    /* \"#utility.yul\":926:944   */\n  keccak256\n    /* \"#utility.yul\":918:944   */\n  swap1\n  pop\n    /* \"#utility.yul\":810:951   */\n  swap2\n  swap1\n  pop\n  jump\t// out\n    /* \"#utility.yul\":957:1050   */\ntag_15:\n    /* \"#utility.yul\":994:1000   */\n  0x00\n    /* \"#utility.yul\":1041:1043   */\n  0x20\n    /* \"#utility.yul\":1036:1038   */\n  0x1f\n    /* \"#utility.yul\":1029:1034   */\n  dup4\n    /* \"#utility.yul\":1025:1039   */\n  add\n    /* \"#utility.yul\":1021:1044   */\n  div\n    /* \"#utility.yul\":1011:1044   */\n  swap1\n  pop\n    /* \"#utility.yul\":957:1050   */\n  swap2\n  swap1\n  pop\n  jump\t// out\n    /* \"#utility.yul\":1056:1163   */\ntag_16:\n    /* \"#utility.yul\":1100:1108   */\n  0x00\n    /* \"#utility.yul\":1150:1155   */\n  dup3\n    /* \"#utility.yul\":1144:1148   */\n  dup3\n    /* \"#utility.yul\":1140:1156   */\n  shl\n    /* \"#utility.yul\":1119:1156   */\n  swap1\n  pop\n    /* \"#utility.yul\":1056:1163   */\n  swap3\n  swap2\n  pop\n  pop\n  jump\t// out\n    /* \"#utility.yul\":1169:1562   */\ntag_17:\n    /* \"#utility.yul\":1238:1244   */\n  0x00\n    /* \"#utility.yul\":1288:1289   */\n  0x08\n    /* \"#utility.yul\":1276:1286   */\n  dup4\n    /* \"#utility.yul\":1272:1290   */\n  mul\n    /* \"#utility.yul\":1311:1408   */\n  tag_42\n    /* \"#utility.yul\":1341:1407   */\n  0xffffffffffffffffffffffffffffffffffffffffffffffffffffffffffffffff\n    /* \"#utility.yul\":1330:1339   */\n  dup3\n    /* \"#utility.yul\":1311:1408   */\n  tag_16\n  jump\t// in\ntag_42:\n    /* \"#utility.yul\":1429:1468   */\n  tag_43\n    /* \"#utility.yul\":1459:1467   */\n  dup7\n    /* \"#utility.yul\":1448:1457   */\n  dup4\n    /* \"#utility.yul\":1429:1468   */\n  tag_16\n  jump\t// in\ntag_43:\n    /* \"#utility.yul\":1417:1468   */\n  swap6\n  pop\n    /* \"#utility.yul\":1501:1505   */\n  dup1\n    /* \"#utility.yul\":1497:1506   */\n  not\n    /* \"#utility.yul\":1490:1495   */\n  dup5\n    /* \"#utility.yul\":1486:1507   */\n  and\n    /* \"#utility.yul\":1477:1507   */\n  swap4\n  pop\n    /* \"#utility.yul\":1550:1554   */\n  dup1\n    /* \"#utility.yul\":1540:1548   */\n  dup7\n    /* \"#utility.yul\":1536:1555   */\n  and\n    /* \"#utility.yul\":1529:1534   */\n  dup5\n    /* \"#utility.yul\":1526:1556   */\n  or\n    /* \"#utility.yul\":1516:1556   */\n  swap3\n  pop\n    /* \"#utility.yul\":1245:1562   */\n  pop\n  pop\n    /* \"#utility.yul\":1169:1562   */\n  swap4\n  swap3\n  pop\n  pop\n  pop\n  jump\t// out\n    /* \"#utility.yul\":1568:1645   */\ntag_18:\n    /* \"#utility.yul\":1605:1612   */\n  0x00\n    /* \"#utility.yul\":1634:1639   */\n  dup2\n    /* \"#utility.yul\":1623:1639   */\n  swap1\n  pop\n    /* \"#utility.yul\":1568:1645   */\n  swap2\n  swap1\n  pop\n  jump\t// out\n    /* \"#utility.yul\":1651:1711   */\ntag_19:\n    /* \"#utility.yul\":1679:1682   */\n  0x00\n    /* \"#utility.yul\":1700:1705   */\n  dup2\n    /* \"#utility.yul\":1693:1705   */\n  swap1\n  pop\n    /* \"#utility.yul\":1651:1711   */\n  swap2\n  swap1\n  pop\n  jump\t// out\n    /* \"#utility.yul\":1717:1859   */\ntag_20:\n    /* \"#utility.yul\":1767:1776   */\n  0x00\n    /* \"#utility.yul\":1800:1853   */\n  tag_47\n    /* \"#utility.yul\":1818:1852   */\n  tag_48\n    /* \"#utility.yul\":1827:1851   */\n  tag_49\n    /* \"#utility.yul\":1845:1850   */\n  dup5\n    /* \"#utility.yul\":1827:1851   */\n  tag_18\n  jump\t// in\ntag_49:\n    /* \"#utility.yul\":1818:1852   */\n  tag_19\n  jump\t// in\ntag_48:\n    /* \"#utility.yul\":1800:1853   */\n  tag_18\n  jump\t// in\ntag_47:\n    /* \"#utility.yul\":1787:1853   */\n  swap1\n  pop\n    /* \"#utility.yul\":1717:1859   */\n  swap2\n  swap1\n  pop\n  jump\t// out\n    /* \"#utility.yul\":1865:1940   */\ntag_21:\n    /* \"#utility.yul\":1908:1911   */\n  0x00\n    /* \"#utility.yul\":1929:1934   */\n  dup2\n    /* \"#utility.yul\":1922:1934   */\n  swap1\n  pop\n    /* \"#utility.yul\":1865:1940   */\n  swap2\n  swap1\n  pop\n  jump\t// out\n    /* \"#utility.yul\":1946:2215   */\ntag_22:\n    /* \"#utility.yul\":2056:2095   */\n  tag_52\n    /* \"#utility.yul\":2087:2094   */\n  dup4\n    /* \"#utility.yul\":2056:2095   */\n  tag_20\n  jump\t// in\ntag_52:\n    /* \"#utility.yul\":2117:2208   */\n  tag_53\n    /* \"#utility.yul\":2166:2207   */\n  tag_54\n    /* \"#utility.yul\":2190:2206   */\n  dup3\n    /* \"#utility.yul\":2166:2207   */\n  tag_21\n  jump\t// in\ntag_54:\n    /* \"#utility.yul\":2158:2164   */\n  dup5\n    /* \"#utility.yul\":2151:2155   */\n  dup5\n    /* \"#utility.yul\":2145:2156   */\n  sload\n    /* \"#utility.yul\":2117:2208   */\n  tag_17\n  jump\t// in\ntag_53:\n    /* \"#utility.yul\":2111:2115   */\n  dup3\n    /* \"#utility.yul\":2104:2209   */\n  sstore\n    /* \"#utility.yul\":2022:2215   */\n  pop\n    /* \"#utility.yul\":1946:2215   */\n  pop\n  pop\n  pop\n  jump\t// out\n    /* \"#utility.yul\":2221:2294   */\ntag_23:\n    /* \"#utility.yul\":2266:2269   */\n  0x00\n    /* \"#utility.yul\":2221:2294   */\n  swap1\n  jump\t// out\n    /* \"#utility.yul\":2300:2489   */\ntag_24:\n    /* \"#utility.yul\":2377:2409   */\n  tag_57\n  tag_23\n  jump\t// in\ntag_57:\n    /* \"#utility.yul\":2418:2483   */\n  tag_58\n    /* \"#utility.yul\":2476:2482   */\n  dup2\n    /* \"#utility.yul\":2468:2474   */\n  dup5\n    /* \"#utility.yul\":2462:2466   */\n  dup5\n    /* \"#utility.yul\":2418:2483   */\n  tag_22\n  jump\t// in\ntag_58:\n    /* \"#utility.yul\":2353:2489   */\n  pop\n    /* \"#utility.yul\":2300:2489   */\n  pop\n  pop\n  jump\t// out\n    /* \"#utility.yul\":2495:2681   */\ntag_25:\n    /* \"#utility.yul\":2555:2675   */\ntag_60:\n    /* \"#utility.yul\":2572:2575   */\n  dup2\n    /* \"#utility.yul\":2565:2570   */\n  dup2\n    /* \"#utility.yul\":2562:2576   */\n  lt\n    /* \"#utility.yul\":2555:2675   */\n  iszero\n  tag_62\n  jumpi\n    /* \"#utility.yul\":2626:2665   */\n  tag_63\n    /* \"#utility.yul\":2663:2664   */\n  0x00\n    /* \"#utility.yul\":2656:2661   */\n  dup3\n    /* \"#utility.yul\":2626:2665   */\n  tag_24\n  jump\t// in\ntag_63:\n    /* \"#utility.yul\":2599:2600   */\n  0x01\n    /* \"#utility.yul\":2592:2597   */\n  dup2\n    /* \"#utility.yul\":2588:2601   */\n  add\n    /* \"#utility.yul\":2579:2601   */\n  swap1\n  pop\n    /* \"#utility.yul\":2555:2675   */\n  jump(tag_60)\ntag_62:\n    /* \"#utility.yul\":2495:2681   */\n  pop\n  pop\n  jump\t// out\n    /* \"#utility.yul\":2687:3230   */\ntag_26:\n    /* \"#utility.yul\":2788:2790   */\n  0x1f\n    /* \"#utility.yul\":2783:2786   */\n  dup3\n    /* \"#utility.yul\":2780:2791   */\n  gt\n    /* \"#utility.yul\":2777:3223   */\n  iszero\n  tag_65\n  jumpi\n    /* \"#utility.yul\":2822:2860   */\n  tag_66\n    /* \"#utility.yul\":2854:2859   */\n  dup2\n    /* \"#utility.yul\":2822:2860   */\n  tag_14\n  jump\t// in\ntag_66:\n    /* \"#utility.yul\":2906:2935   */\n  tag_67\n    /* \"#utility.yul\":2924:2934   */\n  dup5\n    /* \"#utility.yul\":2906:2935   */\n  tag_15\n  jump\t// in\ntag_67:\n    /* \"#utility.yul\":2896:2904   */\n  dup2\n    /* \"#utility.yul\":2892:2936   */\n  add\n    /* \"#utility.yul\":3089:3091   */\n  0x20\n    /* \"#utility.yul\":3077:3087   */\n  dup6\n    /* \"#utility.yul\":3074:3092   */\n  lt\n    /* \"#utility.yul\":3071:3120   */\n  iszero\n  tag_68\n  jumpi\n    /* \"#utility.yul\":3110:3118   */\n  dup2\n    /* \"#utility.yul\":3095:3118   */\n  swap1\n  pop\n    /* \"#utility.yul\":3071:3120   */\ntag_68:\n    /* \"#utility.yul\":3133:3213   */\n  tag_69\n    /* \"#utility.yul\":3189:3211   */\n  tag_70\n    /* \"#utility.yul\":3207:3210   */\n  dup6\n    /* \"#utility.yul\":3189:3211   */\n  tag_15\n  jump\t// in\ntag_70:\n    /* \"#utility.yul\":3179:3187   */\n  dup4\n    /* \"#utility.yul\":3175:3212   */\n  add\n    /* \"#utility.yul\":3162:3173   */\n  dup3\n    /* \"#utility.yul\":3133:3213   */\n  tag_25\n  jump\t// in\ntag_69:\n    /* \"#utility.yul\":2792:3223   */\n  pop\n  pop\n    /* \"#utility.yul\":2777:3223   */\ntag_65:\n    /* \"#utility.yul\":2687:3230   */\n  pop\n  pop\n  pop\n  jump\t// out\n    /* \"#utility.yul\":3236:3353   */\ntag_27:\n    /* \"#utility.yul\":3290:3298   */\n  0x00\n    /* \"#utility.yul\":3340:3345   */\n  dup3\n    /* \"#utility.yul\":3334:3338   */\n  dup3\n    /* \"#utility.yul\":3330:3346   */\n  shr\n    /* \"#utility.yul\":3309:3346   */\n  swap1\n  pop\n    /* \"#utility.yul\":3236:3353   */\n  swap3\n  swap2\n  pop\n  pop\n  jump\t// out\n    /* \"#utility.yul\":3359:3528   */\ntag_28:\n    /* \"#utility.yul\":3403:3409   */\n  0x00\n    /* \"#utility.yul\":3436:3487   */\n  tag_73\n    /* \"#utility.yul\":3484:3485   */\n  0x00\n    /* \"#utility.yul\":3480:3486   */\n  not\n    /* \"#utility.yul\":3472:3477   */\n  dup5\n    /* \"#utility.yul\":3469:3470   */\n  0x08\n    /* \"#utility.yul\":3465:3478   */\n  mul\n    /* \"#utility.yul\":3436:3487   */\n  tag_27\n  jump\t// in\ntag_73:\n    /* \"#utility.yul\":3432:3488   */\n  not\n    /* \"#utility.yul\":3517:3521   */\n  dup1\n    /* \"#utility.yul\":3511:3515   */\n  dup4\n    /* \"#utility.yul\":3507:3522   */\n  and\n    /* \"#utility.yul\":3497:3522   */\n  swap2\n  pop\n    /* \"#utility.yul\":3410:3528   */\n  pop\n    /* \"#utility.yul\":3359:3528   */\n  swap3\n  swap2\n  pop\n  pop\n  jump\t// out\n    /* \"#utility.yul\":3533:3828   */\ntag_29:\n    /* \"#utility.yul\":3609:3613   */\n  0x00\n    /* \"#utility.yul\":3755:3784   */\n  tag_75\n    /* \"#utility.yul\":3780:3783   */\n  dup4\n    /* \"#utility.yul\":3774:3778   */\n  dup4\n    /* \"#utility.yul\":3755:3784   */\n  tag_28\n  jump\t// in\ntag_75:\n    /* \"#utility.yul\":3747:3784   */\n  swap2\n  pop\n    /* \"#utility.yul\":3817:3820   */\n  dup3\n    /* \"#utility.yul\":3814:3815   */\n  0x02\n    /* \"#utility.yul\":3810:3821   */\n  mul\n    /* \"#utility.yul\":3804:3808   */\n  dup3\n    /* \"#utility.yul\":3801:3822   */\n  or\n    /* \"#utility.yul\":3793:3822   */\n  swap1\n  pop\n    /* \"#utility.yul\":3533:3828   */\n  swap3\n  swap2\n  pop\n  pop\n  jump\t// out\n    /* \"#utility.yul\":3833:5228   */\ntag_6:\n    /* \"#utility.yul\":3950:3987   */\n  tag_77\n    /* \"#utility.yul\":3983:3986   */\n  dup3\n    /* \"#utility.yul\":3950:3987   */\n  tag_10\n  jump\t// in\ntag_77:\n    /* \"#utility.yul\":4052:4070   */\n  0xffffffffffffffff\n    /* \"#utility.yul\":4044:4050   */\n  dup2\n    /* \"#utility.yul\":4041:4071   */\n  gt\n    /* \"#utility.yul\":4038:4094   */\n  iszero\n  tag_78\n  jumpi\n    /* \"#utility.yul\":4074:4092   */\n  tag_79\n  tag_11\n  jump\t// in\ntag_79:\n    /* \"#utility.yul\":4038:4094   */\ntag_78:\n    /* \"#utility.yul\":4118:4156   */\n  tag_80\n    /* \"#utility.yul\":4150:4154   */\n  dup3\n    /* \"#utility.yul\":4144:4155   */\n  sload\n    /* \"#utility.yul\":4118:4156   */\n  tag_13\n  jump\t// in\ntag_80:\n    /* \"#utility.yul\":4203:4270   */\n  tag_81\n    /* \"#utility.yul\":4263:4269   */\n  dup3\n    /* \"#utility.yul\":4255:4261   */\n  dup3\n    /* \"#utility.yul\":4249:4253   */\n  dup6\n    /* \"#utility.yul\":4203:4270   */\n  tag_26\n  jump\t// in\ntag_81:\n    /* \"#utility.yul\":4297:4298   */\n  0x00\n    /* \"#utility.yul\":4321:4325   */\n  0x20\n    /* \"#utility.yul\":4308:4325   */\n  swap1\n  pop\n    /* \"#utility.yul\":4353:4355   */\n  0x1f\n    /* \"#utility.yul\":4345:4351   */\n  dup4\n    /* \"#utility.yul\":4342:4356   */\n  gt\n    /* \"#utility.yul\":4370:4371   */\n  0x01\n    /* \"#utility.yul\":4365:4983   */\n  dup2\n  eq\n  tag_83\n  jumpi\n    /* \"#utility.yul\":5027:5028   */\n  0x00\n    /* \"#utility.yul\":5044:5050   */\n  dup5\n    /* \"#utility.yul\":5041:5118   */\n  iszero\n  tag_84\n  jumpi\n    /* \"#utility.yul\":5093:5102   */\n  dup3\n    /* \"#utility.yul\":5088:5091   */\n  dup8\n    /* \"#utility.yul\":5084:5103   */\n  add\n    /* \"#utility.yul\":5078:5104   */\n  mload\n    /* \"#utility.yul\":5069:5104   */\n  swap1\n  pop\n    /* \"#utility.yul\":5041:5118   */\ntag_84:\n    /* \"#utility.yul\":5144:5211   */\n  tag_85\n    /* \"#utility.yul\":5204:5210   */\n  dup6\n    /* \"#utility.yul\":5197:5202   */\n  dup3\n    /* \"#utility.yul\":5144:5211   */\n  tag_29\n  jump\t// in\ntag_85:\n    /* \"#utility.yul\":5138:5142   */\n  dup7\n    /* \"#utility.yul\":5131:5212   */\n  sstore\n    /* \"#utility.yul\":5000:5222   */\n  pop\n    /* \"#utility.yul\":4335:5222   */\n  jump(tag_82)\n    /* \"#utility.yul\":4365:4983   */\ntag_83:\n    /* \"#utility.yul\":4417:4421   */\n  0x1f\n    /* \"#utility.yul\":4413:4422   */\n  not\n    /* \"#utility.yul\":4405:4411   */\n  dup5\n    /* \"#utility.yul\":4401:4423   */\n  and\n    /* \"#utility.yul\":4451:4488   */\n  tag_86\n    /* \"#utility.yul\":4483:4487   */\n  dup7\n    /* \"#utility.yul\":4451:4488   */\n  tag_14\n  jump\t// in\ntag_86:\n    /* \"#utility.yul\":4510:4511   */\n  0x00\n    /* \"#utility.yul\":4524:4732   */\ntag_87:\n    /* \"#utility.yul\":4538:4545   */\n  dup3\n    /* \"#utility.yul\":4535:4536   */\n  dup2\n    /* \"#utility.yul\":4532:4546   */\n  lt\n    /* \"#utility.yul\":4524:4732   */\n  iszero\n  tag_89\n  jumpi\n    /* \"#utility.yul\":4617:4626   */\n  dup5\n    /* \"#utility.yul\":4612:4615   */\n  dup10\n    /* \"#utility.yul\":4608:4627   */\n  add\n    /* \"#utility.yul\":4602:4628   */\n  mload\n    /* \"#utility.yul\":4594:4600   */\n  dup3\n    /* \"#utility.yul\":4587:4629   */\n  sstore\n    /* \"#utility.yul\":4668:4669   */\n  0x01\n    /* \"#utility.yul\":4660:4666   */\n  dup3\n    /* \"#utility.yul\":4656:4670   */\n  add\n    /* \"#utility.yul\":4646:4670   */\n  swap2\n  pop\n    /* \"#utility.yul\":4715:4717   */\n  0x20\n    /* \"#utility.yul\":4704:4713   */\n  dup6\n    /* \"#utility.yul\":4700:4718   */\n  add\n    /* \"#utility.yul\":4687:4718   */\n  swap5\n  pop\n    /* \"#utility.yul\":4561:4565   */\n  0x20\n    /* \"#utility.yul\":4558:4559   */\n  dup2\n    /* \"#utility.yul\":4554:4566   */\n  add\n    /* \"#utility.yul\":4549:4566   */\n  swap1\n  pop\n    /* \"#utility.yul\":4524:4732   */\n  jump(tag_87)\ntag_89:\n    /* \"#utility.yul\":4760:4766   */\n  dup7\n    /* \"#utility.yul\":4751:4758   */\n  dup4\n    /* \"#utility.yul\":4748:4767   */\n  lt\n    /* \"#utility.yul\":4745:4924   */\n  iszero\n  tag_90\n  jumpi\n    /* \"#utility.yul\":4818:4827   */\n  dup5\n    /* \"#utility.yul\":4813:4816   */\n  dup10\n    /* \"#utility.yul\":4809:4828   */\n  add\n    /* \"#utility.yul\":4803:4829   */\n  mload\n    /* \"#utility.yul\":4861:4909   */\n  tag_91\n    /* \"#utility.yul\":4903:4907   */\n  0x1f\n    /* \"#utility.yul\":4895:4901   */\n  dup10\n    /* \"#utility.yul\":4891:4908   */\n  and\n    /* \"#utility.yul\":4880:4889   */\n  dup3\n    /* \"#utility.yul\":4861:4909   */\n  tag_28\n  jump\t// in\ntag_91:\n    /* \"#utility.yul\":4853:4859   */\n  dup4\n    /* \"#utility.yul\":4846:4910   */\n  sstore\n    /* \"#utility.yul\":4768:4924   */\n  pop\n    /* \"#utility.yul\":4745:4924   */\ntag_90:\n    /* \"#utility.yul\":4970:4971   */\n  0x01\n    /* \"#utility.yul\":4966:4967   */\n  0x02\n    /* \"#utility.yul\":4958:4964   */\n  dup9\n    /* \"#utility.yul\":4954:4968   */\n  mul\n    /* \"#utility.yul\":4950:4972   */\n  add\n    /* \"#utility.yul\":4944:4948   */\n  dup9\n    /* \"#utility.yul\":4937:4973   */\n  sstore\n    /* \"#utility.yul\":4372:4983   */\n  pop\n  pop\n  pop\n    /* \"#utility.yul\":4335:5222   */\ntag_82:\n  pop\n    /* \"#utility.yul\":3925:5228   */\n  pop\n  pop\n  pop\n    /* \"#utility.yul\":3833:5228   */\n  pop\n  pop\n  jump\t// out\n    /* \"contracts/ERC20.sol\":173:2092  contract MonopolyToken is ERC20 {... */\ntag_9:\n  dataSize(sub_0)\n  dup1\n  dataOffset(sub_0)\n  0x00\n  codecopy\n  0x00\n  return\nstop\n\nsub_0: assembly {\n        /* \"contracts/ERC20.sol\":173:2092  contract MonopolyToken is ERC20 {... */\n      mstore(0x40, 0x80)\n      callvalue\n      dup1\n      iszero\n      tag_1\n      jumpi\n      0x00\n      dup1\n      revert\n    tag_1:\n      pop\n      jumpi(tag_2, lt(calldatasize, 0x04))\n      shr(0xe0, calldataload(0x00))\n      dup1\n      0x6afaa3f2\n      gt\n      tag_21\n      jumpi\n      dup1\n      0xa457c2d7\n      gt\n      tag_22\n      jumpi\n      dup1\n      0xa457c2d7\n      eq\n      tag_16\n      jumpi\n      dup1\n      0xa9059cbb\n      eq\n      tag_17\n      jumpi\n      dup1\n      0xbc86ff25\n      eq\n      tag_18\n      jumpi\n      dup1\n      0xdd62ed3e\n      eq\n      tag_19\n      jumpi\n      dup1\n      0xed6e67c7\n      eq\n      tag_20\n      jumpi\n      jump(tag_2)\n    tag_22:\n      dup1\n      0x6afaa3f2\n      eq\n      tag_12\n      jumpi\n      dup1\n      0x70a08231\n      eq\n      tag_13\n      jumpi\n      dup1\n      0x95d89b41\n      eq\n      tag_14\n      jumpi\n      dup1\n      0x9a49c085\n      eq\n      tag_15\n      jumpi\n      jump(tag_2)\n    tag_21:\n      dup1\n      0x290ffea8\n      gt\n      tag_23\n      jumpi\n      dup1\n      0x290ffea8\n      eq\n      tag_7\n      jumpi\n      dup1\n      0x313ce567\n      eq\n      tag_8\n      jumpi\n      dup1\n      0x38ebb13d\n      eq\n      tag_9\n      jumpi\n      dup1\n      0x39509351\n      eq\n      tag_10\n      jumpi\n      dup1\n      0x46b01a70\n      eq\n      tag_11\n      jumpi\n      jump(tag_2)\n    tag_23:\n      dup1\n      0x06fdde03\n      eq\n      tag_3\n      jumpi\n      dup1\n      0x095ea7b3\n      eq\n      tag_4\n      jumpi\n      dup1\n      0x18160ddd\n      eq\n      tag_5\n      jumpi\n      dup1\n      0x23b872dd\n      eq\n      tag_6\n      jumpi\n    tag_2:\n      0x00\n      dup1\n      revert\n        /* \"https://github.com/OpenZeppelin/openzeppelin-contracts/blob/v4.7.3/contracts/token/ERC20/ERC20.sol\":2156:2254  function name() public view virtual override returns (string memory) {... */\n    tag_3:\n      tag_24\n      tag_25\n      jump\t// in\n    tag_24:\n      mload(0x40)\n      tag_26\n      swap2\n      swap1\n      tag_27\n      jump\t// in\n    tag_26:\n      mload(0x40)\n      dup1\n      swap2\n      sub\n      swap1\n      return\n        /* \"https://github.com/OpenZeppelin/openzeppelin-contracts/blob/v4.7.3/contracts/token/ERC20/ERC20.sol\":4433:4630  function approve(address spender, uint256 amount) public virtual override returns (bool) {... */\n    tag_4:\n      tag_28\n      0x04\n      dup1\n      calldatasize\n      sub\n      dup2\n      add\n      swap1\n      tag_29\n      swap2\n      swap1\n      tag_30\n      jump\t// in\n    tag_29:\n      tag_31\n      jump\t// in\n    tag_28:\n      mload(0x40)\n      tag_32\n      swap2\n      swap1\n      tag_33\n      jump\t// in\n    tag_32:\n      mload(0x40)\n      dup1\n      swap2\n      sub\n      swap1\n      return\n        /* \"https://github.com/OpenZeppelin/openzeppelin-contracts/blob/v4.7.3/contracts/token/ERC20/ERC20.sol\":3244:3350  function totalSupply() public view virtual override returns (uint256) {... */\n    tag_5:\n      tag_34\n      tag_35\n      jump\t// in\n    tag_34:\n      mload(0x40)\n      tag_36\n      swap2\n      swap1\n      tag_37\n      jump\t// in\n    tag_36:\n      mload(0x40)\n      dup1\n      swap2\n      sub\n      swap1\n      return\n        /* \"https://github.com/OpenZeppelin/openzeppelin-contracts/blob/v4.7.3/contracts/token/ERC20/ERC20.sol\":5192:5478  function transferFrom(... */\n    tag_6:\n      tag_38\n      0x04\n      dup1\n      calldatasize\n      sub\n      dup2\n      add\n      swap1\n      tag_39\n      swap2\n      swap1\n      tag_40\n      jump\t// in\n    tag_39:\n      tag_41\n      jump\t// in\n    tag_38:\n      mload(0x40)\n      tag_42\n      swap2\n      swap1\n      tag_33\n      jump\t// in\n    tag_42:\n      mload(0x40)\n      dup1\n      swap2\n      sub\n      swap1\n      return\n        /* \"contracts/ERC20.sol\":1541:1744  function transferToPlayer(uint boardId, address from, address to, uint amount) external {... */\n    tag_7:\n      tag_43\n      0x04\n      dup1\n      calldatasize\n      sub\n      dup2\n      add\n      swap1\n      tag_44\n      swap2\n      swap1\n      tag_45\n      jump\t// in\n    tag_44:\n      tag_46\n      jump\t// in\n    tag_43:\n      stop\n        /* \"https://github.com/OpenZeppelin/openzeppelin-contracts/blob/v4.7.3/contracts/token/ERC20/ERC20.sol\":3093:3184  function decimals() public view virtual override returns (uint8) {... */\n    tag_8:\n      tag_47\n      tag_48\n      jump\t// in\n    tag_47:\n      mload(0x40)\n      tag_49\n      swap2\n      swap1\n      tag_50\n      jump\t// in\n    tag_49:\n      mload(0x40)\n      dup1\n      swap2\n      sub\n      swap1\n      return\n        /* \"contracts/ERC20.sol\":511:806  function createGameBoard(uint boardId, address bankAddress) external {... */\n    tag_9:\n      tag_51\n      0x04\n      dup1\n      calldatasize\n      sub\n      dup2\n      add\n      swap1\n      tag_52\n      swap2\n      swap1\n      tag_53\n      jump\t// in\n    tag_52:\n      tag_54\n      jump\t// in\n    tag_51:\n      stop\n        /* \"https://github.com/OpenZeppelin/openzeppelin-contracts/blob/v4.7.3/contracts/token/ERC20/ERC20.sol\":5873:6107  function increaseAllowance(address spender, uint256 addedValue) public virtual returns (bool) {... */\n    tag_10:\n      tag_55\n      0x04\n      dup1\n      calldatasize\n      sub\n      dup2\n      add\n      swap1\n      tag_56\n      swap2\n      swap1\n      tag_30\n      jump\t// in\n    tag_56:\n      tag_57\n      jump\t// in\n    tag_55:\n      mload(0x40)\n      tag_58\n      swap2\n      swap1\n      tag_33\n      jump\t// in\n    tag_58:\n      mload(0x40)\n      dup1\n      swap2\n      sub\n      swap1\n      return\n        /* \"contracts/ERC20.sol\":1808:2089  function burnBankrupt(uint boardId, address player) external {... */\n    tag_11:\n      tag_59\n      0x04\n      dup1\n      calldatasize\n      sub\n      dup2\n      add\n      swap1\n      tag_60\n      swap2\n      swap1\n      tag_53\n      jump\t// in\n    tag_60:\n      tag_61\n      jump\t// in\n    tag_59:\n      stop\n        /* \"contracts/ERC20.sol\":212:253  mapping(uint => address) public boardBank */\n    tag_12:\n      tag_62\n      0x04\n      dup1\n      calldatasize\n      sub\n      dup2\n      add\n      swap1\n      tag_63\n      swap2\n      swap1\n      tag_64\n      jump\t// in\n    tag_63:\n      tag_65\n      jump\t// in\n    tag_62:\n      mload(0x40)\n      tag_66\n      swap2\n      swap1\n      tag_67\n      jump\t// in\n    tag_66:\n      mload(0x40)\n      dup1\n      swap2\n      sub\n      swap1\n      return\n        /* \"https://github.com/OpenZeppelin/openzeppelin-contracts/blob/v4.7.3/contracts/token/ERC20/ERC20.sol\":3408:3533  function balanceOf(address account) public view virtual override returns (uint256) {... */\n    tag_13:\n      tag_68\n      0x04\n      dup1\n      calldatasize\n      sub\n      dup2\n      add\n      swap1\n      tag_69\n      swap2\n      swap1\n      tag_70\n      jump\t// in\n    tag_69:\n      tag_71\n      jump\t// in\n    tag_68:\n      mload(0x40)\n      tag_72\n      swap2\n      swap1\n      tag_37\n      jump\t// in\n    tag_72:\n      mload(0x40)\n      dup1\n      swap2\n      sub\n      swap1\n      return\n        /* \"https://github.com/OpenZeppelin/openzeppelin-contracts/blob/v4.7.3/contracts/token/ERC20/ERC20.sol\":2367:2469  function symbol() public view virtual override returns (string memory) {... */\n    tag_14:\n      tag_73\n      tag_74\n      jump\t// in\n    tag_73:\n      mload(0x40)\n      tag_75\n      swap2\n      swap1\n      tag_27\n      jump\t// in\n    tag_75:\n      mload(0x40)\n      dup1\n      swap2\n      sub\n      swap1\n      return\n        /* \"contracts/ERC20.sol\":1271:1476  function transferToBank(uint boardId, address from, uint amount) external {... */\n    tag_15:\n      tag_76\n      0x04\n      dup1\n      calldatasize\n      sub\n      dup2\n      add\n      swap1\n      tag_77\n      swap2\n      swap1\n      tag_78\n      jump\t// in\n    tag_77:\n      tag_79\n      jump\t// in\n    tag_76:\n      stop\n        /* \"https://github.com/OpenZeppelin/openzeppelin-contracts/blob/v4.7.3/contracts/token/ERC20/ERC20.sol\":6594:7021  function decreaseAllowance(address spender, uint256 subtractedValue) public virtual returns (bool) {... */\n    tag_16:\n      tag_80\n      0x04\n      dup1\n      calldatasize\n      sub\n      dup2\n      add\n      swap1\n      tag_81\n      swap2\n      swap1\n      tag_30\n      jump\t// in\n    tag_81:\n      tag_82\n      jump\t// in\n    tag_80:\n      mload(0x40)\n      tag_83\n      swap2\n      swap1\n      tag_33\n      jump\t// in\n    tag_83:\n      mload(0x40)\n      dup1\n      swap2\n      sub\n      swap1\n      return\n        /* \"https://github.com/OpenZeppelin/openzeppelin-contracts/blob/v4.7.3/contracts/token/ERC20/ERC20.sol\":3729:3918  function transfer(address to, uint256 amount) public virtual override returns (bool) {... */\n    tag_17:\n      tag_84\n      0x04\n      dup1\n      calldatasize\n      sub\n      dup2\n      add\n      swap1\n      tag_85\n      swap2\n      swap1\n      tag_30\n      jump\t// in\n    tag_85:\n      tag_86\n      jump\t// in\n    tag_84:\n      mload(0x40)\n      tag_87\n      swap2\n      swap1\n      tag_33\n      jump\t// in\n    tag_87:\n      mload(0x40)\n      dup1\n      swap2\n      sub\n      swap1\n      return\n        /* \"contracts/ERC20.sol\":886:1196  function mintToPlayers(uint boardId, address[] memory players) external {... */\n    tag_18:\n      tag_88\n      0x04\n      dup1\n      calldatasize\n      sub\n      dup2\n      add\n      swap1\n      tag_89\n      swap2\n      swap1\n      tag_90\n      jump\t// in\n    tag_89:\n      tag_91\n      jump\t// in\n    tag_88:\n      stop\n        /* \"https://github.com/OpenZeppelin/openzeppelin-contracts/blob/v4.7.3/contracts/token/ERC20/ERC20.sol\":3976:4125  function allowance(address owner, address spender) public view virtual override returns (uint256) {... */\n    tag_19:\n      tag_92\n      0x04\n      dup1\n      calldatasize\n      sub\n      dup2\n      add\n      swap1\n      tag_93\n      swap2\n      swap1\n      tag_94\n      jump\t// in\n    tag_93:\n      tag_95\n      jump\t// in\n    tag_92:\n      mload(0x40)\n      tag_96\n      swap2\n      swap1\n      tag_37\n      jump\t// in\n    tag_96:\n      mload(0x40)\n      dup1\n      swap2\n      sub\n      swap1\n      return\n        /* \"contracts/ERC20.sol\":297:341  uint public initialMoney = 1500 * (10 ** 18) */\n    tag_20:\n      tag_97\n      tag_98\n      jump\t// in\n    tag_97:\n      mload(0x40)\n      tag_99\n      swap2\n      swap1\n      tag_37\n      jump\t// in\n    tag_99:\n      mload(0x40)\n      dup1\n      swap2\n      sub\n      swap1\n      return\n        /* \"https://github.com/OpenZeppelin/openzeppelin-contracts/blob/v4.7.3/contracts/token/ERC20/ERC20.sol\":2156:2254  function name() public view virtual override returns (string memory) {... */\n    tag_25:\n        /* \"https://github.com/OpenZeppelin/openzeppelin-contracts/blob/v4.7.3/contracts/token/ERC20/ERC20.sol\":2210:2223  string memory */\n      0x60\n        /* \"https://github.com/OpenZeppelin/openzeppelin-contracts/blob/v4.7.3/contracts/token/ERC20/ERC20.sol\":2242:2247  _name */\n      0x03\n        /* \"https://github.com/OpenZeppelin/openzeppelin-contracts/blob/v4.7.3/contracts/token/ERC20/ERC20.sol\":2235:2247  return _name */\n      dup1\n      sload\n      tag_101\n      swap1\n      tag_102\n      jump\t// in\n    tag_101:\n      dup1\n      0x1f\n      add\n      0x20\n      dup1\n      swap2\n      div\n      mul\n      0x20\n      add\n      mload(0x40)\n      swap1\n      dup2\n      add\n      0x40\n      mstore\n      dup1\n      swap3\n      swap2\n      swap1\n      dup2\n      dup2\n      mstore\n      0x20\n      add\n      dup3\n      dup1\n      sload\n      tag_103\n      swap1\n      tag_102\n      jump\t// in\n    tag_103:\n      dup1\n      iszero\n      tag_104\n      jumpi\n      dup1\n      0x1f\n      lt\n      tag_105\n      jumpi\n      0x0100\n      dup1\n      dup4\n      sload\n      div\n      mul\n      dup4\n      mstore\n      swap2\n      0x20\n      add\n      swap2\n      jump(tag_104)\n    tag_105:\n      dup3\n      add\n      swap2\n      swap1\n      0x00\n      mstore\n      keccak256(0x00, 0x20)\n      swap1\n    tag_106:\n      dup2\n      sload\n      dup2\n      mstore\n      swap1\n      0x01\n      add\n      swap1\n      0x20\n      add\n      dup1\n      dup4\n      gt\n      tag_106\n      jumpi\n      dup3\n      swap1\n      sub\n      0x1f\n      and\n      dup3\n      add\n      swap2\n    tag_104:\n      pop\n      pop\n      pop\n      pop\n      pop\n      swap1\n      pop\n        /* \"https://github.com/OpenZeppelin/openzeppelin-contracts/blob/v4.7.3/contracts/token/ERC20/ERC20.sol\":2156:2254  function name() public view virtual override returns (string memory) {... */\n      swap1\n      jump\t// out\n        /* \"https://github.com/OpenZeppelin/openzeppelin-contracts/blob/v4.7.3/contracts/token/ERC20/ERC20.sol\":4433:4630  function approve(address spender, uint256 amount) public virtual override returns (bool) {... */\n    tag_31:\n        /* \"https://github.com/OpenZeppelin/openzeppelin-contracts/blob/v4.7.3/contracts/token/ERC20/ERC20.sol\":4516:4520  bool */\n      0x00\n        /* \"https://github.com/OpenZeppelin/openzeppelin-contracts/blob/v4.7.3/contracts/token/ERC20/ERC20.sol\":4532:4545  address owner */\n      dup1\n        /* \"https://github.com/OpenZeppelin/openzeppelin-contracts/blob/v4.7.3/contracts/token/ERC20/ERC20.sol\":4548:4560  _msgSender() */\n      tag_108\n        /* \"https://github.com/OpenZeppelin/openzeppelin-contracts/blob/v4.7.3/contracts/token/ERC20/ERC20.sol\":4548:4558  _msgSender */\n      tag_109\n        /* \"https://github.com/OpenZeppelin/openzeppelin-contracts/blob/v4.7.3/contracts/token/ERC20/ERC20.sol\":4548:4560  _msgSender() */\n      jump\t// in\n    tag_108:\n        /* \"https://github.com/OpenZeppelin/openzeppelin-contracts/blob/v4.7.3/contracts/token/ERC20/ERC20.sol\":4532:4560  address owner = _msgSender() */\n      swap1\n      pop\n        /* \"https://github.com/OpenZeppelin/openzeppelin-contracts/blob/v4.7.3/contracts/token/ERC20/ERC20.sol\":4570:4602  _approve(owner, spender, amount) */\n      tag_110\n        /* \"https://github.com/OpenZeppelin/openzeppelin-contracts/blob/v4.7.3/contracts/token/ERC20/ERC20.sol\":4579:4584  owner */\n      dup2\n        /* \"https://github.com/OpenZeppelin/openzeppelin-contracts/blob/v4.7.3/contracts/token/ERC20/ERC20.sol\":4586:4593  spender */\n      dup6\n        /* \"https://github.com/OpenZeppelin/openzeppelin-contracts/blob/v4.7.3/contracts/token/ERC20/ERC20.sol\":4595:4601  amount */\n      dup6\n        /* \"https://github.com/OpenZeppelin/openzeppelin-contracts/blob/v4.7.3/contracts/token/ERC20/ERC20.sol\":4570:4578  _approve */\n      tag_111\n        /* \"https://github.com/OpenZeppelin/openzeppelin-contracts/blob/v4.7.3/contracts/token/ERC20/ERC20.sol\":4570:4602  _approve(owner, spender, amount) */\n      jump\t// in\n    tag_110:\n        /* \"https://github.com/OpenZeppelin/openzeppelin-contracts/blob/v4.7.3/contracts/token/ERC20/ERC20.sol\":4619:4623  true */\n      0x01\n        /* \"https://github.com/OpenZeppelin/openzeppelin-contracts/blob/v4.7.3/contracts/token/ERC20/ERC20.sol\":4612:4623  return true */\n      swap2\n      pop\n      pop\n        /* \"https://github.com/OpenZeppelin/openzeppelin-contracts/blob/v4.7.3/contracts/token/ERC20/ERC20.sol\":4433:4630  function approve(address spender, uint256 amount) public virtual override returns (bool) {... */\n      swap3\n      swap2\n      pop\n      pop\n      jump\t// out\n        /* \"https://github.com/OpenZeppelin/openzeppelin-contracts/blob/v4.7.3/contracts/token/ERC20/ERC20.sol\":3244:3350  function totalSupply() public view virtual override returns (uint256) {... */\n    tag_35:\n        /* \"https://github.com/OpenZeppelin/openzeppelin-contracts/blob/v4.7.3/contracts/token/ERC20/ERC20.sol\":3305:3312  uint256 */\n      0x00\n        /* \"https://github.com/OpenZeppelin/openzeppelin-contracts/blob/v4.7.3/contracts/token/ERC20/ERC20.sol\":3331:3343  _totalSupply */\n      sload(0x02)\n        /* \"https://github.com/OpenZeppelin/openzeppelin-contracts/blob/v4.7.3/contracts/token/ERC20/ERC20.sol\":3324:3343  return _totalSupply */\n      swap1\n      pop\n        /* \"https://github.com/OpenZeppelin/openzeppelin-contracts/blob/v4.7.3/contracts/token/ERC20/ERC20.sol\":3244:3350  function totalSupply() public view virtual override returns (uint256) {... */\n      swap1\n      jump\t// out\n        /* \"https://github.com/OpenZeppelin/openzeppelin-contracts/blob/v4.7.3/contracts/token/ERC20/ERC20.sol\":5192:5478  function transferFrom(... */\n    tag_41:\n        /* \"https://github.com/OpenZeppelin/openzeppelin-contracts/blob/v4.7.3/contracts/token/ERC20/ERC20.sol\":5319:5323  bool */\n      0x00\n        /* \"https://github.com/OpenZeppelin/openzeppelin-contracts/blob/v4.7.3/contracts/token/ERC20/ERC20.sol\":5335:5350  address spender */\n      dup1\n        /* \"https://github.com/OpenZeppelin/openzeppelin-contracts/blob/v4.7.3/contracts/token/ERC20/ERC20.sol\":5353:5365  _msgSender() */\n      tag_114\n        /* \"https://github.com/OpenZeppelin/openzeppelin-contracts/blob/v4.7.3/contracts/token/ERC20/ERC20.sol\":5353:5363  _msgSender */\n      tag_109\n        /* \"https://github.com/OpenZeppelin/openzeppelin-contracts/blob/v4.7.3/contracts/token/ERC20/ERC20.sol\":5353:5365  _msgSender() */\n      jump\t// in\n    tag_114:\n        /* \"https://github.com/OpenZeppelin/openzeppelin-contracts/blob/v4.7.3/contracts/token/ERC20/ERC20.sol\":5335:5365  address spender = _msgSender() */\n      swap1\n      pop\n        /* \"https://github.com/OpenZeppelin/openzeppelin-contracts/blob/v4.7.3/contracts/token/ERC20/ERC20.sol\":5375:5413  _spendAllowance(from, spender, amount) */\n      tag_115\n        /* \"https://github.com/OpenZeppelin/openzeppelin-contracts/blob/v4.7.3/contracts/token/ERC20/ERC20.sol\":5391:5395  from */\n      dup6\n        /* \"https://github.com/OpenZeppelin/openzeppelin-contracts/blob/v4.7.3/contracts/token/ERC20/ERC20.sol\":5397:5404  spender */\n      dup3\n        /* \"https://github.com/OpenZeppelin/openzeppelin-contracts/blob/v4.7.3/contracts/token/ERC20/ERC20.sol\":5406:5412  amount */\n      dup6\n        /* \"https://github.com/OpenZeppelin/openzeppelin-contracts/blob/v4.7.3/contracts/token/ERC20/ERC20.sol\":5375:5390  _spendAllowance */\n      tag_116\n        /* \"https://github.com/OpenZeppelin/openzeppelin-contracts/blob/v4.7.3/contracts/token/ERC20/ERC20.sol\":5375:5413  _spendAllowance(from, spender, amount) */\n      jump\t// in\n    tag_115:\n        /* \"https://github.com/OpenZeppelin/openzeppelin-contracts/blob/v4.7.3/contracts/token/ERC20/ERC20.sol\":5423:5450  _transfer(from, to, amount) */\n      tag_117\n        /* \"https://github.com/OpenZeppelin/openzeppelin-contracts/blob/v4.7.3/contracts/token/ERC20/ERC20.sol\":5433:5437  from */\n      dup6\n        /* \"https://github.com/OpenZeppelin/openzeppelin-contracts/blob/v4.7.3/contracts/token/ERC20/ERC20.sol\":5439:5441  to */\n      dup6\n        /* \"https://github.com/OpenZeppelin/openzeppelin-contracts/blob/v4.7.3/contracts/token/ERC20/ERC20.sol\":5443:5449  amount */\n      dup6\n        /* \"https://github.com/OpenZeppelin/openzeppelin-contracts/blob/v4.7.3/contracts/token/ERC20/ERC20.sol\":5423:5432  _transfer */\n      tag_118\n        /* \"https://github.com/OpenZeppelin/openzeppelin-contracts/blob/v4.7.3/contracts/token/ERC20/ERC20.sol\":5423:5450  _transfer(from, to, amount) */\n      jump\t// in\n    tag_117:\n        /* \"https://github.com/OpenZeppelin/openzeppelin-contracts/blob/v4.7.3/contracts/token/ERC20/ERC20.sol\":5467:5471  true */\n      0x01\n        /* \"https://github.com/OpenZeppelin/openzeppelin-contracts/blob/v4.7.3/contracts/token/ERC20/ERC20.sol\":5460:5471  return true */\n      swap2\n      pop\n      pop\n        /* \"https://github.com/OpenZeppelin/openzeppelin-contracts/blob/v4.7.3/contracts/token/ERC20/ERC20.sol\":5192:5478  function transferFrom(... */\n      swap4\n      swap3\n      pop\n      pop\n      pop\n      jump\t// out\n        /* \"contracts/ERC20.sol\":1541:1744  function transferToPlayer(uint boardId, address from, address to, uint amount) external {... */\n    tag_46:\n        /* \"contracts/ERC20.sol\":1678:1679  0 */\n      0x00\n        /* \"contracts/ERC20.sol\":1648:1680  boardBank[boardId] != address(0) */\n      0xffffffffffffffffffffffffffffffffffffffff\n      and\n        /* \"contracts/ERC20.sol\":1648:1657  boardBank */\n      0x05\n        /* \"contracts/ERC20.sol\":1648:1666  boardBank[boardId] */\n      0x00\n        /* \"contracts/ERC20.sol\":1658:1665  boardId */\n      dup7\n        /* \"contracts/ERC20.sol\":1648:1666  boardBank[boardId] */\n      dup2\n      mstore\n      0x20\n      add\n      swap1\n      dup2\n      mstore\n      0x20\n      add\n      0x00\n      keccak256\n      0x00\n      swap1\n      sload\n      swap1\n      0x0100\n      exp\n      swap1\n      div\n      0xffffffffffffffffffffffffffffffffffffffff\n      and\n        /* \"contracts/ERC20.sol\":1648:1680  boardBank[boardId] != address(0) */\n      0xffffffffffffffffffffffffffffffffffffffff\n      and\n      sub\n        /* \"contracts/ERC20.sol\":1640:1698  require(boardBank[boardId] != address(0), \"Invalid board\") */\n      tag_120\n      jumpi\n      mload(0x40)\n      0x08c379a000000000000000000000000000000000000000000000000000000000\n      dup2\n      mstore\n      0x04\n      add\n      tag_121\n      swap1\n      tag_122\n      jump\t// in\n    tag_121:\n      mload(0x40)\n      dup1\n      swap2\n      sub\n      swap1\n      revert\n    tag_120:\n        /* \"contracts/ERC20.sol\":1709:1736  _transfer(from, to, amount) */\n      tag_123\n        /* \"contracts/ERC20.sol\":1719:1723  from */\n      dup4\n        /* \"contracts/ERC20.sol\":1725:1727  to */\n      dup4\n        /* \"contracts/ERC20.sol\":1729:1735  amount */\n      dup4\n        /* \"contracts/ERC20.sol\":1709:1718  _transfer */\n      tag_118\n        /* \"contracts/ERC20.sol\":1709:1736  _transfer(from, to, amount) */\n      jump\t// in\n    tag_123:\n        /* \"contracts/ERC20.sol\":1541:1744  function transferToPlayer(uint boardId, address from, address to, uint amount) external {... */\n      pop\n      pop\n      pop\n      pop\n      jump\t// out\n        /* \"https://github.com/OpenZeppelin/openzeppelin-contracts/blob/v4.7.3/contracts/token/ERC20/ERC20.sol\":3093:3184  function decimals() public view virtual override returns (uint8) {... */\n    tag_48:\n        /* \"https://github.com/OpenZeppelin/openzeppelin-contracts/blob/v4.7.3/contracts/token/ERC20/ERC20.sol\":3151:3156  uint8 */\n      0x00\n        /* \"https://github.com/OpenZeppelin/openzeppelin-contracts/blob/v4.7.3/contracts/token/ERC20/ERC20.sol\":3175:3177  18 */\n      0x12\n        /* \"https://github.com/OpenZeppelin/openzeppelin-contracts/blob/v4.7.3/contracts/token/ERC20/ERC20.sol\":3168:3177  return 18 */\n      swap1\n      pop\n        /* \"https://github.com/OpenZeppelin/openzeppelin-contracts/blob/v4.7.3/contracts/token/ERC20/ERC20.sol\":3093:3184  function decimals() public view virtual override returns (uint8) {... */\n      swap1\n      jump\t// out\n        /* \"contracts/ERC20.sol\":511:806  function createGameBoard(uint boardId, address bankAddress) external {... */\n    tag_54:\n        /* \"contracts/ERC20.sol\":629:630  0 */\n      0x00\n        /* \"contracts/ERC20.sol\":599:631  boardBank[boardId] == address(0) */\n      0xffffffffffffffffffffffffffffffffffffffff\n      and\n        /* \"contracts/ERC20.sol\":599:608  boardBank */\n      0x05\n        /* \"contracts/ERC20.sol\":599:617  boardBank[boardId] */\n      0x00\n        /* \"contracts/ERC20.sol\":609:616  boardId */\n      dup5\n        /* \"contracts/ERC20.sol\":599:617  boardBank[boardId] */\n      dup2\n      mstore\n      0x20\n      add\n      swap1\n      dup2\n      mstore\n      0x20\n      add\n      0x00\n      keccak256\n      0x00\n      swap1\n      sload\n      swap1\n      0x0100\n      exp\n      swap1\n      div\n      0xffffffffffffffffffffffffffffffffffffffff\n      and\n        /* \"contracts/ERC20.sol\":599:631  boardBank[boardId] == address(0) */\n      0xffffffffffffffffffffffffffffffffffffffff\n      and\n      eq\n        /* \"contracts/ERC20.sol\":591:656  require(boardBank[boardId] == address(0), \"Board already exists\") */\n      tag_126\n      jumpi\n      mload(0x40)\n      0x08c379a000000000000000000000000000000000000000000000000000000000\n      dup2\n      mstore\n      0x04\n      add\n      tag_127\n      swap1\n      tag_128\n      jump\t// in\n    tag_127:\n      mload(0x40)\n      dup1\n      swap2\n      sub\n      swap1\n      revert\n    tag_126:\n        /* \"contracts/ERC20.sol\":688:699  bankAddress */\n      dup1\n        /* \"contracts/ERC20.sol\":667:676  boardBank */\n      0x05\n        /* \"contracts/ERC20.sol\":667:685  boardBank[boardId] */\n      0x00\n        /* \"contracts/ERC20.sol\":677:684  boardId */\n      dup5\n        /* \"contracts/ERC20.sol\":667:685  boardBank[boardId] */\n      dup2\n      mstore\n      0x20\n      add\n      swap1\n      dup2\n      mstore\n      0x20\n      add\n      0x00\n      keccak256\n      0x00\n        /* \"contracts/ERC20.sol\":667:699  boardBank[boardId] = bankAddress */\n      0x0100\n      exp\n      dup2\n      sload\n      dup2\n      0xffffffffffffffffffffffffffffffffffffffff\n      mul\n      not\n      and\n      swap1\n      dup4\n      0xffffffffffffffffffffffffffffffffffffffff\n      and\n      mul\n      or\n      swap1\n      sstore\n      pop\n        /* \"contracts/ERC20.sol\":710:750  _mint(bankAddress, 1000000 * (10 ** 18)) */\n      tag_129\n        /* \"contracts/ERC20.sol\":716:727  bankAddress */\n      dup2\n        /* \"contracts/ERC20.sol\":729:749  1000000 * (10 ** 18) */\n      0xd3c21bcecceda1000000\n        /* \"contracts/ERC20.sol\":710:715  _mint */\n      tag_130\n        /* \"contracts/ERC20.sol\":710:750  _mint(bankAddress, 1000000 * (10 ** 18)) */\n      jump\t// in\n    tag_129:\n        /* \"contracts/ERC20.sol\":511:806  function createGameBoard(uint boardId, address bankAddress) external {... */\n      pop\n      pop\n      jump\t// out\n        /* \"https://github.com/OpenZeppelin/openzeppelin-contracts/blob/v4.7.3/contracts/token/ERC20/ERC20.sol\":5873:6107  function increaseAllowance(address spender, uint256 addedValue) public virtual returns (bool) {... */\n    tag_57:\n        /* \"https://github.com/OpenZeppelin/openzeppelin-contracts/blob/v4.7.3/contracts/token/ERC20/ERC20.sol\":5961:5965  bool */\n      0x00\n        /* \"https://github.com/OpenZeppelin/openzeppelin-contracts/blob/v4.7.3/contracts/token/ERC20/ERC20.sol\":5977:5990  address owner */\n      dup1\n        /* \"https://github.com/OpenZeppelin/openzeppelin-contracts/blob/v4.7.3/contracts/token/ERC20/ERC20.sol\":5993:6005  _msgSender() */\n      tag_132\n        /* \"https://github.com/OpenZeppelin/openzeppelin-contracts/blob/v4.7.3/contracts/token/ERC20/ERC20.sol\":5993:6003  _msgSender */\n      tag_109\n        /* \"https://github.com/OpenZeppelin/openzeppelin-contracts/blob/v4.7.3/contracts/token/ERC20/ERC20.sol\":5993:6005  _msgSender() */\n      jump\t// in\n    tag_132:\n        /* \"https://github.com/OpenZeppelin/openzeppelin-contracts/blob/v4.7.3/contracts/token/ERC20/ERC20.sol\":5977:6005  address owner = _msgSender() */\n      swap1\n      pop\n        /* \"https://github.com/OpenZeppelin/openzeppelin-contracts/blob/v4.7.3/contracts/token/ERC20/ERC20.sol\":6015:6079  _approve(owner, spender, allowance(owner, spender) + addedValue) */\n      tag_133\n        /* \"https://github.com/OpenZeppelin/openzeppelin-contracts/blob/v4.7.3/contracts/token/ERC20/ERC20.sol\":6024:6029  owner */\n      dup2\n        /* \"https://github.com/OpenZeppelin/openzeppelin-contracts/blob/v4.7.3/contracts/token/ERC20/ERC20.sol\":6031:6038  spender */\n      dup6\n        /* \"https://github.com/OpenZeppelin/openzeppelin-contracts/blob/v4.7.3/contracts/token/ERC20/ERC20.sol\":6068:6078  addedValue */\n      dup6\n        /* \"https://github.com/OpenZeppelin/openzeppelin-contracts/blob/v4.7.3/contracts/token/ERC20/ERC20.sol\":6040:6065  allowance(owner, spender) */\n      tag_134\n        /* \"https://github.com/OpenZeppelin/openzeppelin-contracts/blob/v4.7.3/contracts/token/ERC20/ERC20.sol\":6050:6055  owner */\n      dup6\n        /* \"https://github.com/OpenZeppelin/openzeppelin-contracts/blob/v4.7.3/contracts/token/ERC20/ERC20.sol\":6057:6064  spender */\n      dup10\n        /* \"https://github.com/OpenZeppelin/openzeppelin-contracts/blob/v4.7.3/contracts/token/ERC20/ERC20.sol\":6040:6049  allowance */\n      tag_95\n        /* \"https://github.com/OpenZeppelin/openzeppelin-contracts/blob/v4.7.3/contracts/token/ERC20/ERC20.sol\":6040:6065  allowance(owner, spender) */\n      jump\t// in\n    tag_134:\n        /* \"https://github.com/OpenZeppelin/openzeppelin-contracts/blob/v4.7.3/contracts/token/ERC20/ERC20.sol\":6040:6078  allowance(owner, spender) + addedValue */\n      tag_135\n      swap2\n      swap1\n      tag_136\n      jump\t// in\n    tag_135:\n        /* \"https://github.com/OpenZeppelin/openzeppelin-contracts/blob/v4.7.3/contracts/token/ERC20/ERC20.sol\":6015:6023  _approve */\n      tag_111\n        /* \"https://github.com/OpenZeppelin/openzeppelin-contracts/blob/v4.7.3/contracts/token/ERC20/ERC20.sol\":6015:6079  _approve(owner, spender, allowance(owner, spender) + addedValue) */\n      jump\t// in\n    tag_133:\n        /* \"https://github.com/OpenZeppelin/openzeppelin-contracts/blob/v4.7.3/contracts/token/ERC20/ERC20.sol\":6096:6100  true */\n      0x01\n        /* \"https://github.com/OpenZeppelin/openzeppelin-contracts/blob/v4.7.3/contracts/token/ERC20/ERC20.sol\":6089:6100  return true */\n      swap2\n      pop\n      pop\n        /* \"https://github.com/OpenZeppelin/openzeppelin-contracts/blob/v4.7.3/contracts/token/ERC20/ERC20.sol\":5873:6107  function increaseAllowance(address spender, uint256 addedValue) public virtual returns (bool) {... */\n      swap3\n      swap2\n      pop\n      pop\n      jump\t// out\n        /* \"contracts/ERC20.sol\":1808:2089  function burnBankrupt(uint boardId, address player) external {... */\n    tag_61:\n        /* \"contracts/ERC20.sol\":1910:1920  msg.sender */\n      caller\n        /* \"contracts/ERC20.sol\":1888:1920  boardBank[boardId] == msg.sender */\n      0xffffffffffffffffffffffffffffffffffffffff\n      and\n        /* \"contracts/ERC20.sol\":1888:1897  boardBank */\n      0x05\n        /* \"contracts/ERC20.sol\":1888:1906  boardBank[boardId] */\n      0x00\n        /* \"contracts/ERC20.sol\":1898:1905  boardId */\n      dup5\n        /* \"contracts/ERC20.sol\":1888:1906  boardBank[boardId] */\n      dup2\n      mstore\n      0x20\n      add\n      swap1\n      dup2\n      mstore\n      0x20\n      add\n      0x00\n      keccak256\n      0x00\n      swap1\n      sload\n      swap1\n      0x0100\n      exp\n      swap1\n      div\n      0xffffffffffffffffffffffffffffffffffffffff\n      and\n        /* \"contracts/ERC20.sol\":1888:1920  boardBank[boardId] == msg.sender */\n      0xffffffffffffffffffffffffffffffffffffffff\n      and\n      eq\n        /* \"contracts/ERC20.sol\":1880:1962  require(boardBank[boardId] == msg.sender, \"Only the bank can burn bankrupt funds\") */\n      tag_138\n      jumpi\n      mload(0x40)\n      0x08c379a000000000000000000000000000000000000000000000000000000000\n      dup2\n      mstore\n      0x04\n      add\n      tag_139\n      swap1\n      tag_140\n      jump\t// in\n    tag_139:\n      mload(0x40)\n      dup1\n      swap2\n      sub\n      swap1\n      revert\n    tag_138:\n        /* \"contracts/ERC20.sol\":1973:1985  uint balance */\n      0x00\n        /* \"contracts/ERC20.sol\":1988:2005  balanceOf(player) */\n      tag_141\n        /* \"contracts/ERC20.sol\":1998:2004  player */\n      dup3\n        /* \"contracts/ERC20.sol\":1988:1997  balanceOf */\n      tag_71\n        /* \"contracts/ERC20.sol\":1988:2005  balanceOf(player) */\n      jump\t// in\n    tag_141:\n        /* \"contracts/ERC20.sol\":1973:2005  uint balance = balanceOf(player) */\n      swap1\n      pop\n        /* \"contracts/ERC20.sol\":2030:2031  0 */\n      0x00\n        /* \"contracts/ERC20.sol\":2020:2027  balance */\n      dup2\n        /* \"contracts/ERC20.sol\":2020:2031  balance > 0 */\n      gt\n        /* \"contracts/ERC20.sol\":2016:2082  if (balance > 0) {... */\n      iszero\n      tag_142\n      jumpi\n        /* \"contracts/ERC20.sol\":2048:2070  _burn(player, balance) */\n      tag_143\n        /* \"contracts/ERC20.sol\":2054:2060  player */\n      dup3\n        /* \"contracts/ERC20.sol\":2062:2069  balance */\n      dup3\n        /* \"contracts/ERC20.sol\":2048:2053  _burn */\n      tag_144\n        /* \"contracts/ERC20.sol\":2048:2070  _burn(player, balance) */\n      jump\t// in\n    tag_143:\n        /* \"contracts/ERC20.sol\":2016:2082  if (balance > 0) {... */\n    tag_142:\n        /* \"contracts/ERC20.sol\":1869:2089  {... */\n      pop\n        /* \"contracts/ERC20.sol\":1808:2089  function burnBankrupt(uint boardId, address player) external {... */\n      pop\n      pop\n      jump\t// out\n        /* \"contracts/ERC20.sol\":212:253  mapping(uint => address) public boardBank */\n    tag_65:\n      mstore(0x20, 0x05)\n      dup1\n      0x00\n      mstore\n      keccak256(0x00, 0x40)\n      0x00\n      swap2\n      pop\n      sload\n      swap1\n      0x0100\n      exp\n      swap1\n      div\n      0xffffffffffffffffffffffffffffffffffffffff\n      and\n      dup2\n      jump\t// out\n        /* \"https://github.com/OpenZeppelin/openzeppelin-contracts/blob/v4.7.3/contracts/token/ERC20/ERC20.sol\":3408:3533  function balanceOf(address account) public view virtual override returns (uint256) {... */\n    tag_71:\n        /* \"https://github.com/OpenZeppelin/openzeppelin-contracts/blob/v4.7.3/contracts/token/ERC20/ERC20.sol\":3482:3489  uint256 */\n      0x00\n        /* \"https://github.com/OpenZeppelin/openzeppelin-contracts/blob/v4.7.3/contracts/token/ERC20/ERC20.sol\":3508:3517  _balances */\n      dup1\n        /* \"https://github.com/OpenZeppelin/openzeppelin-contracts/blob/v4.7.3/contracts/token/ERC20/ERC20.sol\":3508:3526  _balances[account] */\n      0x00\n        /* \"https://github.com/OpenZeppelin/openzeppelin-contracts/blob/v4.7.3/contracts/token/ERC20/ERC20.sol\":3518:3525  account */\n      dup4\n        /* \"https://github.com/OpenZeppelin/openzeppelin-contracts/blob/v4.7.3/contracts/token/ERC20/ERC20.sol\":3508:3526  _balances[account] */\n      0xffffffffffffffffffffffffffffffffffffffff\n      and\n      0xffffffffffffffffffffffffffffffffffffffff\n      and\n      dup2\n      mstore\n      0x20\n      add\n      swap1\n      dup2\n      mstore\n      0x20\n      add\n      0x00\n      keccak256\n      sload\n        /* \"https://github.com/OpenZeppelin/openzeppelin-contracts/blob/v4.7.3/contracts/token/ERC20/ERC20.sol\":3501:3526  return _balances[account] */\n      swap1\n      pop\n        /* \"https://github.com/OpenZeppelin/openzeppelin-contracts/blob/v4.7.3/contracts/token/ERC20/ERC20.sol\":3408:3533  function balanceOf(address account) public view virtual override returns (uint256) {... */\n      swap2\n      swap1\n      pop\n      jump\t// out\n        /* \"https://github.com/OpenZeppelin/openzeppelin-contracts/blob/v4.7.3/contracts/token/ERC20/ERC20.sol\":2367:2469  function symbol() public view virtual override returns (string memory) {... */\n    tag_74:\n        /* \"https://github.com/OpenZeppelin/openzeppelin-contracts/blob/v4.7.3/contracts/token/ERC20/ERC20.sol\":2423:2436  string memory */\n      0x60\n        /* \"https://github.com/OpenZeppelin/openzeppelin-contracts/blob/v4.7.3/contracts/token/ERC20/ERC20.sol\":2455:2462  _symbol */\n      0x04\n        /* \"https://github.com/OpenZeppelin/openzeppelin-contracts/blob/v4.7.3/contracts/token/ERC20/ERC20.sol\":2448:2462  return _symbol */\n      dup1\n      sload\n      tag_147\n      swap1\n      tag_102\n      jump\t// in\n    tag_147:\n      dup1\n      0x1f\n      add\n      0x20\n      dup1\n      swap2\n      div\n      mul\n      0x20\n      add\n      mload(0x40)\n      swap1\n      dup2\n      add\n      0x40\n      mstore\n      dup1\n      swap3\n      swap2\n      swap1\n      dup2\n      dup2\n      mstore\n      0x20\n      add\n      dup3\n      dup1\n      sload\n      tag_148\n      swap1\n      tag_102\n      jump\t// in\n    tag_148:\n      dup1\n      iszero\n      tag_149\n      jumpi\n      dup1\n      0x1f\n      lt\n      tag_150\n      jumpi\n      0x0100\n      dup1\n      dup4\n      sload\n      div\n      mul\n      dup4\n      mstore\n      swap2\n      0x20\n      add\n      swap2\n      jump(tag_149)\n    tag_150:\n      dup3\n      add\n      swap2\n      swap1\n      0x00\n      mstore\n      keccak256(0x00, 0x20)\n      swap1\n    tag_151:\n      dup2\n      sload\n      dup2\n      mstore\n      swap1\n      0x01\n      add\n      swap1\n      0x20\n      add\n      dup1\n      dup4\n      gt\n      tag_151\n      jumpi\n      dup3\n      swap1\n      sub\n      0x1f\n      and\n      dup3\n      add\n      swap2\n    tag_149:\n      pop\n      pop\n      pop\n      pop\n      pop\n      swap1\n      pop\n        /* \"https://github.com/OpenZeppelin/openzeppelin-contracts/blob/v4.7.3/contracts/token/ERC20/ERC20.sol\":2367:2469  function symbol() public view virtual override returns (string memory) {... */\n      swap1\n      jump\t// out\n        /* \"contracts/ERC20.sol\":1271:1476  function transferToBank(uint boardId, address from, uint amount) external {... */\n    tag_79:\n        /* \"contracts/ERC20.sol\":1394:1395  0 */\n      0x00\n        /* \"contracts/ERC20.sol\":1364:1396  boardBank[boardId] != address(0) */\n      0xffffffffffffffffffffffffffffffffffffffff\n      and\n        /* \"contracts/ERC20.sol\":1364:1373  boardBank */\n      0x05\n        /* \"contracts/ERC20.sol\":1364:1382  boardBank[boardId] */\n      0x00\n        /* \"contracts/ERC20.sol\":1374:1381  boardId */\n      dup6\n        /* \"contracts/ERC20.sol\":1364:1382  boardBank[boardId] */\n      dup2\n      mstore\n      0x20\n      add\n      swap1\n      dup2\n      mstore\n      0x20\n      add\n      0x00\n      keccak256\n      0x00\n      swap1\n      sload\n      swap1\n      0x0100\n      exp\n      swap1\n      div\n      0xffffffffffffffffffffffffffffffffffffffff\n      and\n        /* \"contracts/ERC20.sol\":1364:1396  boardBank[boardId] != address(0) */\n      0xffffffffffffffffffffffffffffffffffffffff\n      and\n      sub\n        /* \"contracts/ERC20.sol\":1356:1414  require(boardBank[boardId] != address(0), \"Invalid board\") */\n      tag_153\n      jumpi\n      mload(0x40)\n      0x08c379a000000000000000000000000000000000000000000000000000000000\n      dup2\n      mstore\n      0x04\n      add\n      tag_154\n      swap1\n      tag_122\n      jump\t// in\n    tag_154:\n      mload(0x40)\n      dup1\n      swap2\n      sub\n      swap1\n      revert\n    tag_153:\n        /* \"contracts/ERC20.sol\":1425:1468  _transfer(from, boardBank[boardId], amount) */\n      tag_155\n        /* \"contracts/ERC20.sol\":1435:1439  from */\n      dup3\n        /* \"contracts/ERC20.sol\":1441:1450  boardBank */\n      0x05\n        /* \"contracts/ERC20.sol\":1441:1459  boardBank[boardId] */\n      0x00\n        /* \"contracts/ERC20.sol\":1451:1458  boardId */\n      dup7\n        /* \"contracts/ERC20.sol\":1441:1459  boardBank[boardId] */\n      dup2\n      mstore\n      0x20\n      add\n      swap1\n      dup2\n      mstore\n      0x20\n      add\n      0x00\n      keccak256\n      0x00\n      swap1\n      sload\n      swap1\n      0x0100\n      exp\n      swap1\n      div\n      0xffffffffffffffffffffffffffffffffffffffff\n      and\n        /* \"contracts/ERC20.sol\":1461:1467  amount */\n      dup4\n        /* \"contracts/ERC20.sol\":1425:1434  _transfer */\n      tag_118\n        /* \"contracts/ERC20.sol\":1425:1468  _transfer(from, boardBank[boardId], amount) */\n      jump\t// in\n    tag_155:\n        /* \"contracts/ERC20.sol\":1271:1476  function transferToBank(uint boardId, address from, uint amount) external {... */\n      pop\n      pop\n      pop\n      jump\t// out\n        /* \"https://github.com/OpenZeppelin/openzeppelin-contracts/blob/v4.7.3/contracts/token/ERC20/ERC20.sol\":6594:7021  function decreaseAllowance(address spender, uint256 subtractedValue) public virtual returns (bool) {... */\n    tag_82:\n        /* \"https://github.com/OpenZeppelin/openzeppelin-contracts/blob/v4.7.3/contracts/token/ERC20/ERC20.sol\":6687:6691  bool */\n      0x00\n        /* \"https://github.com/OpenZeppelin/openzeppelin-contracts/blob/v4.7.3/contracts/token/ERC20/ERC20.sol\":6703:6716  address owner */\n      dup1\n        /* \"https://github.com/OpenZeppelin/openzeppelin-contracts/blob/v4.7.3/contracts/token/ERC20/ERC20.sol\":6719:6731  _msgSender() */\n      tag_157\n        /* \"https://github.com/OpenZeppelin/openzeppelin-contracts/blob/v4.7.3/contracts/token/ERC20/ERC20.sol\":6719:6729  _msgSender */\n      tag_109\n        /* \"https://github.com/OpenZeppelin/openzeppelin-contracts/blob/v4.7.3/contracts/token/ERC20/ERC20.sol\":6719:6731  _msgSender() */\n      jump\t// in\n    tag_157:\n        /* \"https://github.com/OpenZeppelin/openzeppelin-contracts/blob/v4.7.3/contracts/token/ERC20/ERC20.sol\":6703:6731  address owner = _msgSender() */\n      swap1\n      pop\n        /* \"https://github.com/OpenZeppelin/openzeppelin-contracts/blob/v4.7.3/contracts/token/ERC20/ERC20.sol\":6741:6765  uint256 currentAllowance */\n      0x00\n        /* \"https://github.com/OpenZeppelin/openzeppelin-contracts/blob/v4.7.3/contracts/token/ERC20/ERC20.sol\":6768:6793  allowance(owner, spender) */\n      tag_158\n        /* \"https://github.com/OpenZeppelin/openzeppelin-contracts/blob/v4.7.3/contracts/token/ERC20/ERC20.sol\":6778:6783  owner */\n      dup3\n        /* \"https://github.com/OpenZeppelin/openzeppelin-contracts/blob/v4.7.3/contracts/token/ERC20/ERC20.sol\":6785:6792  spender */\n      dup7\n        /* \"https://github.com/OpenZeppelin/openzeppelin-contracts/blob/v4.7.3/contracts/token/ERC20/ERC20.sol\":6768:6777  allowance */\n      tag_95\n        /* \"https://github.com/OpenZeppelin/openzeppelin-contracts/blob/v4.7.3/contracts/token/ERC20/ERC20.sol\":6768:6793  allowance(owner, spender) */\n      jump\t// in\n    tag_158:\n        /* \"https://github.com/OpenZeppelin/openzeppelin-contracts/blob/v4.7.3/contracts/token/ERC20/ERC20.sol\":6741:6793  uint256 currentAllowance = allowance(owner, spender) */\n      swap1\n      pop\n        /* \"https://github.com/OpenZeppelin/openzeppelin-contracts/blob/v4.7.3/contracts/token/ERC20/ERC20.sol\":6831:6846  subtractedValue */\n      dup4\n        /* \"https://github.com/OpenZeppelin/openzeppelin-contracts/blob/v4.7.3/contracts/token/ERC20/ERC20.sol\":6811:6827  currentAllowance */\n      dup2\n        /* \"https://github.com/OpenZeppelin/openzeppelin-contracts/blob/v4.7.3/contracts/token/ERC20/ERC20.sol\":6811:6846  currentAllowance >= subtractedValue */\n      lt\n      iszero\n        /* \"https://github.com/OpenZeppelin/openzeppelin-contracts/blob/v4.7.3/contracts/token/ERC20/ERC20.sol\":6803:6888  require(currentAllowance >= subtractedValue, \"ERC20: decreased allowance below zero\") */\n      tag_159\n      jumpi\n      mload(0x40)\n      0x08c379a000000000000000000000000000000000000000000000000000000000\n      dup2\n      mstore\n      0x04\n      add\n      tag_160\n      swap1\n      tag_161\n      jump\t// in\n    tag_160:\n      mload(0x40)\n      dup1\n      swap2\n      sub\n      swap1\n      revert\n    tag_159:\n        /* \"https://github.com/OpenZeppelin/openzeppelin-contracts/blob/v4.7.3/contracts/token/ERC20/ERC20.sol\":6922:6982  _approve(owner, spender, currentAllowance - subtractedValue) */\n      tag_162\n        /* \"https://github.com/OpenZeppelin/openzeppelin-contracts/blob/v4.7.3/contracts/token/ERC20/ERC20.sol\":6931:6936  owner */\n      dup3\n        /* \"https://github.com/OpenZeppelin/openzeppelin-contracts/blob/v4.7.3/contracts/token/ERC20/ERC20.sol\":6938:6945  spender */\n      dup7\n        /* \"https://github.com/OpenZeppelin/openzeppelin-contracts/blob/v4.7.3/contracts/token/ERC20/ERC20.sol\":6966:6981  subtractedValue */\n      dup7\n        /* \"https://github.com/OpenZeppelin/openzeppelin-contracts/blob/v4.7.3/contracts/token/ERC20/ERC20.sol\":6947:6963  currentAllowance */\n      dup5\n        /* \"https://github.com/OpenZeppelin/openzeppelin-contracts/blob/v4.7.3/contracts/token/ERC20/ERC20.sol\":6947:6981  currentAllowance - subtractedValue */\n      sub\n        /* \"https://github.com/OpenZeppelin/openzeppelin-contracts/blob/v4.7.3/contracts/token/ERC20/ERC20.sol\":6922:6930  _approve */\n      tag_111\n        /* \"https://github.com/OpenZeppelin/openzeppelin-contracts/blob/v4.7.3/contracts/token/ERC20/ERC20.sol\":6922:6982  _approve(owner, spender, currentAllowance - subtractedValue) */\n      jump\t// in\n    tag_162:\n        /* \"https://github.com/OpenZeppelin/openzeppelin-contracts/blob/v4.7.3/contracts/token/ERC20/ERC20.sol\":7010:7014  true */\n      0x01\n        /* \"https://github.com/OpenZeppelin/openzeppelin-contracts/blob/v4.7.3/contracts/token/ERC20/ERC20.sol\":7003:7014  return true */\n      swap3\n      pop\n      pop\n      pop\n        /* \"https://github.com/OpenZeppelin/openzeppelin-contracts/blob/v4.7.3/contracts/token/ERC20/ERC20.sol\":6594:7021  function decreaseAllowance(address spender, uint256 subtractedValue) public virtual returns (bool) {... */\n      swap3\n      swap2\n      pop\n      pop\n      jump\t// out\n        /* \"https://github.com/OpenZeppelin/openzeppelin-contracts/blob/v4.7.3/contracts/token/ERC20/ERC20.sol\":3729:3918  function transfer(address to, uint256 amount) public virtual override returns (bool) {... */\n    tag_86:\n        /* \"https://github.com/OpenZeppelin/openzeppelin-contracts/blob/v4.7.3/contracts/token/ERC20/ERC20.sol\":3808:3812  bool */\n      0x00\n        /* \"https://github.com/OpenZeppelin/openzeppelin-contracts/blob/v4.7.3/contracts/token/ERC20/ERC20.sol\":3824:3837  address owner */\n      dup1\n        /* \"https://github.com/OpenZeppelin/openzeppelin-contracts/blob/v4.7.3/contracts/token/ERC20/ERC20.sol\":3840:3852  _msgSender() */\n      tag_164\n        /* \"https://github.com/OpenZeppelin/openzeppelin-contracts/blob/v4.7.3/contracts/token/ERC20/ERC20.sol\":3840:3850  _msgSender */\n      tag_109\n        /* \"https://github.com/OpenZeppelin/openzeppelin-contracts/blob/v4.7.3/contracts/token/ERC20/ERC20.sol\":3840:3852  _msgSender() */\n      jump\t// in\n    tag_164:\n        /* \"https://github.com/OpenZeppelin/openzeppelin-contracts/blob/v4.7.3/contracts/token/ERC20/ERC20.sol\":3824:3852  address owner = _msgSender() */\n      swap1\n      pop\n        /* \"https://github.com/OpenZeppelin/openzeppelin-contracts/blob/v4.7.3/contracts/token/ERC20/ERC20.sol\":3862:3890  _transfer(owner, to, amount) */\n      tag_165\n        /* \"https://github.com/OpenZeppelin/openzeppelin-contracts/blob/v4.7.3/contracts/token/ERC20/ERC20.sol\":3872:3877  owner */\n      dup2\n        /* \"https://github.com/OpenZeppelin/openzeppelin-contracts/blob/v4.7.3/contracts/token/ERC20/ERC20.sol\":3879:3881  to */\n      dup6\n        /* \"https://github.com/OpenZeppelin/openzeppelin-contracts/blob/v4.7.3/contracts/token/ERC20/ERC20.sol\":3883:3889  amount */\n      dup6\n        /* \"https://github.com/OpenZeppelin/openzeppelin-contracts/blob/v4.7.3/contracts/token/ERC20/ERC20.sol\":3862:3871  _transfer */\n      tag_118\n        /* \"https://github.com/OpenZeppelin/openzeppelin-contracts/blob/v4.7.3/contracts/token/ERC20/ERC20.sol\":3862:3890  _transfer(owner, to, amount) */\n      jump\t// in\n    tag_165:\n        /* \"https://github.com/OpenZeppelin/openzeppelin-contracts/blob/v4.7.3/contracts/token/ERC20/ERC20.sol\":3907:3911  true */\n      0x01\n        /* \"https://github.com/OpenZeppelin/openzeppelin-contracts/blob/v4.7.3/contracts/token/ERC20/ERC20.sol\":3900:3911  return true */\n      swap2\n      pop\n      pop\n        /* \"https://github.com/OpenZeppelin/openzeppelin-contracts/blob/v4.7.3/contracts/token/ERC20/ERC20.sol\":3729:3918  function transfer(address to, uint256 amount) public virtual override returns (bool) {... */\n      swap3\n      swap2\n      pop\n      pop\n      jump\t// out\n        /* \"contracts/ERC20.sol\":886:1196  function mintToPlayers(uint boardId, address[] memory players) external {... */\n    tag_91:\n        /* \"contracts/ERC20.sol\":999:1009  msg.sender */\n      caller\n        /* \"contracts/ERC20.sol\":977:1009  boardBank[boardId] == msg.sender */\n      0xffffffffffffffffffffffffffffffffffffffff\n      and\n        /* \"contracts/ERC20.sol\":977:986  boardBank */\n      0x05\n        /* \"contracts/ERC20.sol\":977:995  boardBank[boardId] */\n      0x00\n        /* \"contracts/ERC20.sol\":987:994  boardId */\n      dup5\n        /* \"contracts/ERC20.sol\":977:995  boardBank[boardId] */\n      dup2\n      mstore\n      0x20\n      add\n      swap1\n      dup2\n      mstore\n      0x20\n      add\n      0x00\n      keccak256\n      0x00\n      swap1\n      sload\n      swap1\n      0x0100\n      exp\n      swap1\n      div\n      0xffffffffffffffffffffffffffffffffffffffff\n      and\n        /* \"contracts/ERC20.sol\":977:1009  boardBank[boardId] == msg.sender */\n      0xffffffffffffffffffffffffffffffffffffffff\n      and\n      eq\n        /* \"contracts/ERC20.sol\":969:1054  require(boardBank[boardId] == msg.sender, \"Only the board bank can distribute money\") */\n      tag_167\n      jumpi\n      mload(0x40)\n      0x08c379a000000000000000000000000000000000000000000000000000000000\n      dup2\n      mstore\n      0x04\n      add\n      tag_168\n      swap1\n      tag_169\n      jump\t// in\n    tag_168:\n      mload(0x40)\n      dup1\n      swap2\n      sub\n      swap1\n      revert\n    tag_167:\n        /* \"contracts/ERC20.sol\":1070:1076  uint i */\n      0x00\n        /* \"contracts/ERC20.sol\":1065:1189  for (uint i = 0; i < players.length; i++) {... */\n    tag_170:\n        /* \"contracts/ERC20.sol\":1086:1093  players */\n      dup2\n        /* \"contracts/ERC20.sol\":1086:1100  players.length */\n      mload\n        /* \"contracts/ERC20.sol\":1082:1083  i */\n      dup2\n        /* \"contracts/ERC20.sol\":1082:1100  i < players.length */\n      lt\n        /* \"contracts/ERC20.sol\":1065:1189  for (uint i = 0; i < players.length; i++) {... */\n      iszero\n      tag_171\n      jumpi\n        /* \"contracts/ERC20.sol\":1122:1177  _transfer(boardBank[boardId], players[i], initialMoney) */\n      tag_173\n        /* \"contracts/ERC20.sol\":1132:1141  boardBank */\n      0x05\n        /* \"contracts/ERC20.sol\":1132:1150  boardBank[boardId] */\n      0x00\n        /* \"contracts/ERC20.sol\":1142:1149  boardId */\n      dup6\n        /* \"contracts/ERC20.sol\":1132:1150  boardBank[boardId] */\n      dup2\n      mstore\n      0x20\n      add\n      swap1\n      dup2\n      mstore\n      0x20\n      add\n      0x00\n      keccak256\n      0x00\n      swap1\n      sload\n      swap1\n      0x0100\n      exp\n      swap1\n      div\n      0xffffffffffffffffffffffffffffffffffffffff\n      and\n        /* \"contracts/ERC20.sol\":1152:1159  players */\n      dup4\n        /* \"contracts/ERC20.sol\":1160:1161  i */\n      dup4\n        /* \"contracts/ERC20.sol\":1152:1162  players[i] */\n      dup2\n      mload\n      dup2\n      lt\n      tag_174\n      jumpi\n      tag_175\n      tag_176\n      jump\t// in\n    tag_175:\n    tag_174:\n      0x20\n      mul\n      0x20\n      add\n      add\n      mload\n        /* \"contracts/ERC20.sol\":1164:1176  initialMoney */\n      sload(0x06)\n        /* \"contracts/ERC20.sol\":1122:1131  _transfer */\n      tag_118\n        /* \"contracts/ERC20.sol\":1122:1177  _transfer(boardBank[boardId], players[i], initialMoney) */\n      jump\t// in\n    tag_173:\n        /* \"contracts/ERC20.sol\":1102:1105  i++ */\n      dup1\n      dup1\n      0x01\n      add\n      swap2\n      pop\n      pop\n        /* \"contracts/ERC20.sol\":1065:1189  for (uint i = 0; i < players.length; i++) {... */\n      jump(tag_170)\n    tag_171:\n      pop\n        /* \"contracts/ERC20.sol\":886:1196  function mintToPlayers(uint boardId, address[] memory players) external {... */\n      pop\n      pop\n      jump\t// out\n        /* \"https://github.com/OpenZeppelin/openzeppelin-contracts/blob/v4.7.3/contracts/token/ERC20/ERC20.sol\":3976:4125  function allowance(address owner, address spender) public view virtual override returns (uint256) {... */\n    tag_95:\n        /* \"https://github.com/OpenZeppelin/openzeppelin-contracts/blob/v4.7.3/contracts/token/ERC20/ERC20.sol\":4065:4072  uint256 */\n      0x00\n        /* \"https://github.com/OpenZeppelin/openzeppelin-contracts/blob/v4.7.3/contracts/token/ERC20/ERC20.sol\":4091:4102  _allowances */\n      0x01\n        /* \"https://github.com/OpenZeppelin/openzeppelin-contracts/blob/v4.7.3/contracts/token/ERC20/ERC20.sol\":4091:4109  _allowances[owner] */\n      0x00\n        /* \"https://github.com/OpenZeppelin/openzeppelin-contracts/blob/v4.7.3/contracts/token/ERC20/ERC20.sol\":4103:4108  owner */\n      dup5\n        /* \"https://github.com/OpenZeppelin/openzeppelin-contracts/blob/v4.7.3/contracts/token/ERC20/ERC20.sol\":4091:4109  _allowances[owner] */\n      0xffffffffffffffffffffffffffffffffffffffff\n      and\n      0xffffffffffffffffffffffffffffffffffffffff\n      and\n      dup2\n      mstore\n      0x20\n      add\n      swap1\n      dup2\n      mstore\n      0x20\n      add\n      0x00\n      keccak256\n        /* \"https://github.com/OpenZeppelin/openzeppelin-contracts/blob/v4.7.3/contracts/token/ERC20/ERC20.sol\":4091:4118  _allowances[owner][spender] */\n      0x00\n        /* \"https://github.com/OpenZeppelin/openzeppelin-contracts/blob/v4.7.3/contracts/token/ERC20/ERC20.sol\":4110:4117  spender */\n      dup4\n        /* \"https://github.com/OpenZeppelin/openzeppelin-contracts/blob/v4.7.3/contracts/token/ERC20/ERC20.sol\":4091:4118  _allowances[owner][spender] */\n      0xffffffffffffffffffffffffffffffffffffffff\n      and\n      0xffffffffffffffffffffffffffffffffffffffff\n      and\n      dup2\n      mstore\n      0x20\n      add\n      swap1\n      dup2\n      mstore\n      0x20\n      add\n      0x00\n      keccak256\n      sload\n        /* \"https://github.com/OpenZeppelin/openzeppelin-contracts/blob/v4.7.3/contracts/token/ERC20/ERC20.sol\":4084:4118  return _allowances[owner][spender] */\n      swap1\n      pop\n        /* \"https://github.com/OpenZeppelin/openzeppelin-contracts/blob/v4.7.3/contracts/token/ERC20/ERC20.sol\":3976:4125  function allowance(address owner, address spender) public view virtual override returns (uint256) {... */\n      swap3\n      swap2\n      pop\n      pop\n      jump\t// out\n        /* \"contracts/ERC20.sol\":297:341  uint public initialMoney = 1500 * (10 ** 18) */\n    tag_98:\n      sload(0x06)\n      dup2\n      jump\t// out\n        /* \"https://github.com/OpenZeppelin/openzeppelin-contracts/blob/v4.7.3/contracts/utils/Context.sol\":640:736  function _msgSender() internal view virtual returns (address) {... */\n    tag_109:\n        /* \"https://github.com/OpenZeppelin/openzeppelin-contracts/blob/v4.7.3/contracts/utils/Context.sol\":693:700  address */\n      0x00\n        /* \"https://github.com/OpenZeppelin/openzeppelin-contracts/blob/v4.7.3/contracts/utils/Context.sol\":719:729  msg.sender */\n      caller\n        /* \"https://github.com/OpenZeppelin/openzeppelin-contracts/blob/v4.7.3/contracts/utils/Context.sol\":712:729  return msg.sender */\n      swap1\n      pop\n        /* \"https://github.com/OpenZeppelin/openzeppelin-contracts/blob/v4.7.3/contracts/utils/Context.sol\":640:736  function _msgSender() internal view virtual returns (address) {... */\n      swap1\n      jump\t// out\n        /* \"https://github.com/OpenZeppelin/openzeppelin-contracts/blob/v4.7.3/contracts/token/ERC20/ERC20.sol\":10110:10480  function _approve(... */\n    tag_111:\n        /* \"https://github.com/OpenZeppelin/openzeppelin-contracts/blob/v4.7.3/contracts/token/ERC20/ERC20.sol\":10258:10259  0 */\n      0x00\n        /* \"https://github.com/OpenZeppelin/openzeppelin-contracts/blob/v4.7.3/contracts/token/ERC20/ERC20.sol\":10241:10260  owner != address(0) */\n      0xffffffffffffffffffffffffffffffffffffffff\n      and\n        /* \"https://github.com/OpenZeppelin/openzeppelin-contracts/blob/v4.7.3/contracts/token/ERC20/ERC20.sol\":10241:10246  owner */\n      dup4\n        /* \"https://github.com/OpenZeppelin/openzeppelin-contracts/blob/v4.7.3/contracts/token/ERC20/ERC20.sol\":10241:10260  owner != address(0) */\n      0xffffffffffffffffffffffffffffffffffffffff\n      and\n      sub\n        /* \"https://github.com/OpenZeppelin/openzeppelin-contracts/blob/v4.7.3/contracts/token/ERC20/ERC20.sol\":10233:10301  require(owner != address(0), \"ERC20: approve from the zero address\") */\n      tag_180\n      jumpi\n      mload(0x40)\n      0x08c379a000000000000000000000000000000000000000000000000000000000\n      dup2\n      mstore\n      0x04\n      add\n      tag_181\n      swap1\n      tag_182\n      jump\t// in\n    tag_181:\n      mload(0x40)\n      dup1\n      swap2\n      sub\n      swap1\n      revert\n    tag_180:\n        /* \"https://github.com/OpenZeppelin/openzeppelin-contracts/blob/v4.7.3/contracts/token/ERC20/ERC20.sol\":10338:10339  0 */\n      0x00\n        /* \"https://github.com/OpenZeppelin/openzeppelin-contracts/blob/v4.7.3/contracts/token/ERC20/ERC20.sol\":10319:10340  spender != address(0) */\n      0xffffffffffffffffffffffffffffffffffffffff\n      and\n        /* \"https://github.com/OpenZeppelin/openzeppelin-contracts/blob/v4.7.3/contracts/token/ERC20/ERC20.sol\":10319:10326  spender */\n      dup3\n        /* \"https://github.com/OpenZeppelin/openzeppelin-contracts/blob/v4.7.3/contracts/token/ERC20/ERC20.sol\":10319:10340  spender != address(0) */\n      0xffffffffffffffffffffffffffffffffffffffff\n      and\n      sub\n        /* \"https://github.com/OpenZeppelin/openzeppelin-contracts/blob/v4.7.3/contracts/token/ERC20/ERC20.sol\":10311:10379  require(spender != address(0), \"ERC20: approve to the zero address\") */\n      tag_183\n      jumpi\n      mload(0x40)\n      0x08c379a000000000000000000000000000000000000000000000000000000000\n      dup2\n      mstore\n      0x04\n      add\n      tag_184\n      swap1\n      tag_185\n      jump\t// in\n    tag_184:\n      mload(0x40)\n      dup1\n      swap2\n      sub\n      swap1\n      revert\n    tag_183:\n        /* \"https://github.com/OpenZeppelin/openzeppelin-contracts/blob/v4.7.3/contracts/token/ERC20/ERC20.sol\":10420:10426  amount */\n      dup1\n        /* \"https://github.com/OpenZeppelin/openzeppelin-contracts/blob/v4.7.3/contracts/token/ERC20/ERC20.sol\":10390:10401  _allowances */\n      0x01\n        /* \"https://github.com/OpenZeppelin/openzeppelin-contracts/blob/v4.7.3/contracts/token/ERC20/ERC20.sol\":10390:10408  _allowances[owner] */\n      0x00\n        /* \"https://github.com/OpenZeppelin/openzeppelin-contracts/blob/v4.7.3/contracts/token/ERC20/ERC20.sol\":10402:10407  owner */\n      dup6\n        /* \"https://github.com/OpenZeppelin/openzeppelin-contracts/blob/v4.7.3/contracts/token/ERC20/ERC20.sol\":10390:10408  _allowances[owner] */\n      0xffffffffffffffffffffffffffffffffffffffff\n      and\n      0xffffffffffffffffffffffffffffffffffffffff\n      and\n      dup2\n      mstore\n      0x20\n      add\n      swap1\n      dup2\n      mstore\n      0x20\n      add\n      0x00\n      keccak256\n        /* \"https://github.com/OpenZeppelin/openzeppelin-contracts/blob/v4.7.3/contracts/token/ERC20/ERC20.sol\":10390:10417  _allowances[owner][spender] */\n      0x00\n        /* \"https://github.com/OpenZeppelin/openzeppelin-contracts/blob/v4.7.3/contracts/token/ERC20/ERC20.sol\":10409:10416  spender */\n      dup5\n        /* \"https://github.com/OpenZeppelin/openzeppelin-contracts/blob/v4.7.3/contracts/token/ERC20/ERC20.sol\":10390:10417  _allowances[owner][spender] */\n      0xffffffffffffffffffffffffffffffffffffffff\n      and\n      0xffffffffffffffffffffffffffffffffffffffff\n      and\n      dup2\n      mstore\n      0x20\n      add\n      swap1\n      dup2\n      mstore\n      0x20\n      add\n      0x00\n      keccak256\n        /* \"https://github.com/OpenZeppelin/openzeppelin-contracts/blob/v4.7.3/contracts/token/ERC20/ERC20.sol\":10390:10426  _allowances[owner][spender] = amount */\n      dup2\n      swap1\n      sstore\n      pop\n        /* \"https://github.com/OpenZeppelin/openzeppelin-contracts/blob/v4.7.3/contracts/token/ERC20/ERC20.sol\":10457:10464  spender */\n      dup2\n        /* \"https://github.com/OpenZeppelin/openzeppelin-contracts/blob/v4.7.3/contracts/token/ERC20/ERC20.sol\":10441:10473  Approval(owner, spender, amount) */\n      0xffffffffffffffffffffffffffffffffffffffff\n      and\n        /* \"https://github.com/OpenZeppelin/openzeppelin-contracts/blob/v4.7.3/contracts/token/ERC20/ERC20.sol\":10450:10455  owner */\n      dup4\n        /* \"https://github.com/OpenZeppelin/openzeppelin-contracts/blob/v4.7.3/contracts/token/ERC20/ERC20.sol\":10441:10473  Approval(owner, spender, amount) */\n      0xffffffffffffffffffffffffffffffffffffffff\n      and\n      0x8c5be1e5ebec7d5bd14f71427d1e84f3dd0314c0f7b2291e5b200ac8c7c3b925\n        /* \"https://github.com/OpenZeppelin/openzeppelin-contracts/blob/v4.7.3/contracts/token/ERC20/ERC20.sol\":10466:10472  amount */\n      dup4\n        /* \"https://github.com/OpenZeppelin/openzeppelin-contracts/blob/v4.7.3/contracts/token/ERC20/ERC20.sol\":10441:10473  Approval(owner, spender, amount) */\n      mload(0x40)\n      tag_186\n      swap2\n      swap1\n      tag_37\n      jump\t// in\n    tag_186:\n      mload(0x40)\n      dup1\n      swap2\n      sub\n      swap1\n      log3\n        /* \"https://github.com/OpenZeppelin/openzeppelin-contracts/blob/v4.7.3/contracts/token/ERC20/ERC20.sol\":10110:10480  function _approve(... */\n      pop\n      pop\n      pop\n      jump\t// out\n        /* \"https://github.com/OpenZeppelin/openzeppelin-contracts/blob/v4.7.3/contracts/token/ERC20/ERC20.sol\":10761:11202  function _spendAllowance(... */\n    tag_116:\n        /* \"https://github.com/OpenZeppelin/openzeppelin-contracts/blob/v4.7.3/contracts/token/ERC20/ERC20.sol\":10891:10915  uint256 currentAllowance */\n      0x00\n        /* \"https://github.com/OpenZeppelin/openzeppelin-contracts/blob/v4.7.3/contracts/token/ERC20/ERC20.sol\":10918:10943  allowance(owner, spender) */\n      tag_188\n        /* \"https://github.com/OpenZeppelin/openzeppelin-contracts/blob/v4.7.3/contracts/token/ERC20/ERC20.sol\":10928:10933  owner */\n      dup5\n        /* \"https://github.com/OpenZeppelin/openzeppelin-contracts/blob/v4.7.3/contracts/token/ERC20/ERC20.sol\":10935:10942  spender */\n      dup5\n        /* \"https://github.com/OpenZeppelin/openzeppelin-contracts/blob/v4.7.3/contracts/token/ERC20/ERC20.sol\":10918:10927  allowance */\n      tag_95\n        /* \"https://github.com/OpenZeppelin/openzeppelin-contracts/blob/v4.7.3/contracts/token/ERC20/ERC20.sol\":10918:10943  allowance(owner, spender) */\n      jump\t// in\n    tag_188:\n        /* \"https://github.com/OpenZeppelin/openzeppelin-contracts/blob/v4.7.3/contracts/token/ERC20/ERC20.sol\":10891:10943  uint256 currentAllowance = allowance(owner, spender) */\n      swap1\n      pop\n        /* \"https://github.com/OpenZeppelin/openzeppelin-contracts/blob/v4.7.3/contracts/token/ERC20/ERC20.sol\":10977:10994  type(uint256).max */\n      0xffffffffffffffffffffffffffffffffffffffffffffffffffffffffffffffff\n        /* \"https://github.com/OpenZeppelin/openzeppelin-contracts/blob/v4.7.3/contracts/token/ERC20/ERC20.sol\":10957:10973  currentAllowance */\n      dup2\n        /* \"https://github.com/OpenZeppelin/openzeppelin-contracts/blob/v4.7.3/contracts/token/ERC20/ERC20.sol\":10957:10994  currentAllowance != type(uint256).max */\n      eq\n        /* \"https://github.com/OpenZeppelin/openzeppelin-contracts/blob/v4.7.3/contracts/token/ERC20/ERC20.sol\":10953:11196  if (currentAllowance != type(uint256).max) {... */\n      tag_189\n      jumpi\n        /* \"https://github.com/OpenZeppelin/openzeppelin-contracts/blob/v4.7.3/contracts/token/ERC20/ERC20.sol\":11038:11044  amount */\n      dup2\n        /* \"https://github.com/OpenZeppelin/openzeppelin-contracts/blob/v4.7.3/contracts/token/ERC20/ERC20.sol\":11018:11034  currentAllowance */\n      dup2\n        /* \"https://github.com/OpenZeppelin/openzeppelin-contracts/blob/v4.7.3/contracts/token/ERC20/ERC20.sol\":11018:11044  currentAllowance >= amount */\n      lt\n      iszero\n        /* \"https://github.com/OpenZeppelin/openzeppelin-contracts/blob/v4.7.3/contracts/token/ERC20/ERC20.sol\":11010:11078  require(currentAllowance >= amount, \"ERC20: insufficient allowance\") */\n      tag_190\n      jumpi\n      mload(0x40)\n      0x08c379a000000000000000000000000000000000000000000000000000000000\n      dup2\n      mstore\n      0x04\n      add\n      tag_191\n      swap1\n      tag_192\n      jump\t// in\n    tag_191:\n      mload(0x40)\n      dup1\n      swap2\n      sub\n      swap1\n      revert\n    tag_190:\n        /* \"https://github.com/OpenZeppelin/openzeppelin-contracts/blob/v4.7.3/contracts/token/ERC20/ERC20.sol\":11120:11171  _approve(owner, spender, currentAllowance - amount) */\n      tag_193\n        /* \"https://github.com/OpenZeppelin/openzeppelin-contracts/blob/v4.7.3/contracts/token/ERC20/ERC20.sol\":11129:11134  owner */\n      dup5\n        /* \"https://github.com/OpenZeppelin/openzeppelin-contracts/blob/v4.7.3/contracts/token/ERC20/ERC20.sol\":11136:11143  spender */\n      dup5\n        /* \"https://github.com/OpenZeppelin/openzeppelin-contracts/blob/v4.7.3/contracts/token/ERC20/ERC20.sol\":11164:11170  amount */\n      dup5\n        /* \"https://github.com/OpenZeppelin/openzeppelin-contracts/blob/v4.7.3/contracts/token/ERC20/ERC20.sol\":11145:11161  currentAllowance */\n      dup5\n        /* \"https://github.com/OpenZeppelin/openzeppelin-contracts/blob/v4.7.3/contracts/token/ERC20/ERC20.sol\":11145:11170  currentAllowance - amount */\n      sub\n        /* \"https://github.com/OpenZeppelin/openzeppelin-contracts/blob/v4.7.3/contracts/token/ERC20/ERC20.sol\":11120:11128  _approve */\n      tag_111\n        /* \"https://github.com/OpenZeppelin/openzeppelin-contracts/blob/v4.7.3/contracts/token/ERC20/ERC20.sol\":11120:11171  _approve(owner, spender, currentAllowance - amount) */\n      jump\t// in\n    tag_193:\n        /* \"https://github.com/OpenZeppelin/openzeppelin-contracts/blob/v4.7.3/contracts/token/ERC20/ERC20.sol\":10953:11196  if (currentAllowance != type(uint256).max) {... */\n    tag_189:\n        /* \"https://github.com/OpenZeppelin/openzeppelin-contracts/blob/v4.7.3/contracts/token/ERC20/ERC20.sol\":10881:11202  {... */\n      pop\n        /* \"https://github.com/OpenZeppelin/openzeppelin-contracts/blob/v4.7.3/contracts/token/ERC20/ERC20.sol\":10761:11202  function _spendAllowance(... */\n      pop\n      pop\n      pop\n      jump\t// out\n        /* \"https://github.com/OpenZeppelin/openzeppelin-contracts/blob/v4.7.3/contracts/token/ERC20/ERC20.sol\":7475:8126  function _transfer(... */\n    tag_118:\n        /* \"https://github.com/OpenZeppelin/openzeppelin-contracts/blob/v4.7.3/contracts/token/ERC20/ERC20.sol\":7617:7618  0 */\n      0x00\n        /* \"https://github.com/OpenZeppelin/openzeppelin-contracts/blob/v4.7.3/contracts/token/ERC20/ERC20.sol\":7601:7619  from != address(0) */\n      0xffffffffffffffffffffffffffffffffffffffff\n      and\n        /* \"https://github.com/OpenZeppelin/openzeppelin-contracts/blob/v4.7.3/contracts/token/ERC20/ERC20.sol\":7601:7605  from */\n      dup4\n        /* \"https://github.com/OpenZeppelin/openzeppelin-contracts/blob/v4.7.3/contracts/token/ERC20/ERC20.sol\":7601:7619  from != address(0) */\n      0xffffffffffffffffffffffffffffffffffffffff\n      and\n      sub\n        /* \"https://github.com/OpenZeppelin/openzeppelin-contracts/blob/v4.7.3/contracts/token/ERC20/ERC20.sol\":7593:7661  require(from != address(0), \"ERC20: transfer from the zero address\") */\n      tag_195\n      jumpi\n      mload(0x40)\n      0x08c379a000000000000000000000000000000000000000000000000000000000\n      dup2\n      mstore\n      0x04\n      add\n      tag_196\n      swap1\n      tag_197\n      jump\t// in\n    tag_196:\n      mload(0x40)\n      dup1\n      swap2\n      sub\n      swap1\n      revert\n    tag_195:\n        /* \"https://github.com/OpenZeppelin/openzeppelin-contracts/blob/v4.7.3/contracts/token/ERC20/ERC20.sol\":7693:7694  0 */\n      0x00\n        /* \"https://github.com/OpenZeppelin/openzeppelin-contracts/blob/v4.7.3/contracts/token/ERC20/ERC20.sol\":7679:7695  to != address(0) */\n      0xffffffffffffffffffffffffffffffffffffffff\n      and\n        /* \"https://github.com/OpenZeppelin/openzeppelin-contracts/blob/v4.7.3/contracts/token/ERC20/ERC20.sol\":7679:7681  to */\n      dup3\n        /* \"https://github.com/OpenZeppelin/openzeppelin-contracts/blob/v4.7.3/contracts/token/ERC20/ERC20.sol\":7679:7695  to != address(0) */\n      0xffffffffffffffffffffffffffffffffffffffff\n      and\n      sub\n        /* \"https://github.com/OpenZeppelin/openzeppelin-contracts/blob/v4.7.3/contracts/token/ERC20/ERC20.sol\":7671:7735  require(to != address(0), \"ERC20: transfer to the zero address\") */\n      tag_198\n      jumpi\n      mload(0x40)\n      0x08c379a000000000000000000000000000000000000000000000000000000000\n      dup2\n      mstore\n      0x04\n      add\n      tag_199\n      swap1\n      tag_200\n      jump\t// in\n    tag_199:\n      mload(0x40)\n      dup1\n      swap2\n      sub\n      swap1\n      revert\n    tag_198:\n        /* \"https://github.com/OpenZeppelin/openzeppelin-contracts/blob/v4.7.3/contracts/token/ERC20/ERC20.sol\":7746:7784  _beforeTokenTransfer(from, to, amount) */\n      tag_201\n        /* \"https://github.com/OpenZeppelin/openzeppelin-contracts/blob/v4.7.3/contracts/token/ERC20/ERC20.sol\":7767:7771  from */\n      dup4\n        /* \"https://github.com/OpenZeppelin/openzeppelin-contracts/blob/v4.7.3/contracts/token/ERC20/ERC20.sol\":7773:7775  to */\n      dup4\n        /* \"https://github.com/OpenZeppelin/openzeppelin-contracts/blob/v4.7.3/contracts/token/ERC20/ERC20.sol\":7777:7783  amount */\n      dup4\n        /* \"https://github.com/OpenZeppelin/openzeppelin-contracts/blob/v4.7.3/contracts/token/ERC20/ERC20.sol\":7746:7766  _beforeTokenTransfer */\n      tag_202\n        /* \"https://github.com/OpenZeppelin/openzeppelin-contracts/blob/v4.7.3/contracts/token/ERC20/ERC20.sol\":7746:7784  _beforeTokenTransfer(from, to, amount) */\n      jump\t// in\n    tag_201:\n        /* \"https://github.com/OpenZeppelin/openzeppelin-contracts/blob/v4.7.3/contracts/token/ERC20/ERC20.sol\":7795:7814  uint256 fromBalance */\n      0x00\n        /* \"https://github.com/OpenZeppelin/openzeppelin-contracts/blob/v4.7.3/contracts/token/ERC20/ERC20.sol\":7817:7826  _balances */\n      dup1\n        /* \"https://github.com/OpenZeppelin/openzeppelin-contracts/blob/v4.7.3/contracts/token/ERC20/ERC20.sol\":7817:7832  _balances[from] */\n      0x00\n        /* \"https://github.com/OpenZeppelin/openzeppelin-contracts/blob/v4.7.3/contracts/token/ERC20/ERC20.sol\":7827:7831  from */\n      dup6\n        /* \"https://github.com/OpenZeppelin/openzeppelin-contracts/blob/v4.7.3/contracts/token/ERC20/ERC20.sol\":7817:7832  _balances[from] */\n      0xffffffffffffffffffffffffffffffffffffffff\n      and\n      0xffffffffffffffffffffffffffffffffffffffff\n      and\n      dup2\n      mstore\n      0x20\n      add\n      swap1\n      dup2\n      mstore\n      0x20\n      add\n      0x00\n      keccak256\n      sload\n        /* \"https://github.com/OpenZeppelin/openzeppelin-contracts/blob/v4.7.3/contracts/token/ERC20/ERC20.sol\":7795:7832  uint256 fromBalance = _balances[from] */\n      swap1\n      pop\n        /* \"https://github.com/OpenZeppelin/openzeppelin-contracts/blob/v4.7.3/contracts/token/ERC20/ERC20.sol\":7865:7871  amount */\n      dup2\n        /* \"https://github.com/OpenZeppelin/openzeppelin-contracts/blob/v4.7.3/contracts/token/ERC20/ERC20.sol\":7850:7861  fromBalance */\n      dup2\n        /* \"https://github.com/OpenZeppelin/openzeppelin-contracts/blob/v4.7.3/contracts/token/ERC20/ERC20.sol\":7850:7871  fromBalance >= amount */\n      lt\n      iszero\n        /* \"https://github.com/OpenZeppelin/openzeppelin-contracts/blob/v4.7.3/contracts/token/ERC20/ERC20.sol\":7842:7914  require(fromBalance >= amount, \"ERC20: transfer amount exceeds balance\") */\n      tag_203\n      jumpi\n      mload(0x40)\n      0x08c379a000000000000000000000000000000000000000000000000000000000\n      dup2\n      mstore\n      0x04\n      add\n      tag_204\n      swap1\n      tag_205\n      jump\t// in\n    tag_204:\n      mload(0x40)\n      dup1\n      swap2\n      sub\n      swap1\n      revert\n    tag_203:\n        /* \"https://github.com/OpenZeppelin/openzeppelin-contracts/blob/v4.7.3/contracts/token/ERC20/ERC20.sol\":7980:7986  amount */\n      dup2\n        /* \"https://github.com/OpenZeppelin/openzeppelin-contracts/blob/v4.7.3/contracts/token/ERC20/ERC20.sol\":7966:7977  fromBalance */\n      dup2\n        /* \"https://github.com/OpenZeppelin/openzeppelin-contracts/blob/v4.7.3/contracts/token/ERC20/ERC20.sol\":7966:7986  fromBalance - amount */\n      sub\n        /* \"https://github.com/OpenZeppelin/openzeppelin-contracts/blob/v4.7.3/contracts/token/ERC20/ERC20.sol\":7948:7957  _balances */\n      0x00\n        /* \"https://github.com/OpenZeppelin/openzeppelin-contracts/blob/v4.7.3/contracts/token/ERC20/ERC20.sol\":7948:7963  _balances[from] */\n      dup1\n        /* \"https://github.com/OpenZeppelin/openzeppelin-contracts/blob/v4.7.3/contracts/token/ERC20/ERC20.sol\":7958:7962  from */\n      dup7\n        /* \"https://github.com/OpenZeppelin/openzeppelin-contracts/blob/v4.7.3/contracts/token/ERC20/ERC20.sol\":7948:7963  _balances[from] */\n      0xffffffffffffffffffffffffffffffffffffffff\n      and\n      0xffffffffffffffffffffffffffffffffffffffff\n      and\n      dup2\n      mstore\n      0x20\n      add\n      swap1\n      dup2\n      mstore\n      0x20\n      add\n      0x00\n      keccak256\n        /* \"https://github.com/OpenZeppelin/openzeppelin-contracts/blob/v4.7.3/contracts/token/ERC20/ERC20.sol\":7948:7986  _balances[from] = fromBalance - amount */\n      dup2\n      swap1\n      sstore\n      pop\n        /* \"https://github.com/OpenZeppelin/openzeppelin-contracts/blob/v4.7.3/contracts/token/ERC20/ERC20.sol\":8023:8029  amount */\n      dup2\n        /* \"https://github.com/OpenZeppelin/openzeppelin-contracts/blob/v4.7.3/contracts/token/ERC20/ERC20.sol\":8006:8015  _balances */\n      0x00\n        /* \"https://github.com/OpenZeppelin/openzeppelin-contracts/blob/v4.7.3/contracts/token/ERC20/ERC20.sol\":8006:8019  _balances[to] */\n      dup1\n        /* \"https://github.com/OpenZeppelin/openzeppelin-contracts/blob/v4.7.3/contracts/token/ERC20/ERC20.sol\":8016:8018  to */\n      dup6\n        /* \"https://github.com/OpenZeppelin/openzeppelin-contracts/blob/v4.7.3/contracts/token/ERC20/ERC20.sol\":8006:8019  _balances[to] */\n      0xffffffffffffffffffffffffffffffffffffffff\n      and\n      0xffffffffffffffffffffffffffffffffffffffff\n      and\n      dup2\n      mstore\n      0x20\n      add\n      swap1\n      dup2\n      mstore\n      0x20\n      add\n      0x00\n      keccak256\n      0x00\n        /* \"https://github.com/OpenZeppelin/openzeppelin-contracts/blob/v4.7.3/contracts/token/ERC20/ERC20.sol\":8006:8029  _balances[to] += amount */\n      dup3\n      dup3\n      sload\n      tag_206\n      swap2\n      swap1\n      tag_136\n      jump\t// in\n    tag_206:\n      swap3\n      pop\n      pop\n      dup2\n      swap1\n      sstore\n      pop\n        /* \"https://github.com/OpenZeppelin/openzeppelin-contracts/blob/v4.7.3/contracts/token/ERC20/ERC20.sol\":8060:8062  to */\n      dup3\n        /* \"https://github.com/OpenZeppelin/openzeppelin-contracts/blob/v4.7.3/contracts/token/ERC20/ERC20.sol\":8045:8071  Transfer(from, to, amount) */\n      0xffffffffffffffffffffffffffffffffffffffff\n      and\n        /* \"https://github.com/OpenZeppelin/openzeppelin-contracts/blob/v4.7.3/contracts/token/ERC20/ERC20.sol\":8054:8058  from */\n      dup5\n        /* \"https://github.com/OpenZeppelin/openzeppelin-contracts/blob/v4.7.3/contracts/token/ERC20/ERC20.sol\":8045:8071  Transfer(from, to, amount) */\n      0xffffffffffffffffffffffffffffffffffffffff\n      and\n      0xddf252ad1be2c89b69c2b068fc378daa952ba7f163c4a11628f55a4df523b3ef\n        /* \"https://github.com/OpenZeppelin/openzeppelin-contracts/blob/v4.7.3/contracts/token/ERC20/ERC20.sol\":8064:8070  amount */\n      dup5\n        /* \"https://github.com/OpenZeppelin/openzeppelin-contracts/blob/v4.7.3/contracts/token/ERC20/ERC20.sol\":8045:8071  Transfer(from, to, amount) */\n      mload(0x40)\n      tag_207\n      swap2\n      swap1\n      tag_37\n      jump\t// in\n    tag_207:\n      mload(0x40)\n      dup1\n      swap2\n      sub\n      swap1\n      log3\n        /* \"https://github.com/OpenZeppelin/openzeppelin-contracts/blob/v4.7.3/contracts/token/ERC20/ERC20.sol\":8082:8119  _afterTokenTransfer(from, to, amount) */\n      tag_208\n        /* \"https://github.com/OpenZeppelin/openzeppelin-contracts/blob/v4.7.3/contracts/token/ERC20/ERC20.sol\":8102:8106  from */\n      dup5\n        /* \"https://github.com/OpenZeppelin/openzeppelin-contracts/blob/v4.7.3/contracts/token/ERC20/ERC20.sol\":8108:8110  to */\n      dup5\n        /* \"https://github.com/OpenZeppelin/openzeppelin-contracts/blob/v4.7.3/contracts/token/ERC20/ERC20.sol\":8112:8118  amount */\n      dup5\n        /* \"https://github.com/OpenZeppelin/openzeppelin-contracts/blob/v4.7.3/contracts/token/ERC20/ERC20.sol\":8082:8101  _afterTokenTransfer */\n      tag_209\n        /* \"https://github.com/OpenZeppelin/openzeppelin-contracts/blob/v4.7.3/contracts/token/ERC20/ERC20.sol\":8082:8119  _afterTokenTransfer(from, to, amount) */\n      jump\t// in\n    tag_208:\n        /* \"https://github.com/OpenZeppelin/openzeppelin-contracts/blob/v4.7.3/contracts/token/ERC20/ERC20.sol\":7583:8126  {... */\n      pop\n        /* \"https://github.com/OpenZeppelin/openzeppelin-contracts/blob/v4.7.3/contracts/token/ERC20/ERC20.sol\":7475:8126  function _transfer(... */\n      pop\n      pop\n      pop\n      jump\t// out\n        /* \"https://github.com/OpenZeppelin/openzeppelin-contracts/blob/v4.7.3/contracts/token/ERC20/ERC20.sol\":8402:8791  function _mint(address account, uint256 amount) internal virtual {... */\n    tag_130:\n        /* \"https://github.com/OpenZeppelin/openzeppelin-contracts/blob/v4.7.3/contracts/token/ERC20/ERC20.sol\":8504:8505  0 */\n      0x00\n        /* \"https://github.com/OpenZeppelin/openzeppelin-contracts/blob/v4.7.3/contracts/token/ERC20/ERC20.sol\":8485:8506  account != address(0) */\n      0xffffffffffffffffffffffffffffffffffffffff\n      and\n        /* \"https://github.com/OpenZeppelin/openzeppelin-contracts/blob/v4.7.3/contracts/token/ERC20/ERC20.sol\":8485:8492  account */\n      dup3\n        /* \"https://github.com/OpenZeppelin/openzeppelin-contracts/blob/v4.7.3/contracts/token/ERC20/ERC20.sol\":8485:8506  account != address(0) */\n      0xffffffffffffffffffffffffffffffffffffffff\n      and\n      sub\n        /* \"https://github.com/OpenZeppelin/openzeppelin-contracts/blob/v4.7.3/contracts/token/ERC20/ERC20.sol\":8477:8542  require(account != address(0), \"ERC20: mint to the zero address\") */\n      tag_211\n      jumpi\n      mload(0x40)\n      0x08c379a000000000000000000000000000000000000000000000000000000000\n      dup2\n      mstore\n      0x04\n      add\n      tag_212\n      swap1\n      tag_213\n      jump\t// in\n    tag_212:\n      mload(0x40)\n      dup1\n      swap2\n      sub\n      swap1\n      revert\n    tag_211:\n        /* \"https://github.com/OpenZeppelin/openzeppelin-contracts/blob/v4.7.3/contracts/token/ERC20/ERC20.sol\":8553:8602  _beforeTokenTransfer(address(0), account, amount) */\n      tag_214\n        /* \"https://github.com/OpenZeppelin/openzeppelin-contracts/blob/v4.7.3/contracts/token/ERC20/ERC20.sol\":8582:8583  0 */\n      0x00\n        /* \"https://github.com/OpenZeppelin/openzeppelin-contracts/blob/v4.7.3/contracts/token/ERC20/ERC20.sol\":8586:8593  account */\n      dup4\n        /* \"https://github.com/OpenZeppelin/openzeppelin-contracts/blob/v4.7.3/contracts/token/ERC20/ERC20.sol\":8595:8601  amount */\n      dup4\n        /* \"https://github.com/OpenZeppelin/openzeppelin-contracts/blob/v4.7.3/contracts/token/ERC20/ERC20.sol\":8553:8573  _beforeTokenTransfer */\n      tag_202\n        /* \"https://github.com/OpenZeppelin/openzeppelin-contracts/blob/v4.7.3/contracts/token/ERC20/ERC20.sol\":8553:8602  _beforeTokenTransfer(address(0), account, amount) */\n      jump\t// in\n    tag_214:\n        /* \"https://github.com/OpenZeppelin/openzeppelin-contracts/blob/v4.7.3/contracts/token/ERC20/ERC20.sol\":8629:8635  amount */\n      dup1\n        /* \"https://github.com/OpenZeppelin/openzeppelin-contracts/blob/v4.7.3/contracts/token/ERC20/ERC20.sol\":8613:8625  _totalSupply */\n      0x02\n      0x00\n        /* \"https://github.com/OpenZeppelin/openzeppelin-contracts/blob/v4.7.3/contracts/token/ERC20/ERC20.sol\":8613:8635  _totalSupply += amount */\n      dup3\n      dup3\n      sload\n      tag_215\n      swap2\n      swap1\n      tag_136\n      jump\t// in\n    tag_215:\n      swap3\n      pop\n      pop\n      dup2\n      swap1\n      sstore\n      pop\n        /* \"https://github.com/OpenZeppelin/openzeppelin-contracts/blob/v4.7.3/contracts/token/ERC20/ERC20.sol\":8667:8673  amount */\n      dup1\n        /* \"https://github.com/OpenZeppelin/openzeppelin-contracts/blob/v4.7.3/contracts/token/ERC20/ERC20.sol\":8645:8654  _balances */\n      0x00\n        /* \"https://github.com/OpenZeppelin/openzeppelin-contracts/blob/v4.7.3/contracts/token/ERC20/ERC20.sol\":8645:8663  _balances[account] */\n      dup1\n        /* \"https://github.com/OpenZeppelin/openzeppelin-contracts/blob/v4.7.3/contracts/token/ERC20/ERC20.sol\":8655:8662  account */\n      dup5\n        /* \"https://github.com/OpenZeppelin/openzeppelin-contracts/blob/v4.7.3/contracts/token/ERC20/ERC20.sol\":8645:8663  _balances[account] */\n      0xffffffffffffffffffffffffffffffffffffffff\n      and\n      0xffffffffffffffffffffffffffffffffffffffff\n      and\n      dup2\n      mstore\n      0x20\n      add\n      swap1\n      dup2\n      mstore\n      0x20\n      add\n      0x00\n      keccak256\n      0x00\n        /* \"https://github.com/OpenZeppelin/openzeppelin-contracts/blob/v4.7.3/contracts/token/ERC20/ERC20.sol\":8645:8673  _balances[account] += amount */\n      dup3\n      dup3\n      sload\n      tag_216\n      swap2\n      swap1\n      tag_136\n      jump\t// in\n    tag_216:\n      swap3\n      pop\n      pop\n      dup2\n      swap1\n      sstore\n      pop\n        /* \"https://github.com/OpenZeppelin/openzeppelin-contracts/blob/v4.7.3/contracts/token/ERC20/ERC20.sol\":8709:8716  account */\n      dup2\n        /* \"https://github.com/OpenZeppelin/openzeppelin-contracts/blob/v4.7.3/contracts/token/ERC20/ERC20.sol\":8688:8725  Transfer(address(0), account, amount) */\n      0xffffffffffffffffffffffffffffffffffffffff\n      and\n        /* \"https://github.com/OpenZeppelin/openzeppelin-contracts/blob/v4.7.3/contracts/token/ERC20/ERC20.sol\":8705:8706  0 */\n      0x00\n        /* \"https://github.com/OpenZeppelin/openzeppelin-contracts/blob/v4.7.3/contracts/token/ERC20/ERC20.sol\":8688:8725  Transfer(address(0), account, amount) */\n      0xffffffffffffffffffffffffffffffffffffffff\n      and\n      0xddf252ad1be2c89b69c2b068fc378daa952ba7f163c4a11628f55a4df523b3ef\n        /* \"https://github.com/OpenZeppelin/openzeppelin-contracts/blob/v4.7.3/contracts/token/ERC20/ERC20.sol\":8718:8724  amount */\n      dup4\n        /* \"https://github.com/OpenZeppelin/openzeppelin-contracts/blob/v4.7.3/contracts/token/ERC20/ERC20.sol\":8688:8725  Transfer(address(0), account, amount) */\n      mload(0x40)\n      tag_217\n      swap2\n      swap1\n      tag_37\n      jump\t// in\n    tag_217:\n      mload(0x40)\n      dup1\n      swap2\n      sub\n      swap1\n      log3\n        /* \"https://github.com/OpenZeppelin/openzeppelin-contracts/blob/v4.7.3/contracts/token/ERC20/ERC20.sol\":8736:8784  _afterTokenTransfer(address(0), account, amount) */\n      tag_218\n        /* \"https://github.com/OpenZeppelin/openzeppelin-contracts/blob/v4.7.3/contracts/token/ERC20/ERC20.sol\":8764:8765  0 */\n      0x00\n        /* \"https://github.com/OpenZeppelin/openzeppelin-contracts/blob/v4.7.3/contracts/token/ERC20/ERC20.sol\":8768:8775  account */\n      dup4\n        /* \"https://github.com/OpenZeppelin/openzeppelin-contracts/blob/v4.7.3/contracts/token/ERC20/ERC20.sol\":8777:8783  amount */\n      dup4\n        /* \"https://github.com/OpenZeppelin/openzeppelin-contracts/blob/v4.7.3/contracts/token/ERC20/ERC20.sol\":8736:8755  _afterTokenTransfer */\n      tag_209\n        /* \"https://github.com/OpenZeppelin/openzeppelin-contracts/blob/v4.7.3/contracts/token/ERC20/ERC20.sol\":8736:8784  _afterTokenTransfer(address(0), account, amount) */\n      jump\t// in\n    tag_218:\n        /* \"https://github.com/OpenZeppelin/openzeppelin-contracts/blob/v4.7.3/contracts/token/ERC20/ERC20.sol\":8402:8791  function _mint(address account, uint256 amount) internal virtual {... */\n      pop\n      pop\n      jump\t// out\n        /* \"https://github.com/OpenZeppelin/openzeppelin-contracts/blob/v4.7.3/contracts/token/ERC20/ERC20.sol\":9111:9687  function _burn(address account, uint256 amount) internal virtual {... */\n    tag_144:\n        /* \"https://github.com/OpenZeppelin/openzeppelin-contracts/blob/v4.7.3/contracts/token/ERC20/ERC20.sol\":9213:9214  0 */\n      0x00\n        /* \"https://github.com/OpenZeppelin/openzeppelin-contracts/blob/v4.7.3/contracts/token/ERC20/ERC20.sol\":9194:9215  account != address(0) */\n      0xffffffffffffffffffffffffffffffffffffffff\n      and\n        /* \"https://github.com/OpenZeppelin/openzeppelin-contracts/blob/v4.7.3/contracts/token/ERC20/ERC20.sol\":9194:9201  account */\n      dup3\n        /* \"https://github.com/OpenZeppelin/openzeppelin-contracts/blob/v4.7.3/contracts/token/ERC20/ERC20.sol\":9194:9215  account != address(0) */\n      0xffffffffffffffffffffffffffffffffffffffff\n      and\n      sub\n        /* \"https://github.com/OpenZeppelin/openzeppelin-contracts/blob/v4.7.3/contracts/token/ERC20/ERC20.sol\":9186:9253  require(account != address(0), \"ERC20: burn from the zero address\") */\n      tag_220\n      jumpi\n      mload(0x40)\n      0x08c379a000000000000000000000000000000000000000000000000000000000\n      dup2\n      mstore\n      0x04\n      add\n      tag_221\n      swap1\n      tag_222\n      jump\t// in\n    tag_221:\n      mload(0x40)\n      dup1\n      swap2\n      sub\n      swap1\n      revert\n    tag_220:\n        /* \"https://github.com/OpenZeppelin/openzeppelin-contracts/blob/v4.7.3/contracts/token/ERC20/ERC20.sol\":9264:9313  _beforeTokenTransfer(account, address(0), amount) */\n      tag_223\n        /* \"https://github.com/OpenZeppelin/openzeppelin-contracts/blob/v4.7.3/contracts/token/ERC20/ERC20.sol\":9285:9292  account */\n      dup3\n        /* \"https://github.com/OpenZeppelin/openzeppelin-contracts/blob/v4.7.3/contracts/token/ERC20/ERC20.sol\":9302:9303  0 */\n      0x00\n        /* \"https://github.com/OpenZeppelin/openzeppelin-contracts/blob/v4.7.3/contracts/token/ERC20/ERC20.sol\":9306:9312  amount */\n      dup4\n        /* \"https://github.com/OpenZeppelin/openzeppelin-contracts/blob/v4.7.3/contracts/token/ERC20/ERC20.sol\":9264:9284  _beforeTokenTransfer */\n      tag_202\n        /* \"https://github.com/OpenZeppelin/openzeppelin-contracts/blob/v4.7.3/contracts/token/ERC20/ERC20.sol\":9264:9313  _beforeTokenTransfer(account, address(0), amount) */\n      jump\t// in\n    tag_223:\n        /* \"https://github.com/OpenZeppelin/openzeppelin-contracts/blob/v4.7.3/contracts/token/ERC20/ERC20.sol\":9324:9346  uint256 accountBalance */\n      0x00\n        /* \"https://github.com/OpenZeppelin/openzeppelin-contracts/blob/v4.7.3/contracts/token/ERC20/ERC20.sol\":9349:9358  _balances */\n      dup1\n        /* \"https://github.com/OpenZeppelin/openzeppelin-contracts/blob/v4.7.3/contracts/token/ERC20/ERC20.sol\":9349:9367  _balances[account] */\n      0x00\n        /* \"https://github.com/OpenZeppelin/openzeppelin-contracts/blob/v4.7.3/contracts/token/ERC20/ERC20.sol\":9359:9366  account */\n      dup5\n        /* \"https://github.com/OpenZeppelin/openzeppelin-contracts/blob/v4.7.3/contracts/token/ERC20/ERC20.sol\":9349:9367  _balances[account] */\n      0xffffffffffffffffffffffffffffffffffffffff\n      and\n      0xffffffffffffffffffffffffffffffffffffffff\n      and\n      dup2\n      mstore\n      0x20\n      add\n      swap1\n      dup2\n      mstore\n      0x20\n      add\n      0x00\n      keccak256\n      sload\n        /* \"https://github.com/OpenZeppelin/openzeppelin-contracts/blob/v4.7.3/contracts/token/ERC20/ERC20.sol\":9324:9367  uint256 accountBalance = _balances[account] */\n      swap1\n      pop\n        /* \"https://github.com/OpenZeppelin/openzeppelin-contracts/blob/v4.7.3/contracts/token/ERC20/ERC20.sol\":9403:9409  amount */\n      dup2\n        /* \"https://github.com/OpenZeppelin/openzeppelin-contracts/blob/v4.7.3/contracts/token/ERC20/ERC20.sol\":9385:9399  accountBalance */\n      dup2\n        /* \"https://github.com/OpenZeppelin/openzeppelin-contracts/blob/v4.7.3/contracts/token/ERC20/ERC20.sol\":9385:9409  accountBalance >= amount */\n      lt\n      iszero\n        /* \"https://github.com/OpenZeppelin/openzeppelin-contracts/blob/v4.7.3/contracts/token/ERC20/ERC20.sol\":9377:9448  require(accountBalance >= amount, \"ERC20: burn amount exceeds balance\") */\n      tag_224\n      jumpi\n      mload(0x40)\n      0x08c379a000000000000000000000000000000000000000000000000000000000\n      dup2\n      mstore\n      0x04\n      add\n      tag_225\n      swap1\n      tag_226\n      jump\t// in\n    tag_225:\n      mload(0x40)\n      dup1\n      swap2\n      sub\n      swap1\n      revert\n    tag_224:\n        /* \"https://github.com/OpenZeppelin/openzeppelin-contracts/blob/v4.7.3/contracts/token/ERC20/ERC20.sol\":9520:9526  amount */\n      dup2\n        /* \"https://github.com/OpenZeppelin/openzeppelin-contracts/blob/v4.7.3/contracts/token/ERC20/ERC20.sol\":9503:9517  accountBalance */\n      dup2\n        /* \"https://github.com/OpenZeppelin/openzeppelin-contracts/blob/v4.7.3/contracts/token/ERC20/ERC20.sol\":9503:9526  accountBalance - amount */\n      sub\n        /* \"https://github.com/OpenZeppelin/openzeppelin-contracts/blob/v4.7.3/contracts/token/ERC20/ERC20.sol\":9482:9491  _balances */\n      0x00\n        /* \"https://github.com/OpenZeppelin/openzeppelin-contracts/blob/v4.7.3/contracts/token/ERC20/ERC20.sol\":9482:9500  _balances[account] */\n      dup1\n        /* \"https://github.com/OpenZeppelin/openzeppelin-contracts/blob/v4.7.3/contracts/token/ERC20/ERC20.sol\":9492:9499  account */\n      dup6\n        /* \"https://github.com/OpenZeppelin/openzeppelin-contracts/blob/v4.7.3/contracts/token/ERC20/ERC20.sol\":9482:9500  _balances[account] */\n      0xffffffffffffffffffffffffffffffffffffffff\n      and\n      0xffffffffffffffffffffffffffffffffffffffff\n      and\n      dup2\n      mstore\n      0x20\n      add\n      swap1\n      dup2\n      mstore\n      0x20\n      add\n      0x00\n      keccak256\n        /* \"https://github.com/OpenZeppelin/openzeppelin-contracts/blob/v4.7.3/contracts/token/ERC20/ERC20.sol\":9482:9526  _balances[account] = accountBalance - amount */\n      dup2\n      swap1\n      sstore\n      pop\n        /* \"https://github.com/OpenZeppelin/openzeppelin-contracts/blob/v4.7.3/contracts/token/ERC20/ERC20.sol\":9562:9568  amount */\n      dup2\n        /* \"https://github.com/OpenZeppelin/openzeppelin-contracts/blob/v4.7.3/contracts/token/ERC20/ERC20.sol\":9546:9558  _totalSupply */\n      0x02\n      0x00\n        /* \"https://github.com/OpenZeppelin/openzeppelin-contracts/blob/v4.7.3/contracts/token/ERC20/ERC20.sol\":9546:9568  _totalSupply -= amount */\n      dup3\n      dup3\n      sload\n      tag_227\n      swap2\n      swap1\n      tag_228\n      jump\t// in\n    tag_227:\n      swap3\n      pop\n      pop\n      dup2\n      swap1\n      sstore\n      pop\n        /* \"https://github.com/OpenZeppelin/openzeppelin-contracts/blob/v4.7.3/contracts/token/ERC20/ERC20.sol\":9610:9611  0 */\n      0x00\n        /* \"https://github.com/OpenZeppelin/openzeppelin-contracts/blob/v4.7.3/contracts/token/ERC20/ERC20.sol\":9584:9621  Transfer(account, address(0), amount) */\n      0xffffffffffffffffffffffffffffffffffffffff\n      and\n        /* \"https://github.com/OpenZeppelin/openzeppelin-contracts/blob/v4.7.3/contracts/token/ERC20/ERC20.sol\":9593:9600  account */\n      dup4\n        /* \"https://github.com/OpenZeppelin/openzeppelin-contracts/blob/v4.7.3/contracts/token/ERC20/ERC20.sol\":9584:9621  Transfer(account, address(0), amount) */\n      0xffffffffffffffffffffffffffffffffffffffff\n      and\n      0xddf252ad1be2c89b69c2b068fc378daa952ba7f163c4a11628f55a4df523b3ef\n        /* \"https://github.com/OpenZeppelin/openzeppelin-contracts/blob/v4.7.3/contracts/token/ERC20/ERC20.sol\":9614:9620  amount */\n      dup5\n        /* \"https://github.com/OpenZeppelin/openzeppelin-contracts/blob/v4.7.3/contracts/token/ERC20/ERC20.sol\":9584:9621  Transfer(account, address(0), amount) */\n      mload(0x40)\n      tag_229\n      swap2\n      swap1\n      tag_37\n      jump\t// in\n    tag_229:\n      mload(0x40)\n      dup1\n      swap2\n      sub\n      swap1\n      log3\n        /* \"https://github.com/OpenZeppelin/openzeppelin-contracts/blob/v4.7.3/contracts/token/ERC20/ERC20.sol\":9632:9680  _afterTokenTransfer(account, address(0), amount) */\n      tag_230\n        /* \"https://github.com/OpenZeppelin/openzeppelin-contracts/blob/v4.7.3/contracts/token/ERC20/ERC20.sol\":9652:9659  account */\n      dup4\n        /* \"https://github.com/OpenZeppelin/openzeppelin-contracts/blob/v4.7.3/contracts/token/ERC20/ERC20.sol\":9669:9670  0 */\n      0x00\n        /* \"https://github.com/OpenZeppelin/openzeppelin-contracts/blob/v4.7.3/contracts/token/ERC20/ERC20.sol\":9673:9679  amount */\n      dup5\n        /* \"https://github.com/OpenZeppelin/openzeppelin-contracts/blob/v4.7.3/contracts/token/ERC20/ERC20.sol\":9632:9651  _afterTokenTransfer */\n      tag_209\n        /* \"https://github.com/OpenZeppelin/openzeppelin-contracts/blob/v4.7.3/contracts/token/ERC20/ERC20.sol\":9632:9680  _afterTokenTransfer(account, address(0), amount) */\n      jump\t// in\n    tag_230:\n        /* \"https://github.com/OpenZeppelin/openzeppelin-contracts/blob/v4.7.3/contracts/token/ERC20/ERC20.sol\":9176:9687  {... */\n      pop\n        /* \"https://github.com/OpenZeppelin/openzeppelin-contracts/blob/v4.7.3/contracts/token/ERC20/ERC20.sol\":9111:9687  function _burn(address account, uint256 amount) internal virtual {... */\n      pop\n      pop\n      jump\t// out\n        /* \"https://github.com/OpenZeppelin/openzeppelin-contracts/blob/v4.7.3/contracts/token/ERC20/ERC20.sol\":11786:11907  function _beforeTokenTransfer(... */\n    tag_202:\n      pop\n      pop\n      pop\n      jump\t// out\n        /* \"https://github.com/OpenZeppelin/openzeppelin-contracts/blob/v4.7.3/contracts/token/ERC20/ERC20.sol\":12495:12615  function _afterTokenTransfer(... */\n    tag_209:\n      pop\n      pop\n      pop\n      jump\t// out\n        /* \"#utility.yul\":7:106   */\n    tag_233:\n        /* \"#utility.yul\":59:65   */\n      0x00\n        /* \"#utility.yul\":93:98   */\n      dup2\n        /* \"#utility.yul\":87:99   */\n      mload\n        /* \"#utility.yul\":77:99   */\n      swap1\n      pop\n        /* \"#utility.yul\":7:106   */\n      swap2\n      swap1\n      pop\n      jump\t// out\n        /* \"#utility.yul\":112:281   */\n    tag_234:\n        /* \"#utility.yul\":196:207   */\n      0x00\n        /* \"#utility.yul\":230:236   */\n      dup3\n        /* \"#utility.yul\":225:228   */\n      dup3\n        /* \"#utility.yul\":218:237   */\n      mstore\n        /* \"#utility.yul\":270:274   */\n      0x20\n        /* \"#utility.yul\":265:268   */\n      dup3\n        /* \"#utility.yul\":261:275   */\n      add\n        /* \"#utility.yul\":246:275   */\n      swap1\n      pop\n        /* \"#utility.yul\":112:281   */\n      swap3\n      swap2\n      pop\n      pop\n      jump\t// out\n        /* \"#utility.yul\":287:426   */\n    tag_235:\n        /* \"#utility.yul\":376:382   */\n      dup3\n        /* \"#utility.yul\":371:374   */\n      dup2\n        /* \"#utility.yul\":366:369   */\n      dup4\n        /* \"#utility.yul\":360:383   */\n      mcopy\n        /* \"#utility.yul\":417:418   */\n      0x00\n        /* \"#utility.yul\":408:414   */\n      dup4\n        /* \"#utility.yul\":403:406   */\n      dup4\n        /* \"#utility.yul\":399:415   */\n      add\n        /* \"#utility.yul\":392:419   */\n      mstore\n        /* \"#utility.yul\":287:426   */\n      pop\n      pop\n      pop\n      jump\t// out\n        /* \"#utility.yul\":432:534   */\n    tag_236:\n        /* \"#utility.yul\":473:479   */\n      0x00\n        /* \"#utility.yul\":524:526   */\n      0x1f\n        /* \"#utility.yul\":520:527   */\n      not\n        /* \"#utility.yul\":515:517   */\n      0x1f\n        /* \"#utility.yul\":508:513   */\n      dup4\n        /* \"#utility.yul\":504:518   */\n      add\n        /* \"#utility.yul\":500:528   */\n      and\n        /* \"#utility.yul\":490:528   */\n      swap1\n      pop\n        /* \"#utility.yul\":432:534   */\n      swap2\n      swap1\n      pop\n      jump\t// out\n        /* \"#utility.yul\":540:917   */\n    tag_237:\n        /* \"#utility.yul\":628:631   */\n      0x00\n        /* \"#utility.yul\":656:695   */\n      tag_298\n        /* \"#utility.yul\":689:694   */\n      dup3\n        /* \"#utility.yul\":656:695   */\n      tag_233\n      jump\t// in\n    tag_298:\n        /* \"#utility.yul\":711:782   */\n      tag_299\n        /* \"#utility.yul\":775:781   */\n      dup2\n        /* \"#utility.yul\":770:773   */\n      dup6\n        /* \"#utility.yul\":711:782   */\n      tag_234\n      jump\t// in\n    tag_299:\n        /* \"#utility.yul\":704:782   */\n      swap4\n      pop\n        /* \"#utility.yul\":791:856   */\n      tag_300\n        /* \"#utility.yul\":849:855   */\n      dup2\n        /* \"#utility.yul\":844:847   */\n      dup6\n        /* \"#utility.yul\":837:841   */\n      0x20\n        /* \"#utility.yul\":830:835   */\n      dup7\n        /* \"#utility.yul\":826:842   */\n      add\n        /* \"#utility.yul\":791:856   */\n      tag_235\n      jump\t// in\n    tag_300:\n        /* \"#utility.yul\":881:910   */\n      tag_301\n        /* \"#utility.yul\":903:909   */\n      dup2\n        /* \"#utility.yul\":881:910   */\n      tag_236\n      jump\t// in\n    tag_301:\n        /* \"#utility.yul\":876:879   */\n      dup5\n        /* \"#utility.yul\":872:911   */\n      add\n        /* \"#utility.yul\":865:911   */\n      swap2\n      pop\n        /* \"#utility.yul\":632:917   */\n      pop\n        /* \"#utility.yul\":540:917   */\n      swap3\n      swap2\n      pop\n      pop\n      jump\t// out\n        /* \"#utility.yul\":923:1236   */\n    tag_27:\n        /* \"#utility.yul\":1036:1040   */\n      0x00\n        /* \"#utility.yul\":1074:1076   */\n      0x20\n        /* \"#utility.yul\":1063:1072   */\n      dup3\n        /* \"#utility.yul\":1059:1077   */\n      add\n        /* \"#utility.yul\":1051:1077   */\n      swap1\n      pop\n        /* \"#utility.yul\":1123:1132   */\n      dup2\n        /* \"#utility.yul\":1117:1121   */\n      dup2\n        /* \"#utility.yul\":1113:1133   */\n      sub\n        /* \"#utility.yul\":1109:1110   */\n      0x00\n        /* \"#utility.yul\":1098:1107   */\n      dup4\n        /* \"#utility.yul\":1094:1111   */\n      add\n        /* \"#utility.yul\":1087:1134   */\n      mstore\n        /* \"#utility.yul\":1151:1229   */\n      tag_303\n        /* \"#utility.yul\":1224:1228   */\n      dup2\n        /* \"#utility.yul\":1215:1221   */\n      dup5\n        /* \"#utility.yul\":1151:1229   */\n      tag_237\n      jump\t// in\n    tag_303:\n        /* \"#utility.yul\":1143:1229   */\n      swap1\n      pop\n        /* \"#utility.yul\":923:1236   */\n      swap3\n      swap2\n      pop\n      pop\n      jump\t// out\n        /* \"#utility.yul\":1242:1317   */\n    tag_238:\n        /* \"#utility.yul\":1275:1281   */\n      0x00\n        /* \"#utility.yul\":1308:1310   */\n      0x40\n        /* \"#utility.yul\":1302:1311   */\n      mload\n        /* \"#utility.yul\":1292:1311   */\n      swap1\n      pop\n        /* \"#utility.yul\":1242:1317   */\n      swap1\n      jump\t// out\n        /* \"#utility.yul\":1323:1440   */\n    tag_239:\n        /* \"#utility.yul\":1432:1433   */\n      0x00\n        /* \"#utility.yul\":1429:1430   */\n      dup1\n        /* \"#utility.yul\":1422:1434   */\n      revert\n        /* \"#utility.yul\":1446:1563   */\n    tag_240:\n        /* \"#utility.yul\":1555:1556   */\n      0x00\n        /* \"#utility.yul\":1552:1553   */\n      dup1\n        /* \"#utility.yul\":1545:1557   */\n      revert\n        /* \"#utility.yul\":1569:1695   */\n    tag_241:\n        /* \"#utility.yul\":1606:1613   */\n      0x00\n        /* \"#utility.yul\":1646:1688   */\n      0xffffffffffffffffffffffffffffffffffffffff\n        /* \"#utility.yul\":1639:1644   */\n      dup3\n        /* \"#utility.yul\":1635:1689   */\n      and\n        /* \"#utility.yul\":1624:1689   */\n      swap1\n      pop\n        /* \"#utility.yul\":1569:1695   */\n      swap2\n      swap1\n      pop\n      jump\t// out\n        /* \"#utility.yul\":1701:1797   */\n    tag_242:\n        /* \"#utility.yul\":1738:1745   */\n      0x00\n        /* \"#utility.yul\":1767:1791   */\n      tag_309\n        /* \"#utility.yul\":1785:1790   */\n      dup3\n        /* \"#utility.yul\":1767:1791   */\n      tag_241\n      jump\t// in\n    tag_309:\n        /* \"#utility.yul\":1756:1791   */\n      swap1\n      pop\n        /* \"#utility.yul\":1701:1797   */\n      swap2\n      swap1\n      pop\n      jump\t// out\n        /* \"#utility.yul\":1803:1925   */\n    tag_243:\n        /* \"#utility.yul\":1876:1900   */\n      tag_311\n        /* \"#utility.yul\":1894:1899   */\n      dup2\n        /* \"#utility.yul\":1876:1900   */\n      tag_242\n      jump\t// in\n    tag_311:\n        /* \"#utility.yul\":1869:1874   */\n      dup2\n        /* \"#utility.yul\":1866:1901   */\n      eq\n        /* \"#utility.yul\":1856:1919   */\n      tag_312\n      jumpi\n        /* \"#utility.yul\":1915:1916   */\n      0x00\n        /* \"#utility.yul\":1912:1913   */\n      dup1\n        /* \"#utility.yul\":1905:1917   */\n      revert\n        /* \"#utility.yul\":1856:1919   */\n    tag_312:\n        /* \"#utility.yul\":1803:1925   */\n      pop\n      jump\t// out\n        /* \"#utility.yul\":1931:2070   */\n    tag_244:\n        /* \"#utility.yul\":1977:1982   */\n      0x00\n        /* \"#utility.yul\":2015:2021   */\n      dup2\n        /* \"#utility.yul\":2002:2022   */\n      calldataload\n        /* \"#utility.yul\":1993:2022   */\n      swap1\n      pop\n        /* \"#utility.yul\":2031:2064   */\n      tag_314\n        /* \"#utility.yul\":2058:2063   */\n      dup2\n        /* \"#utility.yul\":2031:2064   */\n      tag_243\n      jump\t// in\n    tag_314:\n        /* \"#utility.yul\":1931:2070   */\n      swap3\n      swap2\n      pop\n      pop\n      jump\t// out\n        /* \"#utility.yul\":2076:2153   */\n    tag_245:\n        /* \"#utility.yul\":2113:2120   */\n      0x00\n        /* \"#utility.yul\":2142:2147   */\n      dup2\n        /* \"#utility.yul\":2131:2147   */\n      swap1\n      pop\n        /* \"#utility.yul\":2076:2153   */\n      swap2\n      swap1\n      pop\n      jump\t// out\n        /* \"#utility.yul\":2159:2281   */\n    tag_246:\n        /* \"#utility.yul\":2232:2256   */\n      tag_317\n        /* \"#utility.yul\":2250:2255   */\n      dup2\n        /* \"#utility.yul\":2232:2256   */\n      tag_245\n      jump\t// in\n    tag_317:\n        /* \"#utility.yul\":2225:2230   */\n      dup2\n        /* \"#utility.yul\":2222:2257   */\n      eq\n        /* \"#utility.yul\":2212:2275   */\n      tag_318\n      jumpi\n        /* \"#utility.yul\":2271:2272   */\n      0x00\n        /* \"#utility.yul\":2268:2269   */\n      dup1\n        /* \"#utility.yul\":2261:2273   */\n      revert\n        /* \"#utility.yul\":2212:2275   */\n    tag_318:\n        /* \"#utility.yul\":2159:2281   */\n      pop\n      jump\t// out\n        /* \"#utility.yul\":2287:2426   */\n    tag_247:\n        /* \"#utility.yul\":2333:2338   */\n      0x00\n        /* \"#utility.yul\":2371:2377   */\n      dup2\n        /* \"#utility.yul\":2358:2378   */\n      calldataload\n        /* \"#utility.yul\":2349:2378   */\n      swap1\n      pop\n        /* \"#utility.yul\":2387:2420   */\n      tag_320\n        /* \"#utility.yul\":2414:2419   */\n      dup2\n        /* \"#utility.yul\":2387:2420   */\n      tag_246\n      jump\t// in\n    tag_320:\n        /* \"#utility.yul\":2287:2426   */\n      swap3\n      swap2\n      pop\n      pop\n      jump\t// out\n        /* \"#utility.yul\":2432:2906   */\n    tag_30:\n        /* \"#utility.yul\":2500:2506   */\n      0x00\n        /* \"#utility.yul\":2508:2514   */\n      dup1\n        /* \"#utility.yul\":2557:2559   */\n      0x40\n        /* \"#utility.yul\":2545:2554   */\n      dup4\n        /* \"#utility.yul\":2536:2543   */\n      dup6\n        /* \"#utility.yul\":2532:2555   */\n      sub\n        /* \"#utility.yul\":2528:2560   */\n      slt\n        /* \"#utility.yul\":2525:2644   */\n      iszero\n      tag_322\n      jumpi\n        /* \"#utility.yul\":2563:2642   */\n      tag_323\n      tag_239\n      jump\t// in\n    tag_323:\n        /* \"#utility.yul\":2525:2644   */\n    tag_322:\n        /* \"#utility.yul\":2683:2684   */\n      0x00\n        /* \"#utility.yul\":2708:2761   */\n      tag_324\n        /* \"#utility.yul\":2753:2760   */\n      dup6\n        /* \"#utility.yul\":2744:2750   */\n      dup3\n        /* \"#utility.yul\":2733:2742   */\n      dup7\n        /* \"#utility.yul\":2729:2751   */\n      add\n        /* \"#utility.yul\":2708:2761   */\n      tag_244\n      jump\t// in\n    tag_324:\n        /* \"#utility.yul\":2698:2761   */\n      swap3\n      pop\n        /* \"#utility.yul\":2654:2771   */\n      pop\n        /* \"#utility.yul\":2810:2812   */\n      0x20\n        /* \"#utility.yul\":2836:2889   */\n      tag_325\n        /* \"#utility.yul\":2881:2888   */\n      dup6\n        /* \"#utility.yul\":2872:2878   */\n      dup3\n        /* \"#utility.yul\":2861:2870   */\n      dup7\n        /* \"#utility.yul\":2857:2879   */\n      add\n        /* \"#utility.yul\":2836:2889   */\n      tag_247\n      jump\t// in\n    tag_325:\n        /* \"#utility.yul\":2826:2889   */\n      swap2\n      pop\n        /* \"#utility.yul\":2781:2899   */\n      pop\n        /* \"#utility.yul\":2432:2906   */\n      swap3\n      pop\n      swap3\n      swap1\n      pop\n      jump\t// out\n        /* \"#utility.yul\":2912:3002   */\n    tag_248:\n        /* \"#utility.yul\":2946:2953   */\n      0x00\n        /* \"#utility.yul\":2989:2994   */\n      dup2\n        /* \"#utility.yul\":2982:2995   */\n      iszero\n        /* \"#utility.yul\":2975:2996   */\n      iszero\n        /* \"#utility.yul\":2964:2996   */\n      swap1\n      pop\n        /* \"#utility.yul\":2912:3002   */\n      swap2\n      swap1\n      pop\n      jump\t// out\n        /* \"#utility.yul\":3008:3117   */\n    tag_249:\n        /* \"#utility.yul\":3089:3110   */\n      tag_328\n        /* \"#utility.yul\":3104:3109   */\n      dup2\n        /* \"#utility.yul\":3089:3110   */\n      tag_248\n      jump\t// in\n    tag_328:\n        /* \"#utility.yul\":3084:3087   */\n      dup3\n        /* \"#utility.yul\":3077:3111   */\n      mstore\n        /* \"#utility.yul\":3008:3117   */\n      pop\n      pop\n      jump\t// out\n        /* \"#utility.yul\":3123:3333   */\n    tag_33:\n        /* \"#utility.yul\":3210:3214   */\n      0x00\n        /* \"#utility.yul\":3248:3250   */\n      0x20\n        /* \"#utility.yul\":3237:3246   */\n      dup3\n        /* \"#utility.yul\":3233:3251   */\n      add\n        /* \"#utility.yul\":3225:3251   */\n      swap1\n      pop\n        /* \"#utility.yul\":3261:3326   */\n      tag_330\n        /* \"#utility.yul\":3323:3324   */\n      0x00\n        /* \"#utility.yul\":3312:3321   */\n      dup4\n        /* \"#utility.yul\":3308:3325   */\n      add\n        /* \"#utility.yul\":3299:3305   */\n      dup5\n        /* \"#utility.yul\":3261:3326   */\n      tag_249\n      jump\t// in\n    tag_330:\n        /* \"#utility.yul\":3123:3333   */\n      swap3\n      swap2\n      pop\n      pop\n      jump\t// out\n        /* \"#utility.yul\":3339:3457   */\n    tag_250:\n        /* \"#utility.yul\":3426:3450   */\n      tag_332\n        /* \"#utility.yul\":3444:3449   */\n      dup2\n        /* \"#utility.yul\":3426:3450   */\n      tag_245\n      jump\t// in\n    tag_332:\n        /* \"#utility.yul\":3421:3424   */\n      dup3\n        /* \"#utility.yul\":3414:3451   */\n      mstore\n        /* \"#utility.yul\":3339:3457   */\n      pop\n      pop\n      jump\t// out\n        /* \"#utility.yul\":3463:3685   */\n    tag_37:\n        /* \"#utility.yul\":3556:3560   */\n      0x00\n        /* \"#utility.yul\":3594:3596   */\n      0x20\n        /* \"#utility.yul\":3583:3592   */\n      dup3\n        /* \"#utility.yul\":3579:3597   */\n      add\n        /* \"#utility.yul\":3571:3597   */\n      swap1\n      pop\n        /* \"#utility.yul\":3607:3678   */\n      tag_334\n        /* \"#utility.yul\":3675:3676   */\n      0x00\n        /* \"#utility.yul\":3664:3673   */\n      dup4\n        /* \"#utility.yul\":3660:3677   */\n      add\n        /* \"#utility.yul\":3651:3657   */\n      dup5\n        /* \"#utility.yul\":3607:3678   */\n      tag_250\n      jump\t// in\n    tag_334:\n        /* \"#utility.yul\":3463:3685   */\n      swap3\n      swap2\n      pop\n      pop\n      jump\t// out\n        /* \"#utility.yul\":3691:4310   */\n    tag_40:\n        /* \"#utility.yul\":3768:3774   */\n      0x00\n        /* \"#utility.yul\":3776:3782   */\n      dup1\n        /* \"#utility.yul\":3784:3790   */\n      0x00\n        /* \"#utility.yul\":3833:3835   */\n      0x60\n        /* \"#utility.yul\":3821:3830   */\n      dup5\n        /* \"#utility.yul\":3812:3819   */\n      dup7\n        /* \"#utility.yul\":3808:3831   */\n      sub\n        /* \"#utility.yul\":3804:3836   */\n      slt\n        /* \"#utility.yul\":3801:3920   */\n      iszero\n      tag_336\n      jumpi\n        /* \"#utility.yul\":3839:3918   */\n      tag_337\n      tag_239\n      jump\t// in\n    tag_337:\n        /* \"#utility.yul\":3801:3920   */\n    tag_336:\n        /* \"#utility.yul\":3959:3960   */\n      0x00\n        /* \"#utility.yul\":3984:4037   */\n      tag_338\n        /* \"#utility.yul\":4029:4036   */\n      dup7\n        /* \"#utility.yul\":4020:4026   */\n      dup3\n        /* \"#utility.yul\":4009:4018   */\n      dup8\n        /* \"#utility.yul\":4005:4027   */\n      add\n        /* \"#utility.yul\":3984:4037   */\n      tag_244\n      jump\t// in\n    tag_338:\n        /* \"#utility.yul\":3974:4037   */\n      swap4\n      pop\n        /* \"#utility.yul\":3930:4047   */\n      pop\n        /* \"#utility.yul\":4086:4088   */\n      0x20\n        /* \"#utility.yul\":4112:4165   */\n      tag_339\n        /* \"#utility.yul\":4157:4164   */\n      dup7\n        /* \"#utility.yul\":4148:4154   */\n      dup3\n        /* \"#utility.yul\":4137:4146   */\n      dup8\n        /* \"#utility.yul\":4133:4155   */\n      add\n        /* \"#utility.yul\":4112:4165   */\n      tag_244\n      jump\t// in\n    tag_339:\n        /* \"#utility.yul\":4102:4165   */\n      swap3\n      pop\n        /* \"#utility.yul\":4057:4175   */\n      pop\n        /* \"#utility.yul\":4214:4216   */\n      0x40\n        /* \"#utility.yul\":4240:4293   */\n      tag_340\n        /* \"#utility.yul\":4285:4292   */\n      dup7\n        /* \"#utility.yul\":4276:4282   */\n      dup3\n        /* \"#utility.yul\":4265:4274   */\n      dup8\n        /* \"#utility.yul\":4261:4283   */\n      add\n        /* \"#utility.yul\":4240:4293   */\n      tag_247\n      jump\t// in\n    tag_340:\n        /* \"#utility.yul\":4230:4293   */\n      swap2\n      pop\n        /* \"#utility.yul\":4185:4303   */\n      pop\n        /* \"#utility.yul\":3691:4310   */\n      swap3\n      pop\n      swap3\n      pop\n      swap3\n      jump\t// out\n        /* \"#utility.yul\":4316:5081   */\n    tag_45:\n        /* \"#utility.yul\":4402:4408   */\n      0x00\n        /* \"#utility.yul\":4410:4416   */\n      dup1\n        /* \"#utility.yul\":4418:4424   */\n      0x00\n        /* \"#utility.yul\":4426:4432   */\n      dup1\n        /* \"#utility.yul\":4475:4478   */\n      0x80\n        /* \"#utility.yul\":4463:4472   */\n      dup6\n        /* \"#utility.yul\":4454:4461   */\n      dup8\n        /* \"#utility.yul\":4450:4473   */\n      sub\n        /* \"#utility.yul\":4446:4479   */\n      slt\n        /* \"#utility.yul\":4443:4563   */\n      iszero\n      tag_342\n      jumpi\n        /* \"#utility.yul\":4482:4561   */\n      tag_343\n      tag_239\n      jump\t// in\n    tag_343:\n        /* \"#utility.yul\":4443:4563   */\n    tag_342:\n        /* \"#utility.yul\":4602:4603   */\n      0x00\n        /* \"#utility.yul\":4627:4680   */\n      tag_344\n        /* \"#utility.yul\":4672:4679   */\n      dup8\n        /* \"#utility.yul\":4663:4669   */\n      dup3\n        /* \"#utility.yul\":4652:4661   */\n      dup9\n        /* \"#utility.yul\":4648:4670   */\n      add\n        /* \"#utility.yul\":4627:4680   */\n      tag_247\n      jump\t// in\n    tag_344:\n        /* \"#utility.yul\":4617:4680   */\n      swap5\n      pop\n        /* \"#utility.yul\":4573:4690   */\n      pop\n        /* \"#utility.yul\":4729:4731   */\n      0x20\n        /* \"#utility.yul\":4755:4808   */\n      tag_345\n        /* \"#utility.yul\":4800:4807   */\n      dup8\n        /* \"#utility.yul\":4791:4797   */\n      dup3\n        /* \"#utility.yul\":4780:4789   */\n      dup9\n        /* \"#utility.yul\":4776:4798   */\n      add\n        /* \"#utility.yul\":4755:4808   */\n      tag_244\n      jump\t// in\n    tag_345:\n        /* \"#utility.yul\":4745:4808   */\n      swap4\n      pop\n        /* \"#utility.yul\":4700:4818   */\n      pop\n        /* \"#utility.yul\":4857:4859   */\n      0x40\n        /* \"#utility.yul\":4883:4936   */\n      tag_346\n        /* \"#utility.yul\":4928:4935   */\n      dup8\n        /* \"#utility.yul\":4919:4925   */\n      dup3\n        /* \"#utility.yul\":4908:4917   */\n      dup9\n        /* \"#utility.yul\":4904:4926   */\n      add\n        /* \"#utility.yul\":4883:4936   */\n      tag_244\n      jump\t// in\n    tag_346:\n        /* \"#utility.yul\":4873:4936   */\n      swap3\n      pop\n        /* \"#utility.yul\":4828:4946   */\n      pop\n        /* \"#utility.yul\":4985:4987   */\n      0x60\n        /* \"#utility.yul\":5011:5064   */\n      tag_347\n        /* \"#utility.yul\":5056:5063   */\n      dup8\n        /* \"#utility.yul\":5047:5053   */\n      dup3\n        /* \"#utility.yul\":5036:5045   */\n      dup9\n        /* \"#utility.yul\":5032:5054   */\n      add\n        /* \"#utility.yul\":5011:5064   */\n      tag_247\n      jump\t// in\n    tag_347:\n        /* \"#utility.yul\":5001:5064   */\n      swap2\n      pop\n        /* \"#utility.yul\":4956:5074   */\n      pop\n        /* \"#utility.yul\":4316:5081   */\n      swap3\n      swap6\n      swap2\n      swap5\n      pop\n      swap3\n      pop\n      jump\t// out\n        /* \"#utility.yul\":5087:5173   */\n    tag_251:\n        /* \"#utility.yul\":5122:5129   */\n      0x00\n        /* \"#utility.yul\":5162:5166   */\n      0xff\n        /* \"#utility.yul\":5155:5160   */\n      dup3\n        /* \"#utility.yul\":5151:5167   */\n      and\n        /* \"#utility.yul\":5140:5167   */\n      swap1\n      pop\n        /* \"#utility.yul\":5087:5173   */\n      swap2\n      swap1\n      pop\n      jump\t// out\n        /* \"#utility.yul\":5179:5291   */\n    tag_252:\n        /* \"#utility.yul\":5262:5284   */\n      tag_350\n        /* \"#utility.yul\":5278:5283   */\n      dup2\n        /* \"#utility.yul\":5262:5284   */\n      tag_251\n      jump\t// in\n    tag_350:\n        /* \"#utility.yul\":5257:5260   */\n      dup3\n        /* \"#utility.yul\":5250:5285   */\n      mstore\n        /* \"#utility.yul\":5179:5291   */\n      pop\n      pop\n      jump\t// out\n        /* \"#utility.yul\":5297:5511   */\n    tag_50:\n        /* \"#utility.yul\":5386:5390   */\n      0x00\n        /* \"#utility.yul\":5424:5426   */\n      0x20\n        /* \"#utility.yul\":5413:5422   */\n      dup3\n        /* \"#utility.yul\":5409:5427   */\n      add\n        /* \"#utility.yul\":5401:5427   */\n      swap1\n      pop\n        /* \"#utility.yul\":5437:5504   */\n      tag_352\n        /* \"#utility.yul\":5501:5502   */\n      0x00\n        /* \"#utility.yul\":5490:5499   */\n      dup4\n        /* \"#utility.yul\":5486:5503   */\n      add\n        /* \"#utility.yul\":5477:5483   */\n      dup5\n        /* \"#utility.yul\":5437:5504   */\n      tag_252\n      jump\t// in\n    tag_352:\n        /* \"#utility.yul\":5297:5511   */\n      swap3\n      swap2\n      pop\n      pop\n      jump\t// out\n        /* \"#utility.yul\":5517:5991   */\n    tag_53:\n        /* \"#utility.yul\":5585:5591   */\n      0x00\n        /* \"#utility.yul\":5593:5599   */\n      dup1\n        /* \"#utility.yul\":5642:5644   */\n      0x40\n        /* \"#utility.yul\":5630:5639   */\n      dup4\n        /* \"#utility.yul\":5621:5628   */\n      dup6\n        /* \"#utility.yul\":5617:5640   */\n      sub\n        /* \"#utility.yul\":5613:5645   */\n      slt\n        /* \"#utility.yul\":5610:5729   */\n      iszero\n      tag_354\n      jumpi\n        /* \"#utility.yul\":5648:5727   */\n      tag_355\n      tag_239\n      jump\t// in\n    tag_355:\n        /* \"#utility.yul\":5610:5729   */\n    tag_354:\n        /* \"#utility.yul\":5768:5769   */\n      0x00\n        /* \"#utility.yul\":5793:5846   */\n      tag_356\n        /* \"#utility.yul\":5838:5845   */\n      dup6\n        /* \"#utility.yul\":5829:5835   */\n      dup3\n        /* \"#utility.yul\":5818:5827   */\n      dup7\n        /* \"#utility.yul\":5814:5836   */\n      add\n        /* \"#utility.yul\":5793:5846   */\n      tag_247\n      jump\t// in\n    tag_356:\n        /* \"#utility.yul\":5783:5846   */\n      swap3\n      pop\n        /* \"#utility.yul\":5739:5856   */\n      pop\n        /* \"#utility.yul\":5895:5897   */\n      0x20\n        /* \"#utility.yul\":5921:5974   */\n      tag_357\n        /* \"#utility.yul\":5966:5973   */\n      dup6\n        /* \"#utility.yul\":5957:5963   */\n      dup3\n        /* \"#utility.yul\":5946:5955   */\n      dup7\n        /* \"#utility.yul\":5942:5964   */\n      add\n        /* \"#utility.yul\":5921:5974   */\n      tag_244\n      jump\t// in\n    tag_357:\n        /* \"#utility.yul\":5911:5974   */\n      swap2\n      pop\n        /* \"#utility.yul\":5866:5984   */\n      pop\n        /* \"#utility.yul\":5517:5991   */\n      swap3\n      pop\n      swap3\n      swap1\n      pop\n      jump\t// out\n        /* \"#utility.yul\":5997:6326   */\n    tag_64:\n        /* \"#utility.yul\":6056:6062   */\n      0x00\n        /* \"#utility.yul\":6105:6107   */\n      0x20\n        /* \"#utility.yul\":6093:6102   */\n      dup3\n        /* \"#utility.yul\":6084:6091   */\n      dup5\n        /* \"#utility.yul\":6080:6103   */\n      sub\n        /* \"#utility.yul\":6076:6108   */\n      slt\n        /* \"#utility.yul\":6073:6192   */\n      iszero\n      tag_359\n      jumpi\n        /* \"#utility.yul\":6111:6190   */\n      tag_360\n      tag_239\n      jump\t// in\n    tag_360:\n        /* \"#utility.yul\":6073:6192   */\n    tag_359:\n        /* \"#utility.yul\":6231:6232   */\n      0x00\n        /* \"#utility.yul\":6256:6309   */\n      tag_361\n        /* \"#utility.yul\":6301:6308   */\n      dup5\n        /* \"#utility.yul\":6292:6298   */\n      dup3\n        /* \"#utility.yul\":6281:6290   */\n      dup6\n        /* \"#utility.yul\":6277:6299   */\n      add\n        /* \"#utility.yul\":6256:6309   */\n      tag_247\n      jump\t// in\n    tag_361:\n        /* \"#utility.yul\":6246:6309   */\n      swap2\n      pop\n        /* \"#utility.yul\":6202:6319   */\n      pop\n        /* \"#utility.yul\":5997:6326   */\n      swap3\n      swap2\n      pop\n      pop\n      jump\t// out\n        /* \"#utility.yul\":6332:6450   */\n    tag_253:\n        /* \"#utility.yul\":6419:6443   */\n      tag_363\n        /* \"#utility.yul\":6437:6442   */\n      dup2\n        /* \"#utility.yul\":6419:6443   */\n      tag_242\n      jump\t// in\n    tag_363:\n        /* \"#utility.yul\":6414:6417   */\n      dup3\n        /* \"#utility.yul\":6407:6444   */\n      mstore\n        /* \"#utility.yul\":6332:6450   */\n      pop\n      pop\n      jump\t// out\n        /* \"#utility.yul\":6456:6678   */\n    tag_67:\n        /* \"#utility.yul\":6549:6553   */\n      0x00\n        /* \"#utility.yul\":6587:6589   */\n      0x20\n        /* \"#utility.yul\":6576:6585   */\n      dup3\n        /* \"#utility.yul\":6572:6590   */\n      add\n        /* \"#utility.yul\":6564:6590   */\n      swap1\n      pop\n        /* \"#utility.yul\":6600:6671   */\n      tag_365\n        /* \"#utility.yul\":6668:6669   */\n      0x00\n        /* \"#utility.yul\":6657:6666   */\n      dup4\n        /* \"#utility.yul\":6653:6670   */\n      add\n        /* \"#utility.yul\":6644:6650   */\n      dup5\n        /* \"#utility.yul\":6600:6671   */\n      tag_253\n      jump\t// in\n    tag_365:\n        /* \"#utility.yul\":6456:6678   */\n      swap3\n      swap2\n      pop\n      pop\n      jump\t// out\n        /* \"#utility.yul\":6684:7013   */\n    tag_70:\n        /* \"#utility.yul\":6743:6749   */\n      0x00\n        /* \"#utility.yul\":6792:6794   */\n      0x20\n        /* \"#utility.yul\":6780:6789   */\n      dup3\n        /* \"#utility.yul\":6771:6778   */\n      dup5\n        /* \"#utility.yul\":6767:6790   */\n      sub\n        /* \"#utility.yul\":6763:6795   */\n      slt\n        /* \"#utility.yul\":6760:6879   */\n      iszero\n      tag_367\n      jumpi\n        /* \"#utility.yul\":6798:6877   */\n      tag_368\n      tag_239\n      jump\t// in\n    tag_368:\n        /* \"#utility.yul\":6760:6879   */\n    tag_367:\n        /* \"#utility.yul\":6918:6919   */\n      0x00\n        /* \"#utility.yul\":6943:6996   */\n      tag_369\n        /* \"#utility.yul\":6988:6995   */\n      dup5\n        /* \"#utility.yul\":6979:6985   */\n      dup3\n        /* \"#utility.yul\":6968:6977   */\n      dup6\n        /* \"#utility.yul\":6964:6986   */\n      add\n        /* \"#utility.yul\":6943:6996   */\n      tag_244\n      jump\t// in\n    tag_369:\n        /* \"#utility.yul\":6933:6996   */\n      swap2\n      pop\n        /* \"#utility.yul\":6889:7006   */\n      pop\n        /* \"#utility.yul\":6684:7013   */\n      swap3\n      swap2\n      pop\n      pop\n      jump\t// out\n        /* \"#utility.yul\":7019:7638   */\n    tag_78:\n        /* \"#utility.yul\":7096:7102   */\n      0x00\n        /* \"#utility.yul\":7104:7110   */\n      dup1\n        /* \"#utility.yul\":7112:7118   */\n      0x00\n        /* \"#utility.yul\":7161:7163   */\n      0x60\n        /* \"#utility.yul\":7149:7158   */\n      dup5\n        /* \"#utility.yul\":7140:7147   */\n      dup7\n        /* \"#utility.yul\":7136:7159   */\n      sub\n        /* \"#utility.yul\":7132:7164   */\n      slt\n        /* \"#utility.yul\":7129:7248   */\n      iszero\n      tag_371\n      jumpi\n        /* \"#utility.yul\":7167:7246   */\n      tag_372\n      tag_239\n      jump\t// in\n    tag_372:\n        /* \"#utility.yul\":7129:7248   */\n    tag_371:\n        /* \"#utility.yul\":7287:7288   */\n      0x00\n        /* \"#utility.yul\":7312:7365   */\n      tag_373\n        /* \"#utility.yul\":7357:7364   */\n      dup7\n        /* \"#utility.yul\":7348:7354   */\n      dup3\n        /* \"#utility.yul\":7337:7346   */\n      dup8\n        /* \"#utility.yul\":7333:7355   */\n      add\n        /* \"#utility.yul\":7312:7365   */\n      tag_247\n      jump\t// in\n    tag_373:\n        /* \"#utility.yul\":7302:7365   */\n      swap4\n      pop\n        /* \"#utility.yul\":7258:7375   */\n      pop\n        /* \"#utility.yul\":7414:7416   */\n      0x20\n        /* \"#utility.yul\":7440:7493   */\n      tag_374\n        /* \"#utility.yul\":7485:7492   */\n      dup7\n        /* \"#utility.yul\":7476:7482   */\n      dup3\n        /* \"#utility.yul\":7465:7474   */\n      dup8\n        /* \"#utility.yul\":7461:7483   */\n      add\n        /* \"#utility.yul\":7440:7493   */\n      tag_244\n      jump\t// in\n    tag_374:\n        /* \"#utility.yul\":7430:7493   */\n      swap3\n      pop\n        /* \"#utility.yul\":7385:7503   */\n      pop\n        /* \"#utility.yul\":7542:7544   */\n      0x40\n        /* \"#utility.yul\":7568:7621   */\n      tag_375\n        /* \"#utility.yul\":7613:7620   */\n      dup7\n        /* \"#utility.yul\":7604:7610   */\n      dup3\n        /* \"#utility.yul\":7593:7602   */\n      dup8\n        /* \"#utility.yul\":7589:7611   */\n      add\n        /* \"#utility.yul\":7568:7621   */\n      tag_247\n      jump\t// in\n    tag_375:\n        /* \"#utility.yul\":7558:7621   */\n      swap2\n      pop\n        /* \"#utility.yul\":7513:7631   */\n      pop\n        /* \"#utility.yul\":7019:7638   */\n      swap3\n      pop\n      swap3\n      pop\n      swap3\n      jump\t// out\n        /* \"#utility.yul\":7644:7761   */\n    tag_254:\n        /* \"#utility.yul\":7753:7754   */\n      0x00\n        /* \"#utility.yul\":7750:7751   */\n      dup1\n        /* \"#utility.yul\":7743:7755   */\n      revert\n        /* \"#utility.yul\":7767:7947   */\n    tag_255:\n        /* \"#utility.yul\":7815:7892   */\n      0x4e487b7100000000000000000000000000000000000000000000000000000000\n        /* \"#utility.yul\":7812:7813   */\n      0x00\n        /* \"#utility.yul\":7805:7893   */\n      mstore\n        /* \"#utility.yul\":7912:7916   */\n      0x41\n        /* \"#utility.yul\":7909:7910   */\n      0x04\n        /* \"#utility.yul\":7902:7917   */\n      mstore\n        /* \"#utility.yul\":7936:7940   */\n      0x24\n        /* \"#utility.yul\":7933:7934   */\n      0x00\n        /* \"#utility.yul\":7926:7941   */\n      revert\n        /* \"#utility.yul\":7953:8234   */\n    tag_256:\n        /* \"#utility.yul\":8036:8063   */\n      tag_379\n        /* \"#utility.yul\":8058:8062   */\n      dup3\n        /* \"#utility.yul\":8036:8063   */\n      tag_236\n      jump\t// in\n    tag_379:\n        /* \"#utility.yul\":8028:8034   */\n      dup2\n        /* \"#utility.yul\":8024:8064   */\n      add\n        /* \"#utility.yul\":8166:8172   */\n      dup2\n        /* \"#utility.yul\":8154:8164   */\n      dup2\n        /* \"#utility.yul\":8151:8173   */\n      lt\n        /* \"#utility.yul\":8130:8148   */\n      0xffffffffffffffff\n        /* \"#utility.yul\":8118:8128   */\n      dup3\n        /* \"#utility.yul\":8115:8149   */\n      gt\n        /* \"#utility.yul\":8112:8174   */\n      or\n        /* \"#utility.yul\":8109:8197   */\n      iszero\n      tag_380\n      jumpi\n        /* \"#utility.yul\":8177:8195   */\n      tag_381\n      tag_255\n      jump\t// in\n    tag_381:\n        /* \"#utility.yul\":8109:8197   */\n    tag_380:\n        /* \"#utility.yul\":8217:8227   */\n      dup1\n        /* \"#utility.yul\":8213:8215   */\n      0x40\n        /* \"#utility.yul\":8206:8228   */\n      mstore\n        /* \"#utility.yul\":7996:8234   */\n      pop\n        /* \"#utility.yul\":7953:8234   */\n      pop\n      pop\n      jump\t// out\n        /* \"#utility.yul\":8240:8369   */\n    tag_257:\n        /* \"#utility.yul\":8274:8280   */\n      0x00\n        /* \"#utility.yul\":8301:8321   */\n      tag_383\n      tag_238\n      jump\t// in\n    tag_383:\n        /* \"#utility.yul\":8291:8321   */\n      swap1\n      pop\n        /* \"#utility.yul\":8330:8363   */\n      tag_384\n        /* \"#utility.yul\":8358:8362   */\n      dup3\n        /* \"#utility.yul\":8350:8356   */\n      dup3\n        /* \"#utility.yul\":8330:8363   */\n      tag_256\n      jump\t// in\n    tag_384:\n        /* \"#utility.yul\":8240:8369   */\n      swap2\n      swap1\n      pop\n      jump\t// out\n        /* \"#utility.yul\":8375:8686   */\n    tag_258:\n        /* \"#utility.yul\":8452:8456   */\n      0x00\n        /* \"#utility.yul\":8542:8560   */\n      0xffffffffffffffff\n        /* \"#utility.yul\":8534:8540   */\n      dup3\n        /* \"#utility.yul\":8531:8561   */\n      gt\n        /* \"#utility.yul\":8528:8584   */\n      iszero\n      tag_386\n      jumpi\n        /* \"#utility.yul\":8564:8582   */\n      tag_387\n      tag_255\n      jump\t// in\n    tag_387:\n        /* \"#utility.yul\":8528:8584   */\n    tag_386:\n        /* \"#utility.yul\":8614:8618   */\n      0x20\n        /* \"#utility.yul\":8606:8612   */\n      dup3\n        /* \"#utility.yul\":8602:8619   */\n      mul\n        /* \"#utility.yul\":8594:8619   */\n      swap1\n      pop\n        /* \"#utility.yul\":8674:8678   */\n      0x20\n        /* \"#utility.yul\":8668:8672   */\n      dup2\n        /* \"#utility.yul\":8664:8679   */\n      add\n        /* \"#utility.yul\":8656:8679   */\n      swap1\n      pop\n        /* \"#utility.yul\":8375:8686   */\n      swap2\n      swap1\n      pop\n      jump\t// out\n        /* \"#utility.yul\":8692:8809   */\n    tag_259:\n        /* \"#utility.yul\":8801:8802   */\n      0x00\n        /* \"#utility.yul\":8798:8799   */\n      dup1\n        /* \"#utility.yul\":8791:8803   */\n      revert\n        /* \"#utility.yul\":8832:9542   */\n    tag_260:\n        /* \"#utility.yul\":8928:8933   */\n      0x00\n        /* \"#utility.yul\":8953:9034   */\n      tag_390\n        /* \"#utility.yul\":8969:9033   */\n      tag_391\n        /* \"#utility.yul\":9026:9032   */\n      dup5\n        /* \"#utility.yul\":8969:9033   */\n      tag_258\n      jump\t// in\n    tag_391:\n        /* \"#utility.yul\":8953:9034   */\n      tag_257\n      jump\t// in\n    tag_390:\n        /* \"#utility.yul\":8944:9034   */\n      swap1\n      pop\n        /* \"#utility.yul\":9054:9059   */\n      dup1\n        /* \"#utility.yul\":9083:9089   */\n      dup4\n        /* \"#utility.yul\":9076:9081   */\n      dup3\n        /* \"#utility.yul\":9069:9090   */\n      mstore\n        /* \"#utility.yul\":9117:9121   */\n      0x20\n        /* \"#utility.yul\":9110:9115   */\n      dup3\n        /* \"#utility.yul\":9106:9122   */\n      add\n        /* \"#utility.yul\":9099:9122   */\n      swap1\n      pop\n        /* \"#utility.yul\":9170:9174   */\n      0x20\n        /* \"#utility.yul\":9162:9168   */\n      dup5\n        /* \"#utility.yul\":9158:9175   */\n      mul\n        /* \"#utility.yul\":9150:9156   */\n      dup4\n        /* \"#utility.yul\":9146:9176   */\n      add\n        /* \"#utility.yul\":9199:9202   */\n      dup6\n        /* \"#utility.yul\":9191:9197   */\n      dup2\n        /* \"#utility.yul\":9188:9203   */\n      gt\n        /* \"#utility.yul\":9185:9307   */\n      iszero\n      tag_392\n      jumpi\n        /* \"#utility.yul\":9218:9297   */\n      tag_393\n      tag_259\n      jump\t// in\n    tag_393:\n        /* \"#utility.yul\":9185:9307   */\n    tag_392:\n        /* \"#utility.yul\":9333:9339   */\n      dup4\n        /* \"#utility.yul\":9316:9536   */\n    tag_394:\n        /* \"#utility.yul\":9350:9356   */\n      dup2\n        /* \"#utility.yul\":9345:9348   */\n      dup2\n        /* \"#utility.yul\":9342:9357   */\n      lt\n        /* \"#utility.yul\":9316:9536   */\n      iszero\n      tag_396\n      jumpi\n        /* \"#utility.yul\":9425:9428   */\n      dup1\n        /* \"#utility.yul\":9454:9491   */\n      tag_397\n        /* \"#utility.yul\":9487:9490   */\n      dup9\n        /* \"#utility.yul\":9475:9485   */\n      dup3\n        /* \"#utility.yul\":9454:9491   */\n      tag_244\n      jump\t// in\n    tag_397:\n        /* \"#utility.yul\":9449:9452   */\n      dup5\n        /* \"#utility.yul\":9442:9492   */\n      mstore\n        /* \"#utility.yul\":9521:9525   */\n      0x20\n        /* \"#utility.yul\":9516:9519   */\n      dup5\n        /* \"#utility.yul\":9512:9526   */\n      add\n        /* \"#utility.yul\":9505:9526   */\n      swap4\n      pop\n        /* \"#utility.yul\":9392:9536   */\n      pop\n        /* \"#utility.yul\":9376:9380   */\n      0x20\n        /* \"#utility.yul\":9371:9374   */\n      dup2\n        /* \"#utility.yul\":9367:9381   */\n      add\n        /* \"#utility.yul\":9360:9381   */\n      swap1\n      pop\n        /* \"#utility.yul\":9316:9536   */\n      jump(tag_394)\n    tag_396:\n        /* \"#utility.yul\":9320:9341   */\n      pop\n        /* \"#utility.yul\":8934:9542   */\n      pop\n      pop\n        /* \"#utility.yul\":8832:9542   */\n      swap4\n      swap3\n      pop\n      pop\n      pop\n      jump\t// out\n        /* \"#utility.yul\":9565:9935   */\n    tag_261:\n        /* \"#utility.yul\":9636:9641   */\n      0x00\n        /* \"#utility.yul\":9685:9688   */\n      dup3\n        /* \"#utility.yul\":9678:9682   */\n      0x1f\n        /* \"#utility.yul\":9670:9676   */\n      dup4\n        /* \"#utility.yul\":9666:9683   */\n      add\n        /* \"#utility.yul\":9662:9689   */\n      slt\n        /* \"#utility.yul\":9652:9774   */\n      tag_399\n      jumpi\n        /* \"#utility.yul\":9693:9772   */\n      tag_400\n      tag_254\n      jump\t// in\n    tag_400:\n        /* \"#utility.yul\":9652:9774   */\n    tag_399:\n        /* \"#utility.yul\":9810:9816   */\n      dup2\n        /* \"#utility.yul\":9797:9817   */\n      calldataload\n        /* \"#utility.yul\":9835:9929   */\n      tag_401\n        /* \"#utility.yul\":9925:9928   */\n      dup5\n        /* \"#utility.yul\":9917:9923   */\n      dup3\n        /* \"#utility.yul\":9910:9914   */\n      0x20\n        /* \"#utility.yul\":9902:9908   */\n      dup7\n        /* \"#utility.yul\":9898:9915   */\n      add\n        /* \"#utility.yul\":9835:9929   */\n      tag_260\n      jump\t// in\n    tag_401:\n        /* \"#utility.yul\":9826:9929   */\n      swap2\n      pop\n        /* \"#utility.yul\":9642:9935   */\n      pop\n        /* \"#utility.yul\":9565:9935   */\n      swap3\n      swap2\n      pop\n      pop\n      jump\t// out\n        /* \"#utility.yul\":9941:10625   */\n    tag_90:\n        /* \"#utility.yul\":10034:10040   */\n      0x00\n        /* \"#utility.yul\":10042:10048   */\n      dup1\n        /* \"#utility.yul\":10091:10093   */\n      0x40\n        /* \"#utility.yul\":10079:10088   */\n      dup4\n        /* \"#utility.yul\":10070:10077   */\n      dup6\n        /* \"#utility.yul\":10066:10089   */\n      sub\n        /* \"#utility.yul\":10062:10094   */\n      slt\n        /* \"#utility.yul\":10059:10178   */\n      iszero\n      tag_403\n      jumpi\n        /* \"#utility.yul\":10097:10176   */\n      tag_404\n      tag_239\n      jump\t// in\n    tag_404:\n        /* \"#utility.yul\":10059:10178   */\n    tag_403:\n        /* \"#utility.yul\":10217:10218   */\n      0x00\n        /* \"#utility.yul\":10242:10295   */\n      tag_405\n        /* \"#utility.yul\":10287:10294   */\n      dup6\n        /* \"#utility.yul\":10278:10284   */\n      dup3\n        /* \"#utility.yul\":10267:10276   */\n      dup7\n        /* \"#utility.yul\":10263:10285   */\n      add\n        /* \"#utility.yul\":10242:10295   */\n      tag_247\n      jump\t// in\n    tag_405:\n        /* \"#utility.yul\":10232:10295   */\n      swap3\n      pop\n        /* \"#utility.yul\":10188:10305   */\n      pop\n        /* \"#utility.yul\":10372:10374   */\n      0x20\n        /* \"#utility.yul\":10361:10370   */\n      dup4\n        /* \"#utility.yul\":10357:10375   */\n      add\n        /* \"#utility.yul\":10344:10376   */\n      calldataload\n        /* \"#utility.yul\":10403:10421   */\n      0xffffffffffffffff\n        /* \"#utility.yul\":10395:10401   */\n      dup2\n        /* \"#utility.yul\":10392:10422   */\n      gt\n        /* \"#utility.yul\":10389:10506   */\n      iszero\n      tag_406\n      jumpi\n        /* \"#utility.yul\":10425:10504   */\n      tag_407\n      tag_240\n      jump\t// in\n    tag_407:\n        /* \"#utility.yul\":10389:10506   */\n    tag_406:\n        /* \"#utility.yul\":10530:10608   */\n      tag_408\n        /* \"#utility.yul\":10600:10607   */\n      dup6\n        /* \"#utility.yul\":10591:10597   */\n      dup3\n        /* \"#utility.yul\":10580:10589   */\n      dup7\n        /* \"#utility.yul\":10576:10598   */\n      add\n        /* \"#utility.yul\":10530:10608   */\n      tag_261\n      jump\t// in\n    tag_408:\n        /* \"#utility.yul\":10520:10608   */\n      swap2\n      pop\n        /* \"#utility.yul\":10315:10618   */\n      pop\n        /* \"#utility.yul\":9941:10625   */\n      swap3\n      pop\n      swap3\n      swap1\n      pop\n      jump\t// out\n        /* \"#utility.yul\":10631:11105   */\n    tag_94:\n        /* \"#utility.yul\":10699:10705   */\n      0x00\n        /* \"#utility.yul\":10707:10713   */\n      dup1\n        /* \"#utility.yul\":10756:10758   */\n      0x40\n        /* \"#utility.yul\":10744:10753   */\n      dup4\n        /* \"#utility.yul\":10735:10742   */\n      dup6\n        /* \"#utility.yul\":10731:10754   */\n      sub\n        /* \"#utility.yul\":10727:10759   */\n      slt\n        /* \"#utility.yul\":10724:10843   */\n      iszero\n      tag_410\n      jumpi\n        /* \"#utility.yul\":10762:10841   */\n      tag_411\n      tag_239\n      jump\t// in\n    tag_411:\n        /* \"#utility.yul\":10724:10843   */\n    tag_410:\n        /* \"#utility.yul\":10882:10883   */\n      0x00\n        /* \"#utility.yul\":10907:10960   */\n      tag_412\n        /* \"#utility.yul\":10952:10959   */\n      dup6\n        /* \"#utility.yul\":10943:10949   */\n      dup3\n        /* \"#utility.yul\":10932:10941   */\n      dup7\n        /* \"#utility.yul\":10928:10950   */\n      add\n        /* \"#utility.yul\":10907:10960   */\n      tag_244\n      jump\t// in\n    tag_412:\n        /* \"#utility.yul\":10897:10960   */\n      swap3\n      pop\n        /* \"#utility.yul\":10853:10970   */\n      pop\n        /* \"#utility.yul\":11009:11011   */\n      0x20\n        /* \"#utility.yul\":11035:11088   */\n      tag_413\n        /* \"#utility.yul\":11080:11087   */\n      dup6\n        /* \"#utility.yul\":11071:11077   */\n      dup3\n        /* \"#utility.yul\":11060:11069   */\n      dup7\n        /* \"#utility.yul\":11056:11078   */\n      add\n        /* \"#utility.yul\":11035:11088   */\n      tag_244\n      jump\t// in\n    tag_413:\n        /* \"#utility.yul\":11025:11088   */\n      swap2\n      pop\n        /* \"#utility.yul\":10980:11098   */\n      pop\n        /* \"#utility.yul\":10631:11105   */\n      swap3\n      pop\n      swap3\n      swap1\n      pop\n      jump\t// out\n        /* \"#utility.yul\":11111:11291   */\n    tag_262:\n        /* \"#utility.yul\":11159:11236   */\n      0x4e487b7100000000000000000000000000000000000000000000000000000000\n        /* \"#utility.yul\":11156:11157   */\n      0x00\n        /* \"#utility.yul\":11149:11237   */\n      mstore\n        /* \"#utility.yul\":11256:11260   */\n      0x22\n        /* \"#utility.yul\":11253:11254   */\n      0x04\n        /* \"#utility.yul\":11246:11261   */\n      mstore\n        /* \"#utility.yul\":11280:11284   */\n      0x24\n        /* \"#utility.yul\":11277:11278   */\n      0x00\n        /* \"#utility.yul\":11270:11285   */\n      revert\n        /* \"#utility.yul\":11297:11617   */\n    tag_102:\n        /* \"#utility.yul\":11341:11347   */\n      0x00\n        /* \"#utility.yul\":11378:11379   */\n      0x02\n        /* \"#utility.yul\":11372:11376   */\n      dup3\n        /* \"#utility.yul\":11368:11380   */\n      div\n        /* \"#utility.yul\":11358:11380   */\n      swap1\n      pop\n        /* \"#utility.yul\":11425:11426   */\n      0x01\n        /* \"#utility.yul\":11419:11423   */\n      dup3\n        /* \"#utility.yul\":11415:11427   */\n      and\n        /* \"#utility.yul\":11446:11464   */\n      dup1\n        /* \"#utility.yul\":11436:11517   */\n      tag_416\n      jumpi\n        /* \"#utility.yul\":11502:11506   */\n      0x7f\n        /* \"#utility.yul\":11494:11500   */\n      dup3\n        /* \"#utility.yul\":11490:11507   */\n      and\n        /* \"#utility.yul\":11480:11507   */\n      swap2\n      pop\n        /* \"#utility.yul\":11436:11517   */\n    tag_416:\n        /* \"#utility.yul\":11564:11566   */\n      0x20\n        /* \"#utility.yul\":11556:11562   */\n      dup3\n        /* \"#utility.yul\":11553:11567   */\n      lt\n        /* \"#utility.yul\":11533:11551   */\n      dup2\n        /* \"#utility.yul\":11530:11568   */\n      sub\n        /* \"#utility.yul\":11527:11611   */\n      tag_417\n      jumpi\n        /* \"#utility.yul\":11583:11601   */\n      tag_418\n      tag_262\n      jump\t// in\n    tag_418:\n        /* \"#utility.yul\":11527:11611   */\n    tag_417:\n        /* \"#utility.yul\":11348:11617   */\n      pop\n        /* \"#utility.yul\":11297:11617   */\n      swap2\n      swap1\n      pop\n      jump\t// out\n        /* \"#utility.yul\":11623:11786   */\n    tag_263:\n        /* \"#utility.yul\":11763:11778   */\n      0x496e76616c696420626f61726400000000000000000000000000000000000000\n        /* \"#utility.yul\":11759:11760   */\n      0x00\n        /* \"#utility.yul\":11751:11757   */\n      dup3\n        /* \"#utility.yul\":11747:11761   */\n      add\n        /* \"#utility.yul\":11740:11779   */\n      mstore\n        /* \"#utility.yul\":11623:11786   */\n      pop\n      jump\t// out\n        /* \"#utility.yul\":11792:12158   */\n    tag_264:\n        /* \"#utility.yul\":11934:11937   */\n      0x00\n        /* \"#utility.yul\":11955:12022   */\n      tag_421\n        /* \"#utility.yul\":12019:12021   */\n      0x0d\n        /* \"#utility.yul\":12014:12017   */\n      dup4\n        /* \"#utility.yul\":11955:12022   */\n      tag_234\n      jump\t// in\n    tag_421:\n        /* \"#utility.yul\":11948:12022   */\n      swap2\n      pop\n        /* \"#utility.yul\":12031:12124   */\n      tag_422\n        /* \"#utility.yul\":12120:12123   */\n      dup3\n        /* \"#utility.yul\":12031:12124   */\n      tag_263\n      jump\t// in\n    tag_422:\n        /* \"#utility.yul\":12149:12151   */\n      0x20\n        /* \"#utility.yul\":12144:12147   */\n      dup3\n        /* \"#utility.yul\":12140:12152   */\n      add\n        /* \"#utility.yul\":12133:12152   */\n      swap1\n      pop\n        /* \"#utility.yul\":11792:12158   */\n      swap2\n      swap1\n      pop\n      jump\t// out\n        /* \"#utility.yul\":12164:12583   */\n    tag_122:\n        /* \"#utility.yul\":12330:12334   */\n      0x00\n        /* \"#utility.yul\":12368:12370   */\n      0x20\n        /* \"#utility.yul\":12357:12366   */\n      dup3\n        /* \"#utility.yul\":12353:12371   */\n      add\n        /* \"#utility.yul\":12345:12371   */\n      swap1\n      pop\n        /* \"#utility.yul\":12417:12426   */\n      dup2\n        /* \"#utility.yul\":12411:12415   */\n      dup2\n        /* \"#utility.yul\":12407:12427   */\n      sub\n        /* \"#utility.yul\":12403:12404   */\n      0x00\n        /* \"#utility.yul\":12392:12401   */\n      dup4\n        /* \"#utility.yul\":12388:12405   */\n      add\n        /* \"#utility.yul\":12381:12428   */\n      mstore\n        /* \"#utility.yul\":12445:12576   */\n      tag_424\n        /* \"#utility.yul\":12571:12575   */\n      dup2\n        /* \"#utility.yul\":12445:12576   */\n      tag_264\n      jump\t// in\n    tag_424:\n        /* \"#utility.yul\":12437:12576   */\n      swap1\n      pop\n        /* \"#utility.yul\":12164:12583   */\n      swap2\n      swap1\n      pop\n      jump\t// out\n        /* \"#utility.yul\":12589:12759   */\n    tag_265:\n        /* \"#utility.yul\":12729:12751   */\n      0x426f61726420616c726561647920657869737473000000000000000000000000\n        /* \"#utility.yul\":12725:12726   */\n      0x00\n        /* \"#utility.yul\":12717:12723   */\n      dup3\n        /* \"#utility.yul\":12713:12727   */\n      add\n        /* \"#utility.yul\":12706:12752   */\n      mstore\n        /* \"#utility.yul\":12589:12759   */\n      pop\n      jump\t// out\n        /* \"#utility.yul\":12765:13131   */\n    tag_266:\n        /* \"#utility.yul\":12907:12910   */\n      0x00\n        /* \"#utility.yul\":12928:12995   */\n      tag_427\n        /* \"#utility.yul\":12992:12994   */\n      0x14\n        /* \"#utility.yul\":12987:12990   */\n      dup4\n        /* \"#utility.yul\":12928:12995   */\n      tag_234\n      jump\t// in\n    tag_427:\n        /* \"#utility.yul\":12921:12995   */\n      swap2\n      pop\n        /* \"#utility.yul\":13004:13097   */\n      tag_428\n        /* \"#utility.yul\":13093:13096   */\n      dup3\n        /* \"#utility.yul\":13004:13097   */\n      tag_265\n      jump\t// in\n    tag_428:\n        /* \"#utility.yul\":13122:13124   */\n      0x20\n        /* \"#utility.yul\":13117:13120   */\n      dup3\n        /* \"#utility.yul\":13113:13125   */\n      add\n        /* \"#utility.yul\":13106:13125   */\n      swap1\n      pop\n        /* \"#utility.yul\":12765:13131   */\n      swap2\n      swap1\n      pop\n      jump\t// out\n        /* \"#utility.yul\":13137:13556   */\n    tag_128:\n        /* \"#utility.yul\":13303:13307   */\n      0x00\n        /* \"#utility.yul\":13341:13343   */\n      0x20\n        /* \"#utility.yul\":13330:13339   */\n      dup3\n        /* \"#utility.yul\":13326:13344   */\n      add\n        /* \"#utility.yul\":13318:13344   */\n      swap1\n      pop\n        /* \"#utility.yul\":13390:13399   */\n      dup2\n        /* \"#utility.yul\":13384:13388   */\n      dup2\n        /* \"#utility.yul\":13380:13400   */\n      sub\n        /* \"#utility.yul\":13376:13377   */\n      0x00\n        /* \"#utility.yul\":13365:13374   */\n      dup4\n        /* \"#utility.yul\":13361:13378   */\n      add\n        /* \"#utility.yul\":13354:13401   */\n      mstore\n        /* \"#utility.yul\":13418:13549   */\n      tag_430\n        /* \"#utility.yul\":13544:13548   */\n      dup2\n        /* \"#utility.yul\":13418:13549   */\n      tag_266\n      jump\t// in\n    tag_430:\n        /* \"#utility.yul\":13410:13549   */\n      swap1\n      pop\n        /* \"#utility.yul\":13137:13556   */\n      swap2\n      swap1\n      pop\n      jump\t// out\n        /* \"#utility.yul\":13562:13742   */\n    tag_267:\n        /* \"#utility.yul\":13610:13687   */\n      0x4e487b7100000000000000000000000000000000000000000000000000000000\n        /* \"#utility.yul\":13607:13608   */\n      0x00\n        /* \"#utility.yul\":13600:13688   */\n      mstore\n        /* \"#utility.yul\":13707:13711   */\n      0x11\n        /* \"#utility.yul\":13704:13705   */\n      0x04\n        /* \"#utility.yul\":13697:13712   */\n      mstore\n        /* \"#utility.yul\":13731:13735   */\n      0x24\n        /* \"#utility.yul\":13728:13729   */\n      0x00\n        /* \"#utility.yul\":13721:13736   */\n      revert\n        /* \"#utility.yul\":13748:13939   */\n    tag_136:\n        /* \"#utility.yul\":13788:13791   */\n      0x00\n        /* \"#utility.yul\":13807:13827   */\n      tag_433\n        /* \"#utility.yul\":13825:13826   */\n      dup3\n        /* \"#utility.yul\":13807:13827   */\n      tag_245\n      jump\t// in\n    tag_433:\n        /* \"#utility.yul\":13802:13827   */\n      swap2\n      pop\n        /* \"#utility.yul\":13841:13861   */\n      tag_434\n        /* \"#utility.yul\":13859:13860   */\n      dup4\n        /* \"#utility.yul\":13841:13861   */\n      tag_245\n      jump\t// in\n    tag_434:\n        /* \"#utility.yul\":13836:13861   */\n      swap3\n      pop\n        /* \"#utility.yul\":13884:13885   */\n      dup3\n        /* \"#utility.yul\":13881:13882   */\n      dup3\n        /* \"#utility.yul\":13877:13886   */\n      add\n        /* \"#utility.yul\":13870:13886   */\n      swap1\n      pop\n        /* \"#utility.yul\":13905:13908   */\n      dup1\n        /* \"#utility.yul\":13902:13903   */\n      dup3\n        /* \"#utility.yul\":13899:13909   */\n      gt\n        /* \"#utility.yul\":13896:13932   */\n      iszero\n      tag_435\n      jumpi\n        /* \"#utility.yul\":13912:13930   */\n      tag_436\n      tag_267\n      jump\t// in\n    tag_436:\n        /* \"#utility.yul\":13896:13932   */\n    tag_435:\n        /* \"#utility.yul\":13748:13939   */\n      swap3\n      swap2\n      pop\n      pop\n      jump\t// out\n        /* \"#utility.yul\":13945:14169   */\n    tag_268:\n        /* \"#utility.yul\":14085:14119   */\n      0x4f6e6c79207468652062616e6b2063616e206275726e2062616e6b7275707420\n        /* \"#utility.yul\":14081:14082   */\n      0x00\n        /* \"#utility.yul\":14073:14079   */\n      dup3\n        /* \"#utility.yul\":14069:14083   */\n      add\n        /* \"#utility.yul\":14062:14120   */\n      mstore\n        /* \"#utility.yul\":14154:14161   */\n      0x66756e6473000000000000000000000000000000000000000000000000000000\n        /* \"#utility.yul\":14149:14151   */\n      0x20\n        /* \"#utility.yul\":14141:14147   */\n      dup3\n        /* \"#utility.yul\":14137:14152   */\n      add\n        /* \"#utility.yul\":14130:14162   */\n      mstore\n        /* \"#utility.yul\":13945:14169   */\n      pop\n      jump\t// out\n        /* \"#utility.yul\":14175:14541   */\n    tag_269:\n        /* \"#utility.yul\":14317:14320   */\n      0x00\n        /* \"#utility.yul\":14338:14405   */\n      tag_439\n        /* \"#utility.yul\":14402:14404   */\n      0x25\n        /* \"#utility.yul\":14397:14400   */\n      dup4\n        /* \"#utility.yul\":14338:14405   */\n      tag_234\n      jump\t// in\n    tag_439:\n        /* \"#utility.yul\":14331:14405   */\n      swap2\n      pop\n        /* \"#utility.yul\":14414:14507   */\n      tag_440\n        /* \"#utility.yul\":14503:14506   */\n      dup3\n        /* \"#utility.yul\":14414:14507   */\n      tag_268\n      jump\t// in\n    tag_440:\n        /* \"#utility.yul\":14532:14534   */\n      0x40\n        /* \"#utility.yul\":14527:14530   */\n      dup3\n        /* \"#utility.yul\":14523:14535   */\n      add\n        /* \"#utility.yul\":14516:14535   */\n      swap1\n      pop\n        /* \"#utility.yul\":14175:14541   */\n      swap2\n      swap1\n      pop\n      jump\t// out\n        /* \"#utility.yul\":14547:14966   */\n    tag_140:\n        /* \"#utility.yul\":14713:14717   */\n      0x00\n        /* \"#utility.yul\":14751:14753   */\n      0x20\n        /* \"#utility.yul\":14740:14749   */\n      dup3\n        /* \"#utility.yul\":14736:14754   */\n      add\n        /* \"#utility.yul\":14728:14754   */\n      swap1\n      pop\n        /* \"#utility.yul\":14800:14809   */\n      dup2\n        /* \"#utility.yul\":14794:14798   */\n      dup2\n        /* \"#utility.yul\":14790:14810   */\n      sub\n        /* \"#utility.yul\":14786:14787   */\n      0x00\n        /* \"#utility.yul\":14775:14784   */\n      dup4\n        /* \"#utility.yul\":14771:14788   */\n      add\n        /* \"#utility.yul\":14764:14811   */\n      mstore\n        /* \"#utility.yul\":14828:14959   */\n      tag_442\n        /* \"#utility.yul\":14954:14958   */\n      dup2\n        /* \"#utility.yul\":14828:14959   */\n      tag_269\n      jump\t// in\n    tag_442:\n        /* \"#utility.yul\":14820:14959   */\n      swap1\n      pop\n        /* \"#utility.yul\":14547:14966   */\n      swap2\n      swap1\n      pop\n      jump\t// out\n        /* \"#utility.yul\":14972:15196   */\n    tag_270:\n        /* \"#utility.yul\":15112:15146   */\n      0x45524332303a2064656372656173656420616c6c6f77616e63652062656c6f77\n        /* \"#utility.yul\":15108:15109   */\n      0x00\n        /* \"#utility.yul\":15100:15106   */\n      dup3\n        /* \"#utility.yul\":15096:15110   */\n      add\n        /* \"#utility.yul\":15089:15147   */\n      mstore\n        /* \"#utility.yul\":15181:15188   */\n      0x207a65726f000000000000000000000000000000000000000000000000000000\n        /* \"#utility.yul\":15176:15178   */\n      0x20\n        /* \"#utility.yul\":15168:15174   */\n      dup3\n        /* \"#utility.yul\":15164:15179   */\n      add\n        /* \"#utility.yul\":15157:15189   */\n      mstore\n        /* \"#utility.yul\":14972:15196   */\n      pop\n      jump\t// out\n        /* \"#utility.yul\":15202:15568   */\n    tag_271:\n        /* \"#utility.yul\":15344:15347   */\n      0x00\n        /* \"#utility.yul\":15365:15432   */\n      tag_445\n        /* \"#utility.yul\":15429:15431   */\n      0x25\n        /* \"#utility.yul\":15424:15427   */\n      dup4\n        /* \"#utility.yul\":15365:15432   */\n      tag_234\n      jump\t// in\n    tag_445:\n        /* \"#utility.yul\":15358:15432   */\n      swap2\n      pop\n        /* \"#utility.yul\":15441:15534   */\n      tag_446\n        /* \"#utility.yul\":15530:15533   */\n      dup3\n        /* \"#utility.yul\":15441:15534   */\n      tag_270\n      jump\t// in\n    tag_446:\n        /* \"#utility.yul\":15559:15561   */\n      0x40\n        /* \"#utility.yul\":15554:15557   */\n      dup3\n        /* \"#utility.yul\":15550:15562   */\n      add\n        /* \"#utility.yul\":15543:15562   */\n      swap1\n      pop\n        /* \"#utility.yul\":15202:15568   */\n      swap2\n      swap1\n      pop\n      jump\t// out\n        /* \"#utility.yul\":15574:15993   */\n    tag_161:\n        /* \"#utility.yul\":15740:15744   */\n      0x00\n        /* \"#utility.yul\":15778:15780   */\n      0x20\n        /* \"#utility.yul\":15767:15776   */\n      dup3\n        /* \"#utility.yul\":15763:15781   */\n      add\n        /* \"#utility.yul\":15755:15781   */\n      swap1\n      pop\n        /* \"#utility.yul\":15827:15836   */\n      dup2\n        /* \"#utility.yul\":15821:15825   */\n      dup2\n        /* \"#utility.yul\":15817:15837   */\n      sub\n        /* \"#utility.yul\":15813:15814   */\n      0x00\n        /* \"#utility.yul\":15802:15811   */\n      dup4\n        /* \"#utility.yul\":15798:15815   */\n      add\n        /* \"#utility.yul\":15791:15838   */\n      mstore\n        /* \"#utility.yul\":15855:15986   */\n      tag_448\n        /* \"#utility.yul\":15981:15985   */\n      dup2\n        /* \"#utility.yul\":15855:15986   */\n      tag_271\n      jump\t// in\n    tag_448:\n        /* \"#utility.yul\":15847:15986   */\n      swap1\n      pop\n        /* \"#utility.yul\":15574:15993   */\n      swap2\n      swap1\n      pop\n      jump\t// out\n        /* \"#utility.yul\":15999:16226   */\n    tag_272:\n        /* \"#utility.yul\":16139:16173   */\n      0x4f6e6c792074686520626f6172642062616e6b2063616e206469737472696275\n        /* \"#utility.yul\":16135:16136   */\n      0x00\n        /* \"#utility.yul\":16127:16133   */\n      dup3\n        /* \"#utility.yul\":16123:16137   */\n      add\n        /* \"#utility.yul\":16116:16174   */\n      mstore\n        /* \"#utility.yul\":16208:16218   */\n      0x7465206d6f6e6579000000000000000000000000000000000000000000000000\n        /* \"#utility.yul\":16203:16205   */\n      0x20\n        /* \"#utility.yul\":16195:16201   */\n      dup3\n        /* \"#utility.yul\":16191:16206   */\n      add\n        /* \"#utility.yul\":16184:16219   */\n      mstore\n        /* \"#utility.yul\":15999:16226   */\n      pop\n      jump\t// out\n        /* \"#utility.yul\":16232:16598   */\n    tag_273:\n        /* \"#utility.yul\":16374:16377   */\n      0x00\n        /* \"#utility.yul\":16395:16462   */\n      tag_451\n        /* \"#utility.yul\":16459:16461   */\n      0x28\n        /* \"#utility.yul\":16454:16457   */\n      dup4\n        /* \"#utility.yul\":16395:16462   */\n      tag_234\n      jump\t// in\n    tag_451:\n        /* \"#utility.yul\":16388:16462   */\n      swap2\n      pop\n        /* \"#utility.yul\":16471:16564   */\n      tag_452\n        /* \"#utility.yul\":16560:16563   */\n      dup3\n        /* \"#utility.yul\":16471:16564   */\n      tag_272\n      jump\t// in\n    tag_452:\n        /* \"#utility.yul\":16589:16591   */\n      0x40\n        /* \"#utility.yul\":16584:16587   */\n      dup3\n        /* \"#utility.yul\":16580:16592   */\n      add\n        /* \"#utility.yul\":16573:16592   */\n      swap1\n      pop\n        /* \"#utility.yul\":16232:16598   */\n      swap2\n      swap1\n      pop\n      jump\t// out\n        /* \"#utility.yul\":16604:17023   */\n    tag_169:\n        /* \"#utility.yul\":16770:16774   */\n      0x00\n        /* \"#utility.yul\":16808:16810   */\n      0x20\n        /* \"#utility.yul\":16797:16806   */\n      dup3\n        /* \"#utility.yul\":16793:16811   */\n      add\n        /* \"#utility.yul\":16785:16811   */\n      swap1\n      pop\n        /* \"#utility.yul\":16857:16866   */\n      dup2\n        /* \"#utility.yul\":16851:16855   */\n      dup2\n        /* \"#utility.yul\":16847:16867   */\n      sub\n        /* \"#utility.yul\":16843:16844   */\n      0x00\n        /* \"#utility.yul\":16832:16841   */\n      dup4\n        /* \"#utility.yul\":16828:16845   */\n      add\n        /* \"#utility.yul\":16821:16868   */\n      mstore\n        /* \"#utility.yul\":16885:17016   */\n      tag_454\n        /* \"#utility.yul\":17011:17015   */\n      dup2\n        /* \"#utility.yul\":16885:17016   */\n      tag_273\n      jump\t// in\n    tag_454:\n        /* \"#utility.yul\":16877:17016   */\n      swap1\n      pop\n        /* \"#utility.yul\":16604:17023   */\n      swap2\n      swap1\n      pop\n      jump\t// out\n        /* \"#utility.yul\":17029:17209   */\n    tag_176:\n        /* \"#utility.yul\":17077:17154   */\n      0x4e487b7100000000000000000000000000000000000000000000000000000000\n        /* \"#utility.yul\":17074:17075   */\n      0x00\n        /* \"#utility.yul\":17067:17155   */\n      mstore\n        /* \"#utility.yul\":17174:17178   */\n      0x32\n        /* \"#utility.yul\":17171:17172   */\n      0x04\n        /* \"#utility.yul\":17164:17179   */\n      mstore\n        /* \"#utility.yul\":17198:17202   */\n      0x24\n        /* \"#utility.yul\":17195:17196   */\n      0x00\n        /* \"#utility.yul\":17188:17203   */\n      revert\n        /* \"#utility.yul\":17215:17438   */\n    tag_274:\n        /* \"#utility.yul\":17355:17389   */\n      0x45524332303a20617070726f76652066726f6d20746865207a65726f20616464\n        /* \"#utility.yul\":17351:17352   */\n      0x00\n        /* \"#utility.yul\":17343:17349   */\n      dup3\n        /* \"#utility.yul\":17339:17353   */\n      add\n        /* \"#utility.yul\":17332:17390   */\n      mstore\n        /* \"#utility.yul\":17424:17430   */\n      0x7265737300000000000000000000000000000000000000000000000000000000\n        /* \"#utility.yul\":17419:17421   */\n      0x20\n        /* \"#utility.yul\":17411:17417   */\n      dup3\n        /* \"#utility.yul\":17407:17422   */\n      add\n        /* \"#utility.yul\":17400:17431   */\n      mstore\n        /* \"#utility.yul\":17215:17438   */\n      pop\n      jump\t// out\n        /* \"#utility.yul\":17444:17810   */\n    tag_275:\n        /* \"#utility.yul\":17586:17589   */\n      0x00\n        /* \"#utility.yul\":17607:17674   */\n      tag_458\n        /* \"#utility.yul\":17671:17673   */\n      0x24\n        /* \"#utility.yul\":17666:17669   */\n      dup4\n        /* \"#utility.yul\":17607:17674   */\n      tag_234\n      jump\t// in\n    tag_458:\n        /* \"#utility.yul\":17600:17674   */\n      swap2\n      pop\n        /* \"#utility.yul\":17683:17776   */\n      tag_459\n        /* \"#utility.yul\":17772:17775   */\n      dup3\n        /* \"#utility.yul\":17683:17776   */\n      tag_274\n      jump\t// in\n    tag_459:\n        /* \"#utility.yul\":17801:17803   */\n      0x40\n        /* \"#utility.yul\":17796:17799   */\n      dup3\n        /* \"#utility.yul\":17792:17804   */\n      add\n        /* \"#utility.yul\":17785:17804   */\n      swap1\n      pop\n        /* \"#utility.yul\":17444:17810   */\n      swap2\n      swap1\n      pop\n      jump\t// out\n        /* \"#utility.yul\":17816:18235   */\n    tag_182:\n        /* \"#utility.yul\":17982:17986   */\n      0x00\n        /* \"#utility.yul\":18020:18022   */\n      0x20\n        /* \"#utility.yul\":18009:18018   */\n      dup3\n        /* \"#utility.yul\":18005:18023   */\n      add\n        /* \"#utility.yul\":17997:18023   */\n      swap1\n      pop\n        /* \"#utility.yul\":18069:18078   */\n      dup2\n        /* \"#utility.yul\":18063:18067   */\n      dup2\n        /* \"#utility.yul\":18059:18079   */\n      sub\n        /* \"#utility.yul\":18055:18056   */\n      0x00\n        /* \"#utility.yul\":18044:18053   */\n      dup4\n        /* \"#utility.yul\":18040:18057   */\n      add\n        /* \"#utility.yul\":18033:18080   */\n      mstore\n        /* \"#utility.yul\":18097:18228   */\n      tag_461\n        /* \"#utility.yul\":18223:18227   */\n      dup2\n        /* \"#utility.yul\":18097:18228   */\n      tag_275\n      jump\t// in\n    tag_461:\n        /* \"#utility.yul\":18089:18228   */\n      swap1\n      pop\n        /* \"#utility.yul\":17816:18235   */\n      swap2\n      swap1\n      pop\n      jump\t// out\n        /* \"#utility.yul\":18241:18462   */\n    tag_276:\n        /* \"#utility.yul\":18381:18415   */\n      0x45524332303a20617070726f766520746f20746865207a65726f206164647265\n        /* \"#utility.yul\":18377:18378   */\n      0x00\n        /* \"#utility.yul\":18369:18375   */\n      dup3\n        /* \"#utility.yul\":18365:18379   */\n      add\n        /* \"#utility.yul\":18358:18416   */\n      mstore\n        /* \"#utility.yul\":18450:18454   */\n      0x7373000000000000000000000000000000000000000000000000000000000000\n        /* \"#utility.yul\":18445:18447   */\n      0x20\n        /* \"#utility.yul\":18437:18443   */\n      dup3\n        /* \"#utility.yul\":18433:18448   */\n      add\n        /* \"#utility.yul\":18426:18455   */\n      mstore\n        /* \"#utility.yul\":18241:18462   */\n      pop\n      jump\t// out\n        /* \"#utility.yul\":18468:18834   */\n    tag_277:\n        /* \"#utility.yul\":18610:18613   */\n      0x00\n        /* \"#utility.yul\":18631:18698   */\n      tag_464\n        /* \"#utility.yul\":18695:18697   */\n      0x22\n        /* \"#utility.yul\":18690:18693   */\n      dup4\n        /* \"#utility.yul\":18631:18698   */\n      tag_234\n      jump\t// in\n    tag_464:\n        /* \"#utility.yul\":18624:18698   */\n      swap2\n      pop\n        /* \"#utility.yul\":18707:18800   */\n      tag_465\n        /* \"#utility.yul\":18796:18799   */\n      dup3\n        /* \"#utility.yul\":18707:18800   */\n      tag_276\n      jump\t// in\n    tag_465:\n        /* \"#utility.yul\":18825:18827   */\n      0x40\n        /* \"#utility.yul\":18820:18823   */\n      dup3\n        /* \"#utility.yul\":18816:18828   */\n      add\n        /* \"#utility.yul\":18809:18828   */\n      swap1\n      pop\n        /* \"#utility.yul\":18468:18834   */\n      swap2\n      swap1\n      pop\n      jump\t// out\n        /* \"#utility.yul\":18840:19259   */\n    tag_185:\n        /* \"#utility.yul\":19006:19010   */\n      0x00\n        /* \"#utility.yul\":19044:19046   */\n      0x20\n        /* \"#utility.yul\":19033:19042   */\n      dup3\n        /* \"#utility.yul\":19029:19047   */\n      add\n        /* \"#utility.yul\":19021:19047   */\n      swap1\n      pop\n        /* \"#utility.yul\":19093:19102   */\n      dup2\n        /* \"#utility.yul\":19087:19091   */\n      dup2\n        /* \"#utility.yul\":19083:19103   */\n      sub\n        /* \"#utility.yul\":19079:19080   */\n      0x00\n        /* \"#utility.yul\":19068:19077   */\n      dup4\n        /* \"#utility.yul\":19064:19081   */\n      add\n        /* \"#utility.yul\":19057:19104   */\n      mstore\n        /* \"#utility.yul\":19121:19252   */\n      tag_467\n        /* \"#utility.yul\":19247:19251   */\n      dup2\n        /* \"#utility.yul\":19121:19252   */\n      tag_277\n      jump\t// in\n    tag_467:\n        /* \"#utility.yul\":19113:19252   */\n      swap1\n      pop\n        /* \"#utility.yul\":18840:19259   */\n      swap2\n      swap1\n      pop\n      jump\t// out\n        /* \"#utility.yul\":19265:19444   */\n    tag_278:\n        /* \"#utility.yul\":19405:19436   */\n      0x45524332303a20696e73756666696369656e7420616c6c6f77616e6365000000\n        /* \"#utility.yul\":19401:19402   */\n      0x00\n        /* \"#utility.yul\":19393:19399   */\n      dup3\n        /* \"#utility.yul\":19389:19403   */\n      add\n        /* \"#utility.yul\":19382:19437   */\n      mstore\n        /* \"#utility.yul\":19265:19444   */\n      pop\n      jump\t// out\n        /* \"#utility.yul\":19450:19816   */\n    tag_279:\n        /* \"#utility.yul\":19592:19595   */\n      0x00\n        /* \"#utility.yul\":19613:19680   */\n      tag_470\n        /* \"#utility.yul\":19677:19679   */\n      0x1d\n        /* \"#utility.yul\":19672:19675   */\n      dup4\n        /* \"#utility.yul\":19613:19680   */\n      tag_234\n      jump\t// in\n    tag_470:\n        /* \"#utility.yul\":19606:19680   */\n      swap2\n      pop\n        /* \"#utility.yul\":19689:19782   */\n      tag_471\n        /* \"#utility.yul\":19778:19781   */\n      dup3\n        /* \"#utility.yul\":19689:19782   */\n      tag_278\n      jump\t// in\n    tag_471:\n        /* \"#utility.yul\":19807:19809   */\n      0x20\n        /* \"#utility.yul\":19802:19805   */\n      dup3\n        /* \"#utility.yul\":19798:19810   */\n      add\n        /* \"#utility.yul\":19791:19810   */\n      swap1\n      pop\n        /* \"#utility.yul\":19450:19816   */\n      swap2\n      swap1\n      pop\n      jump\t// out\n        /* \"#utility.yul\":19822:20241   */\n    tag_192:\n        /* \"#utility.yul\":19988:19992   */\n      0x00\n        /* \"#utility.yul\":20026:20028   */\n      0x20\n        /* \"#utility.yul\":20015:20024   */\n      dup3\n        /* \"#utility.yul\":20011:20029   */\n      add\n        /* \"#utility.yul\":20003:20029   */\n      swap1\n      pop\n        /* \"#utility.yul\":20075:20084   */\n      dup2\n        /* \"#utility.yul\":20069:20073   */\n      dup2\n        /* \"#utility.yul\":20065:20085   */\n      sub\n        /* \"#utility.yul\":20061:20062   */\n      0x00\n        /* \"#utility.yul\":20050:20059   */\n      dup4\n        /* \"#utility.yul\":20046:20063   */\n      add\n        /* \"#utility.yul\":20039:20086   */\n      mstore\n        /* \"#utility.yul\":20103:20234   */\n      tag_473\n        /* \"#utility.yul\":20229:20233   */\n      dup2\n        /* \"#utility.yul\":20103:20234   */\n      tag_279\n      jump\t// in\n    tag_473:\n        /* \"#utility.yul\":20095:20234   */\n      swap1\n      pop\n        /* \"#utility.yul\":19822:20241   */\n      swap2\n      swap1\n      pop\n      jump\t// out\n        /* \"#utility.yul\":20247:20471   */\n    tag_280:\n        /* \"#utility.yul\":20387:20421   */\n      0x45524332303a207472616e736665722066726f6d20746865207a65726f206164\n        /* \"#utility.yul\":20383:20384   */\n      0x00\n        /* \"#utility.yul\":20375:20381   */\n      dup3\n        /* \"#utility.yul\":20371:20385   */\n      add\n        /* \"#utility.yul\":20364:20422   */\n      mstore\n        /* \"#utility.yul\":20456:20463   */\n      0x6472657373000000000000000000000000000000000000000000000000000000\n        /* \"#utility.yul\":20451:20453   */\n      0x20\n        /* \"#utility.yul\":20443:20449   */\n      dup3\n        /* \"#utility.yul\":20439:20454   */\n      add\n        /* \"#utility.yul\":20432:20464   */\n      mstore\n        /* \"#utility.yul\":20247:20471   */\n      pop\n      jump\t// out\n        /* \"#utility.yul\":20477:20843   */\n    tag_281:\n        /* \"#utility.yul\":20619:20622   */\n      0x00\n        /* \"#utility.yul\":20640:20707   */\n      tag_476\n        /* \"#utility.yul\":20704:20706   */\n      0x25\n        /* \"#utility.yul\":20699:20702   */\n      dup4\n        /* \"#utility.yul\":20640:20707   */\n      tag_234\n      jump\t// in\n    tag_476:\n        /* \"#utility.yul\":20633:20707   */\n      swap2\n      pop\n        /* \"#utility.yul\":20716:20809   */\n      tag_477\n        /* \"#utility.yul\":20805:20808   */\n      dup3\n        /* \"#utility.yul\":20716:20809   */\n      tag_280\n      jump\t// in\n    tag_477:\n        /* \"#utility.yul\":20834:20836   */\n      0x40\n        /* \"#utility.yul\":20829:20832   */\n      dup3\n        /* \"#utility.yul\":20825:20837   */\n      add\n        /* \"#utility.yul\":20818:20837   */\n      swap1\n      pop\n        /* \"#utility.yul\":20477:20843   */\n      swap2\n      swap1\n      pop\n      jump\t// out\n        /* \"#utility.yul\":20849:21268   */\n    tag_197:\n        /* \"#utility.yul\":21015:21019   */\n      0x00\n        /* \"#utility.yul\":21053:21055   */\n      0x20\n        /* \"#utility.yul\":21042:21051   */\n      dup3\n        /* \"#utility.yul\":21038:21056   */\n      add\n        /* \"#utility.yul\":21030:21056   */\n      swap1\n      pop\n        /* \"#utility.yul\":21102:21111   */\n      dup2\n        /* \"#utility.yul\":21096:21100   */\n      dup2\n        /* \"#utility.yul\":21092:21112   */\n      sub\n        /* \"#utility.yul\":21088:21089   */\n      0x00\n        /* \"#utility.yul\":21077:21086   */\n      dup4\n        /* \"#utility.yul\":21073:21090   */\n      add\n        /* \"#utility.yul\":21066:21113   */\n      mstore\n        /* \"#utility.yul\":21130:21261   */\n      tag_479\n        /* \"#utility.yul\":21256:21260   */\n      dup2\n        /* \"#utility.yul\":21130:21261   */\n      tag_281\n      jump\t// in\n    tag_479:\n        /* \"#utility.yul\":21122:21261   */\n      swap1\n      pop\n        /* \"#utility.yul\":20849:21268   */\n      swap2\n      swap1\n      pop\n      jump\t// out\n        /* \"#utility.yul\":21274:21496   */\n    tag_282:\n        /* \"#utility.yul\":21414:21448   */\n      0x45524332303a207472616e7366657220746f20746865207a65726f2061646472\n        /* \"#utility.yul\":21410:21411   */\n      0x00\n        /* \"#utility.yul\":21402:21408   */\n      dup3\n        /* \"#utility.yul\":21398:21412   */\n      add\n        /* \"#utility.yul\":21391:21449   */\n      mstore\n        /* \"#utility.yul\":21483:21488   */\n      0x6573730000000000000000000000000000000000000000000000000000000000\n        /* \"#utility.yul\":21478:21480   */\n      0x20\n        /* \"#utility.yul\":21470:21476   */\n      dup3\n        /* \"#utility.yul\":21466:21481   */\n      add\n        /* \"#utility.yul\":21459:21489   */\n      mstore\n        /* \"#utility.yul\":21274:21496   */\n      pop\n      jump\t// out\n        /* \"#utility.yul\":21502:21868   */\n    tag_283:\n        /* \"#utility.yul\":21644:21647   */\n      0x00\n        /* \"#utility.yul\":21665:21732   */\n      tag_482\n        /* \"#utility.yul\":21729:21731   */\n      0x23\n        /* \"#utility.yul\":21724:21727   */\n      dup4\n        /* \"#utility.yul\":21665:21732   */\n      tag_234\n      jump\t// in\n    tag_482:\n        /* \"#utility.yul\":21658:21732   */\n      swap2\n      pop\n        /* \"#utility.yul\":21741:21834   */\n      tag_483\n        /* \"#utility.yul\":21830:21833   */\n      dup3\n        /* \"#utility.yul\":21741:21834   */\n      tag_282\n      jump\t// in\n    tag_483:\n        /* \"#utility.yul\":21859:21861   */\n      0x40\n        /* \"#utility.yul\":21854:21857   */\n      dup3\n        /* \"#utility.yul\":21850:21862   */\n      add\n        /* \"#utility.yul\":21843:21862   */\n      swap1\n      pop\n        /* \"#utility.yul\":21502:21868   */\n      swap2\n      swap1\n      pop\n      jump\t// out\n        /* \"#utility.yul\":21874:22293   */\n    tag_200:\n        /* \"#utility.yul\":22040:22044   */\n      0x00\n        /* \"#utility.yul\":22078:22080   */\n      0x20\n        /* \"#utility.yul\":22067:22076   */\n      dup3\n        /* \"#utility.yul\":22063:22081   */\n      add\n        /* \"#utility.yul\":22055:22081   */\n      swap1\n      pop\n        /* \"#utility.yul\":22127:22136   */\n      dup2\n        /* \"#utility.yul\":22121:22125   */\n      dup2\n        /* \"#utility.yul\":22117:22137   */\n      sub\n        /* \"#utility.yul\":22113:22114   */\n      0x00\n        /* \"#utility.yul\":22102:22111   */\n      dup4\n        /* \"#utility.yul\":22098:22115   */\n      add\n        /* \"#utility.yul\":22091:22138   */\n      mstore\n        /* \"#utility.yul\":22155:22286   */\n      tag_485\n        /* \"#utility.yul\":22281:22285   */\n      dup2\n        /* \"#utility.yul\":22155:22286   */\n      tag_283\n      jump\t// in\n    tag_485:\n        /* \"#utility.yul\":22147:22286   */\n      swap1\n      pop\n        /* \"#utility.yul\":21874:22293   */\n      swap2\n      swap1\n      pop\n      jump\t// out\n        /* \"#utility.yul\":22299:22524   */\n    tag_284:\n        /* \"#utility.yul\":22439:22473   */\n      0x45524332303a207472616e7366657220616d6f756e7420657863656564732062\n        /* \"#utility.yul\":22435:22436   */\n      0x00\n        /* \"#utility.yul\":22427:22433   */\n      dup3\n        /* \"#utility.yul\":22423:22437   */\n      add\n        /* \"#utility.yul\":22416:22474   */\n      mstore\n        /* \"#utility.yul\":22508:22516   */\n      0x616c616e63650000000000000000000000000000000000000000000000000000\n        /* \"#utility.yul\":22503:22505   */\n      0x20\n        /* \"#utility.yul\":22495:22501   */\n      dup3\n        /* \"#utility.yul\":22491:22506   */\n      add\n        /* \"#utility.yul\":22484:22517   */\n      mstore\n        /* \"#utility.yul\":22299:22524   */\n      pop\n      jump\t// out\n        /* \"#utility.yul\":22530:22896   */\n    tag_285:\n        /* \"#utility.yul\":22672:22675   */\n      0x00\n        /* \"#utility.yul\":22693:22760   */\n      tag_488\n        /* \"#utility.yul\":22757:22759   */\n      0x26\n        /* \"#utility.yul\":22752:22755   */\n      dup4\n        /* \"#utility.yul\":22693:22760   */\n      tag_234\n      jump\t// in\n    tag_488:\n        /* \"#utility.yul\":22686:22760   */\n      swap2\n      pop\n        /* \"#utility.yul\":22769:22862   */\n      tag_489\n        /* \"#utility.yul\":22858:22861   */\n      dup3\n        /* \"#utility.yul\":22769:22862   */\n      tag_284\n      jump\t// in\n    tag_489:\n        /* \"#utility.yul\":22887:22889   */\n      0x40\n        /* \"#utility.yul\":22882:22885   */\n      dup3\n        /* \"#utility.yul\":22878:22890   */\n      add\n        /* \"#utility.yul\":22871:22890   */\n      swap1\n      pop\n        /* \"#utility.yul\":22530:22896   */\n      swap2\n      swap1\n      pop\n      jump\t// out\n        /* \"#utility.yul\":22902:23321   */\n    tag_205:\n        /* \"#utility.yul\":23068:23072   */\n      0x00\n        /* \"#utility.yul\":23106:23108   */\n      0x20\n        /* \"#utility.yul\":23095:23104   */\n      dup3\n        /* \"#utility.yul\":23091:23109   */\n      add\n        /* \"#utility.yul\":23083:23109   */\n      swap1\n      pop\n        /* \"#utility.yul\":23155:23164   */\n      dup2\n        /* \"#utility.yul\":23149:23153   */\n      dup2\n        /* \"#utility.yul\":23145:23165   */\n      sub\n        /* \"#utility.yul\":23141:23142   */\n      0x00\n        /* \"#utility.yul\":23130:23139   */\n      dup4\n        /* \"#utility.yul\":23126:23143   */\n      add\n        /* \"#utility.yul\":23119:23166   */\n      mstore\n        /* \"#utility.yul\":23183:23314   */\n      tag_491\n        /* \"#utility.yul\":23309:23313   */\n      dup2\n        /* \"#utility.yul\":23183:23314   */\n      tag_285\n      jump\t// in\n    tag_491:\n        /* \"#utility.yul\":23175:23314   */\n      swap1\n      pop\n        /* \"#utility.yul\":22902:23321   */\n      swap2\n      swap1\n      pop\n      jump\t// out\n        /* \"#utility.yul\":23327:23508   */\n    tag_286:\n        /* \"#utility.yul\":23467:23500   */\n      0x45524332303a206d696e7420746f20746865207a65726f206164647265737300\n        /* \"#utility.yul\":23463:23464   */\n      0x00\n        /* \"#utility.yul\":23455:23461   */\n      dup3\n        /* \"#utility.yul\":23451:23465   */\n      add\n        /* \"#utility.yul\":23444:23501   */\n      mstore\n        /* \"#utility.yul\":23327:23508   */\n      pop\n      jump\t// out\n        /* \"#utility.yul\":23514:23880   */\n    tag_287:\n        /* \"#utility.yul\":23656:23659   */\n      0x00\n        /* \"#utility.yul\":23677:23744   */\n      tag_494\n        /* \"#utility.yul\":23741:23743   */\n      0x1f\n        /* \"#utility.yul\":23736:23739   */\n      dup4\n        /* \"#utility.yul\":23677:23744   */\n      tag_234\n      jump\t// in\n    tag_494:\n        /* \"#utility.yul\":23670:23744   */\n      swap2\n      pop\n        /* \"#utility.yul\":23753:23846   */\n      tag_495\n        /* \"#utility.yul\":23842:23845   */\n      dup3\n        /* \"#utility.yul\":23753:23846   */\n      tag_286\n      jump\t// in\n    tag_495:\n        /* \"#utility.yul\":23871:23873   */\n      0x20\n        /* \"#utility.yul\":23866:23869   */\n      dup3\n        /* \"#utility.yul\":23862:23874   */\n      add\n        /* \"#utility.yul\":23855:23874   */\n      swap1\n      pop\n        /* \"#utility.yul\":23514:23880   */\n      swap2\n      swap1\n      pop\n      jump\t// out\n        /* \"#utility.yul\":23886:24305   */\n    tag_213:\n        /* \"#utility.yul\":24052:24056   */\n      0x00\n        /* \"#utility.yul\":24090:24092   */\n      0x20\n        /* \"#utility.yul\":24079:24088   */\n      dup3\n        /* \"#utility.yul\":24075:24093   */\n      add\n        /* \"#utility.yul\":24067:24093   */\n      swap1\n      pop\n        /* \"#utility.yul\":24139:24148   */\n      dup2\n        /* \"#utility.yul\":24133:24137   */\n      dup2\n        /* \"#utility.yul\":24129:24149   */\n      sub\n        /* \"#utility.yul\":24125:24126   */\n      0x00\n        /* \"#utility.yul\":24114:24123   */\n      dup4\n        /* \"#utility.yul\":24110:24127   */\n      add\n        /* \"#utility.yul\":24103:24150   */\n      mstore\n        /* \"#utility.yul\":24167:24298   */\n      tag_497\n        /* \"#utility.yul\":24293:24297   */\n      dup2\n        /* \"#utility.yul\":24167:24298   */\n      tag_287\n      jump\t// in\n    tag_497:\n        /* \"#utility.yul\":24159:24298   */\n      swap1\n      pop\n        /* \"#utility.yul\":23886:24305   */\n      swap2\n      swap1\n      pop\n      jump\t// out\n        /* \"#utility.yul\":24311:24531   */\n    tag_288:\n        /* \"#utility.yul\":24451:24485   */\n      0x45524332303a206275726e2066726f6d20746865207a65726f20616464726573\n        /* \"#utility.yul\":24447:24448   */\n      0x00\n        /* \"#utility.yul\":24439:24445   */\n      dup3\n        /* \"#utility.yul\":24435:24449   */\n      add\n        /* \"#utility.yul\":24428:24486   */\n      mstore\n        /* \"#utility.yul\":24520:24523   */\n      0x7300000000000000000000000000000000000000000000000000000000000000\n        /* \"#utility.yul\":24515:24517   */\n      0x20\n        /* \"#utility.yul\":24507:24513   */\n      dup3\n        /* \"#utility.yul\":24503:24518   */\n      add\n        /* \"#utility.yul\":24496:24524   */\n      mstore\n        /* \"#utility.yul\":24311:24531   */\n      pop\n      jump\t// out\n        /* \"#utility.yul\":24537:24903   */\n    tag_289:\n        /* \"#utility.yul\":24679:24682   */\n      0x00\n        /* \"#utility.yul\":24700:24767   */\n      tag_500\n        /* \"#utility.yul\":24764:24766   */\n      0x21\n        /* \"#utility.yul\":24759:24762   */\n      dup4\n        /* \"#utility.yul\":24700:24767   */\n      tag_234\n      jump\t// in\n    tag_500:\n        /* \"#utility.yul\":24693:24767   */\n      swap2\n      pop\n        /* \"#utility.yul\":24776:24869   */\n      tag_501\n        /* \"#utility.yul\":24865:24868   */\n      dup3\n        /* \"#utility.yul\":24776:24869   */\n      tag_288\n      jump\t// in\n    tag_501:\n        /* \"#utility.yul\":24894:24896   */\n      0x40\n        /* \"#utility.yul\":24889:24892   */\n      dup3\n        /* \"#utility.yul\":24885:24897   */\n      add\n        /* \"#utility.yul\":24878:24897   */\n      swap1\n      pop\n        /* \"#utility.yul\":24537:24903   */\n      swap2\n      swap1\n      pop\n      jump\t// out\n        /* \"#utility.yul\":24909:25328   */\n    tag_222:\n        /* \"#utility.yul\":25075:25079   */\n      0x00\n        /* \"#utility.yul\":25113:25115   */\n      0x20\n        /* \"#utility.yul\":25102:25111   */\n      dup3\n        /* \"#utility.yul\":25098:25116   */\n      add\n        /* \"#utility.yul\":25090:25116   */\n      swap1\n      pop\n        /* \"#utility.yul\":25162:25171   */\n      dup2\n        /* \"#utility.yul\":25156:25160   */\n      dup2\n        /* \"#utility.yul\":25152:25172   */\n      sub\n        /* \"#utility.yul\":25148:25149   */\n      0x00\n        /* \"#utility.yul\":25137:25146   */\n      dup4\n        /* \"#utility.yul\":25133:25150   */\n      add\n        /* \"#utility.yul\":25126:25173   */\n      mstore\n        /* \"#utility.yul\":25190:25321   */\n      tag_503\n        /* \"#utility.yul\":25316:25320   */\n      dup2\n        /* \"#utility.yul\":25190:25321   */\n      tag_289\n      jump\t// in\n    tag_503:\n        /* \"#utility.yul\":25182:25321   */\n      swap1\n      pop\n        /* \"#utility.yul\":24909:25328   */\n      swap2\n      swap1\n      pop\n      jump\t// out\n        /* \"#utility.yul\":25334:25555   */\n    tag_290:\n        /* \"#utility.yul\":25474:25508   */\n      0x45524332303a206275726e20616d6f756e7420657863656564732062616c616e\n        /* \"#utility.yul\":25470:25471   */\n      0x00\n        /* \"#utility.yul\":25462:25468   */\n      dup3\n        /* \"#utility.yul\":25458:25472   */\n      add\n        /* \"#utility.yul\":25451:25509   */\n      mstore\n        /* \"#utility.yul\":25543:25547   */\n      0x6365000000000000000000000000000000000000000000000000000000000000\n        /* \"#utility.yul\":25538:25540   */\n      0x20\n        /* \"#utility.yul\":25530:25536   */\n      dup3\n        /* \"#utility.yul\":25526:25541   */\n      add\n        /* \"#utility.yul\":25519:25548   */\n      mstore\n        /* \"#utility.yul\":25334:25555   */\n      pop\n      jump\t// out\n        /* \"#utility.yul\":25561:25927   */\n    tag_291:\n        /* \"#utility.yul\":25703:25706   */\n      0x00\n        /* \"#utility.yul\":25724:25791   */\n      tag_506\n        /* \"#utility.yul\":25788:25790   */\n      0x22\n        /* \"#utility.yul\":25783:25786   */\n      dup4\n        /* \"#utility.yul\":25724:25791   */\n      tag_234\n      jump\t// in\n    tag_506:\n        /* \"#utility.yul\":25717:25791   */\n      swap2\n      pop\n        /* \"#utility.yul\":25800:25893   */\n      tag_507\n        /* \"#utility.yul\":25889:25892   */\n      dup3\n        /* \"#utility.yul\":25800:25893   */\n      tag_290\n      jump\t// in\n    tag_507:\n        /* \"#utility.yul\":25918:25920   */\n      0x40\n        /* \"#utility.yul\":25913:25916   */\n      dup3\n        /* \"#utility.yul\":25909:25921   */\n      add\n        /* \"#utility.yul\":25902:25921   */\n      swap1\n      pop\n        /* \"#utility.yul\":25561:25927   */\n      swap2\n      swap1\n      pop\n      jump\t// out\n        /* \"#utility.yul\":25933:26352   */\n    tag_226:\n        /* \"#utility.yul\":26099:26103   */\n      0x00\n        /* \"#utility.yul\":26137:26139   */\n      0x20\n        /* \"#utility.yul\":26126:26135   */\n      dup3\n        /* \"#utility.yul\":26122:26140   */\n      add\n        /* \"#utility.yul\":26114:26140   */\n      swap1\n      pop\n        /* \"#utility.yul\":26186:26195   */\n      dup2\n        /* \"#utility.yul\":26180:26184   */\n      dup2\n        /* \"#utility.yul\":26176:26196   */\n      sub\n        /* \"#utility.yul\":26172:26173   */\n      0x00\n        /* \"#utility.yul\":26161:26170   */\n      dup4\n        /* \"#utility.yul\":26157:26174   */\n      add\n        /* \"#utility.yul\":26150:26197   */\n      mstore\n        /* \"#utility.yul\":26214:26345   */\n      tag_509\n        /* \"#utility.yul\":26340:26344   */\n      dup2\n        /* \"#utility.yul\":26214:26345   */\n      tag_291\n      jump\t// in\n    tag_509:\n        /* \"#utility.yul\":26206:26345   */\n      swap1\n      pop\n        /* \"#utility.yul\":25933:26352   */\n      swap2\n      swap1\n      pop\n      jump\t// out\n        /* \"#utility.yul\":26358:26552   */\n    tag_228:\n        /* \"#utility.yul\":26398:26402   */\n      0x00\n        /* \"#utility.yul\":26418:26438   */\n      tag_511\n        /* \"#utility.yul\":26436:26437   */\n      dup3\n        /* \"#utility.yul\":26418:26438   */\n      tag_245\n      jump\t// in\n    tag_511:\n        /* \"#utility.yul\":26413:26438   */\n      swap2\n      pop\n        /* \"#utility.yul\":26452:26472   */\n      tag_512\n        /* \"#utility.yul\":26470:26471   */\n      dup4\n        /* \"#utility.yul\":26452:26472   */\n      tag_245\n      jump\t// in\n    tag_512:\n        /* \"#utility.yul\":26447:26472   */\n      swap3\n      pop\n        /* \"#utility.yul\":26496:26497   */\n      dup3\n        /* \"#utility.yul\":26493:26494   */\n      dup3\n        /* \"#utility.yul\":26489:26498   */\n      sub\n        /* \"#utility.yul\":26481:26498   */\n      swap1\n      pop\n        /* \"#utility.yul\":26520:26521   */\n      dup2\n        /* \"#utility.yul\":26514:26518   */\n      dup2\n        /* \"#utility.yul\":26511:26522   */\n      gt\n        /* \"#utility.yul\":26508:26545   */\n      iszero\n      tag_513\n      jumpi\n        /* \"#utility.yul\":26525:26543   */\n      tag_514\n      tag_267\n      jump\t// in\n    tag_514:\n        /* \"#utility.yul\":26508:26545   */\n    tag_513:\n        /* \"#utility.yul\":26358:26552   */\n      swap3\n      swap2\n      pop\n      pop\n      jump\t// out\n\n    auxdata: 0xa26469706673582212202a16eb4ed83cf957de7b152d7fae244664f658de0c1e635c8a728e23350b450964736f6c634300081a0033\n}\n",
				"bytecode": {
					"linkReferences": {},
					"object": "6080604052685150ae84a8cdf0000060065534801561001c575f80fd5b506040518060400160405280600e81526020017f4d6f6e6f706f6c79204d6f6e65790000000000000000000000000000000000008152506040518060400160405280600381526020017f4d4e590000000000000000000000000000000000000000000000000000000000815250816003908161009891906102ea565b5080600490816100a891906102ea565b5050506103b9565b5f81519050919050565b7f4e487b71000000000000000000000000000000000000000000000000000000005f52604160045260245ffd5b7f4e487b71000000000000000000000000000000000000000000000000000000005f52602260045260245ffd5b5f600282049050600182168061012b57607f821691505b60208210810361013e5761013d6100e7565b5b50919050565b5f819050815f5260205f209050919050565b5f6020601f8301049050919050565b5f82821b905092915050565b5f600883026101a07fffffffffffffffffffffffffffffffffffffffffffffffffffffffffffffffff82610165565b6101aa8683610165565b95508019841693508086168417925050509392505050565b5f819050919050565b5f819050919050565b5f6101ee6101e96101e4846101c2565b6101cb565b6101c2565b9050919050565b5f819050919050565b610207836101d4565b61021b610213826101f5565b848454610171565b825550505050565b5f90565b61022f610223565b61023a8184846101fe565b505050565b5b8181101561025d576102525f82610227565b600181019050610240565b5050565b601f8211156102a25761027381610144565b61027c84610156565b8101602085101561028b578190505b61029f61029785610156565b83018261023f565b50505b505050565b5f82821c905092915050565b5f6102c25f19846008026102a7565b1980831691505092915050565b5f6102da83836102b3565b9150826002028217905092915050565b6102f3826100b0565b67ffffffffffffffff81111561030c5761030b6100ba565b5b6103168254610114565b610321828285610261565b5f60209050601f831160018114610352575f8415610340578287015190505b61034a85826102cf565b8655506103b1565b601f19841661036086610144565b5f5b8281101561038757848901518255600182019150602085019450602081019050610362565b868310156103a457848901516103a0601f8916826102b3565b8355505b6001600288020188555050505b505050505050565b612174806103c65f395ff3fe608060405234801561000f575f80fd5b5060043610610114575f3560e01c80636afaa3f2116100a0578063a457c2d71161006f578063a457c2d7146102f0578063a9059cbb14610320578063bc86ff2514610350578063dd62ed3e1461036c578063ed6e67c71461039c57610114565b80636afaa3f21461025657806370a082311461028657806395d89b41146102b65780639a49c085146102d457610114565b8063290ffea8116100e7578063290ffea8146101b4578063313ce567146101d057806338ebb13d146101ee578063395093511461020a57806346b01a701461023a57610114565b806306fdde0314610118578063095ea7b31461013657806318160ddd1461016657806323b872dd14610184575b5f80fd5b6101206103ba565b60405161012d91906113d2565b60405180910390f35b610150600480360381019061014b9190611490565b61044a565b60405161015d91906114e8565b60405180910390f35b61016e61046c565b60405161017b9190611510565b60405180910390f35b61019e60048036038101906101999190611529565b610475565b6040516101ab91906114e8565b60405180910390f35b6101ce60048036038101906101c99190611579565b6104a3565b005b6101d8610552565b6040516101e591906115f8565b60405180910390f35b61020860048036038101906102039190611611565b61055a565b005b610224600480360381019061021f9190611490565b61065f565b60405161023191906114e8565b60405180910390f35b610254600480360381019061024f9190611611565b610695565b005b610270600480360381019061026b919061164f565b610757565b60405161027d9190611689565b60405180910390f35b6102a0600480360381019061029b91906116a2565b610787565b6040516102ad9190611510565b60405180910390f35b6102be6107cc565b6040516102cb91906113d2565b60405180910390f35b6102ee60048036038101906102e991906116cd565b61085c565b005b61030a60048036038101906103059190611490565b61093a565b60405161031791906114e8565b60405180910390f35b61033a60048036038101906103359190611490565b6109af565b60405161034791906114e8565b60405180910390f35b61036a6004803603810190610365919061185d565b6109d1565b005b610386600480360381019061038191906118b7565b610ae3565b6040516103939190611510565b60405180910390f35b6103a4610b65565b6040516103b19190611510565b60405180910390f35b6060600380546103c990611922565b80601f01602080910402602001604051908101604052809291908181526020018280546103f590611922565b80156104405780601f1061041757610100808354040283529160200191610440565b820191905f5260205f20905b81548152906001019060200180831161042357829003601f168201915b5050505050905090565b5f80610454610b6b565b9050610461818585610b72565b600191505092915050565b5f600254905090565b5f8061047f610b6b565b905061048c858285610d35565b610497858585610dc0565b60019150509392505050565b5f73ffffffffffffffffffffffffffffffffffffffff1660055f8681526020019081526020015f205f9054906101000a900473ffffffffffffffffffffffffffffffffffffffff1673ffffffffffffffffffffffffffffffffffffffff1603610541576040517f08c379a00000000000000000000000000000000000000000000000000000000081526004016105389061199c565b60405180910390fd5b61054c838383610dc0565b50505050565b5f6012905090565b5f73ffffffffffffffffffffffffffffffffffffffff1660055f8481526020019081526020015f205f9054906101000a900473ffffffffffffffffffffffffffffffffffffffff1673ffffffffffffffffffffffffffffffffffffffff16146105f8576040517f08c379a00000000000000000000000000000000000000000000000000000000081526004016105ef90611a04565b60405180910390fd5b8060055f8481526020019081526020015f205f6101000a81548173ffffffffffffffffffffffffffffffffffffffff021916908373ffffffffffffffffffffffffffffffffffffffff16021790555061065b8169d3c21bcecceda1000000611035565b5050565b5f80610669610b6b565b905061068a81858561067b8589610ae3565b6106859190611a4f565b610b72565b600191505092915050565b3373ffffffffffffffffffffffffffffffffffffffff1660055f8481526020019081526020015f205f9054906101000a900473ffffffffffffffffffffffffffffffffffffffff1673ffffffffffffffffffffffffffffffffffffffff1614610733576040517f08c379a000000000000000000000000000000000000000000000000000000000815260040161072a90611af2565b60405180910390fd5b5f61073d82610787565b90505f81111561075257610751828261118c565b5b505050565b6005602052805f5260405f205f915054906101000a900473ffffffffffffffffffffffffffffffffffffffff1681565b5f805f8373ffffffffffffffffffffffffffffffffffffffff1673ffffffffffffffffffffffffffffffffffffffff1681526020019081526020015f20549050919050565b6060600480546107db90611922565b80601f016020809104026020016040519081016040528092919081815260200182805461080790611922565b80156108525780601f1061082957610100808354040283529160200191610852565b820191905f5260205f20905b81548152906001019060200180831161083557829003601f168201915b5050505050905090565b5f73ffffffffffffffffffffffffffffffffffffffff1660055f8581526020019081526020015f205f9054906101000a900473ffffffffffffffffffffffffffffffffffffffff1673ffffffffffffffffffffffffffffffffffffffff16036108fa576040517f08c379a00000000000000000000000000000000000000000000000000000000081526004016108f19061199c565b60405180910390fd5b6109358260055f8681526020019081526020015f205f9054906101000a900473ffffffffffffffffffffffffffffffffffffffff1683610dc0565b505050565b5f80610944610b6b565b90505f6109518286610ae3565b905083811015610996576040517f08c379a000000000000000000000000000000000000000000000000000000000815260040161098d90611b80565b60405180910390fd5b6109a38286868403610b72565b60019250505092915050565b5f806109b9610b6b565b90506109c6818585610dc0565b600191505092915050565b3373ffffffffffffffffffffffffffffffffffffffff1660055f8481526020019081526020015f205f9054906101000a900473ffffffffffffffffffffffffffffffffffffffff1673ffffffffffffffffffffffffffffffffffffffff1614610a6f576040517f08c379a0000000000000000000000000000000000000000000000000000000008152600401610a6690611c0e565b60405180910390fd5b5f5b8151811015610ade57610ad160055f8581526020019081526020015f205f9054906101000a900473ffffffffffffffffffffffffffffffffffffffff16838381518110610ac157610ac0611c2c565b5b6020026020010151600654610dc0565b8080600101915050610a71565b505050565b5f60015f8473ffffffffffffffffffffffffffffffffffffffff1673ffffffffffffffffffffffffffffffffffffffff1681526020019081526020015f205f8373ffffffffffffffffffffffffffffffffffffffff1673ffffffffffffffffffffffffffffffffffffffff1681526020019081526020015f2054905092915050565b60065481565b5f33905090565b5f73ffffffffffffffffffffffffffffffffffffffff168373ffffffffffffffffffffffffffffffffffffffff1603610be0576040517f08c379a0000000000000000000000000000000000000000000000000000000008152600401610bd790611cc9565b60405180910390fd5b5f73ffffffffffffffffffffffffffffffffffffffff168273ffffffffffffffffffffffffffffffffffffffff1603610c4e576040517f08c379a0000000000000000000000000000000000000000000000000000000008152600401610c4590611d57565b60405180910390fd5b8060015f8573ffffffffffffffffffffffffffffffffffffffff1673ffffffffffffffffffffffffffffffffffffffff1681526020019081526020015f205f8473ffffffffffffffffffffffffffffffffffffffff1673ffffffffffffffffffffffffffffffffffffffff1681526020019081526020015f20819055508173ffffffffffffffffffffffffffffffffffffffff168373ffffffffffffffffffffffffffffffffffffffff167f8c5be1e5ebec7d5bd14f71427d1e84f3dd0314c0f7b2291e5b200ac8c7c3b92583604051610d289190611510565b60405180910390a3505050565b5f610d408484610ae3565b90507fffffffffffffffffffffffffffffffffffffffffffffffffffffffffffffffff8114610dba5781811015610dac576040517f08c379a0000000000000000000000000000000000000000000000000000000008152600401610da390611dbf565b60405180910390fd5b610db98484848403610b72565b5b50505050565b5f73ffffffffffffffffffffffffffffffffffffffff168373ffffffffffffffffffffffffffffffffffffffff1603610e2e576040517f08c379a0000000000000000000000000000000000000000000000000000000008152600401610e2590611e4d565b60405180910390fd5b5f73ffffffffffffffffffffffffffffffffffffffff168273ffffffffffffffffffffffffffffffffffffffff1603610e9c576040517f08c379a0000000000000000000000000000000000000000000000000000000008152600401610e9390611edb565b60405180910390fd5b610ea7838383611358565b5f805f8573ffffffffffffffffffffffffffffffffffffffff1673ffffffffffffffffffffffffffffffffffffffff1681526020019081526020015f2054905081811015610f2a576040517f08c379a0000000000000000000000000000000000000000000000000000000008152600401610f2190611f69565b60405180910390fd5b8181035f808673ffffffffffffffffffffffffffffffffffffffff1673ffffffffffffffffffffffffffffffffffffffff1681526020019081526020015f2081905550815f808573ffffffffffffffffffffffffffffffffffffffff1673ffffffffffffffffffffffffffffffffffffffff1681526020019081526020015f205f828254610fb89190611a4f565b925050819055508273ffffffffffffffffffffffffffffffffffffffff168473ffffffffffffffffffffffffffffffffffffffff167fddf252ad1be2c89b69c2b068fc378daa952ba7f163c4a11628f55a4df523b3ef8460405161101c9190611510565b60405180910390a361102f84848461135d565b50505050565b5f73ffffffffffffffffffffffffffffffffffffffff168273ffffffffffffffffffffffffffffffffffffffff16036110a3576040517f08c379a000000000000000000000000000000000000000000000000000000000815260040161109a90611fd1565b60405180910390fd5b6110ae5f8383611358565b8060025f8282546110bf9190611a4f565b92505081905550805f808473ffffffffffffffffffffffffffffffffffffffff1673ffffffffffffffffffffffffffffffffffffffff1681526020019081526020015f205f8282546111119190611a4f565b925050819055508173ffffffffffffffffffffffffffffffffffffffff165f73ffffffffffffffffffffffffffffffffffffffff167fddf252ad1be2c89b69c2b068fc378daa952ba7f163c4a11628f55a4df523b3ef836040516111759190611510565b60405180910390a36111885f838361135d565b5050565b5f73ffffffffffffffffffffffffffffffffffffffff168273ffffffffffffffffffffffffffffffffffffffff16036111fa576040517f08c379a00000000000000000000000000000000000000000000000000000000081526004016111f19061205f565b60405180910390fd5b611205825f83611358565b5f805f8473ffffffffffffffffffffffffffffffffffffffff1673ffffffffffffffffffffffffffffffffffffffff1681526020019081526020015f2054905081811015611288576040517f08c379a000000000000000000000000000000000000000000000000000000000815260040161127f906120ed565b60405180910390fd5b8181035f808573ffffffffffffffffffffffffffffffffffffffff1673ffffffffffffffffffffffffffffffffffffffff1681526020019081526020015f20819055508160025f8282546112dc919061210b565b925050819055505f73ffffffffffffffffffffffffffffffffffffffff168373ffffffffffffffffffffffffffffffffffffffff167fddf252ad1be2c89b69c2b068fc378daa952ba7f163c4a11628f55a4df523b3ef846040516113409190611510565b60405180910390a3611353835f8461135d565b505050565b505050565b505050565b5f81519050919050565b5f82825260208201905092915050565b8281835e5f83830152505050565b5f601f19601f8301169050919050565b5f6113a482611362565b6113ae818561136c565b93506113be81856020860161137c565b6113c78161138a565b840191505092915050565b5f6020820190508181035f8301526113ea818461139a565b905092915050565b5f604051905090565b5f80fd5b5f80fd5b5f73ffffffffffffffffffffffffffffffffffffffff82169050919050565b5f61142c82611403565b9050919050565b61143c81611422565b8114611446575f80fd5b50565b5f8135905061145781611433565b92915050565b5f819050919050565b61146f8161145d565b8114611479575f80fd5b50565b5f8135905061148a81611466565b92915050565b5f80604083850312156114a6576114a56113fb565b5b5f6114b385828601611449565b92505060206114c48582860161147c565b9150509250929050565b5f8115159050919050565b6114e2816114ce565b82525050565b5f6020820190506114fb5f8301846114d9565b92915050565b61150a8161145d565b82525050565b5f6020820190506115235f830184611501565b92915050565b5f805f606084860312156115405761153f6113fb565b5b5f61154d86828701611449565b935050602061155e86828701611449565b925050604061156f8682870161147c565b9150509250925092565b5f805f8060808587031215611591576115906113fb565b5b5f61159e8782880161147c565b94505060206115af87828801611449565b93505060406115c087828801611449565b92505060606115d18782880161147c565b91505092959194509250565b5f60ff82169050919050565b6115f2816115dd565b82525050565b5f60208201905061160b5f8301846115e9565b92915050565b5f8060408385031215611627576116266113fb565b5b5f6116348582860161147c565b925050602061164585828601611449565b9150509250929050565b5f60208284031215611664576116636113fb565b5b5f6116718482850161147c565b91505092915050565b61168381611422565b82525050565b5f60208201905061169c5f83018461167a565b92915050565b5f602082840312156116b7576116b66113fb565b5b5f6116c484828501611449565b91505092915050565b5f805f606084860312156116e4576116e36113fb565b5b5f6116f18682870161147c565b935050602061170286828701611449565b92505060406117138682870161147c565b9150509250925092565b5f80fd5b7f4e487b71000000000000000000000000000000000000000000000000000000005f52604160045260245ffd5b6117578261138a565b810181811067ffffffffffffffff8211171561177657611775611721565b5b80604052505050565b5f6117886113f2565b9050611794828261174e565b919050565b5f67ffffffffffffffff8211156117b3576117b2611721565b5b602082029050602081019050919050565b5f80fd5b5f6117da6117d584611799565b61177f565b905080838252602082019050602084028301858111156117fd576117fc6117c4565b5b835b8181101561182657806118128882611449565b8452602084019350506020810190506117ff565b5050509392505050565b5f82601f8301126118445761184361171d565b5b81356118548482602086016117c8565b91505092915050565b5f8060408385031215611873576118726113fb565b5b5f6118808582860161147c565b925050602083013567ffffffffffffffff8111156118a1576118a06113ff565b5b6118ad85828601611830565b9150509250929050565b5f80604083850312156118cd576118cc6113fb565b5b5f6118da85828601611449565b92505060206118eb85828601611449565b9150509250929050565b7f4e487b71000000000000000000000000000000000000000000000000000000005f52602260045260245ffd5b5f600282049050600182168061193957607f821691505b60208210810361194c5761194b6118f5565b5b50919050565b7f496e76616c696420626f617264000000000000000000000000000000000000005f82015250565b5f611986600d8361136c565b915061199182611952565b602082019050919050565b5f6020820190508181035f8301526119b38161197a565b9050919050565b7f426f61726420616c7265616479206578697374730000000000000000000000005f82015250565b5f6119ee60148361136c565b91506119f9826119ba565b602082019050919050565b5f6020820190508181035f830152611a1b816119e2565b9050919050565b7f4e487b71000000000000000000000000000000000000000000000000000000005f52601160045260245ffd5b5f611a598261145d565b9150611a648361145d565b9250828201905080821115611a7c57611a7b611a22565b5b92915050565b7f4f6e6c79207468652062616e6b2063616e206275726e2062616e6b72757074205f8201527f66756e6473000000000000000000000000000000000000000000000000000000602082015250565b5f611adc60258361136c565b9150611ae782611a82565b604082019050919050565b5f6020820190508181035f830152611b0981611ad0565b9050919050565b7f45524332303a2064656372656173656420616c6c6f77616e63652062656c6f775f8201527f207a65726f000000000000000000000000000000000000000000000000000000602082015250565b5f611b6a60258361136c565b9150611b7582611b10565b604082019050919050565b5f6020820190508181035f830152611b9781611b5e565b9050919050565b7f4f6e6c792074686520626f6172642062616e6b2063616e2064697374726962755f8201527f7465206d6f6e6579000000000000000000000000000000000000000000000000602082015250565b5f611bf860288361136c565b9150611c0382611b9e565b604082019050919050565b5f6020820190508181035f830152611c2581611bec565b9050919050565b7f4e487b71000000000000000000000000000000000000000000000000000000005f52603260045260245ffd5b7f45524332303a20617070726f76652066726f6d20746865207a65726f206164645f8201527f7265737300000000000000000000000000000000000000000000000000000000602082015250565b5f611cb360248361136c565b9150611cbe82611c59565b604082019050919050565b5f6020820190508181035f830152611ce081611ca7565b9050919050565b7f45524332303a20617070726f766520746f20746865207a65726f2061646472655f8201527f7373000000000000000000000000000000000000000000000000000000000000602082015250565b5f611d4160228361136c565b9150611d4c82611ce7565b604082019050919050565b5f6020820190508181035f830152611d6e81611d35565b9050919050565b7f45524332303a20696e73756666696369656e7420616c6c6f77616e63650000005f82015250565b5f611da9601d8361136c565b9150611db482611d75565b602082019050919050565b5f6020820190508181035f830152611dd681611d9d565b9050919050565b7f45524332303a207472616e736665722066726f6d20746865207a65726f2061645f8201527f6472657373000000000000000000000000000000000000000000000000000000602082015250565b5f611e3760258361136c565b9150611e4282611ddd565b604082019050919050565b5f6020820190508181035f830152611e6481611e2b565b9050919050565b7f45524332303a207472616e7366657220746f20746865207a65726f20616464725f8201527f6573730000000000000000000000000000000000000000000000000000000000602082015250565b5f611ec560238361136c565b9150611ed082611e6b565b604082019050919050565b5f6020820190508181035f830152611ef281611eb9565b9050919050565b7f45524332303a207472616e7366657220616d6f756e74206578636565647320625f8201527f616c616e63650000000000000000000000000000000000000000000000000000602082015250565b5f611f5360268361136c565b9150611f5e82611ef9565b604082019050919050565b5f6020820190508181035f830152611f8081611f47565b9050919050565b7f45524332303a206d696e7420746f20746865207a65726f2061646472657373005f82015250565b5f611fbb601f8361136c565b9150611fc682611f87565b602082019050919050565b5f6020820190508181035f830152611fe881611faf565b9050919050565b7f45524332303a206275726e2066726f6d20746865207a65726f206164647265735f8201527f7300000000000000000000000000000000000000000000000000000000000000602082015250565b5f61204960218361136c565b915061205482611fef565b604082019050919050565b5f6020820190508181035f8301526120768161203d565b9050919050565b7f45524332303a206275726e20616d6f756e7420657863656564732062616c616e5f8201527f6365000000000000000000000000000000000000000000000000000000000000602082015250565b5f6120d760228361136c565b91506120e28261207d565b604082019050919050565b5f6020820190508181035f830152612104816120cb565b9050919050565b5f6121158261145d565b91506121208361145d565b925082820390508181111561213857612137611a22565b5b9291505056fea26469706673582212202a16eb4ed83cf957de7b152d7fae244664f658de0c1e635c8a728e23350b450964736f6c634300081a0033",
					"opcodes": "PUSH1 0x80 PUSH1 0x40 MSTORE PUSH9 0x5150AE84A8CDF00000 PUSH1 0x6 SSTORE CALLVALUE DUP1 ISZERO PUSH2 0x1C JUMPI PUSH0 DUP1 REVERT JUMPDEST POP PUSH1 0x40 MLOAD DUP1 PUSH1 0x40 ADD PUSH1 0x40 MSTORE DUP1 PUSH1 0xE DUP2 MSTORE PUSH1 0x20 ADD PUSH32 0x4D6F6E6F706F6C79204D6F6E6579000000000000000000000000000000000000 DUP2 MSTORE POP PUSH1 0x40 MLOAD DUP1 PUSH1 0x40 ADD PUSH1 0x40 MSTORE DUP1 PUSH1 0x3 DUP2 MSTORE PUSH1 0x20 ADD PUSH32 0x4D4E590000000000000000000000000000000000000000000000000000000000 DUP2 MSTORE POP DUP2 PUSH1 0x3 SWAP1 DUP2 PUSH2 0x98 SWAP2 SWAP1 PUSH2 0x2EA JUMP JUMPDEST POP DUP1 PUSH1 0x4 SWAP1 DUP2 PUSH2 0xA8 SWAP2 SWAP1 PUSH2 0x2EA JUMP JUMPDEST POP POP POP PUSH2 0x3B9 JUMP JUMPDEST PUSH0 DUP2 MLOAD SWAP1 POP SWAP2 SWAP1 POP JUMP JUMPDEST PUSH32 0x4E487B7100000000000000000000000000000000000000000000000000000000 PUSH0 MSTORE PUSH1 0x41 PUSH1 0x4 MSTORE PUSH1 0x24 PUSH0 REVERT JUMPDEST PUSH32 0x4E487B7100000000000000000000000000000000000000000000000000000000 PUSH0 MSTORE PUSH1 0x22 PUSH1 0x4 MSTORE PUSH1 0x24 PUSH0 REVERT JUMPDEST PUSH0 PUSH1 0x2 DUP3 DIV SWAP1 POP PUSH1 0x1 DUP3 AND DUP1 PUSH2 0x12B JUMPI PUSH1 0x7F DUP3 AND SWAP2 POP JUMPDEST PUSH1 0x20 DUP3 LT DUP2 SUB PUSH2 0x13E JUMPI PUSH2 0x13D PUSH2 0xE7 JUMP JUMPDEST JUMPDEST POP SWAP2 SWAP1 POP JUMP JUMPDEST PUSH0 DUP2 SWAP1 POP DUP2 PUSH0 MSTORE PUSH1 0x20 PUSH0 KECCAK256 SWAP1 POP SWAP2 SWAP1 POP JUMP JUMPDEST PUSH0 PUSH1 0x20 PUSH1 0x1F DUP4 ADD DIV SWAP1 POP SWAP2 SWAP1 POP JUMP JUMPDEST PUSH0 DUP3 DUP3 SHL SWAP1 POP SWAP3 SWAP2 POP POP JUMP JUMPDEST PUSH0 PUSH1 0x8 DUP4 MUL PUSH2 0x1A0 PUSH32 0xFFFFFFFFFFFFFFFFFFFFFFFFFFFFFFFFFFFFFFFFFFFFFFFFFFFFFFFFFFFFFFFF DUP3 PUSH2 0x165 JUMP JUMPDEST PUSH2 0x1AA DUP7 DUP4 PUSH2 0x165 JUMP JUMPDEST SWAP6 POP DUP1 NOT DUP5 AND SWAP4 POP DUP1 DUP7 AND DUP5 OR SWAP3 POP POP POP SWAP4 SWAP3 POP POP POP JUMP JUMPDEST PUSH0 DUP2 SWAP1 POP SWAP2 SWAP1 POP JUMP JUMPDEST PUSH0 DUP2 SWAP1 POP SWAP2 SWAP1 POP JUMP JUMPDEST PUSH0 PUSH2 0x1EE PUSH2 0x1E9 PUSH2 0x1E4 DUP5 PUSH2 0x1C2 JUMP JUMPDEST PUSH2 0x1CB JUMP JUMPDEST PUSH2 0x1C2 JUMP JUMPDEST SWAP1 POP SWAP2 SWAP1 POP JUMP JUMPDEST PUSH0 DUP2 SWAP1 POP SWAP2 SWAP1 POP JUMP JUMPDEST PUSH2 0x207 DUP4 PUSH2 0x1D4 JUMP JUMPDEST PUSH2 0x21B PUSH2 0x213 DUP3 PUSH2 0x1F5 JUMP JUMPDEST DUP5 DUP5 SLOAD PUSH2 0x171 JUMP JUMPDEST DUP3 SSTORE POP POP POP POP JUMP JUMPDEST PUSH0 SWAP1 JUMP JUMPDEST PUSH2 0x22F PUSH2 0x223 JUMP JUMPDEST PUSH2 0x23A DUP2 DUP5 DUP5 PUSH2 0x1FE JUMP JUMPDEST POP POP POP JUMP JUMPDEST JUMPDEST DUP2 DUP2 LT ISZERO PUSH2 0x25D JUMPI PUSH2 0x252 PUSH0 DUP3 PUSH2 0x227 JUMP JUMPDEST PUSH1 0x1 DUP2 ADD SWAP1 POP PUSH2 0x240 JUMP JUMPDEST POP POP JUMP JUMPDEST PUSH1 0x1F DUP3 GT ISZERO PUSH2 0x2A2 JUMPI PUSH2 0x273 DUP2 PUSH2 0x144 JUMP JUMPDEST PUSH2 0x27C DUP5 PUSH2 0x156 JUMP JUMPDEST DUP2 ADD PUSH1 0x20 DUP6 LT ISZERO PUSH2 0x28B JUMPI DUP2 SWAP1 POP JUMPDEST PUSH2 0x29F PUSH2 0x297 DUP6 PUSH2 0x156 JUMP JUMPDEST DUP4 ADD DUP3 PUSH2 0x23F JUMP JUMPDEST POP POP JUMPDEST POP POP POP JUMP JUMPDEST PUSH0 DUP3 DUP3 SHR SWAP1 POP SWAP3 SWAP2 POP POP JUMP JUMPDEST PUSH0 PUSH2 0x2C2 PUSH0 NOT DUP5 PUSH1 0x8 MUL PUSH2 0x2A7 JUMP JUMPDEST NOT DUP1 DUP4 AND SWAP2 POP POP SWAP3 SWAP2 POP POP JUMP JUMPDEST PUSH0 PUSH2 0x2DA DUP4 DUP4 PUSH2 0x2B3 JUMP JUMPDEST SWAP2 POP DUP3 PUSH1 0x2 MUL DUP3 OR SWAP1 POP SWAP3 SWAP2 POP POP JUMP JUMPDEST PUSH2 0x2F3 DUP3 PUSH2 0xB0 JUMP JUMPDEST PUSH8 0xFFFFFFFFFFFFFFFF DUP2 GT ISZERO PUSH2 0x30C JUMPI PUSH2 0x30B PUSH2 0xBA JUMP JUMPDEST JUMPDEST PUSH2 0x316 DUP3 SLOAD PUSH2 0x114 JUMP JUMPDEST PUSH2 0x321 DUP3 DUP3 DUP6 PUSH2 0x261 JUMP JUMPDEST PUSH0 PUSH1 0x20 SWAP1 POP PUSH1 0x1F DUP4 GT PUSH1 0x1 DUP2 EQ PUSH2 0x352 JUMPI PUSH0 DUP5 ISZERO PUSH2 0x340 JUMPI DUP3 DUP8 ADD MLOAD SWAP1 POP JUMPDEST PUSH2 0x34A DUP6 DUP3 PUSH2 0x2CF JUMP JUMPDEST DUP7 SSTORE POP PUSH2 0x3B1 JUMP JUMPDEST PUSH1 0x1F NOT DUP5 AND PUSH2 0x360 DUP7 PUSH2 0x144 JUMP JUMPDEST PUSH0 JUMPDEST DUP3 DUP2 LT ISZERO PUSH2 0x387 JUMPI DUP5 DUP10 ADD MLOAD DUP3 SSTORE PUSH1 0x1 DUP3 ADD SWAP2 POP PUSH1 0x20 DUP6 ADD SWAP5 POP PUSH1 0x20 DUP2 ADD SWAP1 POP PUSH2 0x362 JUMP JUMPDEST DUP7 DUP4 LT ISZERO PUSH2 0x3A4 JUMPI DUP5 DUP10 ADD MLOAD PUSH2 0x3A0 PUSH1 0x1F DUP10 AND DUP3 PUSH2 0x2B3 JUMP JUMPDEST DUP4 SSTORE POP JUMPDEST PUSH1 0x1 PUSH1 0x2 DUP9 MUL ADD DUP9 SSTORE POP POP POP JUMPDEST POP POP POP POP POP POP JUMP JUMPDEST PUSH2 0x2174 DUP1 PUSH2 0x3C6 PUSH0 CODECOPY PUSH0 RETURN INVALID PUSH1 0x80 PUSH1 0x40 MSTORE CALLVALUE DUP1 ISZERO PUSH2 0xF JUMPI PUSH0 DUP1 REVERT JUMPDEST POP PUSH1 0x4 CALLDATASIZE LT PUSH2 0x114 JUMPI PUSH0 CALLDATALOAD PUSH1 0xE0 SHR DUP1 PUSH4 0x6AFAA3F2 GT PUSH2 0xA0 JUMPI DUP1 PUSH4 0xA457C2D7 GT PUSH2 0x6F JUMPI DUP1 PUSH4 0xA457C2D7 EQ PUSH2 0x2F0 JUMPI DUP1 PUSH4 0xA9059CBB EQ PUSH2 0x320 JUMPI DUP1 PUSH4 0xBC86FF25 EQ PUSH2 0x350 JUMPI DUP1 PUSH4 0xDD62ED3E EQ PUSH2 0x36C JUMPI DUP1 PUSH4 0xED6E67C7 EQ PUSH2 0x39C JUMPI PUSH2 0x114 JUMP JUMPDEST DUP1 PUSH4 0x6AFAA3F2 EQ PUSH2 0x256 JUMPI DUP1 PUSH4 0x70A08231 EQ PUSH2 0x286 JUMPI DUP1 PUSH4 0x95D89B41 EQ PUSH2 0x2B6 JUMPI DUP1 PUSH4 0x9A49C085 EQ PUSH2 0x2D4 JUMPI PUSH2 0x114 JUMP JUMPDEST DUP1 PUSH4 0x290FFEA8 GT PUSH2 0xE7 JUMPI DUP1 PUSH4 0x290FFEA8 EQ PUSH2 0x1B4 JUMPI DUP1 PUSH4 0x313CE567 EQ PUSH2 0x1D0 JUMPI DUP1 PUSH4 0x38EBB13D EQ PUSH2 0x1EE JUMPI DUP1 PUSH4 0x39509351 EQ PUSH2 0x20A JUMPI DUP1 PUSH4 0x46B01A70 EQ PUSH2 0x23A JUMPI PUSH2 0x114 JUMP JUMPDEST DUP1 PUSH4 0x6FDDE03 EQ PUSH2 0x118 JUMPI DUP1 PUSH4 0x95EA7B3 EQ PUSH2 0x136 JUMPI DUP1 PUSH4 0x18160DDD EQ PUSH2 0x166 JUMPI DUP1 PUSH4 0x23B872DD EQ PUSH2 0x184 JUMPI JUMPDEST PUSH0 DUP1 REVERT JUMPDEST PUSH2 0x120 PUSH2 0x3BA JUMP JUMPDEST PUSH1 0x40 MLOAD PUSH2 0x12D SWAP2 SWAP1 PUSH2 0x13D2 JUMP JUMPDEST PUSH1 0x40 MLOAD DUP1 SWAP2 SUB SWAP1 RETURN JUMPDEST PUSH2 0x150 PUSH1 0x4 DUP1 CALLDATASIZE SUB DUP2 ADD SWAP1 PUSH2 0x14B SWAP2 SWAP1 PUSH2 0x1490 JUMP JUMPDEST PUSH2 0x44A JUMP JUMPDEST PUSH1 0x40 MLOAD PUSH2 0x15D SWAP2 SWAP1 PUSH2 0x14E8 JUMP JUMPDEST PUSH1 0x40 MLOAD DUP1 SWAP2 SUB SWAP1 RETURN JUMPDEST PUSH2 0x16E PUSH2 0x46C JUMP JUMPDEST PUSH1 0x40 MLOAD PUSH2 0x17B SWAP2 SWAP1 PUSH2 0x1510 JUMP JUMPDEST PUSH1 0x40 MLOAD DUP1 SWAP2 SUB SWAP1 RETURN JUMPDEST PUSH2 0x19E PUSH1 0x4 DUP1 CALLDATASIZE SUB DUP2 ADD SWAP1 PUSH2 0x199 SWAP2 SWAP1 PUSH2 0x1529 JUMP JUMPDEST PUSH2 0x475 JUMP JUMPDEST PUSH1 0x40 MLOAD PUSH2 0x1AB SWAP2 SWAP1 PUSH2 0x14E8 JUMP JUMPDEST PUSH1 0x40 MLOAD DUP1 SWAP2 SUB SWAP1 RETURN JUMPDEST PUSH2 0x1CE PUSH1 0x4 DUP1 CALLDATASIZE SUB DUP2 ADD SWAP1 PUSH2 0x1C9 SWAP2 SWAP1 PUSH2 0x1579 JUMP JUMPDEST PUSH2 0x4A3 JUMP JUMPDEST STOP JUMPDEST PUSH2 0x1D8 PUSH2 0x552 JUMP JUMPDEST PUSH1 0x40 MLOAD PUSH2 0x1E5 SWAP2 SWAP1 PUSH2 0x15F8 JUMP JUMPDEST PUSH1 0x40 MLOAD DUP1 SWAP2 SUB SWAP1 RETURN JUMPDEST PUSH2 0x208 PUSH1 0x4 DUP1 CALLDATASIZE SUB DUP2 ADD SWAP1 PUSH2 0x203 SWAP2 SWAP1 PUSH2 0x1611 JUMP JUMPDEST PUSH2 0x55A JUMP JUMPDEST STOP JUMPDEST PUSH2 0x224 PUSH1 0x4 DUP1 CALLDATASIZE SUB DUP2 ADD SWAP1 PUSH2 0x21F SWAP2 SWAP1 PUSH2 0x1490 JUMP JUMPDEST PUSH2 0x65F JUMP JUMPDEST PUSH1 0x40 MLOAD PUSH2 0x231 SWAP2 SWAP1 PUSH2 0x14E8 JUMP JUMPDEST PUSH1 0x40 MLOAD DUP1 SWAP2 SUB SWAP1 RETURN JUMPDEST PUSH2 0x254 PUSH1 0x4 DUP1 CALLDATASIZE SUB DUP2 ADD SWAP1 PUSH2 0x24F SWAP2 SWAP1 PUSH2 0x1611 JUMP JUMPDEST PUSH2 0x695 JUMP JUMPDEST STOP JUMPDEST PUSH2 0x270 PUSH1 0x4 DUP1 CALLDATASIZE SUB DUP2 ADD SWAP1 PUSH2 0x26B SWAP2 SWAP1 PUSH2 0x164F JUMP JUMPDEST PUSH2 0x757 JUMP JUMPDEST PUSH1 0x40 MLOAD PUSH2 0x27D SWAP2 SWAP1 PUSH2 0x1689 JUMP JUMPDEST PUSH1 0x40 MLOAD DUP1 SWAP2 SUB SWAP1 RETURN JUMPDEST PUSH2 0x2A0 PUSH1 0x4 DUP1 CALLDATASIZE SUB DUP2 ADD SWAP1 PUSH2 0x29B SWAP2 SWAP1 PUSH2 0x16A2 JUMP JUMPDEST PUSH2 0x787 JUMP JUMPDEST PUSH1 0x40 MLOAD PUSH2 0x2AD SWAP2 SWAP1 PUSH2 0x1510 JUMP JUMPDEST PUSH1 0x40 MLOAD DUP1 SWAP2 SUB SWAP1 RETURN JUMPDEST PUSH2 0x2BE PUSH2 0x7CC JUMP JUMPDEST PUSH1 0x40 MLOAD PUSH2 0x2CB SWAP2 SWAP1 PUSH2 0x13D2 JUMP JUMPDEST PUSH1 0x40 MLOAD DUP1 SWAP2 SUB SWAP1 RETURN JUMPDEST PUSH2 0x2EE PUSH1 0x4 DUP1 CALLDATASIZE SUB DUP2 ADD SWAP1 PUSH2 0x2E9 SWAP2 SWAP1 PUSH2 0x16CD JUMP JUMPDEST PUSH2 0x85C JUMP JUMPDEST STOP JUMPDEST PUSH2 0x30A PUSH1 0x4 DUP1 CALLDATASIZE SUB DUP2 ADD SWAP1 PUSH2 0x305 SWAP2 SWAP1 PUSH2 0x1490 JUMP JUMPDEST PUSH2 0x93A JUMP JUMPDEST PUSH1 0x40 MLOAD PUSH2 0x317 SWAP2 SWAP1 PUSH2 0x14E8 JUMP JUMPDEST PUSH1 0x40 MLOAD DUP1 SWAP2 SUB SWAP1 RETURN JUMPDEST PUSH2 0x33A PUSH1 0x4 DUP1 CALLDATASIZE SUB DUP2 ADD SWAP1 PUSH2 0x335 SWAP2 SWAP1 PUSH2 0x1490 JUMP JUMPDEST PUSH2 0x9AF JUMP JUMPDEST PUSH1 0x40 MLOAD PUSH2 0x347 SWAP2 SWAP1 PUSH2 0x14E8 JUMP JUMPDEST PUSH1 0x40 MLOAD DUP1 SWAP2 SUB SWAP1 RETURN JUMPDEST PUSH2 0x36A PUSH1 0x4 DUP1 CALLDATASIZE SUB DUP2 ADD SWAP1 PUSH2 0x365 SWAP2 SWAP1 PUSH2 0x185D JUMP JUMPDEST PUSH2 0x9D1 JUMP JUMPDEST STOP JUMPDEST PUSH2 0x386 PUSH1 0x4 DUP1 CALLDATASIZE SUB DUP2 ADD SWAP1 PUSH2 0x381 SWAP2 SWAP1 PUSH2 0x18B7 JUMP JUMPDEST PUSH2 0xAE3 JUMP JUMPDEST PUSH1 0x40 MLOAD PUSH2 0x393 SWAP2 SWAP1 PUSH2 0x1510 JUMP JUMPDEST PUSH1 0x40 MLOAD DUP1 SWAP2 SUB SWAP1 RETURN JUMPDEST PUSH2 0x3A4 PUSH2 0xB65 JUMP JUMPDEST PUSH1 0x40 MLOAD PUSH2 0x3B1 SWAP2 SWAP1 PUSH2 0x1510 JUMP JUMPDEST PUSH1 0x40 MLOAD DUP1 SWAP2 SUB SWAP1 RETURN JUMPDEST PUSH1 0x60 PUSH1 0x3 DUP1 SLOAD PUSH2 0x3C9 SWAP1 PUSH2 0x1922 JUMP JUMPDEST DUP1 PUSH1 0x1F ADD PUSH1 0x20 DUP1 SWAP2 DIV MUL PUSH1 0x20 ADD PUSH1 0x40 MLOAD SWAP1 DUP2 ADD PUSH1 0x40 MSTORE DUP1 SWAP3 SWAP2 SWAP1 DUP2 DUP2 MSTORE PUSH1 0x20 ADD DUP3 DUP1 SLOAD PUSH2 0x3F5 SWAP1 PUSH2 0x1922 JUMP JUMPDEST DUP1 ISZERO PUSH2 0x440 JUMPI DUP1 PUSH1 0x1F LT PUSH2 0x417 JUMPI PUSH2 0x100 DUP1 DUP4 SLOAD DIV MUL DUP4 MSTORE SWAP2 PUSH1 0x20 ADD SWAP2 PUSH2 0x440 JUMP JUMPDEST DUP3 ADD SWAP2 SWAP1 PUSH0 MSTORE PUSH1 0x20 PUSH0 KECCAK256 SWAP1 JUMPDEST DUP2 SLOAD DUP2 MSTORE SWAP1 PUSH1 0x1 ADD SWAP1 PUSH1 0x20 ADD DUP1 DUP4 GT PUSH2 0x423 JUMPI DUP3 SWAP1 SUB PUSH1 0x1F AND DUP3 ADD SWAP2 JUMPDEST POP POP POP POP POP SWAP1 POP SWAP1 JUMP JUMPDEST PUSH0 DUP1 PUSH2 0x454 PUSH2 0xB6B JUMP JUMPDEST SWAP1 POP PUSH2 0x461 DUP2 DUP6 DUP6 PUSH2 0xB72 JUMP JUMPDEST PUSH1 0x1 SWAP2 POP POP SWAP3 SWAP2 POP POP JUMP JUMPDEST PUSH0 PUSH1 0x2 SLOAD SWAP1 POP SWAP1 JUMP JUMPDEST PUSH0 DUP1 PUSH2 0x47F PUSH2 0xB6B JUMP JUMPDEST SWAP1 POP PUSH2 0x48C DUP6 DUP3 DUP6 PUSH2 0xD35 JUMP JUMPDEST PUSH2 0x497 DUP6 DUP6 DUP6 PUSH2 0xDC0 JUMP JUMPDEST PUSH1 0x1 SWAP2 POP POP SWAP4 SWAP3 POP POP POP JUMP JUMPDEST PUSH0 PUSH20 0xFFFFFFFFFFFFFFFFFFFFFFFFFFFFFFFFFFFFFFFF AND PUSH1 0x5 PUSH0 DUP7 DUP2 MSTORE PUSH1 0x20 ADD SWAP1 DUP2 MSTORE PUSH1 0x20 ADD PUSH0 KECCAK256 PUSH0 SWAP1 SLOAD SWAP1 PUSH2 0x100 EXP SWAP1 DIV PUSH20 0xFFFFFFFFFFFFFFFFFFFFFFFFFFFFFFFFFFFFFFFF AND PUSH20 0xFFFFFFFFFFFFFFFFFFFFFFFFFFFFFFFFFFFFFFFF AND SUB PUSH2 0x541 JUMPI PUSH1 0x40 MLOAD PUSH32 0x8C379A000000000000000000000000000000000000000000000000000000000 DUP2 MSTORE PUSH1 0x4 ADD PUSH2 0x538 SWAP1 PUSH2 0x199C JUMP JUMPDEST PUSH1 0x40 MLOAD DUP1 SWAP2 SUB SWAP1 REVERT JUMPDEST PUSH2 0x54C DUP4 DUP4 DUP4 PUSH2 0xDC0 JUMP JUMPDEST POP POP POP POP JUMP JUMPDEST PUSH0 PUSH1 0x12 SWAP1 POP SWAP1 JUMP JUMPDEST PUSH0 PUSH20 0xFFFFFFFFFFFFFFFFFFFFFFFFFFFFFFFFFFFFFFFF AND PUSH1 0x5 PUSH0 DUP5 DUP2 MSTORE PUSH1 0x20 ADD SWAP1 DUP2 MSTORE PUSH1 0x20 ADD PUSH0 KECCAK256 PUSH0 SWAP1 SLOAD SWAP1 PUSH2 0x100 EXP SWAP1 DIV PUSH20 0xFFFFFFFFFFFFFFFFFFFFFFFFFFFFFFFFFFFFFFFF AND PUSH20 0xFFFFFFFFFFFFFFFFFFFFFFFFFFFFFFFFFFFFFFFF AND EQ PUSH2 0x5F8 JUMPI PUSH1 0x40 MLOAD PUSH32 0x8C379A000000000000000000000000000000000000000000000000000000000 DUP2 MSTORE PUSH1 0x4 ADD PUSH2 0x5EF SWAP1 PUSH2 0x1A04 JUMP JUMPDEST PUSH1 0x40 MLOAD DUP1 SWAP2 SUB SWAP1 REVERT JUMPDEST DUP1 PUSH1 0x5 PUSH0 DUP5 DUP2 MSTORE PUSH1 0x20 ADD SWAP1 DUP2 MSTORE PUSH1 0x20 ADD PUSH0 KECCAK256 PUSH0 PUSH2 0x100 EXP DUP2 SLOAD DUP2 PUSH20 0xFFFFFFFFFFFFFFFFFFFFFFFFFFFFFFFFFFFFFFFF MUL NOT AND SWAP1 DUP4 PUSH20 0xFFFFFFFFFFFFFFFFFFFFFFFFFFFFFFFFFFFFFFFF AND MUL OR SWAP1 SSTORE POP PUSH2 0x65B DUP2 PUSH10 0xD3C21BCECCEDA1000000 PUSH2 0x1035 JUMP JUMPDEST POP POP JUMP JUMPDEST PUSH0 DUP1 PUSH2 0x669 PUSH2 0xB6B JUMP JUMPDEST SWAP1 POP PUSH2 0x68A DUP2 DUP6 DUP6 PUSH2 0x67B DUP6 DUP10 PUSH2 0xAE3 JUMP JUMPDEST PUSH2 0x685 SWAP2 SWAP1 PUSH2 0x1A4F JUMP JUMPDEST PUSH2 0xB72 JUMP JUMPDEST PUSH1 0x1 SWAP2 POP POP SWAP3 SWAP2 POP POP JUMP JUMPDEST CALLER PUSH20 0xFFFFFFFFFFFFFFFFFFFFFFFFFFFFFFFFFFFFFFFF AND PUSH1 0x5 PUSH0 DUP5 DUP2 MSTORE PUSH1 0x20 ADD SWAP1 DUP2 MSTORE PUSH1 0x20 ADD PUSH0 KECCAK256 PUSH0 SWAP1 SLOAD SWAP1 PUSH2 0x100 EXP SWAP1 DIV PUSH20 0xFFFFFFFFFFFFFFFFFFFFFFFFFFFFFFFFFFFFFFFF AND PUSH20 0xFFFFFFFFFFFFFFFFFFFFFFFFFFFFFFFFFFFFFFFF AND EQ PUSH2 0x733 JUMPI PUSH1 0x40 MLOAD PUSH32 0x8C379A000000000000000000000000000000000000000000000000000000000 DUP2 MSTORE PUSH1 0x4 ADD PUSH2 0x72A SWAP1 PUSH2 0x1AF2 JUMP JUMPDEST PUSH1 0x40 MLOAD DUP1 SWAP2 SUB SWAP1 REVERT JUMPDEST PUSH0 PUSH2 0x73D DUP3 PUSH2 0x787 JUMP JUMPDEST SWAP1 POP PUSH0 DUP2 GT ISZERO PUSH2 0x752 JUMPI PUSH2 0x751 DUP3 DUP3 PUSH2 0x118C JUMP JUMPDEST JUMPDEST POP POP POP JUMP JUMPDEST PUSH1 0x5 PUSH1 0x20 MSTORE DUP1 PUSH0 MSTORE PUSH1 0x40 PUSH0 KECCAK256 PUSH0 SWAP2 POP SLOAD SWAP1 PUSH2 0x100 EXP SWAP1 DIV PUSH20 0xFFFFFFFFFFFFFFFFFFFFFFFFFFFFFFFFFFFFFFFF AND DUP2 JUMP JUMPDEST PUSH0 DUP1 PUSH0 DUP4 PUSH20 0xFFFFFFFFFFFFFFFFFFFFFFFFFFFFFFFFFFFFFFFF AND PUSH20 0xFFFFFFFFFFFFFFFFFFFFFFFFFFFFFFFFFFFFFFFF AND DUP2 MSTORE PUSH1 0x20 ADD SWAP1 DUP2 MSTORE PUSH1 0x20 ADD PUSH0 KECCAK256 SLOAD SWAP1 POP SWAP2 SWAP1 POP JUMP JUMPDEST PUSH1 0x60 PUSH1 0x4 DUP1 SLOAD PUSH2 0x7DB SWAP1 PUSH2 0x1922 JUMP JUMPDEST DUP1 PUSH1 0x1F ADD PUSH1 0x20 DUP1 SWAP2 DIV MUL PUSH1 0x20 ADD PUSH1 0x40 MLOAD SWAP1 DUP2 ADD PUSH1 0x40 MSTORE DUP1 SWAP3 SWAP2 SWAP1 DUP2 DUP2 MSTORE PUSH1 0x20 ADD DUP3 DUP1 SLOAD PUSH2 0x807 SWAP1 PUSH2 0x1922 JUMP JUMPDEST DUP1 ISZERO PUSH2 0x852 JUMPI DUP1 PUSH1 0x1F LT PUSH2 0x829 JUMPI PUSH2 0x100 DUP1 DUP4 SLOAD DIV MUL DUP4 MSTORE SWAP2 PUSH1 0x20 ADD SWAP2 PUSH2 0x852 JUMP JUMPDEST DUP3 ADD SWAP2 SWAP1 PUSH0 MSTORE PUSH1 0x20 PUSH0 KECCAK256 SWAP1 JUMPDEST DUP2 SLOAD DUP2 MSTORE SWAP1 PUSH1 0x1 ADD SWAP1 PUSH1 0x20 ADD DUP1 DUP4 GT PUSH2 0x835 JUMPI DUP3 SWAP1 SUB PUSH1 0x1F AND DUP3 ADD SWAP2 JUMPDEST POP POP POP POP POP SWAP1 POP SWAP1 JUMP JUMPDEST PUSH0 PUSH20 0xFFFFFFFFFFFFFFFFFFFFFFFFFFFFFFFFFFFFFFFF AND PUSH1 0x5 PUSH0 DUP6 DUP2 MSTORE PUSH1 0x20 ADD SWAP1 DUP2 MSTORE PUSH1 0x20 ADD PUSH0 KECCAK256 PUSH0 SWAP1 SLOAD SWAP1 PUSH2 0x100 EXP SWAP1 DIV PUSH20 0xFFFFFFFFFFFFFFFFFFFFFFFFFFFFFFFFFFFFFFFF AND PUSH20 0xFFFFFFFFFFFFFFFFFFFFFFFFFFFFFFFFFFFFFFFF AND SUB PUSH2 0x8FA JUMPI PUSH1 0x40 MLOAD PUSH32 0x8C379A000000000000000000000000000000000000000000000000000000000 DUP2 MSTORE PUSH1 0x4 ADD PUSH2 0x8F1 SWAP1 PUSH2 0x199C JUMP JUMPDEST PUSH1 0x40 MLOAD DUP1 SWAP2 SUB SWAP1 REVERT JUMPDEST PUSH2 0x935 DUP3 PUSH1 0x5 PUSH0 DUP7 DUP2 MSTORE PUSH1 0x20 ADD SWAP1 DUP2 MSTORE PUSH1 0x20 ADD PUSH0 KECCAK256 PUSH0 SWAP1 SLOAD SWAP1 PUSH2 0x100 EXP SWAP1 DIV PUSH20 0xFFFFFFFFFFFFFFFFFFFFFFFFFFFFFFFFFFFFFFFF AND DUP4 PUSH2 0xDC0 JUMP JUMPDEST POP POP POP JUMP JUMPDEST PUSH0 DUP1 PUSH2 0x944 PUSH2 0xB6B JUMP JUMPDEST SWAP1 POP PUSH0 PUSH2 0x951 DUP3 DUP7 PUSH2 0xAE3 JUMP JUMPDEST SWAP1 POP DUP4 DUP2 LT ISZERO PUSH2 0x996 JUMPI PUSH1 0x40 MLOAD PUSH32 0x8C379A000000000000000000000000000000000000000000000000000000000 DUP2 MSTORE PUSH1 0x4 ADD PUSH2 0x98D SWAP1 PUSH2 0x1B80 JUMP JUMPDEST PUSH1 0x40 MLOAD DUP1 SWAP2 SUB SWAP1 REVERT JUMPDEST PUSH2 0x9A3 DUP3 DUP7 DUP7 DUP5 SUB PUSH2 0xB72 JUMP JUMPDEST PUSH1 0x1 SWAP3 POP POP POP SWAP3 SWAP2 POP POP JUMP JUMPDEST PUSH0 DUP1 PUSH2 0x9B9 PUSH2 0xB6B JUMP JUMPDEST SWAP1 POP PUSH2 0x9C6 DUP2 DUP6 DUP6 PUSH2 0xDC0 JUMP JUMPDEST PUSH1 0x1 SWAP2 POP POP SWAP3 SWAP2 POP POP JUMP JUMPDEST CALLER PUSH20 0xFFFFFFFFFFFFFFFFFFFFFFFFFFFFFFFFFFFFFFFF AND PUSH1 0x5 PUSH0 DUP5 DUP2 MSTORE PUSH1 0x20 ADD SWAP1 DUP2 MSTORE PUSH1 0x20 ADD PUSH0 KECCAK256 PUSH0 SWAP1 SLOAD SWAP1 PUSH2 0x100 EXP SWAP1 DIV PUSH20 0xFFFFFFFFFFFFFFFFFFFFFFFFFFFFFFFFFFFFFFFF AND PUSH20 0xFFFFFFFFFFFFFFFFFFFFFFFFFFFFFFFFFFFFFFFF AND EQ PUSH2 0xA6F JUMPI PUSH1 0x40 MLOAD PUSH32 0x8C379A000000000000000000000000000000000000000000000000000000000 DUP2 MSTORE PUSH1 0x4 ADD PUSH2 0xA66 SWAP1 PUSH2 0x1C0E JUMP JUMPDEST PUSH1 0x40 MLOAD DUP1 SWAP2 SUB SWAP1 REVERT JUMPDEST PUSH0 JUMPDEST DUP2 MLOAD DUP2 LT ISZERO PUSH2 0xADE JUMPI PUSH2 0xAD1 PUSH1 0x5 PUSH0 DUP6 DUP2 MSTORE PUSH1 0x20 ADD SWAP1 DUP2 MSTORE PUSH1 0x20 ADD PUSH0 KECCAK256 PUSH0 SWAP1 SLOAD SWAP1 PUSH2 0x100 EXP SWAP1 DIV PUSH20 0xFFFFFFFFFFFFFFFFFFFFFFFFFFFFFFFFFFFFFFFF AND DUP4 DUP4 DUP2 MLOAD DUP2 LT PUSH2 0xAC1 JUMPI PUSH2 0xAC0 PUSH2 0x1C2C JUMP JUMPDEST JUMPDEST PUSH1 0x20 MUL PUSH1 0x20 ADD ADD MLOAD PUSH1 0x6 SLOAD PUSH2 0xDC0 JUMP JUMPDEST DUP1 DUP1 PUSH1 0x1 ADD SWAP2 POP POP PUSH2 0xA71 JUMP JUMPDEST POP POP POP JUMP JUMPDEST PUSH0 PUSH1 0x1 PUSH0 DUP5 PUSH20 0xFFFFFFFFFFFFFFFFFFFFFFFFFFFFFFFFFFFFFFFF AND PUSH20 0xFFFFFFFFFFFFFFFFFFFFFFFFFFFFFFFFFFFFFFFF AND DUP2 MSTORE PUSH1 0x20 ADD SWAP1 DUP2 MSTORE PUSH1 0x20 ADD PUSH0 KECCAK256 PUSH0 DUP4 PUSH20 0xFFFFFFFFFFFFFFFFFFFFFFFFFFFFFFFFFFFFFFFF AND PUSH20 0xFFFFFFFFFFFFFFFFFFFFFFFFFFFFFFFFFFFFFFFF AND DUP2 MSTORE PUSH1 0x20 ADD SWAP1 DUP2 MSTORE PUSH1 0x20 ADD PUSH0 KECCAK256 SLOAD SWAP1 POP SWAP3 SWAP2 POP POP JUMP JUMPDEST PUSH1 0x6 SLOAD DUP2 JUMP JUMPDEST PUSH0 CALLER SWAP1 POP SWAP1 JUMP JUMPDEST PUSH0 PUSH20 0xFFFFFFFFFFFFFFFFFFFFFFFFFFFFFFFFFFFFFFFF AND DUP4 PUSH20 0xFFFFFFFFFFFFFFFFFFFFFFFFFFFFFFFFFFFFFFFF AND SUB PUSH2 0xBE0 JUMPI PUSH1 0x40 MLOAD PUSH32 0x8C379A000000000000000000000000000000000000000000000000000000000 DUP2 MSTORE PUSH1 0x4 ADD PUSH2 0xBD7 SWAP1 PUSH2 0x1CC9 JUMP JUMPDEST PUSH1 0x40 MLOAD DUP1 SWAP2 SUB SWAP1 REVERT JUMPDEST PUSH0 PUSH20 0xFFFFFFFFFFFFFFFFFFFFFFFFFFFFFFFFFFFFFFFF AND DUP3 PUSH20 0xFFFFFFFFFFFFFFFFFFFFFFFFFFFFFFFFFFFFFFFF AND SUB PUSH2 0xC4E JUMPI PUSH1 0x40 MLOAD PUSH32 0x8C379A000000000000000000000000000000000000000000000000000000000 DUP2 MSTORE PUSH1 0x4 ADD PUSH2 0xC45 SWAP1 PUSH2 0x1D57 JUMP JUMPDEST PUSH1 0x40 MLOAD DUP1 SWAP2 SUB SWAP1 REVERT JUMPDEST DUP1 PUSH1 0x1 PUSH0 DUP6 PUSH20 0xFFFFFFFFFFFFFFFFFFFFFFFFFFFFFFFFFFFFFFFF AND PUSH20 0xFFFFFFFFFFFFFFFFFFFFFFFFFFFFFFFFFFFFFFFF AND DUP2 MSTORE PUSH1 0x20 ADD SWAP1 DUP2 MSTORE PUSH1 0x20 ADD PUSH0 KECCAK256 PUSH0 DUP5 PUSH20 0xFFFFFFFFFFFFFFFFFFFFFFFFFFFFFFFFFFFFFFFF AND PUSH20 0xFFFFFFFFFFFFFFFFFFFFFFFFFFFFFFFFFFFFFFFF AND DUP2 MSTORE PUSH1 0x20 ADD SWAP1 DUP2 MSTORE PUSH1 0x20 ADD PUSH0 KECCAK256 DUP2 SWAP1 SSTORE POP DUP2 PUSH20 0xFFFFFFFFFFFFFFFFFFFFFFFFFFFFFFFFFFFFFFFF AND DUP4 PUSH20 0xFFFFFFFFFFFFFFFFFFFFFFFFFFFFFFFFFFFFFFFF AND PUSH32 0x8C5BE1E5EBEC7D5BD14F71427D1E84F3DD0314C0F7B2291E5B200AC8C7C3B925 DUP4 PUSH1 0x40 MLOAD PUSH2 0xD28 SWAP2 SWAP1 PUSH2 0x1510 JUMP JUMPDEST PUSH1 0x40 MLOAD DUP1 SWAP2 SUB SWAP1 LOG3 POP POP POP JUMP JUMPDEST PUSH0 PUSH2 0xD40 DUP5 DUP5 PUSH2 0xAE3 JUMP JUMPDEST SWAP1 POP PUSH32 0xFFFFFFFFFFFFFFFFFFFFFFFFFFFFFFFFFFFFFFFFFFFFFFFFFFFFFFFFFFFFFFFF DUP2 EQ PUSH2 0xDBA JUMPI DUP2 DUP2 LT ISZERO PUSH2 0xDAC JUMPI PUSH1 0x40 MLOAD PUSH32 0x8C379A000000000000000000000000000000000000000000000000000000000 DUP2 MSTORE PUSH1 0x4 ADD PUSH2 0xDA3 SWAP1 PUSH2 0x1DBF JUMP JUMPDEST PUSH1 0x40 MLOAD DUP1 SWAP2 SUB SWAP1 REVERT JUMPDEST PUSH2 0xDB9 DUP5 DUP5 DUP5 DUP5 SUB PUSH2 0xB72 JUMP JUMPDEST JUMPDEST POP POP POP POP JUMP JUMPDEST PUSH0 PUSH20 0xFFFFFFFFFFFFFFFFFFFFFFFFFFFFFFFFFFFFFFFF AND DUP4 PUSH20 0xFFFFFFFFFFFFFFFFFFFFFFFFFFFFFFFFFFFFFFFF AND SUB PUSH2 0xE2E JUMPI PUSH1 0x40 MLOAD PUSH32 0x8C379A000000000000000000000000000000000000000000000000000000000 DUP2 MSTORE PUSH1 0x4 ADD PUSH2 0xE25 SWAP1 PUSH2 0x1E4D JUMP JUMPDEST PUSH1 0x40 MLOAD DUP1 SWAP2 SUB SWAP1 REVERT JUMPDEST PUSH0 PUSH20 0xFFFFFFFFFFFFFFFFFFFFFFFFFFFFFFFFFFFFFFFF AND DUP3 PUSH20 0xFFFFFFFFFFFFFFFFFFFFFFFFFFFFFFFFFFFFFFFF AND SUB PUSH2 0xE9C JUMPI PUSH1 0x40 MLOAD PUSH32 0x8C379A000000000000000000000000000000000000000000000000000000000 DUP2 MSTORE PUSH1 0x4 ADD PUSH2 0xE93 SWAP1 PUSH2 0x1EDB JUMP JUMPDEST PUSH1 0x40 MLOAD DUP1 SWAP2 SUB SWAP1 REVERT JUMPDEST PUSH2 0xEA7 DUP4 DUP4 DUP4 PUSH2 0x1358 JUMP JUMPDEST PUSH0 DUP1 PUSH0 DUP6 PUSH20 0xFFFFFFFFFFFFFFFFFFFFFFFFFFFFFFFFFFFFFFFF AND PUSH20 0xFFFFFFFFFFFFFFFFFFFFFFFFFFFFFFFFFFFFFFFF AND DUP2 MSTORE PUSH1 0x20 ADD SWAP1 DUP2 MSTORE PUSH1 0x20 ADD PUSH0 KECCAK256 SLOAD SWAP1 POP DUP2 DUP2 LT ISZERO PUSH2 0xF2A JUMPI PUSH1 0x40 MLOAD PUSH32 0x8C379A000000000000000000000000000000000000000000000000000000000 DUP2 MSTORE PUSH1 0x4 ADD PUSH2 0xF21 SWAP1 PUSH2 0x1F69 JUMP JUMPDEST PUSH1 0x40 MLOAD DUP1 SWAP2 SUB SWAP1 REVERT JUMPDEST DUP2 DUP2 SUB PUSH0 DUP1 DUP7 PUSH20 0xFFFFFFFFFFFFFFFFFFFFFFFFFFFFFFFFFFFFFFFF AND PUSH20 0xFFFFFFFFFFFFFFFFFFFFFFFFFFFFFFFFFFFFFFFF AND DUP2 MSTORE PUSH1 0x20 ADD SWAP1 DUP2 MSTORE PUSH1 0x20 ADD PUSH0 KECCAK256 DUP2 SWAP1 SSTORE POP DUP2 PUSH0 DUP1 DUP6 PUSH20 0xFFFFFFFFFFFFFFFFFFFFFFFFFFFFFFFFFFFFFFFF AND PUSH20 0xFFFFFFFFFFFFFFFFFFFFFFFFFFFFFFFFFFFFFFFF AND DUP2 MSTORE PUSH1 0x20 ADD SWAP1 DUP2 MSTORE PUSH1 0x20 ADD PUSH0 KECCAK256 PUSH0 DUP3 DUP3 SLOAD PUSH2 0xFB8 SWAP2 SWAP1 PUSH2 0x1A4F JUMP JUMPDEST SWAP3 POP POP DUP2 SWAP1 SSTORE POP DUP3 PUSH20 0xFFFFFFFFFFFFFFFFFFFFFFFFFFFFFFFFFFFFFFFF AND DUP5 PUSH20 0xFFFFFFFFFFFFFFFFFFFFFFFFFFFFFFFFFFFFFFFF AND PUSH32 0xDDF252AD1BE2C89B69C2B068FC378DAA952BA7F163C4A11628F55A4DF523B3EF DUP5 PUSH1 0x40 MLOAD PUSH2 0x101C SWAP2 SWAP1 PUSH2 0x1510 JUMP JUMPDEST PUSH1 0x40 MLOAD DUP1 SWAP2 SUB SWAP1 LOG3 PUSH2 0x102F DUP5 DUP5 DUP5 PUSH2 0x135D JUMP JUMPDEST POP POP POP POP JUMP JUMPDEST PUSH0 PUSH20 0xFFFFFFFFFFFFFFFFFFFFFFFFFFFFFFFFFFFFFFFF AND DUP3 PUSH20 0xFFFFFFFFFFFFFFFFFFFFFFFFFFFFFFFFFFFFFFFF AND SUB PUSH2 0x10A3 JUMPI PUSH1 0x40 MLOAD PUSH32 0x8C379A000000000000000000000000000000000000000000000000000000000 DUP2 MSTORE PUSH1 0x4 ADD PUSH2 0x109A SWAP1 PUSH2 0x1FD1 JUMP JUMPDEST PUSH1 0x40 MLOAD DUP1 SWAP2 SUB SWAP1 REVERT JUMPDEST PUSH2 0x10AE PUSH0 DUP4 DUP4 PUSH2 0x1358 JUMP JUMPDEST DUP1 PUSH1 0x2 PUSH0 DUP3 DUP3 SLOAD PUSH2 0x10BF SWAP2 SWAP1 PUSH2 0x1A4F JUMP JUMPDEST SWAP3 POP POP DUP2 SWAP1 SSTORE POP DUP1 PUSH0 DUP1 DUP5 PUSH20 0xFFFFFFFFFFFFFFFFFFFFFFFFFFFFFFFFFFFFFFFF AND PUSH20 0xFFFFFFFFFFFFFFFFFFFFFFFFFFFFFFFFFFFFFFFF AND DUP2 MSTORE PUSH1 0x20 ADD SWAP1 DUP2 MSTORE PUSH1 0x20 ADD PUSH0 KECCAK256 PUSH0 DUP3 DUP3 SLOAD PUSH2 0x1111 SWAP2 SWAP1 PUSH2 0x1A4F JUMP JUMPDEST SWAP3 POP POP DUP2 SWAP1 SSTORE POP DUP2 PUSH20 0xFFFFFFFFFFFFFFFFFFFFFFFFFFFFFFFFFFFFFFFF AND PUSH0 PUSH20 0xFFFFFFFFFFFFFFFFFFFFFFFFFFFFFFFFFFFFFFFF AND PUSH32 0xDDF252AD1BE2C89B69C2B068FC378DAA952BA7F163C4A11628F55A4DF523B3EF DUP4 PUSH1 0x40 MLOAD PUSH2 0x1175 SWAP2 SWAP1 PUSH2 0x1510 JUMP JUMPDEST PUSH1 0x40 MLOAD DUP1 SWAP2 SUB SWAP1 LOG3 PUSH2 0x1188 PUSH0 DUP4 DUP4 PUSH2 0x135D JUMP JUMPDEST POP POP JUMP JUMPDEST PUSH0 PUSH20 0xFFFFFFFFFFFFFFFFFFFFFFFFFFFFFFFFFFFFFFFF AND DUP3 PUSH20 0xFFFFFFFFFFFFFFFFFFFFFFFFFFFFFFFFFFFFFFFF AND SUB PUSH2 0x11FA JUMPI PUSH1 0x40 MLOAD PUSH32 0x8C379A000000000000000000000000000000000000000000000000000000000 DUP2 MSTORE PUSH1 0x4 ADD PUSH2 0x11F1 SWAP1 PUSH2 0x205F JUMP JUMPDEST PUSH1 0x40 MLOAD DUP1 SWAP2 SUB SWAP1 REVERT JUMPDEST PUSH2 0x1205 DUP3 PUSH0 DUP4 PUSH2 0x1358 JUMP JUMPDEST PUSH0 DUP1 PUSH0 DUP5 PUSH20 0xFFFFFFFFFFFFFFFFFFFFFFFFFFFFFFFFFFFFFFFF AND PUSH20 0xFFFFFFFFFFFFFFFFFFFFFFFFFFFFFFFFFFFFFFFF AND DUP2 MSTORE PUSH1 0x20 ADD SWAP1 DUP2 MSTORE PUSH1 0x20 ADD PUSH0 KECCAK256 SLOAD SWAP1 POP DUP2 DUP2 LT ISZERO PUSH2 0x1288 JUMPI PUSH1 0x40 MLOAD PUSH32 0x8C379A000000000000000000000000000000000000000000000000000000000 DUP2 MSTORE PUSH1 0x4 ADD PUSH2 0x127F SWAP1 PUSH2 0x20ED JUMP JUMPDEST PUSH1 0x40 MLOAD DUP1 SWAP2 SUB SWAP1 REVERT JUMPDEST DUP2 DUP2 SUB PUSH0 DUP1 DUP6 PUSH20 0xFFFFFFFFFFFFFFFFFFFFFFFFFFFFFFFFFFFFFFFF AND PUSH20 0xFFFFFFFFFFFFFFFFFFFFFFFFFFFFFFFFFFFFFFFF AND DUP2 MSTORE PUSH1 0x20 ADD SWAP1 DUP2 MSTORE PUSH1 0x20 ADD PUSH0 KECCAK256 DUP2 SWAP1 SSTORE POP DUP2 PUSH1 0x2 PUSH0 DUP3 DUP3 SLOAD PUSH2 0x12DC SWAP2 SWAP1 PUSH2 0x210B JUMP JUMPDEST SWAP3 POP POP DUP2 SWAP1 SSTORE POP PUSH0 PUSH20 0xFFFFFFFFFFFFFFFFFFFFFFFFFFFFFFFFFFFFFFFF AND DUP4 PUSH20 0xFFFFFFFFFFFFFFFFFFFFFFFFFFFFFFFFFFFFFFFF AND PUSH32 0xDDF252AD1BE2C89B69C2B068FC378DAA952BA7F163C4A11628F55A4DF523B3EF DUP5 PUSH1 0x40 MLOAD PUSH2 0x1340 SWAP2 SWAP1 PUSH2 0x1510 JUMP JUMPDEST PUSH1 0x40 MLOAD DUP1 SWAP2 SUB SWAP1 LOG3 PUSH2 0x1353 DUP4 PUSH0 DUP5 PUSH2 0x135D JUMP JUMPDEST POP POP POP JUMP JUMPDEST POP POP POP JUMP JUMPDEST POP POP POP JUMP JUMPDEST PUSH0 DUP2 MLOAD SWAP1 POP SWAP2 SWAP1 POP JUMP JUMPDEST PUSH0 DUP3 DUP3 MSTORE PUSH1 0x20 DUP3 ADD SWAP1 POP SWAP3 SWAP2 POP POP JUMP JUMPDEST DUP3 DUP2 DUP4 MCOPY PUSH0 DUP4 DUP4 ADD MSTORE POP POP POP JUMP JUMPDEST PUSH0 PUSH1 0x1F NOT PUSH1 0x1F DUP4 ADD AND SWAP1 POP SWAP2 SWAP1 POP JUMP JUMPDEST PUSH0 PUSH2 0x13A4 DUP3 PUSH2 0x1362 JUMP JUMPDEST PUSH2 0x13AE DUP2 DUP6 PUSH2 0x136C JUMP JUMPDEST SWAP4 POP PUSH2 0x13BE DUP2 DUP6 PUSH1 0x20 DUP7 ADD PUSH2 0x137C JUMP JUMPDEST PUSH2 0x13C7 DUP2 PUSH2 0x138A JUMP JUMPDEST DUP5 ADD SWAP2 POP POP SWAP3 SWAP2 POP POP JUMP JUMPDEST PUSH0 PUSH1 0x20 DUP3 ADD SWAP1 POP DUP2 DUP2 SUB PUSH0 DUP4 ADD MSTORE PUSH2 0x13EA DUP2 DUP5 PUSH2 0x139A JUMP JUMPDEST SWAP1 POP SWAP3 SWAP2 POP POP JUMP JUMPDEST PUSH0 PUSH1 0x40 MLOAD SWAP1 POP SWAP1 JUMP JUMPDEST PUSH0 DUP1 REVERT JUMPDEST PUSH0 DUP1 REVERT JUMPDEST PUSH0 PUSH20 0xFFFFFFFFFFFFFFFFFFFFFFFFFFFFFFFFFFFFFFFF DUP3 AND SWAP1 POP SWAP2 SWAP1 POP JUMP JUMPDEST PUSH0 PUSH2 0x142C DUP3 PUSH2 0x1403 JUMP JUMPDEST SWAP1 POP SWAP2 SWAP1 POP JUMP JUMPDEST PUSH2 0x143C DUP2 PUSH2 0x1422 JUMP JUMPDEST DUP2 EQ PUSH2 0x1446 JUMPI PUSH0 DUP1 REVERT JUMPDEST POP JUMP JUMPDEST PUSH0 DUP2 CALLDATALOAD SWAP1 POP PUSH2 0x1457 DUP2 PUSH2 0x1433 JUMP JUMPDEST SWAP3 SWAP2 POP POP JUMP JUMPDEST PUSH0 DUP2 SWAP1 POP SWAP2 SWAP1 POP JUMP JUMPDEST PUSH2 0x146F DUP2 PUSH2 0x145D JUMP JUMPDEST DUP2 EQ PUSH2 0x1479 JUMPI PUSH0 DUP1 REVERT JUMPDEST POP JUMP JUMPDEST PUSH0 DUP2 CALLDATALOAD SWAP1 POP PUSH2 0x148A DUP2 PUSH2 0x1466 JUMP JUMPDEST SWAP3 SWAP2 POP POP JUMP JUMPDEST PUSH0 DUP1 PUSH1 0x40 DUP4 DUP6 SUB SLT ISZERO PUSH2 0x14A6 JUMPI PUSH2 0x14A5 PUSH2 0x13FB JUMP JUMPDEST JUMPDEST PUSH0 PUSH2 0x14B3 DUP6 DUP3 DUP7 ADD PUSH2 0x1449 JUMP JUMPDEST SWAP3 POP POP PUSH1 0x20 PUSH2 0x14C4 DUP6 DUP3 DUP7 ADD PUSH2 0x147C JUMP JUMPDEST SWAP2 POP POP SWAP3 POP SWAP3 SWAP1 POP JUMP JUMPDEST PUSH0 DUP2 ISZERO ISZERO SWAP1 POP SWAP2 SWAP1 POP JUMP JUMPDEST PUSH2 0x14E2 DUP2 PUSH2 0x14CE JUMP JUMPDEST DUP3 MSTORE POP POP JUMP JUMPDEST PUSH0 PUSH1 0x20 DUP3 ADD SWAP1 POP PUSH2 0x14FB PUSH0 DUP4 ADD DUP5 PUSH2 0x14D9 JUMP JUMPDEST SWAP3 SWAP2 POP POP JUMP JUMPDEST PUSH2 0x150A DUP2 PUSH2 0x145D JUMP JUMPDEST DUP3 MSTORE POP POP JUMP JUMPDEST PUSH0 PUSH1 0x20 DUP3 ADD SWAP1 POP PUSH2 0x1523 PUSH0 DUP4 ADD DUP5 PUSH2 0x1501 JUMP JUMPDEST SWAP3 SWAP2 POP POP JUMP JUMPDEST PUSH0 DUP1 PUSH0 PUSH1 0x60 DUP5 DUP7 SUB SLT ISZERO PUSH2 0x1540 JUMPI PUSH2 0x153F PUSH2 0x13FB JUMP JUMPDEST JUMPDEST PUSH0 PUSH2 0x154D DUP7 DUP3 DUP8 ADD PUSH2 0x1449 JUMP JUMPDEST SWAP4 POP POP PUSH1 0x20 PUSH2 0x155E DUP7 DUP3 DUP8 ADD PUSH2 0x1449 JUMP JUMPDEST SWAP3 POP POP PUSH1 0x40 PUSH2 0x156F DUP7 DUP3 DUP8 ADD PUSH2 0x147C JUMP JUMPDEST SWAP2 POP POP SWAP3 POP SWAP3 POP SWAP3 JUMP JUMPDEST PUSH0 DUP1 PUSH0 DUP1 PUSH1 0x80 DUP6 DUP8 SUB SLT ISZERO PUSH2 0x1591 JUMPI PUSH2 0x1590 PUSH2 0x13FB JUMP JUMPDEST JUMPDEST PUSH0 PUSH2 0x159E DUP8 DUP3 DUP9 ADD PUSH2 0x147C JUMP JUMPDEST SWAP5 POP POP PUSH1 0x20 PUSH2 0x15AF DUP8 DUP3 DUP9 ADD PUSH2 0x1449 JUMP JUMPDEST SWAP4 POP POP PUSH1 0x40 PUSH2 0x15C0 DUP8 DUP3 DUP9 ADD PUSH2 0x1449 JUMP JUMPDEST SWAP3 POP POP PUSH1 0x60 PUSH2 0x15D1 DUP8 DUP3 DUP9 ADD PUSH2 0x147C JUMP JUMPDEST SWAP2 POP POP SWAP3 SWAP6 SWAP2 SWAP5 POP SWAP3 POP JUMP JUMPDEST PUSH0 PUSH1 0xFF DUP3 AND SWAP1 POP SWAP2 SWAP1 POP JUMP JUMPDEST PUSH2 0x15F2 DUP2 PUSH2 0x15DD JUMP JUMPDEST DUP3 MSTORE POP POP JUMP JUMPDEST PUSH0 PUSH1 0x20 DUP3 ADD SWAP1 POP PUSH2 0x160B PUSH0 DUP4 ADD DUP5 PUSH2 0x15E9 JUMP JUMPDEST SWAP3 SWAP2 POP POP JUMP JUMPDEST PUSH0 DUP1 PUSH1 0x40 DUP4 DUP6 SUB SLT ISZERO PUSH2 0x1627 JUMPI PUSH2 0x1626 PUSH2 0x13FB JUMP JUMPDEST JUMPDEST PUSH0 PUSH2 0x1634 DUP6 DUP3 DUP7 ADD PUSH2 0x147C JUMP JUMPDEST SWAP3 POP POP PUSH1 0x20 PUSH2 0x1645 DUP6 DUP3 DUP7 ADD PUSH2 0x1449 JUMP JUMPDEST SWAP2 POP POP SWAP3 POP SWAP3 SWAP1 POP JUMP JUMPDEST PUSH0 PUSH1 0x20 DUP3 DUP5 SUB SLT ISZERO PUSH2 0x1664 JUMPI PUSH2 0x1663 PUSH2 0x13FB JUMP JUMPDEST JUMPDEST PUSH0 PUSH2 0x1671 DUP5 DUP3 DUP6 ADD PUSH2 0x147C JUMP JUMPDEST SWAP2 POP POP SWAP3 SWAP2 POP POP JUMP JUMPDEST PUSH2 0x1683 DUP2 PUSH2 0x1422 JUMP JUMPDEST DUP3 MSTORE POP POP JUMP JUMPDEST PUSH0 PUSH1 0x20 DUP3 ADD SWAP1 POP PUSH2 0x169C PUSH0 DUP4 ADD DUP5 PUSH2 0x167A JUMP JUMPDEST SWAP3 SWAP2 POP POP JUMP JUMPDEST PUSH0 PUSH1 0x20 DUP3 DUP5 SUB SLT ISZERO PUSH2 0x16B7 JUMPI PUSH2 0x16B6 PUSH2 0x13FB JUMP JUMPDEST JUMPDEST PUSH0 PUSH2 0x16C4 DUP5 DUP3 DUP6 ADD PUSH2 0x1449 JUMP JUMPDEST SWAP2 POP POP SWAP3 SWAP2 POP POP JUMP JUMPDEST PUSH0 DUP1 PUSH0 PUSH1 0x60 DUP5 DUP7 SUB SLT ISZERO PUSH2 0x16E4 JUMPI PUSH2 0x16E3 PUSH2 0x13FB JUMP JUMPDEST JUMPDEST PUSH0 PUSH2 0x16F1 DUP7 DUP3 DUP8 ADD PUSH2 0x147C JUMP JUMPDEST SWAP4 POP POP PUSH1 0x20 PUSH2 0x1702 DUP7 DUP3 DUP8 ADD PUSH2 0x1449 JUMP JUMPDEST SWAP3 POP POP PUSH1 0x40 PUSH2 0x1713 DUP7 DUP3 DUP8 ADD PUSH2 0x147C JUMP JUMPDEST SWAP2 POP POP SWAP3 POP SWAP3 POP SWAP3 JUMP JUMPDEST PUSH0 DUP1 REVERT JUMPDEST PUSH32 0x4E487B7100000000000000000000000000000000000000000000000000000000 PUSH0 MSTORE PUSH1 0x41 PUSH1 0x4 MSTORE PUSH1 0x24 PUSH0 REVERT JUMPDEST PUSH2 0x1757 DUP3 PUSH2 0x138A JUMP JUMPDEST DUP2 ADD DUP2 DUP2 LT PUSH8 0xFFFFFFFFFFFFFFFF DUP3 GT OR ISZERO PUSH2 0x1776 JUMPI PUSH2 0x1775 PUSH2 0x1721 JUMP JUMPDEST JUMPDEST DUP1 PUSH1 0x40 MSTORE POP POP POP JUMP JUMPDEST PUSH0 PUSH2 0x1788 PUSH2 0x13F2 JUMP JUMPDEST SWAP1 POP PUSH2 0x1794 DUP3 DUP3 PUSH2 0x174E JUMP JUMPDEST SWAP2 SWAP1 POP JUMP JUMPDEST PUSH0 PUSH8 0xFFFFFFFFFFFFFFFF DUP3 GT ISZERO PUSH2 0x17B3 JUMPI PUSH2 0x17B2 PUSH2 0x1721 JUMP JUMPDEST JUMPDEST PUSH1 0x20 DUP3 MUL SWAP1 POP PUSH1 0x20 DUP2 ADD SWAP1 POP SWAP2 SWAP1 POP JUMP JUMPDEST PUSH0 DUP1 REVERT JUMPDEST PUSH0 PUSH2 0x17DA PUSH2 0x17D5 DUP5 PUSH2 0x1799 JUMP JUMPDEST PUSH2 0x177F JUMP JUMPDEST SWAP1 POP DUP1 DUP4 DUP3 MSTORE PUSH1 0x20 DUP3 ADD SWAP1 POP PUSH1 0x20 DUP5 MUL DUP4 ADD DUP6 DUP2 GT ISZERO PUSH2 0x17FD JUMPI PUSH2 0x17FC PUSH2 0x17C4 JUMP JUMPDEST JUMPDEST DUP4 JUMPDEST DUP2 DUP2 LT ISZERO PUSH2 0x1826 JUMPI DUP1 PUSH2 0x1812 DUP9 DUP3 PUSH2 0x1449 JUMP JUMPDEST DUP5 MSTORE PUSH1 0x20 DUP5 ADD SWAP4 POP POP PUSH1 0x20 DUP2 ADD SWAP1 POP PUSH2 0x17FF JUMP JUMPDEST POP POP POP SWAP4 SWAP3 POP POP POP JUMP JUMPDEST PUSH0 DUP3 PUSH1 0x1F DUP4 ADD SLT PUSH2 0x1844 JUMPI PUSH2 0x1843 PUSH2 0x171D JUMP JUMPDEST JUMPDEST DUP2 CALLDATALOAD PUSH2 0x1854 DUP5 DUP3 PUSH1 0x20 DUP7 ADD PUSH2 0x17C8 JUMP JUMPDEST SWAP2 POP POP SWAP3 SWAP2 POP POP JUMP JUMPDEST PUSH0 DUP1 PUSH1 0x40 DUP4 DUP6 SUB SLT ISZERO PUSH2 0x1873 JUMPI PUSH2 0x1872 PUSH2 0x13FB JUMP JUMPDEST JUMPDEST PUSH0 PUSH2 0x1880 DUP6 DUP3 DUP7 ADD PUSH2 0x147C JUMP JUMPDEST SWAP3 POP POP PUSH1 0x20 DUP4 ADD CALLDATALOAD PUSH8 0xFFFFFFFFFFFFFFFF DUP2 GT ISZERO PUSH2 0x18A1 JUMPI PUSH2 0x18A0 PUSH2 0x13FF JUMP JUMPDEST JUMPDEST PUSH2 0x18AD DUP6 DUP3 DUP7 ADD PUSH2 0x1830 JUMP JUMPDEST SWAP2 POP POP SWAP3 POP SWAP3 SWAP1 POP JUMP JUMPDEST PUSH0 DUP1 PUSH1 0x40 DUP4 DUP6 SUB SLT ISZERO PUSH2 0x18CD JUMPI PUSH2 0x18CC PUSH2 0x13FB JUMP JUMPDEST JUMPDEST PUSH0 PUSH2 0x18DA DUP6 DUP3 DUP7 ADD PUSH2 0x1449 JUMP JUMPDEST SWAP3 POP POP PUSH1 0x20 PUSH2 0x18EB DUP6 DUP3 DUP7 ADD PUSH2 0x1449 JUMP JUMPDEST SWAP2 POP POP SWAP3 POP SWAP3 SWAP1 POP JUMP JUMPDEST PUSH32 0x4E487B7100000000000000000000000000000000000000000000000000000000 PUSH0 MSTORE PUSH1 0x22 PUSH1 0x4 MSTORE PUSH1 0x24 PUSH0 REVERT JUMPDEST PUSH0 PUSH1 0x2 DUP3 DIV SWAP1 POP PUSH1 0x1 DUP3 AND DUP1 PUSH2 0x1939 JUMPI PUSH1 0x7F DUP3 AND SWAP2 POP JUMPDEST PUSH1 0x20 DUP3 LT DUP2 SUB PUSH2 0x194C JUMPI PUSH2 0x194B PUSH2 0x18F5 JUMP JUMPDEST JUMPDEST POP SWAP2 SWAP1 POP JUMP JUMPDEST PUSH32 0x496E76616C696420626F61726400000000000000000000000000000000000000 PUSH0 DUP3 ADD MSTORE POP JUMP JUMPDEST PUSH0 PUSH2 0x1986 PUSH1 0xD DUP4 PUSH2 0x136C JUMP JUMPDEST SWAP2 POP PUSH2 0x1991 DUP3 PUSH2 0x1952 JUMP JUMPDEST PUSH1 0x20 DUP3 ADD SWAP1 POP SWAP2 SWAP1 POP JUMP JUMPDEST PUSH0 PUSH1 0x20 DUP3 ADD SWAP1 POP DUP2 DUP2 SUB PUSH0 DUP4 ADD MSTORE PUSH2 0x19B3 DUP2 PUSH2 0x197A JUMP JUMPDEST SWAP1 POP SWAP2 SWAP1 POP JUMP JUMPDEST PUSH32 0x426F61726420616C726561647920657869737473000000000000000000000000 PUSH0 DUP3 ADD MSTORE POP JUMP JUMPDEST PUSH0 PUSH2 0x19EE PUSH1 0x14 DUP4 PUSH2 0x136C JUMP JUMPDEST SWAP2 POP PUSH2 0x19F9 DUP3 PUSH2 0x19BA JUMP JUMPDEST PUSH1 0x20 DUP3 ADD SWAP1 POP SWAP2 SWAP1 POP JUMP JUMPDEST PUSH0 PUSH1 0x20 DUP3 ADD SWAP1 POP DUP2 DUP2 SUB PUSH0 DUP4 ADD MSTORE PUSH2 0x1A1B DUP2 PUSH2 0x19E2 JUMP JUMPDEST SWAP1 POP SWAP2 SWAP1 POP JUMP JUMPDEST PUSH32 0x4E487B7100000000000000000000000000000000000000000000000000000000 PUSH0 MSTORE PUSH1 0x11 PUSH1 0x4 MSTORE PUSH1 0x24 PUSH0 REVERT JUMPDEST PUSH0 PUSH2 0x1A59 DUP3 PUSH2 0x145D JUMP JUMPDEST SWAP2 POP PUSH2 0x1A64 DUP4 PUSH2 0x145D JUMP JUMPDEST SWAP3 POP DUP3 DUP3 ADD SWAP1 POP DUP1 DUP3 GT ISZERO PUSH2 0x1A7C JUMPI PUSH2 0x1A7B PUSH2 0x1A22 JUMP JUMPDEST JUMPDEST SWAP3 SWAP2 POP POP JUMP JUMPDEST PUSH32 0x4F6E6C79207468652062616E6B2063616E206275726E2062616E6B7275707420 PUSH0 DUP3 ADD MSTORE PUSH32 0x66756E6473000000000000000000000000000000000000000000000000000000 PUSH1 0x20 DUP3 ADD MSTORE POP JUMP JUMPDEST PUSH0 PUSH2 0x1ADC PUSH1 0x25 DUP4 PUSH2 0x136C JUMP JUMPDEST SWAP2 POP PUSH2 0x1AE7 DUP3 PUSH2 0x1A82 JUMP JUMPDEST PUSH1 0x40 DUP3 ADD SWAP1 POP SWAP2 SWAP1 POP JUMP JUMPDEST PUSH0 PUSH1 0x20 DUP3 ADD SWAP1 POP DUP2 DUP2 SUB PUSH0 DUP4 ADD MSTORE PUSH2 0x1B09 DUP2 PUSH2 0x1AD0 JUMP JUMPDEST SWAP1 POP SWAP2 SWAP1 POP JUMP JUMPDEST PUSH32 0x45524332303A2064656372656173656420616C6C6F77616E63652062656C6F77 PUSH0 DUP3 ADD MSTORE PUSH32 0x207A65726F000000000000000000000000000000000000000000000000000000 PUSH1 0x20 DUP3 ADD MSTORE POP JUMP JUMPDEST PUSH0 PUSH2 0x1B6A PUSH1 0x25 DUP4 PUSH2 0x136C JUMP JUMPDEST SWAP2 POP PUSH2 0x1B75 DUP3 PUSH2 0x1B10 JUMP JUMPDEST PUSH1 0x40 DUP3 ADD SWAP1 POP SWAP2 SWAP1 POP JUMP JUMPDEST PUSH0 PUSH1 0x20 DUP3 ADD SWAP1 POP DUP2 DUP2 SUB PUSH0 DUP4 ADD MSTORE PUSH2 0x1B97 DUP2 PUSH2 0x1B5E JUMP JUMPDEST SWAP1 POP SWAP2 SWAP1 POP JUMP JUMPDEST PUSH32 0x4F6E6C792074686520626F6172642062616E6B2063616E206469737472696275 PUSH0 DUP3 ADD MSTORE PUSH32 0x7465206D6F6E6579000000000000000000000000000000000000000000000000 PUSH1 0x20 DUP3 ADD MSTORE POP JUMP JUMPDEST PUSH0 PUSH2 0x1BF8 PUSH1 0x28 DUP4 PUSH2 0x136C JUMP JUMPDEST SWAP2 POP PUSH2 0x1C03 DUP3 PUSH2 0x1B9E JUMP JUMPDEST PUSH1 0x40 DUP3 ADD SWAP1 POP SWAP2 SWAP1 POP JUMP JUMPDEST PUSH0 PUSH1 0x20 DUP3 ADD SWAP1 POP DUP2 DUP2 SUB PUSH0 DUP4 ADD MSTORE PUSH2 0x1C25 DUP2 PUSH2 0x1BEC JUMP JUMPDEST SWAP1 POP SWAP2 SWAP1 POP JUMP JUMPDEST PUSH32 0x4E487B7100000000000000000000000000000000000000000000000000000000 PUSH0 MSTORE PUSH1 0x32 PUSH1 0x4 MSTORE PUSH1 0x24 PUSH0 REVERT JUMPDEST PUSH32 0x45524332303A20617070726F76652066726F6D20746865207A65726F20616464 PUSH0 DUP3 ADD MSTORE PUSH32 0x7265737300000000000000000000000000000000000000000000000000000000 PUSH1 0x20 DUP3 ADD MSTORE POP JUMP JUMPDEST PUSH0 PUSH2 0x1CB3 PUSH1 0x24 DUP4 PUSH2 0x136C JUMP JUMPDEST SWAP2 POP PUSH2 0x1CBE DUP3 PUSH2 0x1C59 JUMP JUMPDEST PUSH1 0x40 DUP3 ADD SWAP1 POP SWAP2 SWAP1 POP JUMP JUMPDEST PUSH0 PUSH1 0x20 DUP3 ADD SWAP1 POP DUP2 DUP2 SUB PUSH0 DUP4 ADD MSTORE PUSH2 0x1CE0 DUP2 PUSH2 0x1CA7 JUMP JUMPDEST SWAP1 POP SWAP2 SWAP1 POP JUMP JUMPDEST PUSH32 0x45524332303A20617070726F766520746F20746865207A65726F206164647265 PUSH0 DUP3 ADD MSTORE PUSH32 0x7373000000000000000000000000000000000000000000000000000000000000 PUSH1 0x20 DUP3 ADD MSTORE POP JUMP JUMPDEST PUSH0 PUSH2 0x1D41 PUSH1 0x22 DUP4 PUSH2 0x136C JUMP JUMPDEST SWAP2 POP PUSH2 0x1D4C DUP3 PUSH2 0x1CE7 JUMP JUMPDEST PUSH1 0x40 DUP3 ADD SWAP1 POP SWAP2 SWAP1 POP JUMP JUMPDEST PUSH0 PUSH1 0x20 DUP3 ADD SWAP1 POP DUP2 DUP2 SUB PUSH0 DUP4 ADD MSTORE PUSH2 0x1D6E DUP2 PUSH2 0x1D35 JUMP JUMPDEST SWAP1 POP SWAP2 SWAP1 POP JUMP JUMPDEST PUSH32 0x45524332303A20696E73756666696369656E7420616C6C6F77616E6365000000 PUSH0 DUP3 ADD MSTORE POP JUMP JUMPDEST PUSH0 PUSH2 0x1DA9 PUSH1 0x1D DUP4 PUSH2 0x136C JUMP JUMPDEST SWAP2 POP PUSH2 0x1DB4 DUP3 PUSH2 0x1D75 JUMP JUMPDEST PUSH1 0x20 DUP3 ADD SWAP1 POP SWAP2 SWAP1 POP JUMP JUMPDEST PUSH0 PUSH1 0x20 DUP3 ADD SWAP1 POP DUP2 DUP2 SUB PUSH0 DUP4 ADD MSTORE PUSH2 0x1DD6 DUP2 PUSH2 0x1D9D JUMP JUMPDEST SWAP1 POP SWAP2 SWAP1 POP JUMP JUMPDEST PUSH32 0x45524332303A207472616E736665722066726F6D20746865207A65726F206164 PUSH0 DUP3 ADD MSTORE PUSH32 0x6472657373000000000000000000000000000000000000000000000000000000 PUSH1 0x20 DUP3 ADD MSTORE POP JUMP JUMPDEST PUSH0 PUSH2 0x1E37 PUSH1 0x25 DUP4 PUSH2 0x136C JUMP JUMPDEST SWAP2 POP PUSH2 0x1E42 DUP3 PUSH2 0x1DDD JUMP JUMPDEST PUSH1 0x40 DUP3 ADD SWAP1 POP SWAP2 SWAP1 POP JUMP JUMPDEST PUSH0 PUSH1 0x20 DUP3 ADD SWAP1 POP DUP2 DUP2 SUB PUSH0 DUP4 ADD MSTORE PUSH2 0x1E64 DUP2 PUSH2 0x1E2B JUMP JUMPDEST SWAP1 POP SWAP2 SWAP1 POP JUMP JUMPDEST PUSH32 0x45524332303A207472616E7366657220746F20746865207A65726F2061646472 PUSH0 DUP3 ADD MSTORE PUSH32 0x6573730000000000000000000000000000000000000000000000000000000000 PUSH1 0x20 DUP3 ADD MSTORE POP JUMP JUMPDEST PUSH0 PUSH2 0x1EC5 PUSH1 0x23 DUP4 PUSH2 0x136C JUMP JUMPDEST SWAP2 POP PUSH2 0x1ED0 DUP3 PUSH2 0x1E6B JUMP JUMPDEST PUSH1 0x40 DUP3 ADD SWAP1 POP SWAP2 SWAP1 POP JUMP JUMPDEST PUSH0 PUSH1 0x20 DUP3 ADD SWAP1 POP DUP2 DUP2 SUB PUSH0 DUP4 ADD MSTORE PUSH2 0x1EF2 DUP2 PUSH2 0x1EB9 JUMP JUMPDEST SWAP1 POP SWAP2 SWAP1 POP JUMP JUMPDEST PUSH32 0x45524332303A207472616E7366657220616D6F756E7420657863656564732062 PUSH0 DUP3 ADD MSTORE PUSH32 0x616C616E63650000000000000000000000000000000000000000000000000000 PUSH1 0x20 DUP3 ADD MSTORE POP JUMP JUMPDEST PUSH0 PUSH2 0x1F53 PUSH1 0x26 DUP4 PUSH2 0x136C JUMP JUMPDEST SWAP2 POP PUSH2 0x1F5E DUP3 PUSH2 0x1EF9 JUMP JUMPDEST PUSH1 0x40 DUP3 ADD SWAP1 POP SWAP2 SWAP1 POP JUMP JUMPDEST PUSH0 PUSH1 0x20 DUP3 ADD SWAP1 POP DUP2 DUP2 SUB PUSH0 DUP4 ADD MSTORE PUSH2 0x1F80 DUP2 PUSH2 0x1F47 JUMP JUMPDEST SWAP1 POP SWAP2 SWAP1 POP JUMP JUMPDEST PUSH32 0x45524332303A206D696E7420746F20746865207A65726F206164647265737300 PUSH0 DUP3 ADD MSTORE POP JUMP JUMPDEST PUSH0 PUSH2 0x1FBB PUSH1 0x1F DUP4 PUSH2 0x136C JUMP JUMPDEST SWAP2 POP PUSH2 0x1FC6 DUP3 PUSH2 0x1F87 JUMP JUMPDEST PUSH1 0x20 DUP3 ADD SWAP1 POP SWAP2 SWAP1 POP JUMP JUMPDEST PUSH0 PUSH1 0x20 DUP3 ADD SWAP1 POP DUP2 DUP2 SUB PUSH0 DUP4 ADD MSTORE PUSH2 0x1FE8 DUP2 PUSH2 0x1FAF JUMP JUMPDEST SWAP1 POP SWAP2 SWAP1 POP JUMP JUMPDEST PUSH32 0x45524332303A206275726E2066726F6D20746865207A65726F20616464726573 PUSH0 DUP3 ADD MSTORE PUSH32 0x7300000000000000000000000000000000000000000000000000000000000000 PUSH1 0x20 DUP3 ADD MSTORE POP JUMP JUMPDEST PUSH0 PUSH2 0x2049 PUSH1 0x21 DUP4 PUSH2 0x136C JUMP JUMPDEST SWAP2 POP PUSH2 0x2054 DUP3 PUSH2 0x1FEF JUMP JUMPDEST PUSH1 0x40 DUP3 ADD SWAP1 POP SWAP2 SWAP1 POP JUMP JUMPDEST PUSH0 PUSH1 0x20 DUP3 ADD SWAP1 POP DUP2 DUP2 SUB PUSH0 DUP4 ADD MSTORE PUSH2 0x2076 DUP2 PUSH2 0x203D JUMP JUMPDEST SWAP1 POP SWAP2 SWAP1 POP JUMP JUMPDEST PUSH32 0x45524332303A206275726E20616D6F756E7420657863656564732062616C616E PUSH0 DUP3 ADD MSTORE PUSH32 0x6365000000000000000000000000000000000000000000000000000000000000 PUSH1 0x20 DUP3 ADD MSTORE POP JUMP JUMPDEST PUSH0 PUSH2 0x20D7 PUSH1 0x22 DUP4 PUSH2 0x136C JUMP JUMPDEST SWAP2 POP PUSH2 0x20E2 DUP3 PUSH2 0x207D JUMP JUMPDEST PUSH1 0x40 DUP3 ADD SWAP1 POP SWAP2 SWAP1 POP JUMP JUMPDEST PUSH0 PUSH1 0x20 DUP3 ADD SWAP1 POP DUP2 DUP2 SUB PUSH0 DUP4 ADD MSTORE PUSH2 0x2104 DUP2 PUSH2 0x20CB JUMP JUMPDEST SWAP1 POP SWAP2 SWAP1 POP JUMP JUMPDEST PUSH0 PUSH2 0x2115 DUP3 PUSH2 0x145D JUMP JUMPDEST SWAP2 POP PUSH2 0x2120 DUP4 PUSH2 0x145D JUMP JUMPDEST SWAP3 POP DUP3 DUP3 SUB SWAP1 POP DUP2 DUP2 GT ISZERO PUSH2 0x2138 JUMPI PUSH2 0x2137 PUSH2 0x1A22 JUMP JUMPDEST JUMPDEST SWAP3 SWAP2 POP POP JUMP INVALID LOG2 PUSH5 0x6970667358 0x22 SLT KECCAK256 0x2A AND 0xEB 0x4E 0xD8 EXTCODECOPY 0xF9 JUMPI 0xDE PUSH28 0x152D7FAE244664F658DE0C1E635C8A728E23350B450964736F6C6343 STOP ADDMOD BYTE STOP CALLER "
				},
				"gasEstimates": {
					"creation": {
						"codeDepositCost": "1712800",
						"executionCost": "infinite",
						"totalCost": "infinite"
					},
					"external": {
						"allowance(address,address)": "infinite",
						"approve(address,uint256)": "infinite",
						"balanceOf(address)": "2874",
						"boardBank(uint256)": "2850",
						"burnBankrupt(uint256,address)": "infinite",
						"createGameBoard(uint256,address)": "infinite",
						"decimals()": "383",
						"decreaseAllowance(address,uint256)": "infinite",
						"increaseAllowance(address,uint256)": "infinite",
						"initialMoney()": "2535",
						"mintToPlayers(uint256,address[])": "infinite",
						"name()": "infinite",
						"symbol()": "infinite",
						"totalSupply()": "2500",
						"transfer(address,uint256)": "infinite",
						"transferFrom(address,address,uint256)": "infinite",
						"transferToBank(uint256,address,uint256)": "infinite",
						"transferToPlayer(uint256,address,address,uint256)": "infinite"
					}
				},
				"methodIdentifiers": {
					"allowance(address,address)": "dd62ed3e",
					"approve(address,uint256)": "095ea7b3",
					"balanceOf(address)": "70a08231",
					"boardBank(uint256)": "6afaa3f2",
					"burnBankrupt(uint256,address)": "46b01a70",
					"createGameBoard(uint256,address)": "38ebb13d",
					"decimals()": "313ce567",
					"decreaseAllowance(address,uint256)": "a457c2d7",
					"increaseAllowance(address,uint256)": "39509351",
					"initialMoney()": "ed6e67c7",
					"mintToPlayers(uint256,address[])": "bc86ff25",
					"name()": "06fdde03",
					"symbol()": "95d89b41",
					"totalSupply()": "18160ddd",
					"transfer(address,uint256)": "a9059cbb",
					"transferFrom(address,address,uint256)": "23b872dd",
					"transferToBank(uint256,address,uint256)": "9a49c085",
					"transferToPlayer(uint256,address,address,uint256)": "290ffea8"
				}
			},
			"storageLayout": {
				"storage": [
					{
						"astId": 218,
						"contract": "contracts/ERC20.sol:MonopolyToken",
						"label": "_balances",
						"offset": 0,
						"slot": "0",
						"type": "t_mapping(t_address,t_uint256)"
					},
					{
						"astId": 224,
						"contract": "contracts/ERC20.sol:MonopolyToken",
						"label": "_allowances",
						"offset": 0,
						"slot": "1",
						"type": "t_mapping(t_address,t_mapping(t_address,t_uint256))"
					},
					{
						"astId": 226,
						"contract": "contracts/ERC20.sol:MonopolyToken",
						"label": "_totalSupply",
						"offset": 0,
						"slot": "2",
						"type": "t_uint256"
					},
					{
						"astId": 228,
						"contract": "contracts/ERC20.sol:MonopolyToken",
						"label": "_name",
						"offset": 0,
						"slot": "3",
						"type": "t_string_storage"
					},
					{
						"astId": 230,
						"contract": "contracts/ERC20.sol:MonopolyToken",
						"label": "_symbol",
						"offset": 0,
						"slot": "4",
						"type": "t_string_storage"
					},
					{
						"astId": 8,
						"contract": "contracts/ERC20.sol:MonopolyToken",
						"label": "boardBank",
						"offset": 0,
						"slot": "5",
						"type": "t_mapping(t_uint256,t_address)"
					},
					{
						"astId": 16,
						"contract": "contracts/ERC20.sol:MonopolyToken",
						"label": "initialMoney",
						"offset": 0,
						"slot": "6",
						"type": "t_uint256"
					}
				],
				"types": {
					"t_address": {
						"encoding": "inplace",
						"label": "address",
						"numberOfBytes": "20"
					},
					"t_mapping(t_address,t_mapping(t_address,t_uint256))": {
						"encoding": "mapping",
						"key": "t_address",
						"label": "mapping(address => mapping(address => uint256))",
						"numberOfBytes": "32",
						"value": "t_mapping(t_address,t_uint256)"
					},
					"t_mapping(t_address,t_uint256)": {
						"encoding": "mapping",
						"key": "t_address",
						"label": "mapping(address => uint256)",
						"numberOfBytes": "32",
						"value": "t_uint256"
					},
					"t_mapping(t_uint256,t_address)": {
						"encoding": "mapping",
						"key": "t_uint256",
						"label": "mapping(uint256 => address)",
						"numberOfBytes": "32",
						"value": "t_address"
					},
					"t_string_storage": {
						"encoding": "bytes",
						"label": "string",
						"numberOfBytes": "32"
					},
					"t_uint256": {
						"encoding": "inplace",
						"label": "uint256",
						"numberOfBytes": "32"
					}
				}
			},
			"userdoc": {
				"kind": "user",
				"methods": {
					"burnBankrupt(uint256,address)": {
						"notice": "Burn money when a player goes bankrupt"
					},
					"createGameBoard(uint256,address)": {
						"notice": "Creates a new board and mints the initial money for the Bank"
					},
					"mintToPlayers(uint256,address[])": {
						"notice": "Distribute starting money to each player from the bank"
					},
					"transferToBank(uint256,address,uint256)": {
						"notice": "Pay the Bank (for buying properties, taxes, etc.)"
					},
					"transferToPlayer(uint256,address,address,uint256)": {
						"notice": "Pay another player (for rent or trades)"
					}
				},
				"version": 1
			}
		}
	}
}