{
	"contracts/Twitter.sol": {
		"Twitter": {
			"abi": [
				{
					"inputs": [],
					"stateMutability": "nonpayable",
					"type": "constructor"
				},
				{
					"anonymous": false,
					"inputs": [
						{
							"indexed": false,
							"internalType": "uint256",
							"name": "id",
							"type": "uint256"
						},
						{
							"indexed": false,
							"internalType": "address",
							"name": "author",
							"type": "address"
						},
						{
							"indexed": false,
							"internalType": "string",
							"name": "content",
							"type": "string"
						},
						{
							"indexed": false,
							"internalType": "uint256",
							"name": "timestamp",
							"type": "uint256"
						}
					],
					"name": "TweetCreated",
					"type": "event"
				},
				{
					"anonymous": false,
					"inputs": [
						{
							"indexed": true,
							"internalType": "address",
							"name": "liker",
							"type": "address"
						},
						{
							"indexed": true,
							"internalType": "address",
							"name": "author",
							"type": "address"
						},
						{
							"indexed": false,
							"internalType": "uint256",
							"name": "tweetId",
							"type": "uint256"
						},
						{
							"indexed": false,
							"internalType": "uint256",
							"name": "likes",
							"type": "uint256"
						}
					],
					"name": "TweetLiked",
					"type": "event"
				},
				{
					"anonymous": false,
					"inputs": [
						{
							"indexed": true,
							"internalType": "address",
							"name": "unliker",
							"type": "address"
						},
						{
							"indexed": true,
							"internalType": "address",
							"name": "author",
							"type": "address"
						},
						{
							"indexed": false,
							"internalType": "uint256",
							"name": "tweetId",
							"type": "uint256"
						},
						{
							"indexed": false,
							"internalType": "uint256",
							"name": "likes",
							"type": "uint256"
						}
					],
					"name": "TweetUnliked",
					"type": "event"
				},
				{
					"inputs": [],
					"name": "MAX_TWEET_LENGTH",
					"outputs": [
						{
							"internalType": "uint16",
							"name": "",
							"type": "uint16"
						}
					],
					"stateMutability": "view",
					"type": "function"
				},
				{
					"inputs": [
						{
							"internalType": "uint16",
							"name": "length",
							"type": "uint16"
						}
					],
					"name": "changeTweetLength",
					"outputs": [],
					"stateMutability": "nonpayable",
					"type": "function"
				},
				{
					"inputs": [
						{
							"internalType": "string",
							"name": "_content",
							"type": "string"
						}
					],
					"name": "createTweet",
					"outputs": [],
					"stateMutability": "nonpayable",
					"type": "function"
				},
				{
					"inputs": [
						{
							"internalType": "address",
							"name": "_owner",
							"type": "address"
						}
					],
					"name": "getAllTweets",
					"outputs": [
						{
							"components": [
								{
									"internalType": "uint256",
									"name": "id",
									"type": "uint256"
								},
								{
									"internalType": "address",
									"name": "author",
									"type": "address"
								},
								{
									"internalType": "string",
									"name": "content",
									"type": "string"
								},
								{
									"internalType": "uint256",
									"name": "timestamp",
									"type": "uint256"
								},
								{
									"internalType": "uint256",
									"name": "likes",
									"type": "uint256"
								}
							],
							"internalType": "struct Twitter.Tweet[]",
							"name": "",
							"type": "tuple[]"
						}
					],
					"stateMutability": "view",
					"type": "function"
				},
				{
					"inputs": [
						{
							"internalType": "address",
							"name": "_author",
							"type": "address"
						},
						{
							"internalType": "uint256",
							"name": "_idx",
							"type": "uint256"
						}
					],
					"name": "getTweet",
					"outputs": [
						{
							"components": [
								{
									"internalType": "uint256",
									"name": "id",
									"type": "uint256"
								},
								{
									"internalType": "address",
									"name": "author",
									"type": "address"
								},
								{
									"internalType": "string",
									"name": "content",
									"type": "string"
								},
								{
									"internalType": "uint256",
									"name": "timestamp",
									"type": "uint256"
								},
								{
									"internalType": "uint256",
									"name": "likes",
									"type": "uint256"
								}
							],
							"internalType": "struct Twitter.Tweet",
							"name": "",
							"type": "tuple"
						}
					],
					"stateMutability": "view",
					"type": "function"
				},
				{
					"inputs": [
						{
							"internalType": "uint256",
							"name": "_tweet_id",
							"type": "uint256"
						},
						{
							"internalType": "address",
							"name": "_author",
							"type": "address"
						}
					],
					"name": "likeTweet",
					"outputs": [],
					"stateMutability": "nonpayable",
					"type": "function"
				},
				{
					"inputs": [],
					"name": "owner",
					"outputs": [
						{
							"internalType": "address",
							"name": "",
							"type": "address"
						}
					],
					"stateMutability": "view",
					"type": "function"
				},
				{
					"inputs": [
						{
							"internalType": "uint256",
							"name": "_tweet_id",
							"type": "uint256"
						},
						{
							"internalType": "address",
							"name": "_author",
							"type": "address"
						}
					],
					"name": "unlikeTweet",
					"outputs": [],
					"stateMutability": "nonpayable",
					"type": "function"
				}
			],
			"devdoc": {
				"kind": "dev",
				"methods": {},
				"version": 1
			},
			"evm": {
				"assembly": "    /* \"contracts/Twitter.sol\":58:3119  contract Twitter {... */\n  mstore(0x40, 0x80)\n    /* \"contracts/Twitter.sol\":114:117  280 */\n  0x0118\n    /* \"contracts/Twitter.sol\":81:117  uint16 public MAX_TWEET_LENGTH = 280 */\n  0x00\n  dup1\n  0x0100\n  exp\n  dup2\n  sload\n  dup2\n  0xffff\n  mul\n  not\n  and\n  swap1\n  dup4\n  0xffff\n  and\n  mul\n  or\n  swap1\n  sstore\n  pop\n    /* \"contracts/Twitter.sol\":417:466  constructor() {... */\n  callvalue\n  dup1\n  iszero\n  tag_1\n  jumpi\n  0x00\n  dup1\n  revert\ntag_1:\n  pop\n    /* \"contracts/Twitter.sol\":449:459  msg.sender */\n  caller\n    /* \"contracts/Twitter.sol\":441:446  owner */\n  0x02\n  0x00\n    /* \"contracts/Twitter.sol\":441:459  owner = msg.sender */\n  0x0100\n  exp\n  dup2\n  sload\n  dup2\n  0xffffffffffffffffffffffffffffffffffffffff\n  mul\n  not\n  and\n  swap1\n  dup4\n  0xffffffffffffffffffffffffffffffffffffffff\n  and\n  mul\n  or\n  swap1\n  sstore\n  pop\n    /* \"contracts/Twitter.sol\":58:3119  contract Twitter {... */\n  dataSize(sub_0)\n  dup1\n  dataOffset(sub_0)\n  0x00\n  codecopy\n  0x00\n  return\nstop\n\nsub_0: assembly {\n        /* \"contracts/Twitter.sol\":58:3119  contract Twitter {... */\n      mstore(0x40, 0x80)\n      callvalue\n      dup1\n      iszero\n      tag_1\n      jumpi\n      0x00\n      dup1\n      revert\n    tag_1:\n      pop\n      jumpi(tag_2, lt(calldatasize, 0x04))\n      shr(0xe0, calldataload(0x00))\n      dup1\n      0x7c9cd2bc\n      gt\n      tag_11\n      jumpi\n      dup1\n      0x7c9cd2bc\n      eq\n      tag_7\n      jumpi\n      dup1\n      0x8da5cb5b\n      eq\n      tag_8\n      jumpi\n      dup1\n      0xa1488f7c\n      eq\n      tag_9\n      jumpi\n      dup1\n      0xd04ddaa0\n      eq\n      tag_10\n      jumpi\n      jump(tag_2)\n    tag_11:\n      dup1\n      0x112f54e3\n      eq\n      tag_3\n      jumpi\n      dup1\n      0x12e7ee1c\n      eq\n      tag_4\n      jumpi\n      dup1\n      0x58bfa4ab\n      eq\n      tag_5\n      jumpi\n      dup1\n      0x6eb10797\n      eq\n      tag_6\n      jumpi\n    tag_2:\n      0x00\n      dup1\n      revert\n        /* \"contracts/Twitter.sol\":2738:2966  function getTweet(address _author, uint256 _idx)... */\n    tag_3:\n      tag_12\n      0x04\n      dup1\n      calldatasize\n      sub\n      dup2\n      add\n      swap1\n      tag_13\n      swap2\n      swap1\n      tag_14\n      jump\t// in\n    tag_13:\n      tag_15\n      jump\t// in\n    tag_12:\n      mload(0x40)\n      tag_16\n      swap2\n      swap1\n      tag_17\n      jump\t// in\n    tag_16:\n      mload(0x40)\n      dup1\n      swap2\n      sub\n      swap1\n      return\n        /* \"contracts/Twitter.sol\":3004:3117  function getAllTweets(address _owner) public view returns (Tweet[] memory) {... */\n    tag_4:\n      tag_18\n      0x04\n      dup1\n      calldatasize\n      sub\n      dup2\n      add\n      swap1\n      tag_19\n      swap2\n      swap1\n      tag_20\n      jump\t// in\n    tag_19:\n      tag_21\n      jump\t// in\n    tag_18:\n      mload(0x40)\n      tag_22\n      swap2\n      swap1\n      tag_23\n      jump\t// in\n    tag_22:\n      mload(0x40)\n      dup1\n      swap2\n      sub\n      swap1\n      return\n        /* \"contracts/Twitter.sol\":607:708  function changeTweetLength(uint16 length) public onlyOwner {... */\n    tag_5:\n      tag_24\n      0x04\n      dup1\n      calldatasize\n      sub\n      dup2\n      add\n      swap1\n      tag_25\n      swap2\n      swap1\n      tag_26\n      jump\t// in\n    tag_25:\n      tag_27\n      jump\t// in\n    tag_24:\n      stop\n        /* \"contracts/Twitter.sol\":81:117  uint16 public MAX_TWEET_LENGTH = 280 */\n    tag_6:\n      tag_28\n      tag_29\n      jump\t// in\n    tag_28:\n      mload(0x40)\n      tag_30\n      swap2\n      swap1\n      tag_31\n      jump\t// in\n    tag_30:\n      mload(0x40)\n      dup1\n      swap2\n      sub\n      swap1\n      return\n        /* \"contracts/Twitter.sol\":1242:1858  function createTweet(string memory _content) public {... */\n    tag_7:\n      tag_32\n      0x04\n      dup1\n      calldatasize\n      sub\n      dup2\n      add\n      swap1\n      tag_33\n      swap2\n      swap1\n      tag_34\n      jump\t// in\n    tag_33:\n      tag_35\n      jump\t// in\n    tag_32:\n      stop\n        /* \"contracts/Twitter.sol\":390:410  address public owner */\n    tag_8:\n      tag_36\n      tag_37\n      jump\t// in\n    tag_36:\n      mload(0x40)\n      tag_38\n      swap2\n      swap1\n      tag_39\n      jump\t// in\n    tag_38:\n      mload(0x40)\n      dup1\n      swap2\n      sub\n      swap1\n      return\n        /* \"contracts/Twitter.sol\":2269:2686  function unlikeTweet(uint256 _tweet_id, address _author) external {... */\n    tag_9:\n      tag_40\n      0x04\n      dup1\n      calldatasize\n      sub\n      dup2\n      add\n      swap1\n      tag_41\n      swap2\n      swap1\n      tag_42\n      jump\t// in\n    tag_41:\n      tag_43\n      jump\t// in\n    tag_40:\n      stop\n        /* \"contracts/Twitter.sol\":1884:2241  function likeTweet(uint256 _tweet_id, address _author) external {... */\n    tag_10:\n      tag_44\n      0x04\n      dup1\n      calldatasize\n      sub\n      dup2\n      add\n      swap1\n      tag_45\n      swap2\n      swap1\n      tag_42\n      jump\t// in\n    tag_45:\n      tag_46\n      jump\t// in\n    tag_44:\n      stop\n        /* \"contracts/Twitter.sol\":2738:2966  function getTweet(address _author, uint256 _idx)... */\n    tag_15:\n        /* \"contracts/Twitter.sol\":2832:2844  Tweet memory */\n      tag_47\n      tag_48\n      jump\t// in\n    tag_47:\n        /* \"contracts/Twitter.sol\":2875:2881  tweets */\n      0x01\n        /* \"contracts/Twitter.sol\":2875:2890  tweets[_author] */\n      0x00\n        /* \"contracts/Twitter.sol\":2882:2889  _author */\n      dup5\n        /* \"contracts/Twitter.sol\":2875:2890  tweets[_author] */\n      0xffffffffffffffffffffffffffffffffffffffff\n      and\n      0xffffffffffffffffffffffffffffffffffffffff\n      and\n      dup2\n      mstore\n      0x20\n      add\n      swap1\n      dup2\n      mstore\n      0x20\n      add\n      0x00\n      keccak256\n        /* \"contracts/Twitter.sol\":2875:2897  tweets[_author].length */\n      dup1\n      sload\n      swap1\n      pop\n        /* \"contracts/Twitter.sol\":2868:2872  _idx */\n      dup3\n        /* \"contracts/Twitter.sol\":2868:2897  _idx < tweets[_author].length */\n      lt\n        /* \"contracts/Twitter.sol\":2860:2921  require(_idx < tweets[_author].length, \"Invalid tweet index\") */\n      tag_50\n      jumpi\n      mload(0x40)\n      0x08c379a000000000000000000000000000000000000000000000000000000000\n      dup2\n      mstore\n      0x04\n      add\n      tag_51\n      swap1\n      tag_52\n      jump\t// in\n    tag_51:\n      mload(0x40)\n      dup1\n      swap2\n      sub\n      swap1\n      revert\n    tag_50:\n        /* \"contracts/Twitter.sol\":2938:2944  tweets */\n      0x01\n        /* \"contracts/Twitter.sol\":2938:2953  tweets[_author] */\n      0x00\n        /* \"contracts/Twitter.sol\":2945:2952  _author */\n      dup5\n        /* \"contracts/Twitter.sol\":2938:2953  tweets[_author] */\n      0xffffffffffffffffffffffffffffffffffffffff\n      and\n      0xffffffffffffffffffffffffffffffffffffffff\n      and\n      dup2\n      mstore\n      0x20\n      add\n      swap1\n      dup2\n      mstore\n      0x20\n      add\n      0x00\n      keccak256\n        /* \"contracts/Twitter.sol\":2954:2958  _idx */\n      dup3\n        /* \"contracts/Twitter.sol\":2938:2959  tweets[_author][_idx] */\n      dup2\n      sload\n      dup2\n      lt\n      tag_53\n      jumpi\n      tag_54\n      tag_55\n      jump\t// in\n    tag_54:\n    tag_53:\n      swap1\n      0x00\n      mstore\n      keccak256(0x00, 0x20)\n      swap1\n      0x05\n      mul\n      add\n        /* \"contracts/Twitter.sol\":2931:2959  return tweets[_author][_idx] */\n      mload(0x40)\n      dup1\n      0xa0\n      add\n      0x40\n      mstore\n      swap1\n      dup2\n      0x00\n      dup3\n      add\n      sload\n      dup2\n      mstore\n      0x20\n      add\n      0x01\n      dup3\n      add\n      0x00\n      swap1\n      sload\n      swap1\n      0x0100\n      exp\n      swap1\n      div\n      0xffffffffffffffffffffffffffffffffffffffff\n      and\n      0xffffffffffffffffffffffffffffffffffffffff\n      and\n      0xffffffffffffffffffffffffffffffffffffffff\n      and\n      dup2\n      mstore\n      0x20\n      add\n      0x02\n      dup3\n      add\n      dup1\n      sload\n      tag_57\n      swap1\n      tag_58\n      jump\t// in\n    tag_57:\n      dup1\n      0x1f\n      add\n      0x20\n      dup1\n      swap2\n      div\n      mul\n      0x20\n      add\n      mload(0x40)\n      swap1\n      dup2\n      add\n      0x40\n      mstore\n      dup1\n      swap3\n      swap2\n      swap1\n      dup2\n      dup2\n      mstore\n      0x20\n      add\n      dup3\n      dup1\n      sload\n      tag_59\n      swap1\n      tag_58\n      jump\t// in\n    tag_59:\n      dup1\n      iszero\n      tag_60\n      jumpi\n      dup1\n      0x1f\n      lt\n      tag_61\n      jumpi\n      0x0100\n      dup1\n      dup4\n      sload\n      div\n      mul\n      dup4\n      mstore\n      swap2\n      0x20\n      add\n      swap2\n      jump(tag_60)\n    tag_61:\n      dup3\n      add\n      swap2\n      swap1\n      0x00\n      mstore\n      keccak256(0x00, 0x20)\n      swap1\n    tag_62:\n      dup2\n      sload\n      dup2\n      mstore\n      swap1\n      0x01\n      add\n      swap1\n      0x20\n      add\n      dup1\n      dup4\n      gt\n      tag_62\n      jumpi\n      dup3\n      swap1\n      sub\n      0x1f\n      and\n      dup3\n      add\n      swap2\n    tag_60:\n      pop\n      pop\n      pop\n      pop\n      pop\n      dup2\n      mstore\n      0x20\n      add\n      0x03\n      dup3\n      add\n      sload\n      dup2\n      mstore\n      0x20\n      add\n      0x04\n      dup3\n      add\n      sload\n      dup2\n      mstore\n      pop\n      pop\n      swap1\n      pop\n        /* \"contracts/Twitter.sol\":2738:2966  function getTweet(address _author, uint256 _idx)... */\n      swap3\n      swap2\n      pop\n      pop\n      jump\t// out\n        /* \"contracts/Twitter.sol\":3004:3117  function getAllTweets(address _owner) public view returns (Tweet[] memory) {... */\n    tag_21:\n        /* \"contracts/Twitter.sol\":3063:3077  Tweet[] memory */\n      0x60\n        /* \"contracts/Twitter.sol\":3096:3102  tweets */\n      0x01\n        /* \"contracts/Twitter.sol\":3096:3110  tweets[_owner] */\n      0x00\n        /* \"contracts/Twitter.sol\":3103:3109  _owner */\n      dup4\n        /* \"contracts/Twitter.sol\":3096:3110  tweets[_owner] */\n      0xffffffffffffffffffffffffffffffffffffffff\n      and\n      0xffffffffffffffffffffffffffffffffffffffff\n      and\n      dup2\n      mstore\n      0x20\n      add\n      swap1\n      dup2\n      mstore\n      0x20\n      add\n      0x00\n      keccak256\n        /* \"contracts/Twitter.sol\":3089:3110  return tweets[_owner] */\n      dup1\n      sload\n      dup1\n      0x20\n      mul\n      0x20\n      add\n      mload(0x40)\n      swap1\n      dup2\n      add\n      0x40\n      mstore\n      dup1\n      swap3\n      swap2\n      swap1\n      dup2\n      dup2\n      mstore\n      0x20\n      add\n      0x00\n      swap1\n    tag_64:\n      dup3\n      dup3\n      lt\n      iszero\n      tag_65\n      jumpi\n      dup4\n      dup3\n      swap1\n      0x00\n      mstore\n      keccak256(0x00, 0x20)\n      swap1\n      0x05\n      mul\n      add\n      mload(0x40)\n      dup1\n      0xa0\n      add\n      0x40\n      mstore\n      swap1\n      dup2\n      0x00\n      dup3\n      add\n      sload\n      dup2\n      mstore\n      0x20\n      add\n      0x01\n      dup3\n      add\n      0x00\n      swap1\n      sload\n      swap1\n      0x0100\n      exp\n      swap1\n      div\n      0xffffffffffffffffffffffffffffffffffffffff\n      and\n      0xffffffffffffffffffffffffffffffffffffffff\n      and\n      0xffffffffffffffffffffffffffffffffffffffff\n      and\n      dup2\n      mstore\n      0x20\n      add\n      0x02\n      dup3\n      add\n      dup1\n      sload\n      tag_67\n      swap1\n      tag_58\n      jump\t// in\n    tag_67:\n      dup1\n      0x1f\n      add\n      0x20\n      dup1\n      swap2\n      div\n      mul\n      0x20\n      add\n      mload(0x40)\n      swap1\n      dup2\n      add\n      0x40\n      mstore\n      dup1\n      swap3\n      swap2\n      swap1\n      dup2\n      dup2\n      mstore\n      0x20\n      add\n      dup3\n      dup1\n      sload\n      tag_68\n      swap1\n      tag_58\n      jump\t// in\n    tag_68:\n      dup1\n      iszero\n      tag_69\n      jumpi\n      dup1\n      0x1f\n      lt\n      tag_70\n      jumpi\n      0x0100\n      dup1\n      dup4\n      sload\n      div\n      mul\n      dup4\n      mstore\n      swap2\n      0x20\n      add\n      swap2\n      jump(tag_69)\n    tag_70:\n      dup3\n      add\n      swap2\n      swap1\n      0x00\n      mstore\n      keccak256(0x00, 0x20)\n      swap1\n    tag_71:\n      dup2\n      sload\n      dup2\n      mstore\n      swap1\n      0x01\n      add\n      swap1\n      0x20\n      add\n      dup1\n      dup4\n      gt\n      tag_71\n      jumpi\n      dup3\n      swap1\n      sub\n      0x1f\n      and\n      dup3\n      add\n      swap2\n    tag_69:\n      pop\n      pop\n      pop\n      pop\n      pop\n      dup2\n      mstore\n      0x20\n      add\n      0x03\n      dup3\n      add\n      sload\n      dup2\n      mstore\n      0x20\n      add\n      0x04\n      dup3\n      add\n      sload\n      dup2\n      mstore\n      pop\n      pop\n      dup2\n      mstore\n      0x20\n      add\n      swap1\n      0x01\n      add\n      swap1\n      jump(tag_64)\n    tag_65:\n      pop\n      pop\n      pop\n      pop\n      swap1\n      pop\n        /* \"contracts/Twitter.sol\":3004:3117  function getAllTweets(address _owner) public view returns (Tweet[] memory) {... */\n      swap2\n      swap1\n      pop\n      jump\t// out\n        /* \"contracts/Twitter.sol\":607:708  function changeTweetLength(uint16 length) public onlyOwner {... */\n    tag_27:\n        /* \"contracts/Twitter.sol\":525:530  owner */\n      0x02\n      0x00\n      swap1\n      sload\n      swap1\n      0x0100\n      exp\n      swap1\n      div\n      0xffffffffffffffffffffffffffffffffffffffff\n      and\n        /* \"contracts/Twitter.sol\":511:530  msg.sender == owner */\n      0xffffffffffffffffffffffffffffffffffffffff\n      and\n        /* \"contracts/Twitter.sol\":511:521  msg.sender */\n      caller\n        /* \"contracts/Twitter.sol\":511:530  msg.sender == owner */\n      0xffffffffffffffffffffffffffffffffffffffff\n      and\n      eq\n        /* \"contracts/Twitter.sol\":503:556  require(msg.sender == owner, \"You aren't the owner!\") */\n      tag_73\n      jumpi\n      mload(0x40)\n      0x08c379a000000000000000000000000000000000000000000000000000000000\n      dup2\n      mstore\n      0x04\n      add\n      tag_74\n      swap1\n      tag_75\n      jump\t// in\n    tag_74:\n      mload(0x40)\n      dup1\n      swap2\n      sub\n      swap1\n      revert\n    tag_73:\n        /* \"contracts/Twitter.sol\":695:701  length */\n      dup1\n        /* \"contracts/Twitter.sol\":676:692  MAX_TWEET_LENGTH */\n      0x00\n      dup1\n        /* \"contracts/Twitter.sol\":676:701  MAX_TWEET_LENGTH = length */\n      0x0100\n      exp\n      dup2\n      sload\n      dup2\n      0xffff\n      mul\n      not\n      and\n      swap1\n      dup4\n      0xffff\n      and\n      mul\n      or\n      swap1\n      sstore\n      pop\n        /* \"contracts/Twitter.sol\":607:708  function changeTweetLength(uint16 length) public onlyOwner {... */\n      pop\n      jump\t// out\n        /* \"contracts/Twitter.sol\":81:117  uint16 public MAX_TWEET_LENGTH = 280 */\n    tag_29:\n      0x00\n      dup1\n      sload\n      swap1\n      0x0100\n      exp\n      swap1\n      div\n      0xffff\n      and\n      dup2\n      jump\t// out\n        /* \"contracts/Twitter.sol\":1242:1858  function createTweet(string memory _content) public {... */\n    tag_35:\n        /* \"contracts/Twitter.sol\":1337:1338  0 */\n      0x00\n        /* \"contracts/Twitter.sol\":1318:1326  _content */\n      dup2\n        /* \"contracts/Twitter.sol\":1312:1334  bytes(_content).length */\n      mload\n        /* \"contracts/Twitter.sol\":1312:1338  bytes(_content).length > 0 */\n      gt\n        /* \"contracts/Twitter.sol\":1304:1372  require(bytes(_content).length > 0, \"Tweet content cannot be empty\") */\n      tag_78\n      jumpi\n      mload(0x40)\n      0x08c379a000000000000000000000000000000000000000000000000000000000\n      dup2\n      mstore\n      0x04\n      add\n      tag_79\n      swap1\n      tag_80\n      jump\t// in\n    tag_79:\n      mload(0x40)\n      dup1\n      swap2\n      sub\n      swap1\n      revert\n    tag_78:\n        /* \"contracts/Twitter.sol\":1429:1445  MAX_TWEET_LENGTH */\n      0x00\n      dup1\n      sload\n      swap1\n      0x0100\n      exp\n      swap1\n      div\n      0xffff\n      and\n        /* \"contracts/Twitter.sol\":1403:1445  bytes(_content).length <= MAX_TWEET_LENGTH */\n      0xffff\n      and\n        /* \"contracts/Twitter.sol\":1409:1417  _content */\n      dup2\n        /* \"contracts/Twitter.sol\":1403:1425  bytes(_content).length */\n      mload\n        /* \"contracts/Twitter.sol\":1403:1445  bytes(_content).length <= MAX_TWEET_LENGTH */\n      gt\n      iszero\n        /* \"contracts/Twitter.sol\":1382:1488  require(... */\n      tag_81\n      jumpi\n      mload(0x40)\n      0x08c379a000000000000000000000000000000000000000000000000000000000\n      dup2\n      mstore\n      0x04\n      add\n      tag_82\n      swap1\n      tag_83\n      jump\t// in\n    tag_82:\n      mload(0x40)\n      dup1\n      swap2\n      sub\n      swap1\n      revert\n    tag_81:\n        /* \"contracts/Twitter.sol\":1498:1519  Tweet memory newTweet */\n      0x00\n        /* \"contracts/Twitter.sol\":1522:1711  Tweet({... */\n      mload(0x40)\n      dup1\n      0xa0\n      add\n      0x40\n      mstore\n      dup1\n        /* \"contracts/Twitter.sol\":1574:1575  1 */\n      0x01\n        /* \"contracts/Twitter.sol\":1546:1552  tweets */\n      dup1\n        /* \"contracts/Twitter.sol\":1546:1564  tweets[msg.sender] */\n      0x00\n        /* \"contracts/Twitter.sol\":1553:1563  msg.sender */\n      caller\n        /* \"contracts/Twitter.sol\":1546:1564  tweets[msg.sender] */\n      0xffffffffffffffffffffffffffffffffffffffff\n      and\n      0xffffffffffffffffffffffffffffffffffffffff\n      and\n      dup2\n      mstore\n      0x20\n      add\n      swap1\n      dup2\n      mstore\n      0x20\n      add\n      0x00\n      keccak256\n        /* \"contracts/Twitter.sol\":1546:1571  tweets[msg.sender].length */\n      dup1\n      sload\n      swap1\n      pop\n        /* \"contracts/Twitter.sol\":1546:1575  tweets[msg.sender].length + 1 */\n      tag_84\n      swap2\n      swap1\n      tag_85\n      jump\t// in\n    tag_84:\n        /* \"contracts/Twitter.sol\":1522:1711  Tweet({... */\n      dup2\n      mstore\n      0x20\n      add\n        /* \"contracts/Twitter.sol\":1597:1607  msg.sender */\n      caller\n        /* \"contracts/Twitter.sol\":1522:1711  Tweet({... */\n      0xffffffffffffffffffffffffffffffffffffffff\n      and\n      dup2\n      mstore\n      0x20\n      add\n        /* \"contracts/Twitter.sol\":1630:1638  _content */\n      dup4\n        /* \"contracts/Twitter.sol\":1522:1711  Tweet({... */\n      dup2\n      mstore\n      0x20\n      add\n        /* \"contracts/Twitter.sol\":1663:1678  block.timestamp */\n      timestamp\n        /* \"contracts/Twitter.sol\":1522:1711  Tweet({... */\n      dup2\n      mstore\n      0x20\n      add\n        /* \"contracts/Twitter.sol\":1699:1700  0 */\n      0x00\n        /* \"contracts/Twitter.sol\":1522:1711  Tweet({... */\n      dup2\n      mstore\n      pop\n        /* \"contracts/Twitter.sol\":1498:1711  Tweet memory newTweet = Tweet({... */\n      swap1\n      pop\n        /* \"contracts/Twitter.sol\":1721:1727  tweets */\n      0x01\n        /* \"contracts/Twitter.sol\":1721:1739  tweets[msg.sender] */\n      0x00\n        /* \"contracts/Twitter.sol\":1728:1738  msg.sender */\n      caller\n        /* \"contracts/Twitter.sol\":1721:1739  tweets[msg.sender] */\n      0xffffffffffffffffffffffffffffffffffffffff\n      and\n      0xffffffffffffffffffffffffffffffffffffffff\n      and\n      dup2\n      mstore\n      0x20\n      add\n      swap1\n      dup2\n      mstore\n      0x20\n      add\n      0x00\n      keccak256\n        /* \"contracts/Twitter.sol\":1745:1753  newTweet */\n      dup2\n        /* \"contracts/Twitter.sol\":1721:1754  tweets[msg.sender].push(newTweet) */\n      swap1\n      dup1\n      0x01\n      dup2\n      sload\n      add\n      dup1\n      dup3\n      sstore\n      dup1\n      swap2\n      pop\n      pop\n      0x01\n      swap1\n      sub\n      swap1\n      0x00\n      mstore\n      keccak256(0x00, 0x20)\n      swap1\n      0x05\n      mul\n      add\n      0x00\n      swap1\n      swap2\n      swap1\n      swap2\n      swap1\n      swap2\n      pop\n      0x00\n      dup3\n      add\n      mload\n      dup2\n      0x00\n      add\n      sstore\n      0x20\n      dup3\n      add\n      mload\n      dup2\n      0x01\n      add\n      exp(0x0100, 0x00)\n      dup2\n      sload\n      dup2\n      0xffffffffffffffffffffffffffffffffffffffff\n      mul\n      not\n      and\n      swap1\n      dup4\n      0xffffffffffffffffffffffffffffffffffffffff\n      and\n      mul\n      or\n      swap1\n      sstore\n      pop\n      0x40\n      dup3\n      add\n      mload\n      dup2\n      0x02\n      add\n      swap1\n      dup2\n      tag_87\n      swap2\n      swap1\n      tag_88\n      jump\t// in\n    tag_87:\n      pop\n      0x60\n      dup3\n      add\n      mload\n      dup2\n      0x03\n      add\n      sstore\n      0x80\n      dup3\n      add\n      mload\n      dup2\n      0x04\n      add\n      sstore\n      pop\n      pop\n        /* \"contracts/Twitter.sol\":1770:1851  TweetCreated(newTweet.id , newTweet.author, newTweet.content, newTweet.timestamp) */\n      0x16fd3c13e9d46923e0a8bce11c7b473ec508a72e6c96cd2404b29ce972afc29e\n        /* \"contracts/Twitter.sol\":1783:1791  newTweet */\n      dup2\n        /* \"contracts/Twitter.sol\":1783:1794  newTweet.id */\n      0x00\n      add\n      mload\n        /* \"contracts/Twitter.sol\":1797:1805  newTweet */\n      dup3\n        /* \"contracts/Twitter.sol\":1797:1812  newTweet.author */\n      0x20\n      add\n      mload\n        /* \"contracts/Twitter.sol\":1814:1822  newTweet */\n      dup4\n        /* \"contracts/Twitter.sol\":1814:1830  newTweet.content */\n      0x40\n      add\n      mload\n        /* \"contracts/Twitter.sol\":1832:1840  newTweet */\n      dup5\n        /* \"contracts/Twitter.sol\":1832:1850  newTweet.timestamp */\n      0x60\n      add\n      mload\n        /* \"contracts/Twitter.sol\":1770:1851  TweetCreated(newTweet.id , newTweet.author, newTweet.content, newTweet.timestamp) */\n      mload(0x40)\n      tag_89\n      swap5\n      swap4\n      swap3\n      swap2\n      swap1\n      tag_90\n      jump\t// in\n    tag_89:\n      mload(0x40)\n      dup1\n      swap2\n      sub\n      swap1\n      log1\n        /* \"contracts/Twitter.sol\":1294:1858  {... */\n      pop\n        /* \"contracts/Twitter.sol\":1242:1858  function createTweet(string memory _content) public {... */\n      pop\n      jump\t// out\n        /* \"contracts/Twitter.sol\":390:410  address public owner */\n    tag_37:\n      0x02\n      0x00\n      swap1\n      sload\n      swap1\n      0x0100\n      exp\n      swap1\n      div\n      0xffffffffffffffffffffffffffffffffffffffff\n      and\n      dup2\n      jump\t// out\n        /* \"contracts/Twitter.sol\":2269:2686  function unlikeTweet(uint256 _tweet_id, address _author) external {... */\n    tag_43:\n        /* \"contracts/Twitter.sol\":2365:2366  0 */\n      0x00\n        /* \"contracts/Twitter.sol\":2353:2362  _tweet_id */\n      dup3\n        /* \"contracts/Twitter.sol\":2353:2366  _tweet_id > 0 */\n      gt\n        /* \"contracts/Twitter.sol\":2345:2387  require(_tweet_id > 0, \"Invalid tweet ID\") */\n      tag_92\n      jumpi\n      mload(0x40)\n      0x08c379a000000000000000000000000000000000000000000000000000000000\n      dup2\n      mstore\n      0x04\n      add\n      tag_93\n      swap1\n      tag_94\n      jump\t// in\n    tag_93:\n      mload(0x40)\n      dup1\n      swap2\n      sub\n      swap1\n      revert\n    tag_92:\n        /* \"contracts/Twitter.sol\":2418:2424  tweets */\n      0x01\n        /* \"contracts/Twitter.sol\":2418:2433  tweets[_author] */\n      0x00\n        /* \"contracts/Twitter.sol\":2425:2432  _author */\n      dup3\n        /* \"contracts/Twitter.sol\":2418:2433  tweets[_author] */\n      0xffffffffffffffffffffffffffffffffffffffff\n      and\n      0xffffffffffffffffffffffffffffffffffffffff\n      and\n      dup2\n      mstore\n      0x20\n      add\n      swap1\n      dup2\n      mstore\n      0x20\n      add\n      0x00\n      keccak256\n        /* \"contracts/Twitter.sol\":2418:2440  tweets[_author].length */\n      dup1\n      sload\n      swap1\n      pop\n        /* \"contracts/Twitter.sol\":2405:2414  _tweet_id */\n      dup3\n        /* \"contracts/Twitter.sol\":2405:2440  _tweet_id <= tweets[_author].length */\n      gt\n      iszero\n        /* \"contracts/Twitter.sol\":2397:2464  require(_tweet_id <= tweets[_author].length, \"Tweet doesn't exist\") */\n      tag_95\n      jumpi\n      mload(0x40)\n      0x08c379a000000000000000000000000000000000000000000000000000000000\n      dup2\n      mstore\n      0x04\n      add\n      tag_96\n      swap1\n      tag_97\n      jump\t// in\n    tag_96:\n      mload(0x40)\n      dup1\n      swap2\n      sub\n      swap1\n      revert\n    tag_95:\n        /* \"contracts/Twitter.sol\":2475:2494  Tweet storage tweet */\n      0x00\n        /* \"contracts/Twitter.sol\":2497:2503  tweets */\n      0x01\n        /* \"contracts/Twitter.sol\":2497:2512  tweets[_author] */\n      0x00\n        /* \"contracts/Twitter.sol\":2504:2511  _author */\n      dup4\n        /* \"contracts/Twitter.sol\":2497:2512  tweets[_author] */\n      0xffffffffffffffffffffffffffffffffffffffff\n      and\n      0xffffffffffffffffffffffffffffffffffffffff\n      and\n      dup2\n      mstore\n      0x20\n      add\n      swap1\n      dup2\n      mstore\n      0x20\n      add\n      0x00\n      keccak256\n        /* \"contracts/Twitter.sol\":2525:2526  1 */\n      0x01\n        /* \"contracts/Twitter.sol\":2513:2522  _tweet_id */\n      dup5\n        /* \"contracts/Twitter.sol\":2513:2526  _tweet_id - 1 */\n      tag_98\n      swap2\n      swap1\n      tag_99\n      jump\t// in\n    tag_98:\n        /* \"contracts/Twitter.sol\":2497:2527  tweets[_author][_tweet_id - 1] */\n      dup2\n      sload\n      dup2\n      lt\n      tag_100\n      jumpi\n      tag_101\n      tag_55\n      jump\t// in\n    tag_101:\n    tag_100:\n      swap1\n      0x00\n      mstore\n      keccak256(0x00, 0x20)\n      swap1\n      0x05\n      mul\n      add\n        /* \"contracts/Twitter.sol\":2475:2527  Tweet storage tweet = tweets[_author][_tweet_id - 1] */\n      swap1\n      pop\n        /* \"contracts/Twitter.sol\":2559:2560  0 */\n      0x00\n        /* \"contracts/Twitter.sol\":2545:2550  tweet */\n      dup2\n        /* \"contracts/Twitter.sol\":2545:2556  tweet.likes */\n      0x04\n      add\n      sload\n        /* \"contracts/Twitter.sol\":2545:2560  tweet.likes > 0 */\n      gt\n        /* \"contracts/Twitter.sol\":2537:2583  require(tweet.likes > 0, \"No likes to remove\") */\n      tag_103\n      jumpi\n      mload(0x40)\n      0x08c379a000000000000000000000000000000000000000000000000000000000\n      dup2\n      mstore\n      0x04\n      add\n      tag_104\n      swap1\n      tag_105\n      jump\t// in\n    tag_104:\n      mload(0x40)\n      dup1\n      swap2\n      sub\n      swap1\n      revert\n    tag_103:\n        /* \"contracts/Twitter.sol\":2593:2598  tweet */\n      dup1\n        /* \"contracts/Twitter.sol\":2593:2604  tweet.likes */\n      0x04\n      add\n      0x00\n        /* \"contracts/Twitter.sol\":2593:2606  tweet.likes-- */\n      dup2\n      sload\n      dup1\n      swap3\n      swap2\n      swap1\n      tag_106\n      swap1\n      tag_107\n      jump\t// in\n    tag_106:\n      swap2\n      swap1\n      pop\n      sstore\n      pop\n        /* \"contracts/Twitter.sol\":2647:2654  _author */\n      dup2\n        /* \"contracts/Twitter.sol\":2622:2679  TweetUnliked(msg.sender, _author, _tweet_id, tweet.likes) */\n      0xffffffffffffffffffffffffffffffffffffffff\n      and\n        /* \"contracts/Twitter.sol\":2635:2645  msg.sender */\n      caller\n        /* \"contracts/Twitter.sol\":2622:2679  TweetUnliked(msg.sender, _author, _tweet_id, tweet.likes) */\n      0xffffffffffffffffffffffffffffffffffffffff\n      and\n      0x762c2616349603ac16eba0de8e6141b79129a07ab63bd99e0a80b3a471716943\n        /* \"contracts/Twitter.sol\":2656:2665  _tweet_id */\n      dup6\n        /* \"contracts/Twitter.sol\":2667:2672  tweet */\n      dup5\n        /* \"contracts/Twitter.sol\":2667:2678  tweet.likes */\n      0x04\n      add\n      sload\n        /* \"contracts/Twitter.sol\":2622:2679  TweetUnliked(msg.sender, _author, _tweet_id, tweet.likes) */\n      mload(0x40)\n      tag_108\n      swap3\n      swap2\n      swap1\n      tag_109\n      jump\t// in\n    tag_108:\n      mload(0x40)\n      dup1\n      swap2\n      sub\n      swap1\n      log3\n        /* \"contracts/Twitter.sol\":2335:2686  {... */\n      pop\n        /* \"contracts/Twitter.sol\":2269:2686  function unlikeTweet(uint256 _tweet_id, address _author) external {... */\n      pop\n      pop\n      jump\t// out\n        /* \"contracts/Twitter.sol\":1884:2241  function likeTweet(uint256 _tweet_id, address _author) external {... */\n    tag_46:\n        /* \"contracts/Twitter.sol\":1978:1979  0 */\n      0x00\n        /* \"contracts/Twitter.sol\":1966:1975  _tweet_id */\n      dup3\n        /* \"contracts/Twitter.sol\":1966:1979  _tweet_id > 0 */\n      gt\n        /* \"contracts/Twitter.sol\":1958:2000  require(_tweet_id > 0, \"Invalid tweet ID\") */\n      tag_111\n      jumpi\n      mload(0x40)\n      0x08c379a000000000000000000000000000000000000000000000000000000000\n      dup2\n      mstore\n      0x04\n      add\n      tag_112\n      swap1\n      tag_94\n      jump\t// in\n    tag_112:\n      mload(0x40)\n      dup1\n      swap2\n      sub\n      swap1\n      revert\n    tag_111:\n        /* \"contracts/Twitter.sol\":2031:2037  tweets */\n      0x01\n        /* \"contracts/Twitter.sol\":2031:2046  tweets[_author] */\n      0x00\n        /* \"contracts/Twitter.sol\":2038:2045  _author */\n      dup3\n        /* \"contracts/Twitter.sol\":2031:2046  tweets[_author] */\n      0xffffffffffffffffffffffffffffffffffffffff\n      and\n      0xffffffffffffffffffffffffffffffffffffffff\n      and\n      dup2\n      mstore\n      0x20\n      add\n      swap1\n      dup2\n      mstore\n      0x20\n      add\n      0x00\n      keccak256\n        /* \"contracts/Twitter.sol\":2031:2053  tweets[_author].length */\n      dup1\n      sload\n      swap1\n      pop\n        /* \"contracts/Twitter.sol\":2018:2027  _tweet_id */\n      dup3\n        /* \"contracts/Twitter.sol\":2018:2053  _tweet_id <= tweets[_author].length */\n      gt\n      iszero\n        /* \"contracts/Twitter.sol\":2010:2077  require(_tweet_id <= tweets[_author].length, \"Tweet doesn't exist\") */\n      tag_113\n      jumpi\n      mload(0x40)\n      0x08c379a000000000000000000000000000000000000000000000000000000000\n      dup2\n      mstore\n      0x04\n      add\n      tag_114\n      swap1\n      tag_97\n      jump\t// in\n    tag_114:\n      mload(0x40)\n      dup1\n      swap2\n      sub\n      swap1\n      revert\n    tag_113:\n        /* \"contracts/Twitter.sol\":2088:2107  Tweet storage tweet */\n      0x00\n        /* \"contracts/Twitter.sol\":2110:2116  tweets */\n      0x01\n        /* \"contracts/Twitter.sol\":2110:2125  tweets[_author] */\n      0x00\n        /* \"contracts/Twitter.sol\":2117:2124  _author */\n      dup4\n        /* \"contracts/Twitter.sol\":2110:2125  tweets[_author] */\n      0xffffffffffffffffffffffffffffffffffffffff\n      and\n      0xffffffffffffffffffffffffffffffffffffffff\n      and\n      dup2\n      mstore\n      0x20\n      add\n      swap1\n      dup2\n      mstore\n      0x20\n      add\n      0x00\n      keccak256\n        /* \"contracts/Twitter.sol\":2138:2139  1 */\n      0x01\n        /* \"contracts/Twitter.sol\":2126:2135  _tweet_id */\n      dup5\n        /* \"contracts/Twitter.sol\":2126:2139  _tweet_id - 1 */\n      tag_115\n      swap2\n      swap1\n      tag_99\n      jump\t// in\n    tag_115:\n        /* \"contracts/Twitter.sol\":2110:2140  tweets[_author][_tweet_id - 1] */\n      dup2\n      sload\n      dup2\n      lt\n      tag_116\n      jumpi\n      tag_117\n      tag_55\n      jump\t// in\n    tag_117:\n    tag_116:\n      swap1\n      0x00\n      mstore\n      keccak256(0x00, 0x20)\n      swap1\n      0x05\n      mul\n      add\n        /* \"contracts/Twitter.sol\":2088:2140  Tweet storage tweet = tweets[_author][_tweet_id - 1] */\n      swap1\n      pop\n        /* \"contracts/Twitter.sol\":2150:2155  tweet */\n      dup1\n        /* \"contracts/Twitter.sol\":2150:2161  tweet.likes */\n      0x04\n      add\n      0x00\n        /* \"contracts/Twitter.sol\":2150:2163  tweet.likes++ */\n      dup2\n      sload\n      dup1\n      swap3\n      swap2\n      swap1\n      tag_119\n      swap1\n      tag_120\n      jump\t// in\n    tag_119:\n      swap2\n      swap1\n      pop\n      sstore\n      pop\n        /* \"contracts/Twitter.sol\":2202:2209  _author */\n      dup2\n        /* \"contracts/Twitter.sol\":2179:2234  TweetLiked(msg.sender, _author, _tweet_id, tweet.likes) */\n      0xffffffffffffffffffffffffffffffffffffffff\n      and\n        /* \"contracts/Twitter.sol\":2190:2200  msg.sender */\n      caller\n        /* \"contracts/Twitter.sol\":2179:2234  TweetLiked(msg.sender, _author, _tweet_id, tweet.likes) */\n      0xffffffffffffffffffffffffffffffffffffffff\n      and\n      0xe8a76fc0f16d11a00d1e93b689b63d76cf60af914dd3d915375dc41d01a0c3c8\n        /* \"contracts/Twitter.sol\":2211:2220  _tweet_id */\n      dup6\n        /* \"contracts/Twitter.sol\":2222:2227  tweet */\n      dup5\n        /* \"contracts/Twitter.sol\":2222:2233  tweet.likes */\n      0x04\n      add\n      sload\n        /* \"contracts/Twitter.sol\":2179:2234  TweetLiked(msg.sender, _author, _tweet_id, tweet.likes) */\n      mload(0x40)\n      tag_121\n      swap3\n      swap2\n      swap1\n      tag_109\n      jump\t// in\n    tag_121:\n      mload(0x40)\n      dup1\n      swap2\n      sub\n      swap1\n      log3\n        /* \"contracts/Twitter.sol\":1948:2241  {... */\n      pop\n        /* \"contracts/Twitter.sol\":1884:2241  function likeTweet(uint256 _tweet_id, address _author) external {... */\n      pop\n      pop\n      jump\t// out\n    tag_48:\n      mload(0x40)\n      dup1\n      0xa0\n      add\n      0x40\n      mstore\n      dup1\n      0x00\n      dup2\n      mstore\n      0x20\n      add\n      and(0xffffffffffffffffffffffffffffffffffffffff, 0x00)\n      dup2\n      mstore\n      0x20\n      add\n      0x60\n      dup2\n      mstore\n      0x20\n      add\n      0x00\n      dup2\n      mstore\n      0x20\n      add\n      0x00\n      dup2\n      mstore\n      pop\n      swap1\n      jump\t// out\n        /* \"#utility.yul\":7:82   */\n    tag_122:\n        /* \"#utility.yul\":40:46   */\n      0x00\n        /* \"#utility.yul\":73:75   */\n      0x40\n        /* \"#utility.yul\":67:76   */\n      mload\n        /* \"#utility.yul\":57:76   */\n      swap1\n      pop\n        /* \"#utility.yul\":7:82   */\n      swap1\n      jump\t// out\n        /* \"#utility.yul\":88:205   */\n    tag_123:\n        /* \"#utility.yul\":197:198   */\n      0x00\n        /* \"#utility.yul\":194:195   */\n      dup1\n        /* \"#utility.yul\":187:199   */\n      revert\n        /* \"#utility.yul\":211:328   */\n    tag_124:\n        /* \"#utility.yul\":320:321   */\n      0x00\n        /* \"#utility.yul\":317:318   */\n      dup1\n        /* \"#utility.yul\":310:322   */\n      revert\n        /* \"#utility.yul\":334:460   */\n    tag_125:\n        /* \"#utility.yul\":371:378   */\n      0x00\n        /* \"#utility.yul\":411:453   */\n      0xffffffffffffffffffffffffffffffffffffffff\n        /* \"#utility.yul\":404:409   */\n      dup3\n        /* \"#utility.yul\":400:454   */\n      and\n        /* \"#utility.yul\":389:454   */\n      swap1\n      pop\n        /* \"#utility.yul\":334:460   */\n      swap2\n      swap1\n      pop\n      jump\t// out\n        /* \"#utility.yul\":466:562   */\n    tag_126:\n        /* \"#utility.yul\":503:510   */\n      0x00\n        /* \"#utility.yul\":532:556   */\n      tag_201\n        /* \"#utility.yul\":550:555   */\n      dup3\n        /* \"#utility.yul\":532:556   */\n      tag_125\n      jump\t// in\n    tag_201:\n        /* \"#utility.yul\":521:556   */\n      swap1\n      pop\n        /* \"#utility.yul\":466:562   */\n      swap2\n      swap1\n      pop\n      jump\t// out\n        /* \"#utility.yul\":568:690   */\n    tag_127:\n        /* \"#utility.yul\":641:665   */\n      tag_203\n        /* \"#utility.yul\":659:664   */\n      dup2\n        /* \"#utility.yul\":641:665   */\n      tag_126\n      jump\t// in\n    tag_203:\n        /* \"#utility.yul\":634:639   */\n      dup2\n        /* \"#utility.yul\":631:666   */\n      eq\n        /* \"#utility.yul\":621:684   */\n      tag_204\n      jumpi\n        /* \"#utility.yul\":680:681   */\n      0x00\n        /* \"#utility.yul\":677:678   */\n      dup1\n        /* \"#utility.yul\":670:682   */\n      revert\n        /* \"#utility.yul\":621:684   */\n    tag_204:\n        /* \"#utility.yul\":568:690   */\n      pop\n      jump\t// out\n        /* \"#utility.yul\":696:835   */\n    tag_128:\n        /* \"#utility.yul\":742:747   */\n      0x00\n        /* \"#utility.yul\":780:786   */\n      dup2\n        /* \"#utility.yul\":767:787   */\n      calldataload\n        /* \"#utility.yul\":758:787   */\n      swap1\n      pop\n        /* \"#utility.yul\":796:829   */\n      tag_206\n        /* \"#utility.yul\":823:828   */\n      dup2\n        /* \"#utility.yul\":796:829   */\n      tag_127\n      jump\t// in\n    tag_206:\n        /* \"#utility.yul\":696:835   */\n      swap3\n      swap2\n      pop\n      pop\n      jump\t// out\n        /* \"#utility.yul\":841:918   */\n    tag_129:\n        /* \"#utility.yul\":878:885   */\n      0x00\n        /* \"#utility.yul\":907:912   */\n      dup2\n        /* \"#utility.yul\":896:912   */\n      swap1\n      pop\n        /* \"#utility.yul\":841:918   */\n      swap2\n      swap1\n      pop\n      jump\t// out\n        /* \"#utility.yul\":924:1046   */\n    tag_130:\n        /* \"#utility.yul\":997:1021   */\n      tag_209\n        /* \"#utility.yul\":1015:1020   */\n      dup2\n        /* \"#utility.yul\":997:1021   */\n      tag_129\n      jump\t// in\n    tag_209:\n        /* \"#utility.yul\":990:995   */\n      dup2\n        /* \"#utility.yul\":987:1022   */\n      eq\n        /* \"#utility.yul\":977:1040   */\n      tag_210\n      jumpi\n        /* \"#utility.yul\":1036:1037   */\n      0x00\n        /* \"#utility.yul\":1033:1034   */\n      dup1\n        /* \"#utility.yul\":1026:1038   */\n      revert\n        /* \"#utility.yul\":977:1040   */\n    tag_210:\n        /* \"#utility.yul\":924:1046   */\n      pop\n      jump\t// out\n        /* \"#utility.yul\":1052:1191   */\n    tag_131:\n        /* \"#utility.yul\":1098:1103   */\n      0x00\n        /* \"#utility.yul\":1136:1142   */\n      dup2\n        /* \"#utility.yul\":1123:1143   */\n      calldataload\n        /* \"#utility.yul\":1114:1143   */\n      swap1\n      pop\n        /* \"#utility.yul\":1152:1185   */\n      tag_212\n        /* \"#utility.yul\":1179:1184   */\n      dup2\n        /* \"#utility.yul\":1152:1185   */\n      tag_130\n      jump\t// in\n    tag_212:\n        /* \"#utility.yul\":1052:1191   */\n      swap3\n      swap2\n      pop\n      pop\n      jump\t// out\n        /* \"#utility.yul\":1197:1671   */\n    tag_14:\n        /* \"#utility.yul\":1265:1271   */\n      0x00\n        /* \"#utility.yul\":1273:1279   */\n      dup1\n        /* \"#utility.yul\":1322:1324   */\n      0x40\n        /* \"#utility.yul\":1310:1319   */\n      dup4\n        /* \"#utility.yul\":1301:1308   */\n      dup6\n        /* \"#utility.yul\":1297:1320   */\n      sub\n        /* \"#utility.yul\":1293:1325   */\n      slt\n        /* \"#utility.yul\":1290:1409   */\n      iszero\n      tag_214\n      jumpi\n        /* \"#utility.yul\":1328:1407   */\n      tag_215\n      tag_123\n      jump\t// in\n    tag_215:\n        /* \"#utility.yul\":1290:1409   */\n    tag_214:\n        /* \"#utility.yul\":1448:1449   */\n      0x00\n        /* \"#utility.yul\":1473:1526   */\n      tag_216\n        /* \"#utility.yul\":1518:1525   */\n      dup6\n        /* \"#utility.yul\":1509:1515   */\n      dup3\n        /* \"#utility.yul\":1498:1507   */\n      dup7\n        /* \"#utility.yul\":1494:1516   */\n      add\n        /* \"#utility.yul\":1473:1526   */\n      tag_128\n      jump\t// in\n    tag_216:\n        /* \"#utility.yul\":1463:1526   */\n      swap3\n      pop\n        /* \"#utility.yul\":1419:1536   */\n      pop\n        /* \"#utility.yul\":1575:1577   */\n      0x20\n        /* \"#utility.yul\":1601:1654   */\n      tag_217\n        /* \"#utility.yul\":1646:1653   */\n      dup6\n        /* \"#utility.yul\":1637:1643   */\n      dup3\n        /* \"#utility.yul\":1626:1635   */\n      dup7\n        /* \"#utility.yul\":1622:1644   */\n      add\n        /* \"#utility.yul\":1601:1654   */\n      tag_131\n      jump\t// in\n    tag_217:\n        /* \"#utility.yul\":1591:1654   */\n      swap2\n      pop\n        /* \"#utility.yul\":1546:1664   */\n      pop\n        /* \"#utility.yul\":1197:1671   */\n      swap3\n      pop\n      swap3\n      swap1\n      pop\n      jump\t// out\n        /* \"#utility.yul\":1677:1785   */\n    tag_132:\n        /* \"#utility.yul\":1754:1778   */\n      tag_219\n        /* \"#utility.yul\":1772:1777   */\n      dup2\n        /* \"#utility.yul\":1754:1778   */\n      tag_129\n      jump\t// in\n    tag_219:\n        /* \"#utility.yul\":1749:1752   */\n      dup3\n        /* \"#utility.yul\":1742:1779   */\n      mstore\n        /* \"#utility.yul\":1677:1785   */\n      pop\n      pop\n      jump\t// out\n        /* \"#utility.yul\":1791:1899   */\n    tag_133:\n        /* \"#utility.yul\":1868:1892   */\n      tag_221\n        /* \"#utility.yul\":1886:1891   */\n      dup2\n        /* \"#utility.yul\":1868:1892   */\n      tag_126\n      jump\t// in\n    tag_221:\n        /* \"#utility.yul\":1863:1866   */\n      dup3\n        /* \"#utility.yul\":1856:1893   */\n      mstore\n        /* \"#utility.yul\":1791:1899   */\n      pop\n      pop\n      jump\t// out\n        /* \"#utility.yul\":1905:2004   */\n    tag_134:\n        /* \"#utility.yul\":1957:1963   */\n      0x00\n        /* \"#utility.yul\":1991:1996   */\n      dup2\n        /* \"#utility.yul\":1985:1997   */\n      mload\n        /* \"#utility.yul\":1975:1997   */\n      swap1\n      pop\n        /* \"#utility.yul\":1905:2004   */\n      swap2\n      swap1\n      pop\n      jump\t// out\n        /* \"#utility.yul\":2010:2169   */\n    tag_135:\n        /* \"#utility.yul\":2084:2095   */\n      0x00\n        /* \"#utility.yul\":2118:2124   */\n      dup3\n        /* \"#utility.yul\":2113:2116   */\n      dup3\n        /* \"#utility.yul\":2106:2125   */\n      mstore\n        /* \"#utility.yul\":2158:2162   */\n      0x20\n        /* \"#utility.yul\":2153:2156   */\n      dup3\n        /* \"#utility.yul\":2149:2163   */\n      add\n        /* \"#utility.yul\":2134:2163   */\n      swap1\n      pop\n        /* \"#utility.yul\":2010:2169   */\n      swap3\n      swap2\n      pop\n      pop\n      jump\t// out\n        /* \"#utility.yul\":2175:2314   */\n    tag_136:\n        /* \"#utility.yul\":2264:2270   */\n      dup3\n        /* \"#utility.yul\":2259:2262   */\n      dup2\n        /* \"#utility.yul\":2254:2257   */\n      dup4\n        /* \"#utility.yul\":2248:2271   */\n      mcopy\n        /* \"#utility.yul\":2305:2306   */\n      0x00\n        /* \"#utility.yul\":2296:2302   */\n      dup4\n        /* \"#utility.yul\":2291:2294   */\n      dup4\n        /* \"#utility.yul\":2287:2303   */\n      add\n        /* \"#utility.yul\":2280:2307   */\n      mstore\n        /* \"#utility.yul\":2175:2314   */\n      pop\n      pop\n      pop\n      jump\t// out\n        /* \"#utility.yul\":2320:2422   */\n    tag_137:\n        /* \"#utility.yul\":2361:2367   */\n      0x00\n        /* \"#utility.yul\":2412:2414   */\n      0x1f\n        /* \"#utility.yul\":2408:2415   */\n      not\n        /* \"#utility.yul\":2403:2405   */\n      0x1f\n        /* \"#utility.yul\":2396:2401   */\n      dup4\n        /* \"#utility.yul\":2392:2406   */\n      add\n        /* \"#utility.yul\":2388:2416   */\n      and\n        /* \"#utility.yul\":2378:2416   */\n      swap1\n      pop\n        /* \"#utility.yul\":2320:2422   */\n      swap2\n      swap1\n      pop\n      jump\t// out\n        /* \"#utility.yul\":2428:2785   */\n    tag_138:\n        /* \"#utility.yul\":2506:2509   */\n      0x00\n        /* \"#utility.yul\":2534:2573   */\n      tag_227\n        /* \"#utility.yul\":2567:2572   */\n      dup3\n        /* \"#utility.yul\":2534:2573   */\n      tag_134\n      jump\t// in\n    tag_227:\n        /* \"#utility.yul\":2589:2650   */\n      tag_228\n        /* \"#utility.yul\":2643:2649   */\n      dup2\n        /* \"#utility.yul\":2638:2641   */\n      dup6\n        /* \"#utility.yul\":2589:2650   */\n      tag_135\n      jump\t// in\n    tag_228:\n        /* \"#utility.yul\":2582:2650   */\n      swap4\n      pop\n        /* \"#utility.yul\":2659:2724   */\n      tag_229\n        /* \"#utility.yul\":2717:2723   */\n      dup2\n        /* \"#utility.yul\":2712:2715   */\n      dup6\n        /* \"#utility.yul\":2705:2709   */\n      0x20\n        /* \"#utility.yul\":2698:2703   */\n      dup7\n        /* \"#utility.yul\":2694:2710   */\n      add\n        /* \"#utility.yul\":2659:2724   */\n      tag_136\n      jump\t// in\n    tag_229:\n        /* \"#utility.yul\":2749:2778   */\n      tag_230\n        /* \"#utility.yul\":2771:2777   */\n      dup2\n        /* \"#utility.yul\":2749:2778   */\n      tag_137\n      jump\t// in\n    tag_230:\n        /* \"#utility.yul\":2744:2747   */\n      dup5\n        /* \"#utility.yul\":2740:2779   */\n      add\n        /* \"#utility.yul\":2733:2779   */\n      swap2\n      pop\n        /* \"#utility.yul\":2510:2785   */\n      pop\n        /* \"#utility.yul\":2428:2785   */\n      swap3\n      swap2\n      pop\n      pop\n      jump\t// out\n        /* \"#utility.yul\":2843:3972   */\n    tag_139:\n        /* \"#utility.yul\":2954:2957   */\n      0x00\n        /* \"#utility.yul\":2990:2994   */\n      0xa0\n        /* \"#utility.yul\":2985:2988   */\n      dup4\n        /* \"#utility.yul\":2981:2995   */\n      add\n        /* \"#utility.yul\":3075:3079   */\n      0x00\n        /* \"#utility.yul\":3068:3073   */\n      dup4\n        /* \"#utility.yul\":3064:3080   */\n      add\n        /* \"#utility.yul\":3058:3081   */\n      mload\n        /* \"#utility.yul\":3094:3157   */\n      tag_232\n        /* \"#utility.yul\":3151:3155   */\n      0x00\n        /* \"#utility.yul\":3146:3149   */\n      dup7\n        /* \"#utility.yul\":3142:3156   */\n      add\n        /* \"#utility.yul\":3128:3140   */\n      dup3\n        /* \"#utility.yul\":3094:3157   */\n      tag_132\n      jump\t// in\n    tag_232:\n        /* \"#utility.yul\":3005:3167   */\n      pop\n        /* \"#utility.yul\":3251:3255   */\n      0x20\n        /* \"#utility.yul\":3244:3249   */\n      dup4\n        /* \"#utility.yul\":3240:3256   */\n      add\n        /* \"#utility.yul\":3234:3257   */\n      mload\n        /* \"#utility.yul\":3270:3333   */\n      tag_233\n        /* \"#utility.yul\":3327:3331   */\n      0x20\n        /* \"#utility.yul\":3322:3325   */\n      dup7\n        /* \"#utility.yul\":3318:3332   */\n      add\n        /* \"#utility.yul\":3304:3316   */\n      dup3\n        /* \"#utility.yul\":3270:3333   */\n      tag_133\n      jump\t// in\n    tag_233:\n        /* \"#utility.yul\":3177:3343   */\n      pop\n        /* \"#utility.yul\":3428:3432   */\n      0x40\n        /* \"#utility.yul\":3421:3426   */\n      dup4\n        /* \"#utility.yul\":3417:3433   */\n      add\n        /* \"#utility.yul\":3411:3434   */\n      mload\n        /* \"#utility.yul\":3481:3484   */\n      dup5\n        /* \"#utility.yul\":3475:3479   */\n      dup3\n        /* \"#utility.yul\":3471:3485   */\n      sub\n        /* \"#utility.yul\":3464:3468   */\n      0x40\n        /* \"#utility.yul\":3459:3462   */\n      dup7\n        /* \"#utility.yul\":3455:3469   */\n      add\n        /* \"#utility.yul\":3448:3486   */\n      mstore\n        /* \"#utility.yul\":3507:3580   */\n      tag_234\n        /* \"#utility.yul\":3575:3579   */\n      dup3\n        /* \"#utility.yul\":3561:3573   */\n      dup3\n        /* \"#utility.yul\":3507:3580   */\n      tag_138\n      jump\t// in\n    tag_234:\n        /* \"#utility.yul\":3499:3580   */\n      swap2\n      pop\n        /* \"#utility.yul\":3353:3591   */\n      pop\n        /* \"#utility.yul\":3678:3682   */\n      0x60\n        /* \"#utility.yul\":3671:3676   */\n      dup4\n        /* \"#utility.yul\":3667:3683   */\n      add\n        /* \"#utility.yul\":3661:3684   */\n      mload\n        /* \"#utility.yul\":3697:3760   */\n      tag_235\n        /* \"#utility.yul\":3754:3758   */\n      0x60\n        /* \"#utility.yul\":3749:3752   */\n      dup7\n        /* \"#utility.yul\":3745:3759   */\n      add\n        /* \"#utility.yul\":3731:3743   */\n      dup3\n        /* \"#utility.yul\":3697:3760   */\n      tag_132\n      jump\t// in\n    tag_235:\n        /* \"#utility.yul\":3601:3770   */\n      pop\n        /* \"#utility.yul\":3853:3857   */\n      0x80\n        /* \"#utility.yul\":3846:3851   */\n      dup4\n        /* \"#utility.yul\":3842:3858   */\n      add\n        /* \"#utility.yul\":3836:3859   */\n      mload\n        /* \"#utility.yul\":3872:3935   */\n      tag_236\n        /* \"#utility.yul\":3929:3933   */\n      0x80\n        /* \"#utility.yul\":3924:3927   */\n      dup7\n        /* \"#utility.yul\":3920:3934   */\n      add\n        /* \"#utility.yul\":3906:3918   */\n      dup3\n        /* \"#utility.yul\":3872:3935   */\n      tag_132\n      jump\t// in\n    tag_236:\n        /* \"#utility.yul\":3780:3945   */\n      pop\n        /* \"#utility.yul\":3962:3966   */\n      dup1\n        /* \"#utility.yul\":3955:3966   */\n      swap2\n      pop\n        /* \"#utility.yul\":2959:3972   */\n      pop\n        /* \"#utility.yul\":2843:3972   */\n      swap3\n      swap2\n      pop\n      pop\n      jump\t// out\n        /* \"#utility.yul\":3978:4335   */\n    tag_17:\n        /* \"#utility.yul\":4113:4117   */\n      0x00\n        /* \"#utility.yul\":4151:4153   */\n      0x20\n        /* \"#utility.yul\":4140:4149   */\n      dup3\n        /* \"#utility.yul\":4136:4154   */\n      add\n        /* \"#utility.yul\":4128:4154   */\n      swap1\n      pop\n        /* \"#utility.yul\":4200:4209   */\n      dup2\n        /* \"#utility.yul\":4194:4198   */\n      dup2\n        /* \"#utility.yul\":4190:4210   */\n      sub\n        /* \"#utility.yul\":4186:4187   */\n      0x00\n        /* \"#utility.yul\":4175:4184   */\n      dup4\n        /* \"#utility.yul\":4171:4188   */\n      add\n        /* \"#utility.yul\":4164:4211   */\n      mstore\n        /* \"#utility.yul\":4228:4328   */\n      tag_238\n        /* \"#utility.yul\":4323:4327   */\n      dup2\n        /* \"#utility.yul\":4314:4320   */\n      dup5\n        /* \"#utility.yul\":4228:4328   */\n      tag_139\n      jump\t// in\n    tag_238:\n        /* \"#utility.yul\":4220:4328   */\n      swap1\n      pop\n        /* \"#utility.yul\":3978:4335   */\n      swap3\n      swap2\n      pop\n      pop\n      jump\t// out\n        /* \"#utility.yul\":4341:4670   */\n    tag_20:\n        /* \"#utility.yul\":4400:4406   */\n      0x00\n        /* \"#utility.yul\":4449:4451   */\n      0x20\n        /* \"#utility.yul\":4437:4446   */\n      dup3\n        /* \"#utility.yul\":4428:4435   */\n      dup5\n        /* \"#utility.yul\":4424:4447   */\n      sub\n        /* \"#utility.yul\":4420:4452   */\n      slt\n        /* \"#utility.yul\":4417:4536   */\n      iszero\n      tag_240\n      jumpi\n        /* \"#utility.yul\":4455:4534   */\n      tag_241\n      tag_123\n      jump\t// in\n    tag_241:\n        /* \"#utility.yul\":4417:4536   */\n    tag_240:\n        /* \"#utility.yul\":4575:4576   */\n      0x00\n        /* \"#utility.yul\":4600:4653   */\n      tag_242\n        /* \"#utility.yul\":4645:4652   */\n      dup5\n        /* \"#utility.yul\":4636:4642   */\n      dup3\n        /* \"#utility.yul\":4625:4634   */\n      dup6\n        /* \"#utility.yul\":4621:4643   */\n      add\n        /* \"#utility.yul\":4600:4653   */\n      tag_128\n      jump\t// in\n    tag_242:\n        /* \"#utility.yul\":4590:4653   */\n      swap2\n      pop\n        /* \"#utility.yul\":4546:4663   */\n      pop\n        /* \"#utility.yul\":4341:4670   */\n      swap3\n      swap2\n      pop\n      pop\n      jump\t// out\n        /* \"#utility.yul\":4676:4811   */\n    tag_140:\n        /* \"#utility.yul\":4764:4770   */\n      0x00\n        /* \"#utility.yul\":4798:4803   */\n      dup2\n        /* \"#utility.yul\":4792:4804   */\n      mload\n        /* \"#utility.yul\":4782:4804   */\n      swap1\n      pop\n        /* \"#utility.yul\":4676:4811   */\n      swap2\n      swap1\n      pop\n      jump\t// out\n        /* \"#utility.yul\":4817:5022   */\n    tag_141:\n        /* \"#utility.yul\":4937:4948   */\n      0x00\n        /* \"#utility.yul\":4971:4977   */\n      dup3\n        /* \"#utility.yul\":4966:4969   */\n      dup3\n        /* \"#utility.yul\":4959:4978   */\n      mstore\n        /* \"#utility.yul\":5011:5015   */\n      0x20\n        /* \"#utility.yul\":5006:5009   */\n      dup3\n        /* \"#utility.yul\":5002:5016   */\n      add\n        /* \"#utility.yul\":4987:5016   */\n      swap1\n      pop\n        /* \"#utility.yul\":4817:5022   */\n      swap3\n      swap2\n      pop\n      pop\n      jump\t// out\n        /* \"#utility.yul\":5028:5181   */\n    tag_142:\n        /* \"#utility.yul\":5116:5120   */\n      0x00\n        /* \"#utility.yul\":5139:5142   */\n      dup2\n        /* \"#utility.yul\":5131:5142   */\n      swap1\n      pop\n        /* \"#utility.yul\":5169:5173   */\n      0x20\n        /* \"#utility.yul\":5164:5167   */\n      dup3\n        /* \"#utility.yul\":5160:5174   */\n      add\n        /* \"#utility.yul\":5152:5174   */\n      swap1\n      pop\n        /* \"#utility.yul\":5028:5181   */\n      swap2\n      swap1\n      pop\n      jump\t// out\n        /* \"#utility.yul\":5239:6358   */\n    tag_143:\n        /* \"#utility.yul\":5340:5343   */\n      0x00\n        /* \"#utility.yul\":5376:5380   */\n      0xa0\n        /* \"#utility.yul\":5371:5374   */\n      dup4\n        /* \"#utility.yul\":5367:5381   */\n      add\n        /* \"#utility.yul\":5461:5465   */\n      0x00\n        /* \"#utility.yul\":5454:5459   */\n      dup4\n        /* \"#utility.yul\":5450:5466   */\n      add\n        /* \"#utility.yul\":5444:5467   */\n      mload\n        /* \"#utility.yul\":5480:5543   */\n      tag_247\n        /* \"#utility.yul\":5537:5541   */\n      0x00\n        /* \"#utility.yul\":5532:5535   */\n      dup7\n        /* \"#utility.yul\":5528:5542   */\n      add\n        /* \"#utility.yul\":5514:5526   */\n      dup3\n        /* \"#utility.yul\":5480:5543   */\n      tag_132\n      jump\t// in\n    tag_247:\n        /* \"#utility.yul\":5391:5553   */\n      pop\n        /* \"#utility.yul\":5637:5641   */\n      0x20\n        /* \"#utility.yul\":5630:5635   */\n      dup4\n        /* \"#utility.yul\":5626:5642   */\n      add\n        /* \"#utility.yul\":5620:5643   */\n      mload\n        /* \"#utility.yul\":5656:5719   */\n      tag_248\n        /* \"#utility.yul\":5713:5717   */\n      0x20\n        /* \"#utility.yul\":5708:5711   */\n      dup7\n        /* \"#utility.yul\":5704:5718   */\n      add\n        /* \"#utility.yul\":5690:5702   */\n      dup3\n        /* \"#utility.yul\":5656:5719   */\n      tag_133\n      jump\t// in\n    tag_248:\n        /* \"#utility.yul\":5563:5729   */\n      pop\n        /* \"#utility.yul\":5814:5818   */\n      0x40\n        /* \"#utility.yul\":5807:5812   */\n      dup4\n        /* \"#utility.yul\":5803:5819   */\n      add\n        /* \"#utility.yul\":5797:5820   */\n      mload\n        /* \"#utility.yul\":5867:5870   */\n      dup5\n        /* \"#utility.yul\":5861:5865   */\n      dup3\n        /* \"#utility.yul\":5857:5871   */\n      sub\n        /* \"#utility.yul\":5850:5854   */\n      0x40\n        /* \"#utility.yul\":5845:5848   */\n      dup7\n        /* \"#utility.yul\":5841:5855   */\n      add\n        /* \"#utility.yul\":5834:5872   */\n      mstore\n        /* \"#utility.yul\":5893:5966   */\n      tag_249\n        /* \"#utility.yul\":5961:5965   */\n      dup3\n        /* \"#utility.yul\":5947:5959   */\n      dup3\n        /* \"#utility.yul\":5893:5966   */\n      tag_138\n      jump\t// in\n    tag_249:\n        /* \"#utility.yul\":5885:5966   */\n      swap2\n      pop\n        /* \"#utility.yul\":5739:5977   */\n      pop\n        /* \"#utility.yul\":6064:6068   */\n      0x60\n        /* \"#utility.yul\":6057:6062   */\n      dup4\n        /* \"#utility.yul\":6053:6069   */\n      add\n        /* \"#utility.yul\":6047:6070   */\n      mload\n        /* \"#utility.yul\":6083:6146   */\n      tag_250\n        /* \"#utility.yul\":6140:6144   */\n      0x60\n        /* \"#utility.yul\":6135:6138   */\n      dup7\n        /* \"#utility.yul\":6131:6145   */\n      add\n        /* \"#utility.yul\":6117:6129   */\n      dup3\n        /* \"#utility.yul\":6083:6146   */\n      tag_132\n      jump\t// in\n    tag_250:\n        /* \"#utility.yul\":5987:6156   */\n      pop\n        /* \"#utility.yul\":6239:6243   */\n      0x80\n        /* \"#utility.yul\":6232:6237   */\n      dup4\n        /* \"#utility.yul\":6228:6244   */\n      add\n        /* \"#utility.yul\":6222:6245   */\n      mload\n        /* \"#utility.yul\":6258:6321   */\n      tag_251\n        /* \"#utility.yul\":6315:6319   */\n      0x80\n        /* \"#utility.yul\":6310:6313   */\n      dup7\n        /* \"#utility.yul\":6306:6320   */\n      add\n        /* \"#utility.yul\":6292:6304   */\n      dup3\n        /* \"#utility.yul\":6258:6321   */\n      tag_132\n      jump\t// in\n    tag_251:\n        /* \"#utility.yul\":6166:6331   */\n      pop\n        /* \"#utility.yul\":6348:6352   */\n      dup1\n        /* \"#utility.yul\":6341:6352   */\n      swap2\n      pop\n        /* \"#utility.yul\":5345:6358   */\n      pop\n        /* \"#utility.yul\":5239:6358   */\n      swap3\n      swap2\n      pop\n      pop\n      jump\t// out\n        /* \"#utility.yul\":6364:6604   */\n    tag_144:\n        /* \"#utility.yul\":6475:6485   */\n      0x00\n        /* \"#utility.yul\":6510:6598   */\n      tag_253\n        /* \"#utility.yul\":6594:6597   */\n      dup4\n        /* \"#utility.yul\":6586:6592   */\n      dup4\n        /* \"#utility.yul\":6510:6598   */\n      tag_143\n      jump\t// in\n    tag_253:\n        /* \"#utility.yul\":6496:6598   */\n      swap1\n      pop\n        /* \"#utility.yul\":6364:6604   */\n      swap3\n      swap2\n      pop\n      pop\n      jump\t// out\n        /* \"#utility.yul\":6610:6744   */\n    tag_145:\n        /* \"#utility.yul\":6701:6705   */\n      0x00\n        /* \"#utility.yul\":6733:6737   */\n      0x20\n        /* \"#utility.yul\":6728:6731   */\n      dup3\n        /* \"#utility.yul\":6724:6738   */\n      add\n        /* \"#utility.yul\":6716:6738   */\n      swap1\n      pop\n        /* \"#utility.yul\":6610:6744   */\n      swap2\n      swap1\n      pop\n      jump\t// out\n        /* \"#utility.yul\":6806:7885   */\n    tag_146:\n        /* \"#utility.yul\":6967:6970   */\n      0x00\n        /* \"#utility.yul\":6996:7071   */\n      tag_256\n        /* \"#utility.yul\":7065:7070   */\n      dup3\n        /* \"#utility.yul\":6996:7071   */\n      tag_140\n      jump\t// in\n    tag_256:\n        /* \"#utility.yul\":7087:7194   */\n      tag_257\n        /* \"#utility.yul\":7187:7193   */\n      dup2\n        /* \"#utility.yul\":7182:7185   */\n      dup6\n        /* \"#utility.yul\":7087:7194   */\n      tag_141\n      jump\t// in\n    tag_257:\n        /* \"#utility.yul\":7080:7194   */\n      swap4\n      pop\n        /* \"#utility.yul\":7220:7223   */\n      dup4\n        /* \"#utility.yul\":7265:7269   */\n      0x20\n        /* \"#utility.yul\":7257:7263   */\n      dup3\n        /* \"#utility.yul\":7253:7270   */\n      mul\n        /* \"#utility.yul\":7248:7251   */\n      dup6\n        /* \"#utility.yul\":7244:7271   */\n      add\n        /* \"#utility.yul\":7295:7372   */\n      tag_258\n        /* \"#utility.yul\":7366:7371   */\n      dup6\n        /* \"#utility.yul\":7295:7372   */\n      tag_142\n      jump\t// in\n    tag_258:\n        /* \"#utility.yul\":7395:7402   */\n      dup1\n        /* \"#utility.yul\":7426:7427   */\n      0x00\n        /* \"#utility.yul\":7411:7840   */\n    tag_259:\n        /* \"#utility.yul\":7436:7442   */\n      dup6\n        /* \"#utility.yul\":7433:7434   */\n      dup2\n        /* \"#utility.yul\":7430:7443   */\n      lt\n        /* \"#utility.yul\":7411:7840   */\n      iszero\n      tag_261\n      jumpi\n        /* \"#utility.yul\":7507:7516   */\n      dup5\n        /* \"#utility.yul\":7501:7505   */\n      dup5\n        /* \"#utility.yul\":7497:7517   */\n      sub\n        /* \"#utility.yul\":7492:7495   */\n      dup10\n        /* \"#utility.yul\":7485:7518   */\n      mstore\n        /* \"#utility.yul\":7558:7564   */\n      dup2\n        /* \"#utility.yul\":7552:7565   */\n      mload\n        /* \"#utility.yul\":7586:7692   */\n      tag_262\n        /* \"#utility.yul\":7687:7691   */\n      dup6\n        /* \"#utility.yul\":7672:7685   */\n      dup3\n        /* \"#utility.yul\":7586:7692   */\n      tag_144\n      jump\t// in\n    tag_262:\n        /* \"#utility.yul\":7578:7692   */\n      swap5\n      pop\n        /* \"#utility.yul\":7715:7796   */\n      tag_263\n        /* \"#utility.yul\":7789:7795   */\n      dup4\n        /* \"#utility.yul\":7715:7796   */\n      tag_145\n      jump\t// in\n    tag_263:\n        /* \"#utility.yul\":7705:7796   */\n      swap3\n      pop\n        /* \"#utility.yul\":7825:7829   */\n      0x20\n        /* \"#utility.yul\":7820:7823   */\n      dup11\n        /* \"#utility.yul\":7816:7830   */\n      add\n        /* \"#utility.yul\":7809:7830   */\n      swap10\n      pop\n        /* \"#utility.yul\":7471:7840   */\n      pop\n        /* \"#utility.yul\":7458:7459   */\n      0x01\n        /* \"#utility.yul\":7455:7456   */\n      dup2\n        /* \"#utility.yul\":7451:7460   */\n      add\n        /* \"#utility.yul\":7446:7460   */\n      swap1\n      pop\n        /* \"#utility.yul\":7411:7840   */\n      jump(tag_259)\n    tag_261:\n        /* \"#utility.yul\":7415:7429   */\n      pop\n        /* \"#utility.yul\":7856:7860   */\n      dup3\n        /* \"#utility.yul\":7849:7860   */\n      swap8\n      pop\n        /* \"#utility.yul\":7876:7879   */\n      dup8\n        /* \"#utility.yul\":7869:7879   */\n      swap6\n      pop\n        /* \"#utility.yul\":6972:7885   */\n      pop\n      pop\n      pop\n      pop\n      pop\n        /* \"#utility.yul\":6806:7885   */\n      swap3\n      swap2\n      pop\n      pop\n      jump\t// out\n        /* \"#utility.yul\":7891:8348   */\n    tag_23:\n        /* \"#utility.yul\":8076:8080   */\n      0x00\n        /* \"#utility.yul\":8114:8116   */\n      0x20\n        /* \"#utility.yul\":8103:8112   */\n      dup3\n        /* \"#utility.yul\":8099:8117   */\n      add\n        /* \"#utility.yul\":8091:8117   */\n      swap1\n      pop\n        /* \"#utility.yul\":8163:8172   */\n      dup2\n        /* \"#utility.yul\":8157:8161   */\n      dup2\n        /* \"#utility.yul\":8153:8173   */\n      sub\n        /* \"#utility.yul\":8149:8150   */\n      0x00\n        /* \"#utility.yul\":8138:8147   */\n      dup4\n        /* \"#utility.yul\":8134:8151   */\n      add\n        /* \"#utility.yul\":8127:8174   */\n      mstore\n        /* \"#utility.yul\":8191:8341   */\n      tag_265\n        /* \"#utility.yul\":8336:8340   */\n      dup2\n        /* \"#utility.yul\":8327:8333   */\n      dup5\n        /* \"#utility.yul\":8191:8341   */\n      tag_146\n      jump\t// in\n    tag_265:\n        /* \"#utility.yul\":8183:8341   */\n      swap1\n      pop\n        /* \"#utility.yul\":7891:8348   */\n      swap3\n      swap2\n      pop\n      pop\n      jump\t// out\n        /* \"#utility.yul\":8354:8443   */\n    tag_147:\n        /* \"#utility.yul\":8390:8397   */\n      0x00\n        /* \"#utility.yul\":8430:8436   */\n      0xffff\n        /* \"#utility.yul\":8423:8428   */\n      dup3\n        /* \"#utility.yul\":8419:8437   */\n      and\n        /* \"#utility.yul\":8408:8437   */\n      swap1\n      pop\n        /* \"#utility.yul\":8354:8443   */\n      swap2\n      swap1\n      pop\n      jump\t// out\n        /* \"#utility.yul\":8449:8569   */\n    tag_148:\n        /* \"#utility.yul\":8521:8544   */\n      tag_268\n        /* \"#utility.yul\":8538:8543   */\n      dup2\n        /* \"#utility.yul\":8521:8544   */\n      tag_147\n      jump\t// in\n    tag_268:\n        /* \"#utility.yul\":8514:8519   */\n      dup2\n        /* \"#utility.yul\":8511:8545   */\n      eq\n        /* \"#utility.yul\":8501:8563   */\n      tag_269\n      jumpi\n        /* \"#utility.yul\":8559:8560   */\n      0x00\n        /* \"#utility.yul\":8556:8557   */\n      dup1\n        /* \"#utility.yul\":8549:8561   */\n      revert\n        /* \"#utility.yul\":8501:8563   */\n    tag_269:\n        /* \"#utility.yul\":8449:8569   */\n      pop\n      jump\t// out\n        /* \"#utility.yul\":8575:8712   */\n    tag_149:\n        /* \"#utility.yul\":8620:8625   */\n      0x00\n        /* \"#utility.yul\":8658:8664   */\n      dup2\n        /* \"#utility.yul\":8645:8665   */\n      calldataload\n        /* \"#utility.yul\":8636:8665   */\n      swap1\n      pop\n        /* \"#utility.yul\":8674:8706   */\n      tag_271\n        /* \"#utility.yul\":8700:8705   */\n      dup2\n        /* \"#utility.yul\":8674:8706   */\n      tag_148\n      jump\t// in\n    tag_271:\n        /* \"#utility.yul\":8575:8712   */\n      swap3\n      swap2\n      pop\n      pop\n      jump\t// out\n        /* \"#utility.yul\":8718:9045   */\n    tag_26:\n        /* \"#utility.yul\":8776:8782   */\n      0x00\n        /* \"#utility.yul\":8825:8827   */\n      0x20\n        /* \"#utility.yul\":8813:8822   */\n      dup3\n        /* \"#utility.yul\":8804:8811   */\n      dup5\n        /* \"#utility.yul\":8800:8823   */\n      sub\n        /* \"#utility.yul\":8796:8828   */\n      slt\n        /* \"#utility.yul\":8793:8912   */\n      iszero\n      tag_273\n      jumpi\n        /* \"#utility.yul\":8831:8910   */\n      tag_274\n      tag_123\n      jump\t// in\n    tag_274:\n        /* \"#utility.yul\":8793:8912   */\n    tag_273:\n        /* \"#utility.yul\":8951:8952   */\n      0x00\n        /* \"#utility.yul\":8976:9028   */\n      tag_275\n        /* \"#utility.yul\":9020:9027   */\n      dup5\n        /* \"#utility.yul\":9011:9017   */\n      dup3\n        /* \"#utility.yul\":9000:9009   */\n      dup6\n        /* \"#utility.yul\":8996:9018   */\n      add\n        /* \"#utility.yul\":8976:9028   */\n      tag_149\n      jump\t// in\n    tag_275:\n        /* \"#utility.yul\":8966:9028   */\n      swap2\n      pop\n        /* \"#utility.yul\":8922:9038   */\n      pop\n        /* \"#utility.yul\":8718:9045   */\n      swap3\n      swap2\n      pop\n      pop\n      jump\t// out\n        /* \"#utility.yul\":9051:9166   */\n    tag_150:\n        /* \"#utility.yul\":9136:9159   */\n      tag_277\n        /* \"#utility.yul\":9153:9158   */\n      dup2\n        /* \"#utility.yul\":9136:9159   */\n      tag_147\n      jump\t// in\n    tag_277:\n        /* \"#utility.yul\":9131:9134   */\n      dup3\n        /* \"#utility.yul\":9124:9160   */\n      mstore\n        /* \"#utility.yul\":9051:9166   */\n      pop\n      pop\n      jump\t// out\n        /* \"#utility.yul\":9172:9390   */\n    tag_31:\n        /* \"#utility.yul\":9263:9267   */\n      0x00\n        /* \"#utility.yul\":9301:9303   */\n      0x20\n        /* \"#utility.yul\":9290:9299   */\n      dup3\n        /* \"#utility.yul\":9286:9304   */\n      add\n        /* \"#utility.yul\":9278:9304   */\n      swap1\n      pop\n        /* \"#utility.yul\":9314:9383   */\n      tag_279\n        /* \"#utility.yul\":9380:9381   */\n      0x00\n        /* \"#utility.yul\":9369:9378   */\n      dup4\n        /* \"#utility.yul\":9365:9382   */\n      add\n        /* \"#utility.yul\":9356:9362   */\n      dup5\n        /* \"#utility.yul\":9314:9383   */\n      tag_150\n      jump\t// in\n    tag_279:\n        /* \"#utility.yul\":9172:9390   */\n      swap3\n      swap2\n      pop\n      pop\n      jump\t// out\n        /* \"#utility.yul\":9396:9513   */\n    tag_151:\n        /* \"#utility.yul\":9505:9506   */\n      0x00\n        /* \"#utility.yul\":9502:9503   */\n      dup1\n        /* \"#utility.yul\":9495:9507   */\n      revert\n        /* \"#utility.yul\":9519:9636   */\n    tag_152:\n        /* \"#utility.yul\":9628:9629   */\n      0x00\n        /* \"#utility.yul\":9625:9626   */\n      dup1\n        /* \"#utility.yul\":9618:9630   */\n      revert\n        /* \"#utility.yul\":9642:9822   */\n    tag_153:\n        /* \"#utility.yul\":9690:9767   */\n      0x4e487b7100000000000000000000000000000000000000000000000000000000\n        /* \"#utility.yul\":9687:9688   */\n      0x00\n        /* \"#utility.yul\":9680:9768   */\n      mstore\n        /* \"#utility.yul\":9787:9791   */\n      0x41\n        /* \"#utility.yul\":9784:9785   */\n      0x04\n        /* \"#utility.yul\":9777:9792   */\n      mstore\n        /* \"#utility.yul\":9811:9815   */\n      0x24\n        /* \"#utility.yul\":9808:9809   */\n      0x00\n        /* \"#utility.yul\":9801:9816   */\n      revert\n        /* \"#utility.yul\":9828:10109   */\n    tag_154:\n        /* \"#utility.yul\":9911:9938   */\n      tag_284\n        /* \"#utility.yul\":9933:9937   */\n      dup3\n        /* \"#utility.yul\":9911:9938   */\n      tag_137\n      jump\t// in\n    tag_284:\n        /* \"#utility.yul\":9903:9909   */\n      dup2\n        /* \"#utility.yul\":9899:9939   */\n      add\n        /* \"#utility.yul\":10041:10047   */\n      dup2\n        /* \"#utility.yul\":10029:10039   */\n      dup2\n        /* \"#utility.yul\":10026:10048   */\n      lt\n        /* \"#utility.yul\":10005:10023   */\n      0xffffffffffffffff\n        /* \"#utility.yul\":9993:10003   */\n      dup3\n        /* \"#utility.yul\":9990:10024   */\n      gt\n        /* \"#utility.yul\":9987:10049   */\n      or\n        /* \"#utility.yul\":9984:10072   */\n      iszero\n      tag_285\n      jumpi\n        /* \"#utility.yul\":10052:10070   */\n      tag_286\n      tag_153\n      jump\t// in\n    tag_286:\n        /* \"#utility.yul\":9984:10072   */\n    tag_285:\n        /* \"#utility.yul\":10092:10102   */\n      dup1\n        /* \"#utility.yul\":10088:10090   */\n      0x40\n        /* \"#utility.yul\":10081:10103   */\n      mstore\n        /* \"#utility.yul\":9871:10109   */\n      pop\n        /* \"#utility.yul\":9828:10109   */\n      pop\n      pop\n      jump\t// out\n        /* \"#utility.yul\":10115:10244   */\n    tag_155:\n        /* \"#utility.yul\":10149:10155   */\n      0x00\n        /* \"#utility.yul\":10176:10196   */\n      tag_288\n      tag_122\n      jump\t// in\n    tag_288:\n        /* \"#utility.yul\":10166:10196   */\n      swap1\n      pop\n        /* \"#utility.yul\":10205:10238   */\n      tag_289\n        /* \"#utility.yul\":10233:10237   */\n      dup3\n        /* \"#utility.yul\":10225:10231   */\n      dup3\n        /* \"#utility.yul\":10205:10238   */\n      tag_154\n      jump\t// in\n    tag_289:\n        /* \"#utility.yul\":10115:10244   */\n      swap2\n      swap1\n      pop\n      jump\t// out\n        /* \"#utility.yul\":10250:10558   */\n    tag_156:\n        /* \"#utility.yul\":10312:10316   */\n      0x00\n        /* \"#utility.yul\":10402:10420   */\n      0xffffffffffffffff\n        /* \"#utility.yul\":10394:10400   */\n      dup3\n        /* \"#utility.yul\":10391:10421   */\n      gt\n        /* \"#utility.yul\":10388:10444   */\n      iszero\n      tag_291\n      jumpi\n        /* \"#utility.yul\":10424:10442   */\n      tag_292\n      tag_153\n      jump\t// in\n    tag_292:\n        /* \"#utility.yul\":10388:10444   */\n    tag_291:\n        /* \"#utility.yul\":10462:10491   */\n      tag_293\n        /* \"#utility.yul\":10484:10490   */\n      dup3\n        /* \"#utility.yul\":10462:10491   */\n      tag_137\n      jump\t// in\n    tag_293:\n        /* \"#utility.yul\":10454:10491   */\n      swap1\n      pop\n        /* \"#utility.yul\":10546:10550   */\n      0x20\n        /* \"#utility.yul\":10540:10544   */\n      dup2\n        /* \"#utility.yul\":10536:10551   */\n      add\n        /* \"#utility.yul\":10528:10551   */\n      swap1\n      pop\n        /* \"#utility.yul\":10250:10558   */\n      swap2\n      swap1\n      pop\n      jump\t// out\n        /* \"#utility.yul\":10564:10712   */\n    tag_157:\n        /* \"#utility.yul\":10662:10668   */\n      dup3\n        /* \"#utility.yul\":10657:10660   */\n      dup2\n        /* \"#utility.yul\":10652:10655   */\n      dup4\n        /* \"#utility.yul\":10639:10669   */\n      calldatacopy\n        /* \"#utility.yul\":10703:10704   */\n      0x00\n        /* \"#utility.yul\":10694:10700   */\n      dup4\n        /* \"#utility.yul\":10689:10692   */\n      dup4\n        /* \"#utility.yul\":10685:10701   */\n      add\n        /* \"#utility.yul\":10678:10705   */\n      mstore\n        /* \"#utility.yul\":10564:10712   */\n      pop\n      pop\n      pop\n      jump\t// out\n        /* \"#utility.yul\":10718:11143   */\n    tag_158:\n        /* \"#utility.yul\":10796:10801   */\n      0x00\n        /* \"#utility.yul\":10821:10887   */\n      tag_296\n        /* \"#utility.yul\":10837:10886   */\n      tag_297\n        /* \"#utility.yul\":10879:10885   */\n      dup5\n        /* \"#utility.yul\":10837:10886   */\n      tag_156\n      jump\t// in\n    tag_297:\n        /* \"#utility.yul\":10821:10887   */\n      tag_155\n      jump\t// in\n    tag_296:\n        /* \"#utility.yul\":10812:10887   */\n      swap1\n      pop\n        /* \"#utility.yul\":10910:10916   */\n      dup3\n        /* \"#utility.yul\":10903:10908   */\n      dup2\n        /* \"#utility.yul\":10896:10917   */\n      mstore\n        /* \"#utility.yul\":10948:10952   */\n      0x20\n        /* \"#utility.yul\":10941:10946   */\n      dup2\n        /* \"#utility.yul\":10937:10953   */\n      add\n        /* \"#utility.yul\":10986:10989   */\n      dup5\n        /* \"#utility.yul\":10977:10983   */\n      dup5\n        /* \"#utility.yul\":10972:10975   */\n      dup5\n        /* \"#utility.yul\":10968:10984   */\n      add\n        /* \"#utility.yul\":10965:10990   */\n      gt\n        /* \"#utility.yul\":10962:11074   */\n      iszero\n      tag_298\n      jumpi\n        /* \"#utility.yul\":10993:11072   */\n      tag_299\n      tag_152\n      jump\t// in\n    tag_299:\n        /* \"#utility.yul\":10962:11074   */\n    tag_298:\n        /* \"#utility.yul\":11083:11137   */\n      tag_300\n        /* \"#utility.yul\":11130:11136   */\n      dup5\n        /* \"#utility.yul\":11125:11128   */\n      dup3\n        /* \"#utility.yul\":11120:11123   */\n      dup6\n        /* \"#utility.yul\":11083:11137   */\n      tag_157\n      jump\t// in\n    tag_300:\n        /* \"#utility.yul\":10802:11143   */\n      pop\n        /* \"#utility.yul\":10718:11143   */\n      swap4\n      swap3\n      pop\n      pop\n      pop\n      jump\t// out\n        /* \"#utility.yul\":11163:11503   */\n    tag_159:\n        /* \"#utility.yul\":11219:11224   */\n      0x00\n        /* \"#utility.yul\":11268:11271   */\n      dup3\n        /* \"#utility.yul\":11261:11265   */\n      0x1f\n        /* \"#utility.yul\":11253:11259   */\n      dup4\n        /* \"#utility.yul\":11249:11266   */\n      add\n        /* \"#utility.yul\":11245:11272   */\n      slt\n        /* \"#utility.yul\":11235:11357   */\n      tag_302\n      jumpi\n        /* \"#utility.yul\":11276:11355   */\n      tag_303\n      tag_151\n      jump\t// in\n    tag_303:\n        /* \"#utility.yul\":11235:11357   */\n    tag_302:\n        /* \"#utility.yul\":11393:11399   */\n      dup2\n        /* \"#utility.yul\":11380:11400   */\n      calldataload\n        /* \"#utility.yul\":11418:11497   */\n      tag_304\n        /* \"#utility.yul\":11493:11496   */\n      dup5\n        /* \"#utility.yul\":11485:11491   */\n      dup3\n        /* \"#utility.yul\":11478:11482   */\n      0x20\n        /* \"#utility.yul\":11470:11476   */\n      dup7\n        /* \"#utility.yul\":11466:11483   */\n      add\n        /* \"#utility.yul\":11418:11497   */\n      tag_158\n      jump\t// in\n    tag_304:\n        /* \"#utility.yul\":11409:11497   */\n      swap2\n      pop\n        /* \"#utility.yul\":11225:11503   */\n      pop\n        /* \"#utility.yul\":11163:11503   */\n      swap3\n      swap2\n      pop\n      pop\n      jump\t// out\n        /* \"#utility.yul\":11509:12018   */\n    tag_34:\n        /* \"#utility.yul\":11578:11584   */\n      0x00\n        /* \"#utility.yul\":11627:11629   */\n      0x20\n        /* \"#utility.yul\":11615:11624   */\n      dup3\n        /* \"#utility.yul\":11606:11613   */\n      dup5\n        /* \"#utility.yul\":11602:11625   */\n      sub\n        /* \"#utility.yul\":11598:11630   */\n      slt\n        /* \"#utility.yul\":11595:11714   */\n      iszero\n      tag_306\n      jumpi\n        /* \"#utility.yul\":11633:11712   */\n      tag_307\n      tag_123\n      jump\t// in\n    tag_307:\n        /* \"#utility.yul\":11595:11714   */\n    tag_306:\n        /* \"#utility.yul\":11781:11782   */\n      0x00\n        /* \"#utility.yul\":11770:11779   */\n      dup3\n        /* \"#utility.yul\":11766:11783   */\n      add\n        /* \"#utility.yul\":11753:11784   */\n      calldataload\n        /* \"#utility.yul\":11811:11829   */\n      0xffffffffffffffff\n        /* \"#utility.yul\":11803:11809   */\n      dup2\n        /* \"#utility.yul\":11800:11830   */\n      gt\n        /* \"#utility.yul\":11797:11914   */\n      iszero\n      tag_308\n      jumpi\n        /* \"#utility.yul\":11833:11912   */\n      tag_309\n      tag_124\n      jump\t// in\n    tag_309:\n        /* \"#utility.yul\":11797:11914   */\n    tag_308:\n        /* \"#utility.yul\":11938:12001   */\n      tag_310\n        /* \"#utility.yul\":11993:12000   */\n      dup5\n        /* \"#utility.yul\":11984:11990   */\n      dup3\n        /* \"#utility.yul\":11973:11982   */\n      dup6\n        /* \"#utility.yul\":11969:11991   */\n      add\n        /* \"#utility.yul\":11938:12001   */\n      tag_159\n      jump\t// in\n    tag_310:\n        /* \"#utility.yul\":11928:12001   */\n      swap2\n      pop\n        /* \"#utility.yul\":11724:12011   */\n      pop\n        /* \"#utility.yul\":11509:12018   */\n      swap3\n      swap2\n      pop\n      pop\n      jump\t// out\n        /* \"#utility.yul\":12024:12142   */\n    tag_160:\n        /* \"#utility.yul\":12111:12135   */\n      tag_312\n        /* \"#utility.yul\":12129:12134   */\n      dup2\n        /* \"#utility.yul\":12111:12135   */\n      tag_126\n      jump\t// in\n    tag_312:\n        /* \"#utility.yul\":12106:12109   */\n      dup3\n        /* \"#utility.yul\":12099:12136   */\n      mstore\n        /* \"#utility.yul\":12024:12142   */\n      pop\n      pop\n      jump\t// out\n        /* \"#utility.yul\":12148:12370   */\n    tag_39:\n        /* \"#utility.yul\":12241:12245   */\n      0x00\n        /* \"#utility.yul\":12279:12281   */\n      0x20\n        /* \"#utility.yul\":12268:12277   */\n      dup3\n        /* \"#utility.yul\":12264:12282   */\n      add\n        /* \"#utility.yul\":12256:12282   */\n      swap1\n      pop\n        /* \"#utility.yul\":12292:12363   */\n      tag_314\n        /* \"#utility.yul\":12360:12361   */\n      0x00\n        /* \"#utility.yul\":12349:12358   */\n      dup4\n        /* \"#utility.yul\":12345:12362   */\n      add\n        /* \"#utility.yul\":12336:12342   */\n      dup5\n        /* \"#utility.yul\":12292:12363   */\n      tag_160\n      jump\t// in\n    tag_314:\n        /* \"#utility.yul\":12148:12370   */\n      swap3\n      swap2\n      pop\n      pop\n      jump\t// out\n        /* \"#utility.yul\":12376:12850   */\n    tag_42:\n        /* \"#utility.yul\":12444:12450   */\n      0x00\n        /* \"#utility.yul\":12452:12458   */\n      dup1\n        /* \"#utility.yul\":12501:12503   */\n      0x40\n        /* \"#utility.yul\":12489:12498   */\n      dup4\n        /* \"#utility.yul\":12480:12487   */\n      dup6\n        /* \"#utility.yul\":12476:12499   */\n      sub\n        /* \"#utility.yul\":12472:12504   */\n      slt\n        /* \"#utility.yul\":12469:12588   */\n      iszero\n      tag_316\n      jumpi\n        /* \"#utility.yul\":12507:12586   */\n      tag_317\n      tag_123\n      jump\t// in\n    tag_317:\n        /* \"#utility.yul\":12469:12588   */\n    tag_316:\n        /* \"#utility.yul\":12627:12628   */\n      0x00\n        /* \"#utility.yul\":12652:12705   */\n      tag_318\n        /* \"#utility.yul\":12697:12704   */\n      dup6\n        /* \"#utility.yul\":12688:12694   */\n      dup3\n        /* \"#utility.yul\":12677:12686   */\n      dup7\n        /* \"#utility.yul\":12673:12695   */\n      add\n        /* \"#utility.yul\":12652:12705   */\n      tag_131\n      jump\t// in\n    tag_318:\n        /* \"#utility.yul\":12642:12705   */\n      swap3\n      pop\n        /* \"#utility.yul\":12598:12715   */\n      pop\n        /* \"#utility.yul\":12754:12756   */\n      0x20\n        /* \"#utility.yul\":12780:12833   */\n      tag_319\n        /* \"#utility.yul\":12825:12832   */\n      dup6\n        /* \"#utility.yul\":12816:12822   */\n      dup3\n        /* \"#utility.yul\":12805:12814   */\n      dup7\n        /* \"#utility.yul\":12801:12823   */\n      add\n        /* \"#utility.yul\":12780:12833   */\n      tag_128\n      jump\t// in\n    tag_319:\n        /* \"#utility.yul\":12770:12833   */\n      swap2\n      pop\n        /* \"#utility.yul\":12725:12843   */\n      pop\n        /* \"#utility.yul\":12376:12850   */\n      swap3\n      pop\n      swap3\n      swap1\n      pop\n      jump\t// out\n        /* \"#utility.yul\":12856:13025   */\n    tag_161:\n        /* \"#utility.yul\":12940:12951   */\n      0x00\n        /* \"#utility.yul\":12974:12980   */\n      dup3\n        /* \"#utility.yul\":12969:12972   */\n      dup3\n        /* \"#utility.yul\":12962:12981   */\n      mstore\n        /* \"#utility.yul\":13014:13018   */\n      0x20\n        /* \"#utility.yul\":13009:13012   */\n      dup3\n        /* \"#utility.yul\":13005:13019   */\n      add\n        /* \"#utility.yul\":12990:13019   */\n      swap1\n      pop\n        /* \"#utility.yul\":12856:13025   */\n      swap3\n      swap2\n      pop\n      pop\n      jump\t// out\n        /* \"#utility.yul\":13031:13200   */\n    tag_162:\n        /* \"#utility.yul\":13171:13192   */\n      0x496e76616c696420747765657420696e64657800000000000000000000000000\n        /* \"#utility.yul\":13167:13168   */\n      0x00\n        /* \"#utility.yul\":13159:13165   */\n      dup3\n        /* \"#utility.yul\":13155:13169   */\n      add\n        /* \"#utility.yul\":13148:13193   */\n      mstore\n        /* \"#utility.yul\":13031:13200   */\n      pop\n      jump\t// out\n        /* \"#utility.yul\":13206:13572   */\n    tag_163:\n        /* \"#utility.yul\":13348:13351   */\n      0x00\n        /* \"#utility.yul\":13369:13436   */\n      tag_323\n        /* \"#utility.yul\":13433:13435   */\n      0x13\n        /* \"#utility.yul\":13428:13431   */\n      dup4\n        /* \"#utility.yul\":13369:13436   */\n      tag_161\n      jump\t// in\n    tag_323:\n        /* \"#utility.yul\":13362:13436   */\n      swap2\n      pop\n        /* \"#utility.yul\":13445:13538   */\n      tag_324\n        /* \"#utility.yul\":13534:13537   */\n      dup3\n        /* \"#utility.yul\":13445:13538   */\n      tag_162\n      jump\t// in\n    tag_324:\n        /* \"#utility.yul\":13563:13565   */\n      0x20\n        /* \"#utility.yul\":13558:13561   */\n      dup3\n        /* \"#utility.yul\":13554:13566   */\n      add\n        /* \"#utility.yul\":13547:13566   */\n      swap1\n      pop\n        /* \"#utility.yul\":13206:13572   */\n      swap2\n      swap1\n      pop\n      jump\t// out\n        /* \"#utility.yul\":13578:13997   */\n    tag_52:\n        /* \"#utility.yul\":13744:13748   */\n      0x00\n        /* \"#utility.yul\":13782:13784   */\n      0x20\n        /* \"#utility.yul\":13771:13780   */\n      dup3\n        /* \"#utility.yul\":13767:13785   */\n      add\n        /* \"#utility.yul\":13759:13785   */\n      swap1\n      pop\n        /* \"#utility.yul\":13831:13840   */\n      dup2\n        /* \"#utility.yul\":13825:13829   */\n      dup2\n        /* \"#utility.yul\":13821:13841   */\n      sub\n        /* \"#utility.yul\":13817:13818   */\n      0x00\n        /* \"#utility.yul\":13806:13815   */\n      dup4\n        /* \"#utility.yul\":13802:13819   */\n      add\n        /* \"#utility.yul\":13795:13842   */\n      mstore\n        /* \"#utility.yul\":13859:13990   */\n      tag_326\n        /* \"#utility.yul\":13985:13989   */\n      dup2\n        /* \"#utility.yul\":13859:13990   */\n      tag_163\n      jump\t// in\n    tag_326:\n        /* \"#utility.yul\":13851:13990   */\n      swap1\n      pop\n        /* \"#utility.yul\":13578:13997   */\n      swap2\n      swap1\n      pop\n      jump\t// out\n        /* \"#utility.yul\":14003:14183   */\n    tag_55:\n        /* \"#utility.yul\":14051:14128   */\n      0x4e487b7100000000000000000000000000000000000000000000000000000000\n        /* \"#utility.yul\":14048:14049   */\n      0x00\n        /* \"#utility.yul\":14041:14129   */\n      mstore\n        /* \"#utility.yul\":14148:14152   */\n      0x32\n        /* \"#utility.yul\":14145:14146   */\n      0x04\n        /* \"#utility.yul\":14138:14153   */\n      mstore\n        /* \"#utility.yul\":14172:14176   */\n      0x24\n        /* \"#utility.yul\":14169:14170   */\n      0x00\n        /* \"#utility.yul\":14162:14177   */\n      revert\n        /* \"#utility.yul\":14189:14369   */\n    tag_164:\n        /* \"#utility.yul\":14237:14314   */\n      0x4e487b7100000000000000000000000000000000000000000000000000000000\n        /* \"#utility.yul\":14234:14235   */\n      0x00\n        /* \"#utility.yul\":14227:14315   */\n      mstore\n        /* \"#utility.yul\":14334:14338   */\n      0x22\n        /* \"#utility.yul\":14331:14332   */\n      0x04\n        /* \"#utility.yul\":14324:14339   */\n      mstore\n        /* \"#utility.yul\":14358:14362   */\n      0x24\n        /* \"#utility.yul\":14355:14356   */\n      0x00\n        /* \"#utility.yul\":14348:14363   */\n      revert\n        /* \"#utility.yul\":14375:14695   */\n    tag_58:\n        /* \"#utility.yul\":14419:14425   */\n      0x00\n        /* \"#utility.yul\":14456:14457   */\n      0x02\n        /* \"#utility.yul\":14450:14454   */\n      dup3\n        /* \"#utility.yul\":14446:14458   */\n      div\n        /* \"#utility.yul\":14436:14458   */\n      swap1\n      pop\n        /* \"#utility.yul\":14503:14504   */\n      0x01\n        /* \"#utility.yul\":14497:14501   */\n      dup3\n        /* \"#utility.yul\":14493:14505   */\n      and\n        /* \"#utility.yul\":14524:14542   */\n      dup1\n        /* \"#utility.yul\":14514:14595   */\n      tag_330\n      jumpi\n        /* \"#utility.yul\":14580:14584   */\n      0x7f\n        /* \"#utility.yul\":14572:14578   */\n      dup3\n        /* \"#utility.yul\":14568:14585   */\n      and\n        /* \"#utility.yul\":14558:14585   */\n      swap2\n      pop\n        /* \"#utility.yul\":14514:14595   */\n    tag_330:\n        /* \"#utility.yul\":14642:14644   */\n      0x20\n        /* \"#utility.yul\":14634:14640   */\n      dup3\n        /* \"#utility.yul\":14631:14645   */\n      lt\n        /* \"#utility.yul\":14611:14629   */\n      dup2\n        /* \"#utility.yul\":14608:14646   */\n      sub\n        /* \"#utility.yul\":14605:14689   */\n      tag_331\n      jumpi\n        /* \"#utility.yul\":14661:14679   */\n      tag_332\n      tag_164\n      jump\t// in\n    tag_332:\n        /* \"#utility.yul\":14605:14689   */\n    tag_331:\n        /* \"#utility.yul\":14426:14695   */\n      pop\n        /* \"#utility.yul\":14375:14695   */\n      swap2\n      swap1\n      pop\n      jump\t// out\n        /* \"#utility.yul\":14701:14872   */\n    tag_165:\n        /* \"#utility.yul\":14841:14864   */\n      0x596f75206172656e277420746865206f776e6572210000000000000000000000\n        /* \"#utility.yul\":14837:14838   */\n      0x00\n        /* \"#utility.yul\":14829:14835   */\n      dup3\n        /* \"#utility.yul\":14825:14839   */\n      add\n        /* \"#utility.yul\":14818:14865   */\n      mstore\n        /* \"#utility.yul\":14701:14872   */\n      pop\n      jump\t// out\n        /* \"#utility.yul\":14878:15244   */\n    tag_166:\n        /* \"#utility.yul\":15020:15023   */\n      0x00\n        /* \"#utility.yul\":15041:15108   */\n      tag_335\n        /* \"#utility.yul\":15105:15107   */\n      0x15\n        /* \"#utility.yul\":15100:15103   */\n      dup4\n        /* \"#utility.yul\":15041:15108   */\n      tag_161\n      jump\t// in\n    tag_335:\n        /* \"#utility.yul\":15034:15108   */\n      swap2\n      pop\n        /* \"#utility.yul\":15117:15210   */\n      tag_336\n        /* \"#utility.yul\":15206:15209   */\n      dup3\n        /* \"#utility.yul\":15117:15210   */\n      tag_165\n      jump\t// in\n    tag_336:\n        /* \"#utility.yul\":15235:15237   */\n      0x20\n        /* \"#utility.yul\":15230:15233   */\n      dup3\n        /* \"#utility.yul\":15226:15238   */\n      add\n        /* \"#utility.yul\":15219:15238   */\n      swap1\n      pop\n        /* \"#utility.yul\":14878:15244   */\n      swap2\n      swap1\n      pop\n      jump\t// out\n        /* \"#utility.yul\":15250:15669   */\n    tag_75:\n        /* \"#utility.yul\":15416:15420   */\n      0x00\n        /* \"#utility.yul\":15454:15456   */\n      0x20\n        /* \"#utility.yul\":15443:15452   */\n      dup3\n        /* \"#utility.yul\":15439:15457   */\n      add\n        /* \"#utility.yul\":15431:15457   */\n      swap1\n      pop\n        /* \"#utility.yul\":15503:15512   */\n      dup2\n        /* \"#utility.yul\":15497:15501   */\n      dup2\n        /* \"#utility.yul\":15493:15513   */\n      sub\n        /* \"#utility.yul\":15489:15490   */\n      0x00\n        /* \"#utility.yul\":15478:15487   */\n      dup4\n        /* \"#utility.yul\":15474:15491   */\n      add\n        /* \"#utility.yul\":15467:15514   */\n      mstore\n        /* \"#utility.yul\":15531:15662   */\n      tag_338\n        /* \"#utility.yul\":15657:15661   */\n      dup2\n        /* \"#utility.yul\":15531:15662   */\n      tag_166\n      jump\t// in\n    tag_338:\n        /* \"#utility.yul\":15523:15662   */\n      swap1\n      pop\n        /* \"#utility.yul\":15250:15669   */\n      swap2\n      swap1\n      pop\n      jump\t// out\n        /* \"#utility.yul\":15675:15854   */\n    tag_167:\n        /* \"#utility.yul\":15815:15846   */\n      0x547765657420636f6e74656e742063616e6e6f7420626520656d707479000000\n        /* \"#utility.yul\":15811:15812   */\n      0x00\n        /* \"#utility.yul\":15803:15809   */\n      dup3\n        /* \"#utility.yul\":15799:15813   */\n      add\n        /* \"#utility.yul\":15792:15847   */\n      mstore\n        /* \"#utility.yul\":15675:15854   */\n      pop\n      jump\t// out\n        /* \"#utility.yul\":15860:16226   */\n    tag_168:\n        /* \"#utility.yul\":16002:16005   */\n      0x00\n        /* \"#utility.yul\":16023:16090   */\n      tag_341\n        /* \"#utility.yul\":16087:16089   */\n      0x1d\n        /* \"#utility.yul\":16082:16085   */\n      dup4\n        /* \"#utility.yul\":16023:16090   */\n      tag_161\n      jump\t// in\n    tag_341:\n        /* \"#utility.yul\":16016:16090   */\n      swap2\n      pop\n        /* \"#utility.yul\":16099:16192   */\n      tag_342\n        /* \"#utility.yul\":16188:16191   */\n      dup3\n        /* \"#utility.yul\":16099:16192   */\n      tag_167\n      jump\t// in\n    tag_342:\n        /* \"#utility.yul\":16217:16219   */\n      0x20\n        /* \"#utility.yul\":16212:16215   */\n      dup3\n        /* \"#utility.yul\":16208:16220   */\n      add\n        /* \"#utility.yul\":16201:16220   */\n      swap1\n      pop\n        /* \"#utility.yul\":15860:16226   */\n      swap2\n      swap1\n      pop\n      jump\t// out\n        /* \"#utility.yul\":16232:16651   */\n    tag_80:\n        /* \"#utility.yul\":16398:16402   */\n      0x00\n        /* \"#utility.yul\":16436:16438   */\n      0x20\n        /* \"#utility.yul\":16425:16434   */\n      dup3\n        /* \"#utility.yul\":16421:16439   */\n      add\n        /* \"#utility.yul\":16413:16439   */\n      swap1\n      pop\n        /* \"#utility.yul\":16485:16494   */\n      dup2\n        /* \"#utility.yul\":16479:16483   */\n      dup2\n        /* \"#utility.yul\":16475:16495   */\n      sub\n        /* \"#utility.yul\":16471:16472   */\n      0x00\n        /* \"#utility.yul\":16460:16469   */\n      dup4\n        /* \"#utility.yul\":16456:16473   */\n      add\n        /* \"#utility.yul\":16449:16496   */\n      mstore\n        /* \"#utility.yul\":16513:16644   */\n      tag_344\n        /* \"#utility.yul\":16639:16643   */\n      dup2\n        /* \"#utility.yul\":16513:16644   */\n      tag_168\n      jump\t// in\n    tag_344:\n        /* \"#utility.yul\":16505:16644   */\n      swap1\n      pop\n        /* \"#utility.yul\":16232:16651   */\n      swap2\n      swap1\n      pop\n      jump\t// out\n        /* \"#utility.yul\":16657:16824   */\n    tag_169:\n        /* \"#utility.yul\":16797:16816   */\n      0x547765657420697320746f6f206c6f6e67000000000000000000000000000000\n        /* \"#utility.yul\":16793:16794   */\n      0x00\n        /* \"#utility.yul\":16785:16791   */\n      dup3\n        /* \"#utility.yul\":16781:16795   */\n      add\n        /* \"#utility.yul\":16774:16817   */\n      mstore\n        /* \"#utility.yul\":16657:16824   */\n      pop\n      jump\t// out\n        /* \"#utility.yul\":16830:17196   */\n    tag_170:\n        /* \"#utility.yul\":16972:16975   */\n      0x00\n        /* \"#utility.yul\":16993:17060   */\n      tag_347\n        /* \"#utility.yul\":17057:17059   */\n      0x11\n        /* \"#utility.yul\":17052:17055   */\n      dup4\n        /* \"#utility.yul\":16993:17060   */\n      tag_161\n      jump\t// in\n    tag_347:\n        /* \"#utility.yul\":16986:17060   */\n      swap2\n      pop\n        /* \"#utility.yul\":17069:17162   */\n      tag_348\n        /* \"#utility.yul\":17158:17161   */\n      dup3\n        /* \"#utility.yul\":17069:17162   */\n      tag_169\n      jump\t// in\n    tag_348:\n        /* \"#utility.yul\":17187:17189   */\n      0x20\n        /* \"#utility.yul\":17182:17185   */\n      dup3\n        /* \"#utility.yul\":17178:17190   */\n      add\n        /* \"#utility.yul\":17171:17190   */\n      swap1\n      pop\n        /* \"#utility.yul\":16830:17196   */\n      swap2\n      swap1\n      pop\n      jump\t// out\n        /* \"#utility.yul\":17202:17621   */\n    tag_83:\n        /* \"#utility.yul\":17368:17372   */\n      0x00\n        /* \"#utility.yul\":17406:17408   */\n      0x20\n        /* \"#utility.yul\":17395:17404   */\n      dup3\n        /* \"#utility.yul\":17391:17409   */\n      add\n        /* \"#utility.yul\":17383:17409   */\n      swap1\n      pop\n        /* \"#utility.yul\":17455:17464   */\n      dup2\n        /* \"#utility.yul\":17449:17453   */\n      dup2\n        /* \"#utility.yul\":17445:17465   */\n      sub\n        /* \"#utility.yul\":17441:17442   */\n      0x00\n        /* \"#utility.yul\":17430:17439   */\n      dup4\n        /* \"#utility.yul\":17426:17443   */\n      add\n        /* \"#utility.yul\":17419:17466   */\n      mstore\n        /* \"#utility.yul\":17483:17614   */\n      tag_350\n        /* \"#utility.yul\":17609:17613   */\n      dup2\n        /* \"#utility.yul\":17483:17614   */\n      tag_170\n      jump\t// in\n    tag_350:\n        /* \"#utility.yul\":17475:17614   */\n      swap1\n      pop\n        /* \"#utility.yul\":17202:17621   */\n      swap2\n      swap1\n      pop\n      jump\t// out\n        /* \"#utility.yul\":17627:17807   */\n    tag_171:\n        /* \"#utility.yul\":17675:17752   */\n      0x4e487b7100000000000000000000000000000000000000000000000000000000\n        /* \"#utility.yul\":17672:17673   */\n      0x00\n        /* \"#utility.yul\":17665:17753   */\n      mstore\n        /* \"#utility.yul\":17772:17776   */\n      0x11\n        /* \"#utility.yul\":17769:17770   */\n      0x04\n        /* \"#utility.yul\":17762:17777   */\n      mstore\n        /* \"#utility.yul\":17796:17800   */\n      0x24\n        /* \"#utility.yul\":17793:17794   */\n      0x00\n        /* \"#utility.yul\":17786:17801   */\n      revert\n        /* \"#utility.yul\":17813:18004   */\n    tag_85:\n        /* \"#utility.yul\":17853:17856   */\n      0x00\n        /* \"#utility.yul\":17872:17892   */\n      tag_353\n        /* \"#utility.yul\":17890:17891   */\n      dup3\n        /* \"#utility.yul\":17872:17892   */\n      tag_129\n      jump\t// in\n    tag_353:\n        /* \"#utility.yul\":17867:17892   */\n      swap2\n      pop\n        /* \"#utility.yul\":17906:17926   */\n      tag_354\n        /* \"#utility.yul\":17924:17925   */\n      dup4\n        /* \"#utility.yul\":17906:17926   */\n      tag_129\n      jump\t// in\n    tag_354:\n        /* \"#utility.yul\":17901:17926   */\n      swap3\n      pop\n        /* \"#utility.yul\":17949:17950   */\n      dup3\n        /* \"#utility.yul\":17946:17947   */\n      dup3\n        /* \"#utility.yul\":17942:17951   */\n      add\n        /* \"#utility.yul\":17935:17951   */\n      swap1\n      pop\n        /* \"#utility.yul\":17970:17973   */\n      dup1\n        /* \"#utility.yul\":17967:17968   */\n      dup3\n        /* \"#utility.yul\":17964:17974   */\n      gt\n        /* \"#utility.yul\":17961:17997   */\n      iszero\n      tag_355\n      jumpi\n        /* \"#utility.yul\":17977:17995   */\n      tag_356\n      tag_171\n      jump\t// in\n    tag_356:\n        /* \"#utility.yul\":17961:17997   */\n    tag_355:\n        /* \"#utility.yul\":17813:18004   */\n      swap3\n      swap2\n      pop\n      pop\n      jump\t// out\n        /* \"#utility.yul\":18010:18151   */\n    tag_172:\n        /* \"#utility.yul\":18059:18063   */\n      0x00\n        /* \"#utility.yul\":18082:18085   */\n      dup2\n        /* \"#utility.yul\":18074:18085   */\n      swap1\n      pop\n        /* \"#utility.yul\":18105:18108   */\n      dup2\n        /* \"#utility.yul\":18102:18103   */\n      0x00\n        /* \"#utility.yul\":18095:18109   */\n      mstore\n        /* \"#utility.yul\":18139:18143   */\n      0x20\n        /* \"#utility.yul\":18136:18137   */\n      0x00\n        /* \"#utility.yul\":18126:18144   */\n      keccak256\n        /* \"#utility.yul\":18118:18144   */\n      swap1\n      pop\n        /* \"#utility.yul\":18010:18151   */\n      swap2\n      swap1\n      pop\n      jump\t// out\n        /* \"#utility.yul\":18157:18250   */\n    tag_173:\n        /* \"#utility.yul\":18194:18200   */\n      0x00\n        /* \"#utility.yul\":18241:18243   */\n      0x20\n        /* \"#utility.yul\":18236:18238   */\n      0x1f\n        /* \"#utility.yul\":18229:18234   */\n      dup4\n        /* \"#utility.yul\":18225:18239   */\n      add\n        /* \"#utility.yul\":18221:18244   */\n      div\n        /* \"#utility.yul\":18211:18244   */\n      swap1\n      pop\n        /* \"#utility.yul\":18157:18250   */\n      swap2\n      swap1\n      pop\n      jump\t// out\n        /* \"#utility.yul\":18256:18363   */\n    tag_174:\n        /* \"#utility.yul\":18300:18308   */\n      0x00\n        /* \"#utility.yul\":18350:18355   */\n      dup3\n        /* \"#utility.yul\":18344:18348   */\n      dup3\n        /* \"#utility.yul\":18340:18356   */\n      shl\n        /* \"#utility.yul\":18319:18356   */\n      swap1\n      pop\n        /* \"#utility.yul\":18256:18363   */\n      swap3\n      swap2\n      pop\n      pop\n      jump\t// out\n        /* \"#utility.yul\":18369:18762   */\n    tag_175:\n        /* \"#utility.yul\":18438:18444   */\n      0x00\n        /* \"#utility.yul\":18488:18489   */\n      0x08\n        /* \"#utility.yul\":18476:18486   */\n      dup4\n        /* \"#utility.yul\":18472:18490   */\n      mul\n        /* \"#utility.yul\":18511:18608   */\n      tag_361\n        /* \"#utility.yul\":18541:18607   */\n      0xffffffffffffffffffffffffffffffffffffffffffffffffffffffffffffffff\n        /* \"#utility.yul\":18530:18539   */\n      dup3\n        /* \"#utility.yul\":18511:18608   */\n      tag_174\n      jump\t// in\n    tag_361:\n        /* \"#utility.yul\":18629:18668   */\n      tag_362\n        /* \"#utility.yul\":18659:18667   */\n      dup7\n        /* \"#utility.yul\":18648:18657   */\n      dup4\n        /* \"#utility.yul\":18629:18668   */\n      tag_174\n      jump\t// in\n    tag_362:\n        /* \"#utility.yul\":18617:18668   */\n      swap6\n      pop\n        /* \"#utility.yul\":18701:18705   */\n      dup1\n        /* \"#utility.yul\":18697:18706   */\n      not\n        /* \"#utility.yul\":18690:18695   */\n      dup5\n        /* \"#utility.yul\":18686:18707   */\n      and\n        /* \"#utility.yul\":18677:18707   */\n      swap4\n      pop\n        /* \"#utility.yul\":18750:18754   */\n      dup1\n        /* \"#utility.yul\":18740:18748   */\n      dup7\n        /* \"#utility.yul\":18736:18755   */\n      and\n        /* \"#utility.yul\":18729:18734   */\n      dup5\n        /* \"#utility.yul\":18726:18756   */\n      or\n        /* \"#utility.yul\":18716:18756   */\n      swap3\n      pop\n        /* \"#utility.yul\":18445:18762   */\n      pop\n      pop\n        /* \"#utility.yul\":18369:18762   */\n      swap4\n      swap3\n      pop\n      pop\n      pop\n      jump\t// out\n        /* \"#utility.yul\":18768:18828   */\n    tag_176:\n        /* \"#utility.yul\":18796:18799   */\n      0x00\n        /* \"#utility.yul\":18817:18822   */\n      dup2\n        /* \"#utility.yul\":18810:18822   */\n      swap1\n      pop\n        /* \"#utility.yul\":18768:18828   */\n      swap2\n      swap1\n      pop\n      jump\t// out\n        /* \"#utility.yul\":18834:18976   */\n    tag_177:\n        /* \"#utility.yul\":18884:18893   */\n      0x00\n        /* \"#utility.yul\":18917:18970   */\n      tag_365\n        /* \"#utility.yul\":18935:18969   */\n      tag_366\n        /* \"#utility.yul\":18944:18968   */\n      tag_367\n        /* \"#utility.yul\":18962:18967   */\n      dup5\n        /* \"#utility.yul\":18944:18968   */\n      tag_129\n      jump\t// in\n    tag_367:\n        /* \"#utility.yul\":18935:18969   */\n      tag_176\n      jump\t// in\n    tag_366:\n        /* \"#utility.yul\":18917:18970   */\n      tag_129\n      jump\t// in\n    tag_365:\n        /* \"#utility.yul\":18904:18970   */\n      swap1\n      pop\n        /* \"#utility.yul\":18834:18976   */\n      swap2\n      swap1\n      pop\n      jump\t// out\n        /* \"#utility.yul\":18982:19057   */\n    tag_178:\n        /* \"#utility.yul\":19025:19028   */\n      0x00\n        /* \"#utility.yul\":19046:19051   */\n      dup2\n        /* \"#utility.yul\":19039:19051   */\n      swap1\n      pop\n        /* \"#utility.yul\":18982:19057   */\n      swap2\n      swap1\n      pop\n      jump\t// out\n        /* \"#utility.yul\":19063:19332   */\n    tag_179:\n        /* \"#utility.yul\":19173:19212   */\n      tag_370\n        /* \"#utility.yul\":19204:19211   */\n      dup4\n        /* \"#utility.yul\":19173:19212   */\n      tag_177\n      jump\t// in\n    tag_370:\n        /* \"#utility.yul\":19234:19325   */\n      tag_371\n        /* \"#utility.yul\":19283:19324   */\n      tag_372\n        /* \"#utility.yul\":19307:19323   */\n      dup3\n        /* \"#utility.yul\":19283:19324   */\n      tag_178\n      jump\t// in\n    tag_372:\n        /* \"#utility.yul\":19275:19281   */\n      dup5\n        /* \"#utility.yul\":19268:19272   */\n      dup5\n        /* \"#utility.yul\":19262:19273   */\n      sload\n        /* \"#utility.yul\":19234:19325   */\n      tag_175\n      jump\t// in\n    tag_371:\n        /* \"#utility.yul\":19228:19232   */\n      dup3\n        /* \"#utility.yul\":19221:19326   */\n      sstore\n        /* \"#utility.yul\":19139:19332   */\n      pop\n        /* \"#utility.yul\":19063:19332   */\n      pop\n      pop\n      pop\n      jump\t// out\n        /* \"#utility.yul\":19338:19411   */\n    tag_180:\n        /* \"#utility.yul\":19383:19386   */\n      0x00\n        /* \"#utility.yul\":19338:19411   */\n      swap1\n      jump\t// out\n        /* \"#utility.yul\":19417:19606   */\n    tag_181:\n        /* \"#utility.yul\":19494:19526   */\n      tag_375\n      tag_180\n      jump\t// in\n    tag_375:\n        /* \"#utility.yul\":19535:19600   */\n      tag_376\n        /* \"#utility.yul\":19593:19599   */\n      dup2\n        /* \"#utility.yul\":19585:19591   */\n      dup5\n        /* \"#utility.yul\":19579:19583   */\n      dup5\n        /* \"#utility.yul\":19535:19600   */\n      tag_179\n      jump\t// in\n    tag_376:\n        /* \"#utility.yul\":19470:19606   */\n      pop\n        /* \"#utility.yul\":19417:19606   */\n      pop\n      pop\n      jump\t// out\n        /* \"#utility.yul\":19612:19798   */\n    tag_182:\n        /* \"#utility.yul\":19672:19792   */\n    tag_378:\n        /* \"#utility.yul\":19689:19692   */\n      dup2\n        /* \"#utility.yul\":19682:19687   */\n      dup2\n        /* \"#utility.yul\":19679:19693   */\n      lt\n        /* \"#utility.yul\":19672:19792   */\n      iszero\n      tag_380\n      jumpi\n        /* \"#utility.yul\":19743:19782   */\n      tag_381\n        /* \"#utility.yul\":19780:19781   */\n      0x00\n        /* \"#utility.yul\":19773:19778   */\n      dup3\n        /* \"#utility.yul\":19743:19782   */\n      tag_181\n      jump\t// in\n    tag_381:\n        /* \"#utility.yul\":19716:19717   */\n      0x01\n        /* \"#utility.yul\":19709:19714   */\n      dup2\n        /* \"#utility.yul\":19705:19718   */\n      add\n        /* \"#utility.yul\":19696:19718   */\n      swap1\n      pop\n        /* \"#utility.yul\":19672:19792   */\n      jump(tag_378)\n    tag_380:\n        /* \"#utility.yul\":19612:19798   */\n      pop\n      pop\n      jump\t// out\n        /* \"#utility.yul\":19804:20347   */\n    tag_183:\n        /* \"#utility.yul\":19905:19907   */\n      0x1f\n        /* \"#utility.yul\":19900:19903   */\n      dup3\n        /* \"#utility.yul\":19897:19908   */\n      gt\n        /* \"#utility.yul\":19894:20340   */\n      iszero\n      tag_383\n      jumpi\n        /* \"#utility.yul\":19939:19977   */\n      tag_384\n        /* \"#utility.yul\":19971:19976   */\n      dup2\n        /* \"#utility.yul\":19939:19977   */\n      tag_172\n      jump\t// in\n    tag_384:\n        /* \"#utility.yul\":20023:20052   */\n      tag_385\n        /* \"#utility.yul\":20041:20051   */\n      dup5\n        /* \"#utility.yul\":20023:20052   */\n      tag_173\n      jump\t// in\n    tag_385:\n        /* \"#utility.yul\":20013:20021   */\n      dup2\n        /* \"#utility.yul\":20009:20053   */\n      add\n        /* \"#utility.yul\":20206:20208   */\n      0x20\n        /* \"#utility.yul\":20194:20204   */\n      dup6\n        /* \"#utility.yul\":20191:20209   */\n      lt\n        /* \"#utility.yul\":20188:20237   */\n      iszero\n      tag_386\n      jumpi\n        /* \"#utility.yul\":20227:20235   */\n      dup2\n        /* \"#utility.yul\":20212:20235   */\n      swap1\n      pop\n        /* \"#utility.yul\":20188:20237   */\n    tag_386:\n        /* \"#utility.yul\":20250:20330   */\n      tag_387\n        /* \"#utility.yul\":20306:20328   */\n      tag_388\n        /* \"#utility.yul\":20324:20327   */\n      dup6\n        /* \"#utility.yul\":20306:20328   */\n      tag_173\n      jump\t// in\n    tag_388:\n        /* \"#utility.yul\":20296:20304   */\n      dup4\n        /* \"#utility.yul\":20292:20329   */\n      add\n        /* \"#utility.yul\":20279:20290   */\n      dup3\n        /* \"#utility.yul\":20250:20330   */\n      tag_182\n      jump\t// in\n    tag_387:\n        /* \"#utility.yul\":19909:20340   */\n      pop\n      pop\n        /* \"#utility.yul\":19894:20340   */\n    tag_383:\n        /* \"#utility.yul\":19804:20347   */\n      pop\n      pop\n      pop\n      jump\t// out\n        /* \"#utility.yul\":20353:20470   */\n    tag_184:\n        /* \"#utility.yul\":20407:20415   */\n      0x00\n        /* \"#utility.yul\":20457:20462   */\n      dup3\n        /* \"#utility.yul\":20451:20455   */\n      dup3\n        /* \"#utility.yul\":20447:20463   */\n      shr\n        /* \"#utility.yul\":20426:20463   */\n      swap1\n      pop\n        /* \"#utility.yul\":20353:20470   */\n      swap3\n      swap2\n      pop\n      pop\n      jump\t// out\n        /* \"#utility.yul\":20476:20645   */\n    tag_185:\n        /* \"#utility.yul\":20520:20526   */\n      0x00\n        /* \"#utility.yul\":20553:20604   */\n      tag_391\n        /* \"#utility.yul\":20601:20602   */\n      0x00\n        /* \"#utility.yul\":20597:20603   */\n      not\n        /* \"#utility.yul\":20589:20594   */\n      dup5\n        /* \"#utility.yul\":20586:20587   */\n      0x08\n        /* \"#utility.yul\":20582:20595   */\n      mul\n        /* \"#utility.yul\":20553:20604   */\n      tag_184\n      jump\t// in\n    tag_391:\n        /* \"#utility.yul\":20549:20605   */\n      not\n        /* \"#utility.yul\":20634:20638   */\n      dup1\n        /* \"#utility.yul\":20628:20632   */\n      dup4\n        /* \"#utility.yul\":20624:20639   */\n      and\n        /* \"#utility.yul\":20614:20639   */\n      swap2\n      pop\n        /* \"#utility.yul\":20527:20645   */\n      pop\n        /* \"#utility.yul\":20476:20645   */\n      swap3\n      swap2\n      pop\n      pop\n      jump\t// out\n        /* \"#utility.yul\":20650:20945   */\n    tag_186:\n        /* \"#utility.yul\":20726:20730   */\n      0x00\n        /* \"#utility.yul\":20872:20901   */\n      tag_393\n        /* \"#utility.yul\":20897:20900   */\n      dup4\n        /* \"#utility.yul\":20891:20895   */\n      dup4\n        /* \"#utility.yul\":20872:20901   */\n      tag_185\n      jump\t// in\n    tag_393:\n        /* \"#utility.yul\":20864:20901   */\n      swap2\n      pop\n        /* \"#utility.yul\":20934:20937   */\n      dup3\n        /* \"#utility.yul\":20931:20932   */\n      0x02\n        /* \"#utility.yul\":20927:20938   */\n      mul\n        /* \"#utility.yul\":20921:20925   */\n      dup3\n        /* \"#utility.yul\":20918:20939   */\n      or\n        /* \"#utility.yul\":20910:20939   */\n      swap1\n      pop\n        /* \"#utility.yul\":20650:20945   */\n      swap3\n      swap2\n      pop\n      pop\n      jump\t// out\n        /* \"#utility.yul\":20950:22345   */\n    tag_88:\n        /* \"#utility.yul\":21067:21104   */\n      tag_395\n        /* \"#utility.yul\":21100:21103   */\n      dup3\n        /* \"#utility.yul\":21067:21104   */\n      tag_134\n      jump\t// in\n    tag_395:\n        /* \"#utility.yul\":21169:21187   */\n      0xffffffffffffffff\n        /* \"#utility.yul\":21161:21167   */\n      dup2\n        /* \"#utility.yul\":21158:21188   */\n      gt\n        /* \"#utility.yul\":21155:21211   */\n      iszero\n      tag_396\n      jumpi\n        /* \"#utility.yul\":21191:21209   */\n      tag_397\n      tag_153\n      jump\t// in\n    tag_397:\n        /* \"#utility.yul\":21155:21211   */\n    tag_396:\n        /* \"#utility.yul\":21235:21273   */\n      tag_398\n        /* \"#utility.yul\":21267:21271   */\n      dup3\n        /* \"#utility.yul\":21261:21272   */\n      sload\n        /* \"#utility.yul\":21235:21273   */\n      tag_58\n      jump\t// in\n    tag_398:\n        /* \"#utility.yul\":21320:21387   */\n      tag_399\n        /* \"#utility.yul\":21380:21386   */\n      dup3\n        /* \"#utility.yul\":21372:21378   */\n      dup3\n        /* \"#utility.yul\":21366:21370   */\n      dup6\n        /* \"#utility.yul\":21320:21387   */\n      tag_183\n      jump\t// in\n    tag_399:\n        /* \"#utility.yul\":21414:21415   */\n      0x00\n        /* \"#utility.yul\":21438:21442   */\n      0x20\n        /* \"#utility.yul\":21425:21442   */\n      swap1\n      pop\n        /* \"#utility.yul\":21470:21472   */\n      0x1f\n        /* \"#utility.yul\":21462:21468   */\n      dup4\n        /* \"#utility.yul\":21459:21473   */\n      gt\n        /* \"#utility.yul\":21487:21488   */\n      0x01\n        /* \"#utility.yul\":21482:22100   */\n      dup2\n      eq\n      tag_401\n      jumpi\n        /* \"#utility.yul\":22144:22145   */\n      0x00\n        /* \"#utility.yul\":22161:22167   */\n      dup5\n        /* \"#utility.yul\":22158:22235   */\n      iszero\n      tag_402\n      jumpi\n        /* \"#utility.yul\":22210:22219   */\n      dup3\n        /* \"#utility.yul\":22205:22208   */\n      dup8\n        /* \"#utility.yul\":22201:22220   */\n      add\n        /* \"#utility.yul\":22195:22221   */\n      mload\n        /* \"#utility.yul\":22186:22221   */\n      swap1\n      pop\n        /* \"#utility.yul\":22158:22235   */\n    tag_402:\n        /* \"#utility.yul\":22261:22328   */\n      tag_403\n        /* \"#utility.yul\":22321:22327   */\n      dup6\n        /* \"#utility.yul\":22314:22319   */\n      dup3\n        /* \"#utility.yul\":22261:22328   */\n      tag_186\n      jump\t// in\n    tag_403:\n        /* \"#utility.yul\":22255:22259   */\n      dup7\n        /* \"#utility.yul\":22248:22329   */\n      sstore\n        /* \"#utility.yul\":22117:22339   */\n      pop\n        /* \"#utility.yul\":21452:22339   */\n      jump(tag_400)\n        /* \"#utility.yul\":21482:22100   */\n    tag_401:\n        /* \"#utility.yul\":21534:21538   */\n      0x1f\n        /* \"#utility.yul\":21530:21539   */\n      not\n        /* \"#utility.yul\":21522:21528   */\n      dup5\n        /* \"#utility.yul\":21518:21540   */\n      and\n        /* \"#utility.yul\":21568:21605   */\n      tag_404\n        /* \"#utility.yul\":21600:21604   */\n      dup7\n        /* \"#utility.yul\":21568:21605   */\n      tag_172\n      jump\t// in\n    tag_404:\n        /* \"#utility.yul\":21627:21628   */\n      0x00\n        /* \"#utility.yul\":21641:21849   */\n    tag_405:\n        /* \"#utility.yul\":21655:21662   */\n      dup3\n        /* \"#utility.yul\":21652:21653   */\n      dup2\n        /* \"#utility.yul\":21649:21663   */\n      lt\n        /* \"#utility.yul\":21641:21849   */\n      iszero\n      tag_407\n      jumpi\n        /* \"#utility.yul\":21734:21743   */\n      dup5\n        /* \"#utility.yul\":21729:21732   */\n      dup10\n        /* \"#utility.yul\":21725:21744   */\n      add\n        /* \"#utility.yul\":21719:21745   */\n      mload\n        /* \"#utility.yul\":21711:21717   */\n      dup3\n        /* \"#utility.yul\":21704:21746   */\n      sstore\n        /* \"#utility.yul\":21785:21786   */\n      0x01\n        /* \"#utility.yul\":21777:21783   */\n      dup3\n        /* \"#utility.yul\":21773:21787   */\n      add\n        /* \"#utility.yul\":21763:21787   */\n      swap2\n      pop\n        /* \"#utility.yul\":21832:21834   */\n      0x20\n        /* \"#utility.yul\":21821:21830   */\n      dup6\n        /* \"#utility.yul\":21817:21835   */\n      add\n        /* \"#utility.yul\":21804:21835   */\n      swap5\n      pop\n        /* \"#utility.yul\":21678:21682   */\n      0x20\n        /* \"#utility.yul\":21675:21676   */\n      dup2\n        /* \"#utility.yul\":21671:21683   */\n      add\n        /* \"#utility.yul\":21666:21683   */\n      swap1\n      pop\n        /* \"#utility.yul\":21641:21849   */\n      jump(tag_405)\n    tag_407:\n        /* \"#utility.yul\":21877:21883   */\n      dup7\n        /* \"#utility.yul\":21868:21875   */\n      dup4\n        /* \"#utility.yul\":21865:21884   */\n      lt\n        /* \"#utility.yul\":21862:22041   */\n      iszero\n      tag_408\n      jumpi\n        /* \"#utility.yul\":21935:21944   */\n      dup5\n        /* \"#utility.yul\":21930:21933   */\n      dup10\n        /* \"#utility.yul\":21926:21945   */\n      add\n        /* \"#utility.yul\":21920:21946   */\n      mload\n        /* \"#utility.yul\":21978:22026   */\n      tag_409\n        /* \"#utility.yul\":22020:22024   */\n      0x1f\n        /* \"#utility.yul\":22012:22018   */\n      dup10\n        /* \"#utility.yul\":22008:22025   */\n      and\n        /* \"#utility.yul\":21997:22006   */\n      dup3\n        /* \"#utility.yul\":21978:22026   */\n      tag_185\n      jump\t// in\n    tag_409:\n        /* \"#utility.yul\":21970:21976   */\n      dup4\n        /* \"#utility.yul\":21963:22027   */\n      sstore\n        /* \"#utility.yul\":21885:22041   */\n      pop\n        /* \"#utility.yul\":21862:22041   */\n    tag_408:\n        /* \"#utility.yul\":22087:22088   */\n      0x01\n        /* \"#utility.yul\":22083:22084   */\n      0x02\n        /* \"#utility.yul\":22075:22081   */\n      dup9\n        /* \"#utility.yul\":22071:22085   */\n      mul\n        /* \"#utility.yul\":22067:22089   */\n      add\n        /* \"#utility.yul\":22061:22065   */\n      dup9\n        /* \"#utility.yul\":22054:22090   */\n      sstore\n        /* \"#utility.yul\":21489:22100   */\n      pop\n      pop\n      pop\n        /* \"#utility.yul\":21452:22339   */\n    tag_400:\n      pop\n        /* \"#utility.yul\":21042:22345   */\n      pop\n      pop\n      pop\n        /* \"#utility.yul\":20950:22345   */\n      pop\n      pop\n      jump\t// out\n        /* \"#utility.yul\":22351:22469   */\n    tag_187:\n        /* \"#utility.yul\":22438:22462   */\n      tag_411\n        /* \"#utility.yul\":22456:22461   */\n      dup2\n        /* \"#utility.yul\":22438:22462   */\n      tag_129\n      jump\t// in\n    tag_411:\n        /* \"#utility.yul\":22433:22436   */\n      dup3\n        /* \"#utility.yul\":22426:22463   */\n      mstore\n        /* \"#utility.yul\":22351:22469   */\n      pop\n      pop\n      jump\t// out\n        /* \"#utility.yul\":22475:22852   */\n    tag_188:\n        /* \"#utility.yul\":22563:22566   */\n      0x00\n        /* \"#utility.yul\":22591:22630   */\n      tag_413\n        /* \"#utility.yul\":22624:22629   */\n      dup3\n        /* \"#utility.yul\":22591:22630   */\n      tag_134\n      jump\t// in\n    tag_413:\n        /* \"#utility.yul\":22646:22717   */\n      tag_414\n        /* \"#utility.yul\":22710:22716   */\n      dup2\n        /* \"#utility.yul\":22705:22708   */\n      dup6\n        /* \"#utility.yul\":22646:22717   */\n      tag_161\n      jump\t// in\n    tag_414:\n        /* \"#utility.yul\":22639:22717   */\n      swap4\n      pop\n        /* \"#utility.yul\":22726:22791   */\n      tag_415\n        /* \"#utility.yul\":22784:22790   */\n      dup2\n        /* \"#utility.yul\":22779:22782   */\n      dup6\n        /* \"#utility.yul\":22772:22776   */\n      0x20\n        /* \"#utility.yul\":22765:22770   */\n      dup7\n        /* \"#utility.yul\":22761:22777   */\n      add\n        /* \"#utility.yul\":22726:22791   */\n      tag_136\n      jump\t// in\n    tag_415:\n        /* \"#utility.yul\":22816:22845   */\n      tag_416\n        /* \"#utility.yul\":22838:22844   */\n      dup2\n        /* \"#utility.yul\":22816:22845   */\n      tag_137\n      jump\t// in\n    tag_416:\n        /* \"#utility.yul\":22811:22814   */\n      dup5\n        /* \"#utility.yul\":22807:22846   */\n      add\n        /* \"#utility.yul\":22800:22846   */\n      swap2\n      pop\n        /* \"#utility.yul\":22567:22852   */\n      pop\n        /* \"#utility.yul\":22475:22852   */\n      swap3\n      swap2\n      pop\n      pop\n      jump\t// out\n        /* \"#utility.yul\":22858:23502   */\n    tag_90:\n        /* \"#utility.yul\":23055:23059   */\n      0x00\n        /* \"#utility.yul\":23093:23096   */\n      0x80\n        /* \"#utility.yul\":23082:23091   */\n      dup3\n        /* \"#utility.yul\":23078:23097   */\n      add\n        /* \"#utility.yul\":23070:23097   */\n      swap1\n      pop\n        /* \"#utility.yul\":23107:23178   */\n      tag_418\n        /* \"#utility.yul\":23175:23176   */\n      0x00\n        /* \"#utility.yul\":23164:23173   */\n      dup4\n        /* \"#utility.yul\":23160:23177   */\n      add\n        /* \"#utility.yul\":23151:23157   */\n      dup8\n        /* \"#utility.yul\":23107:23178   */\n      tag_187\n      jump\t// in\n    tag_418:\n        /* \"#utility.yul\":23188:23260   */\n      tag_419\n        /* \"#utility.yul\":23256:23258   */\n      0x20\n        /* \"#utility.yul\":23245:23254   */\n      dup4\n        /* \"#utility.yul\":23241:23259   */\n      add\n        /* \"#utility.yul\":23232:23238   */\n      dup7\n        /* \"#utility.yul\":23188:23260   */\n      tag_160\n      jump\t// in\n    tag_419:\n        /* \"#utility.yul\":23307:23316   */\n      dup2\n        /* \"#utility.yul\":23301:23305   */\n      dup2\n        /* \"#utility.yul\":23297:23317   */\n      sub\n        /* \"#utility.yul\":23292:23294   */\n      0x40\n        /* \"#utility.yul\":23281:23290   */\n      dup4\n        /* \"#utility.yul\":23277:23295   */\n      add\n        /* \"#utility.yul\":23270:23318   */\n      mstore\n        /* \"#utility.yul\":23335:23413   */\n      tag_420\n        /* \"#utility.yul\":23408:23412   */\n      dup2\n        /* \"#utility.yul\":23399:23405   */\n      dup6\n        /* \"#utility.yul\":23335:23413   */\n      tag_188\n      jump\t// in\n    tag_420:\n        /* \"#utility.yul\":23327:23413   */\n      swap1\n      pop\n        /* \"#utility.yul\":23423:23495   */\n      tag_421\n        /* \"#utility.yul\":23491:23493   */\n      0x60\n        /* \"#utility.yul\":23480:23489   */\n      dup4\n        /* \"#utility.yul\":23476:23494   */\n      add\n        /* \"#utility.yul\":23467:23473   */\n      dup5\n        /* \"#utility.yul\":23423:23495   */\n      tag_187\n      jump\t// in\n    tag_421:\n        /* \"#utility.yul\":22858:23502   */\n      swap6\n      swap5\n      pop\n      pop\n      pop\n      pop\n      pop\n      jump\t// out\n        /* \"#utility.yul\":23508:23674   */\n    tag_189:\n        /* \"#utility.yul\":23648:23666   */\n      0x496e76616c696420747765657420494400000000000000000000000000000000\n        /* \"#utility.yul\":23644:23645   */\n      0x00\n        /* \"#utility.yul\":23636:23642   */\n      dup3\n        /* \"#utility.yul\":23632:23646   */\n      add\n        /* \"#utility.yul\":23625:23667   */\n      mstore\n        /* \"#utility.yul\":23508:23674   */\n      pop\n      jump\t// out\n        /* \"#utility.yul\":23680:24046   */\n    tag_190:\n        /* \"#utility.yul\":23822:23825   */\n      0x00\n        /* \"#utility.yul\":23843:23910   */\n      tag_424\n        /* \"#utility.yul\":23907:23909   */\n      0x10\n        /* \"#utility.yul\":23902:23905   */\n      dup4\n        /* \"#utility.yul\":23843:23910   */\n      tag_161\n      jump\t// in\n    tag_424:\n        /* \"#utility.yul\":23836:23910   */\n      swap2\n      pop\n        /* \"#utility.yul\":23919:24012   */\n      tag_425\n        /* \"#utility.yul\":24008:24011   */\n      dup3\n        /* \"#utility.yul\":23919:24012   */\n      tag_189\n      jump\t// in\n    tag_425:\n        /* \"#utility.yul\":24037:24039   */\n      0x20\n        /* \"#utility.yul\":24032:24035   */\n      dup3\n        /* \"#utility.yul\":24028:24040   */\n      add\n        /* \"#utility.yul\":24021:24040   */\n      swap1\n      pop\n        /* \"#utility.yul\":23680:24046   */\n      swap2\n      swap1\n      pop\n      jump\t// out\n        /* \"#utility.yul\":24052:24471   */\n    tag_94:\n        /* \"#utility.yul\":24218:24222   */\n      0x00\n        /* \"#utility.yul\":24256:24258   */\n      0x20\n        /* \"#utility.yul\":24245:24254   */\n      dup3\n        /* \"#utility.yul\":24241:24259   */\n      add\n        /* \"#utility.yul\":24233:24259   */\n      swap1\n      pop\n        /* \"#utility.yul\":24305:24314   */\n      dup2\n        /* \"#utility.yul\":24299:24303   */\n      dup2\n        /* \"#utility.yul\":24295:24315   */\n      sub\n        /* \"#utility.yul\":24291:24292   */\n      0x00\n        /* \"#utility.yul\":24280:24289   */\n      dup4\n        /* \"#utility.yul\":24276:24293   */\n      add\n        /* \"#utility.yul\":24269:24316   */\n      mstore\n        /* \"#utility.yul\":24333:24464   */\n      tag_427\n        /* \"#utility.yul\":24459:24463   */\n      dup2\n        /* \"#utility.yul\":24333:24464   */\n      tag_190\n      jump\t// in\n    tag_427:\n        /* \"#utility.yul\":24325:24464   */\n      swap1\n      pop\n        /* \"#utility.yul\":24052:24471   */\n      swap2\n      swap1\n      pop\n      jump\t// out\n        /* \"#utility.yul\":24477:24646   */\n    tag_191:\n        /* \"#utility.yul\":24617:24638   */\n      0x547765657420646f65736e277420657869737400000000000000000000000000\n        /* \"#utility.yul\":24613:24614   */\n      0x00\n        /* \"#utility.yul\":24605:24611   */\n      dup3\n        /* \"#utility.yul\":24601:24615   */\n      add\n        /* \"#utility.yul\":24594:24639   */\n      mstore\n        /* \"#utility.yul\":24477:24646   */\n      pop\n      jump\t// out\n        /* \"#utility.yul\":24652:25018   */\n    tag_192:\n        /* \"#utility.yul\":24794:24797   */\n      0x00\n        /* \"#utility.yul\":24815:24882   */\n      tag_430\n        /* \"#utility.yul\":24879:24881   */\n      0x13\n        /* \"#utility.yul\":24874:24877   */\n      dup4\n        /* \"#utility.yul\":24815:24882   */\n      tag_161\n      jump\t// in\n    tag_430:\n        /* \"#utility.yul\":24808:24882   */\n      swap2\n      pop\n        /* \"#utility.yul\":24891:24984   */\n      tag_431\n        /* \"#utility.yul\":24980:24983   */\n      dup3\n        /* \"#utility.yul\":24891:24984   */\n      tag_191\n      jump\t// in\n    tag_431:\n        /* \"#utility.yul\":25009:25011   */\n      0x20\n        /* \"#utility.yul\":25004:25007   */\n      dup3\n        /* \"#utility.yul\":25000:25012   */\n      add\n        /* \"#utility.yul\":24993:25012   */\n      swap1\n      pop\n        /* \"#utility.yul\":24652:25018   */\n      swap2\n      swap1\n      pop\n      jump\t// out\n        /* \"#utility.yul\":25024:25443   */\n    tag_97:\n        /* \"#utility.yul\":25190:25194   */\n      0x00\n        /* \"#utility.yul\":25228:25230   */\n      0x20\n        /* \"#utility.yul\":25217:25226   */\n      dup3\n        /* \"#utility.yul\":25213:25231   */\n      add\n        /* \"#utility.yul\":25205:25231   */\n      swap1\n      pop\n        /* \"#utility.yul\":25277:25286   */\n      dup2\n        /* \"#utility.yul\":25271:25275   */\n      dup2\n        /* \"#utility.yul\":25267:25287   */\n      sub\n        /* \"#utility.yul\":25263:25264   */\n      0x00\n        /* \"#utility.yul\":25252:25261   */\n      dup4\n        /* \"#utility.yul\":25248:25265   */\n      add\n        /* \"#utility.yul\":25241:25288   */\n      mstore\n        /* \"#utility.yul\":25305:25436   */\n      tag_433\n        /* \"#utility.yul\":25431:25435   */\n      dup2\n        /* \"#utility.yul\":25305:25436   */\n      tag_192\n      jump\t// in\n    tag_433:\n        /* \"#utility.yul\":25297:25436   */\n      swap1\n      pop\n        /* \"#utility.yul\":25024:25443   */\n      swap2\n      swap1\n      pop\n      jump\t// out\n        /* \"#utility.yul\":25449:25643   */\n    tag_99:\n        /* \"#utility.yul\":25489:25493   */\n      0x00\n        /* \"#utility.yul\":25509:25529   */\n      tag_435\n        /* \"#utility.yul\":25527:25528   */\n      dup3\n        /* \"#utility.yul\":25509:25529   */\n      tag_129\n      jump\t// in\n    tag_435:\n        /* \"#utility.yul\":25504:25529   */\n      swap2\n      pop\n        /* \"#utility.yul\":25543:25563   */\n      tag_436\n        /* \"#utility.yul\":25561:25562   */\n      dup4\n        /* \"#utility.yul\":25543:25563   */\n      tag_129\n      jump\t// in\n    tag_436:\n        /* \"#utility.yul\":25538:25563   */\n      swap3\n      pop\n        /* \"#utility.yul\":25587:25588   */\n      dup3\n        /* \"#utility.yul\":25584:25585   */\n      dup3\n        /* \"#utility.yul\":25580:25589   */\n      sub\n        /* \"#utility.yul\":25572:25589   */\n      swap1\n      pop\n        /* \"#utility.yul\":25611:25612   */\n      dup2\n        /* \"#utility.yul\":25605:25609   */\n      dup2\n        /* \"#utility.yul\":25602:25613   */\n      gt\n        /* \"#utility.yul\":25599:25636   */\n      iszero\n      tag_437\n      jumpi\n        /* \"#utility.yul\":25616:25634   */\n      tag_438\n      tag_171\n      jump\t// in\n    tag_438:\n        /* \"#utility.yul\":25599:25636   */\n    tag_437:\n        /* \"#utility.yul\":25449:25643   */\n      swap3\n      swap2\n      pop\n      pop\n      jump\t// out\n        /* \"#utility.yul\":25649:25817   */\n    tag_193:\n        /* \"#utility.yul\":25789:25809   */\n      0x4e6f206c696b657320746f2072656d6f76650000000000000000000000000000\n        /* \"#utility.yul\":25785:25786   */\n      0x00\n        /* \"#utility.yul\":25777:25783   */\n      dup3\n        /* \"#utility.yul\":25773:25787   */\n      add\n        /* \"#utility.yul\":25766:25810   */\n      mstore\n        /* \"#utility.yul\":25649:25817   */\n      pop\n      jump\t// out\n        /* \"#utility.yul\":25823:26189   */\n    tag_194:\n        /* \"#utility.yul\":25965:25968   */\n      0x00\n        /* \"#utility.yul\":25986:26053   */\n      tag_441\n        /* \"#utility.yul\":26050:26052   */\n      0x12\n        /* \"#utility.yul\":26045:26048   */\n      dup4\n        /* \"#utility.yul\":25986:26053   */\n      tag_161\n      jump\t// in\n    tag_441:\n        /* \"#utility.yul\":25979:26053   */\n      swap2\n      pop\n        /* \"#utility.yul\":26062:26155   */\n      tag_442\n        /* \"#utility.yul\":26151:26154   */\n      dup3\n        /* \"#utility.yul\":26062:26155   */\n      tag_193\n      jump\t// in\n    tag_442:\n        /* \"#utility.yul\":26180:26182   */\n      0x20\n        /* \"#utility.yul\":26175:26178   */\n      dup3\n        /* \"#utility.yul\":26171:26183   */\n      add\n        /* \"#utility.yul\":26164:26183   */\n      swap1\n      pop\n        /* \"#utility.yul\":25823:26189   */\n      swap2\n      swap1\n      pop\n      jump\t// out\n        /* \"#utility.yul\":26195:26614   */\n    tag_105:\n        /* \"#utility.yul\":26361:26365   */\n      0x00\n        /* \"#utility.yul\":26399:26401   */\n      0x20\n        /* \"#utility.yul\":26388:26397   */\n      dup3\n        /* \"#utility.yul\":26384:26402   */\n      add\n        /* \"#utility.yul\":26376:26402   */\n      swap1\n      pop\n        /* \"#utility.yul\":26448:26457   */\n      dup2\n        /* \"#utility.yul\":26442:26446   */\n      dup2\n        /* \"#utility.yul\":26438:26458   */\n      sub\n        /* \"#utility.yul\":26434:26435   */\n      0x00\n        /* \"#utility.yul\":26423:26432   */\n      dup4\n        /* \"#utility.yul\":26419:26436   */\n      add\n        /* \"#utility.yul\":26412:26459   */\n      mstore\n        /* \"#utility.yul\":26476:26607   */\n      tag_444\n        /* \"#utility.yul\":26602:26606   */\n      dup2\n        /* \"#utility.yul\":26476:26607   */\n      tag_194\n      jump\t// in\n    tag_444:\n        /* \"#utility.yul\":26468:26607   */\n      swap1\n      pop\n        /* \"#utility.yul\":26195:26614   */\n      swap2\n      swap1\n      pop\n      jump\t// out\n        /* \"#utility.yul\":26620:26791   */\n    tag_107:\n        /* \"#utility.yul\":26659:26662   */\n      0x00\n        /* \"#utility.yul\":26682:26706   */\n      tag_446\n        /* \"#utility.yul\":26700:26705   */\n      dup3\n        /* \"#utility.yul\":26682:26706   */\n      tag_129\n      jump\t// in\n    tag_446:\n        /* \"#utility.yul\":26673:26706   */\n      swap2\n      pop\n        /* \"#utility.yul\":26728:26732   */\n      0x00\n        /* \"#utility.yul\":26721:26726   */\n      dup3\n        /* \"#utility.yul\":26718:26733   */\n      sub\n        /* \"#utility.yul\":26715:26756   */\n      tag_447\n      jumpi\n        /* \"#utility.yul\":26736:26754   */\n      tag_448\n      tag_171\n      jump\t// in\n    tag_448:\n        /* \"#utility.yul\":26715:26756   */\n    tag_447:\n        /* \"#utility.yul\":26783:26784   */\n      0x01\n        /* \"#utility.yul\":26776:26781   */\n      dup3\n        /* \"#utility.yul\":26772:26785   */\n      sub\n        /* \"#utility.yul\":26765:26785   */\n      swap1\n      pop\n        /* \"#utility.yul\":26620:26791   */\n      swap2\n      swap1\n      pop\n      jump\t// out\n        /* \"#utility.yul\":26797:27129   */\n    tag_109:\n        /* \"#utility.yul\":26918:26922   */\n      0x00\n        /* \"#utility.yul\":26956:26958   */\n      0x40\n        /* \"#utility.yul\":26945:26954   */\n      dup3\n        /* \"#utility.yul\":26941:26959   */\n      add\n        /* \"#utility.yul\":26933:26959   */\n      swap1\n      pop\n        /* \"#utility.yul\":26969:27040   */\n      tag_450\n        /* \"#utility.yul\":27037:27038   */\n      0x00\n        /* \"#utility.yul\":27026:27035   */\n      dup4\n        /* \"#utility.yul\":27022:27039   */\n      add\n        /* \"#utility.yul\":27013:27019   */\n      dup6\n        /* \"#utility.yul\":26969:27040   */\n      tag_187\n      jump\t// in\n    tag_450:\n        /* \"#utility.yul\":27050:27122   */\n      tag_451\n        /* \"#utility.yul\":27118:27120   */\n      0x20\n        /* \"#utility.yul\":27107:27116   */\n      dup4\n        /* \"#utility.yul\":27103:27121   */\n      add\n        /* \"#utility.yul\":27094:27100   */\n      dup5\n        /* \"#utility.yul\":27050:27122   */\n      tag_187\n      jump\t// in\n    tag_451:\n        /* \"#utility.yul\":26797:27129   */\n      swap4\n      swap3\n      pop\n      pop\n      pop\n      jump\t// out\n        /* \"#utility.yul\":27135:27368   */\n    tag_120:\n        /* \"#utility.yul\":27174:27177   */\n      0x00\n        /* \"#utility.yul\":27197:27221   */\n      tag_453\n        /* \"#utility.yul\":27215:27220   */\n      dup3\n        /* \"#utility.yul\":27197:27221   */\n      tag_129\n      jump\t// in\n    tag_453:\n        /* \"#utility.yul\":27188:27221   */\n      swap2\n      pop\n        /* \"#utility.yul\":27243:27309   */\n      0xffffffffffffffffffffffffffffffffffffffffffffffffffffffffffffffff\n        /* \"#utility.yul\":27236:27241   */\n      dup3\n        /* \"#utility.yul\":27233:27310   */\n      sub\n        /* \"#utility.yul\":27230:27333   */\n      tag_454\n      jumpi\n        /* \"#utility.yul\":27313:27331   */\n      tag_455\n      tag_171\n      jump\t// in\n    tag_455:\n        /* \"#utility.yul\":27230:27333   */\n    tag_454:\n        /* \"#utility.yul\":27360:27361   */\n      0x01\n        /* \"#utility.yul\":27353:27358   */\n      dup3\n        /* \"#utility.yul\":27349:27362   */\n      add\n        /* \"#utility.yul\":27342:27362   */\n      swap1\n      pop\n        /* \"#utility.yul\":27135:27368   */\n      swap2\n      swap1\n      pop\n      jump\t// out\n\n    auxdata: 0xa26469706673582212202c98f5f2b133ab85aa37e4ed3a80203637b8678ee1bb4dc5ca71b965acb0578a64736f6c634300081a0033\n}\n",
				"bytecode": {
					"linkReferences": {},
					"object": "60806040526101185f806101000a81548161ffff021916908361ffff160217905550348015602b575f80fd5b503360025f6101000a81548173ffffffffffffffffffffffffffffffffffffffff021916908373ffffffffffffffffffffffffffffffffffffffff1602179055506119fc806100795f395ff3fe608060405234801561000f575f80fd5b5060043610610086575f3560e01c80637c9cd2bc116100595780637c9cd2bc146101245780638da5cb5b14610140578063a1488f7c1461015e578063d04ddaa01461017a57610086565b8063112f54e31461008a57806312e7ee1c146100ba57806358bfa4ab146100ea5780636eb1079714610106575b5f80fd5b6100a4600480360381019061009f9190610cf4565b610196565b6040516100b19190610e33565b60405180910390f35b6100d460048036038101906100cf9190610e53565b610390565b6040516100e19190610fac565b60405180910390f35b61010460048036038101906100ff9190611003565b61052b565b005b61010e6105d8565b60405161011b919061103d565b60405180910390f35b61013e60048036038101906101399190611182565b6105e9565b005b61014861083a565b60405161015591906111d8565b60405180910390f35b610178600480360381019061017391906111f1565b61085f565b005b610194600480360381019061018f91906111f1565b610a5d565b005b61019e610c15565b60015f8473ffffffffffffffffffffffffffffffffffffffff1673ffffffffffffffffffffffffffffffffffffffff1681526020019081526020015f20805490508210610220576040517f08c379a000000000000000000000000000000000000000000000000000000000815260040161021790611289565b60405180910390fd5b60015f8473ffffffffffffffffffffffffffffffffffffffff1673ffffffffffffffffffffffffffffffffffffffff1681526020019081526020015f20828154811061026f5761026e6112a7565b5b905f5260205f2090600502016040518060a00160405290815f8201548152602001600182015f9054906101000a900473ffffffffffffffffffffffffffffffffffffffff1673ffffffffffffffffffffffffffffffffffffffff1673ffffffffffffffffffffffffffffffffffffffff1681526020016002820180546102f490611301565b80601f016020809104026020016040519081016040528092919081815260200182805461032090611301565b801561036b5780601f106103425761010080835404028352916020019161036b565b820191905f5260205f20905b81548152906001019060200180831161034e57829003601f168201915b5050505050815260200160038201548152602001600482015481525050905092915050565b606060015f8373ffffffffffffffffffffffffffffffffffffffff1673ffffffffffffffffffffffffffffffffffffffff1681526020019081526020015f20805480602002602001604051908101604052809291908181526020015f905b82821015610520578382905f5260205f2090600502016040518060a00160405290815f8201548152602001600182015f9054906101000a900473ffffffffffffffffffffffffffffffffffffffff1673ffffffffffffffffffffffffffffffffffffffff1673ffffffffffffffffffffffffffffffffffffffff16815260200160028201805461047d90611301565b80601f01602080910402602001604051908101604052809291908181526020018280546104a990611301565b80156104f45780601f106104cb576101008083540402835291602001916104f4565b820191905f5260205f20905b8154815290600101906020018083116104d757829003601f168201915b5050505050815260200160038201548152602001600482015481525050815260200190600101906103ee565b505050509050919050565b60025f9054906101000a900473ffffffffffffffffffffffffffffffffffffffff1673ffffffffffffffffffffffffffffffffffffffff163373ffffffffffffffffffffffffffffffffffffffff16146105ba576040517f08c379a00000000000000000000000000000000000000000000000000000000081526004016105b19061137b565b60405180910390fd5b805f806101000a81548161ffff021916908361ffff16021790555050565b5f8054906101000a900461ffff1681565b5f81511161062c576040517f08c379a0000000000000000000000000000000000000000000000000000000008152600401610623906113e3565b60405180910390fd5b5f8054906101000a900461ffff1661ffff1681511115610681576040517f08c379a00000000000000000000000000000000000000000000000000000000081526004016106789061144b565b60405180910390fd5b5f6040518060a001604052806001805f3373ffffffffffffffffffffffffffffffffffffffff1673ffffffffffffffffffffffffffffffffffffffff1681526020019081526020015f20805490506106d99190611496565b81526020013373ffffffffffffffffffffffffffffffffffffffff1681526020018381526020014281526020015f815250905060015f3373ffffffffffffffffffffffffffffffffffffffff1673ffffffffffffffffffffffffffffffffffffffff1681526020019081526020015f2081908060018154018082558091505060019003905f5260205f2090600502015f909190919091505f820151815f01556020820151816001015f6101000a81548173ffffffffffffffffffffffffffffffffffffffff021916908373ffffffffffffffffffffffffffffffffffffffff16021790555060408201518160020190816107d39190611666565b50606082015181600301556080820151816004015550507f16fd3c13e9d46923e0a8bce11c7b473ec508a72e6c96cd2404b29ce972afc29e815f015182602001518360400151846060015160405161082e949392919061177c565b60405180910390a15050565b60025f9054906101000a900473ffffffffffffffffffffffffffffffffffffffff1681565b5f82116108a1576040517f08c379a000000000000000000000000000000000000000000000000000000000815260040161089890611810565b60405180910390fd5b60015f8273ffffffffffffffffffffffffffffffffffffffff1673ffffffffffffffffffffffffffffffffffffffff1681526020019081526020015f2080549050821115610924576040517f08c379a000000000000000000000000000000000000000000000000000000000815260040161091b90611878565b60405180910390fd5b5f60015f8373ffffffffffffffffffffffffffffffffffffffff1673ffffffffffffffffffffffffffffffffffffffff1681526020019081526020015f2060018461096f9190611896565b815481106109805761097f6112a7565b5b905f5260205f20906005020190505f8160040154116109d4576040517f08c379a00000000000000000000000000000000000000000000000000000000081526004016109cb90611913565b60405180910390fd5b806004015f8154809291906109e890611931565b91905055508173ffffffffffffffffffffffffffffffffffffffff163373ffffffffffffffffffffffffffffffffffffffff167f762c2616349603ac16eba0de8e6141b79129a07ab63bd99e0a80b3a471716943858460040154604051610a50929190611958565b60405180910390a3505050565b5f8211610a9f576040517f08c379a0000000000000000000000000000000000000000000000000000000008152600401610a9690611810565b60405180910390fd5b60015f8273ffffffffffffffffffffffffffffffffffffffff1673ffffffffffffffffffffffffffffffffffffffff1681526020019081526020015f2080549050821115610b22576040517f08c379a0000000000000000000000000000000000000000000000000000000008152600401610b1990611878565b60405180910390fd5b5f60015f8373ffffffffffffffffffffffffffffffffffffffff1673ffffffffffffffffffffffffffffffffffffffff1681526020019081526020015f20600184610b6d9190611896565b81548110610b7e57610b7d6112a7565b5b905f5260205f2090600502019050806004015f815480929190610ba09061197f565b91905055508173ffffffffffffffffffffffffffffffffffffffff163373ffffffffffffffffffffffffffffffffffffffff167fe8a76fc0f16d11a00d1e93b689b63d76cf60af914dd3d915375dc41d01a0c3c8858460040154604051610c08929190611958565b60405180910390a3505050565b6040518060a001604052805f81526020015f73ffffffffffffffffffffffffffffffffffffffff168152602001606081526020015f81526020015f81525090565b5f604051905090565b5f80fd5b5f80fd5b5f73ffffffffffffffffffffffffffffffffffffffff82169050919050565b5f610c9082610c67565b9050919050565b610ca081610c86565b8114610caa575f80fd5b50565b5f81359050610cbb81610c97565b92915050565b5f819050919050565b610cd381610cc1565b8114610cdd575f80fd5b50565b5f81359050610cee81610cca565b92915050565b5f8060408385031215610d0a57610d09610c5f565b5b5f610d1785828601610cad565b9250506020610d2885828601610ce0565b9150509250929050565b610d3b81610cc1565b82525050565b610d4a81610c86565b82525050565b5f81519050919050565b5f82825260208201905092915050565b8281835e5f83830152505050565b5f601f19601f8301169050919050565b5f610d9282610d50565b610d9c8185610d5a565b9350610dac818560208601610d6a565b610db581610d78565b840191505092915050565b5f60a083015f830151610dd55f860182610d32565b506020830151610de86020860182610d41565b5060408301518482036040860152610e008282610d88565b9150506060830151610e156060860182610d32565b506080830151610e286080860182610d32565b508091505092915050565b5f6020820190508181035f830152610e4b8184610dc0565b905092915050565b5f60208284031215610e6857610e67610c5f565b5b5f610e7584828501610cad565b91505092915050565b5f81519050919050565b5f82825260208201905092915050565b5f819050602082019050919050565b5f60a083015f830151610ebc5f860182610d32565b506020830151610ecf6020860182610d41565b5060408301518482036040860152610ee78282610d88565b9150506060830151610efc6060860182610d32565b506080830151610f0f6080860182610d32565b508091505092915050565b5f610f258383610ea7565b905092915050565b5f602082019050919050565b5f610f4382610e7e565b610f4d8185610e88565b935083602082028501610f5f85610e98565b805f5b85811015610f9a5784840389528151610f7b8582610f1a565b9450610f8683610f2d565b925060208a01995050600181019050610f62565b50829750879550505050505092915050565b5f6020820190508181035f830152610fc48184610f39565b905092915050565b5f61ffff82169050919050565b610fe281610fcc565b8114610fec575f80fd5b50565b5f81359050610ffd81610fd9565b92915050565b5f6020828403121561101857611017610c5f565b5b5f61102584828501610fef565b91505092915050565b61103781610fcc565b82525050565b5f6020820190506110505f83018461102e565b92915050565b5f80fd5b5f80fd5b7f4e487b71000000000000000000000000000000000000000000000000000000005f52604160045260245ffd5b61109482610d78565b810181811067ffffffffffffffff821117156110b3576110b261105e565b5b80604052505050565b5f6110c5610c56565b90506110d1828261108b565b919050565b5f67ffffffffffffffff8211156110f0576110ef61105e565b5b6110f982610d78565b9050602081019050919050565b828183375f83830152505050565b5f611126611121846110d6565b6110bc565b9050828152602081018484840111156111425761114161105a565b5b61114d848285611106565b509392505050565b5f82601f83011261116957611168611056565b5b8135611179848260208601611114565b91505092915050565b5f6020828403121561119757611196610c5f565b5b5f82013567ffffffffffffffff8111156111b4576111b3610c63565b5b6111c084828501611155565b91505092915050565b6111d281610c86565b82525050565b5f6020820190506111eb5f8301846111c9565b92915050565b5f806040838503121561120757611206610c5f565b5b5f61121485828601610ce0565b925050602061122585828601610cad565b9150509250929050565b5f82825260208201905092915050565b7f496e76616c696420747765657420696e646578000000000000000000000000005f82015250565b5f61127360138361122f565b915061127e8261123f565b602082019050919050565b5f6020820190508181035f8301526112a081611267565b9050919050565b7f4e487b71000000000000000000000000000000000000000000000000000000005f52603260045260245ffd5b7f4e487b71000000000000000000000000000000000000000000000000000000005f52602260045260245ffd5b5f600282049050600182168061131857607f821691505b60208210810361132b5761132a6112d4565b5b50919050565b7f596f75206172656e277420746865206f776e65722100000000000000000000005f82015250565b5f61136560158361122f565b915061137082611331565b602082019050919050565b5f6020820190508181035f83015261139281611359565b9050919050565b7f547765657420636f6e74656e742063616e6e6f7420626520656d7074790000005f82015250565b5f6113cd601d8361122f565b91506113d882611399565b602082019050919050565b5f6020820190508181035f8301526113fa816113c1565b9050919050565b7f547765657420697320746f6f206c6f6e670000000000000000000000000000005f82015250565b5f61143560118361122f565b915061144082611401565b602082019050919050565b5f6020820190508181035f83015261146281611429565b9050919050565b7f4e487b71000000000000000000000000000000000000000000000000000000005f52601160045260245ffd5b5f6114a082610cc1565b91506114ab83610cc1565b92508282019050808211156114c3576114c2611469565b5b92915050565b5f819050815f5260205f209050919050565b5f6020601f8301049050919050565b5f82821b905092915050565b5f600883026115257fffffffffffffffffffffffffffffffffffffffffffffffffffffffffffffffff826114ea565b61152f86836114ea565b95508019841693508086168417925050509392505050565b5f819050919050565b5f61156a61156561156084610cc1565b611547565b610cc1565b9050919050565b5f819050919050565b61158383611550565b61159761158f82611571565b8484546114f6565b825550505050565b5f90565b6115ab61159f565b6115b681848461157a565b505050565b5b818110156115d9576115ce5f826115a3565b6001810190506115bc565b5050565b601f82111561161e576115ef816114c9565b6115f8846114db565b81016020851015611607578190505b61161b611613856114db565b8301826115bb565b50505b505050565b5f82821c905092915050565b5f61163e5f1984600802611623565b1980831691505092915050565b5f611656838361162f565b9150826002028217905092915050565b61166f82610d50565b67ffffffffffffffff8111156116885761168761105e565b5b6116928254611301565b61169d8282856115dd565b5f60209050601f8311600181146116ce575f84156116bc578287015190505b6116c6858261164b565b86555061172d565b601f1984166116dc866114c9565b5f5b82811015611703578489015182556001820191506020850194506020810190506116de565b86831015611720578489015161171c601f89168261162f565b8355505b6001600288020188555050505b505050505050565b61173e81610cc1565b82525050565b5f61174e82610d50565b611758818561122f565b9350611768818560208601610d6a565b61177181610d78565b840191505092915050565b5f60808201905061178f5f830187611735565b61179c60208301866111c9565b81810360408301526117ae8185611744565b90506117bd6060830184611735565b95945050505050565b7f496e76616c6964207477656574204944000000000000000000000000000000005f82015250565b5f6117fa60108361122f565b9150611805826117c6565b602082019050919050565b5f6020820190508181035f830152611827816117ee565b9050919050565b7f547765657420646f65736e2774206578697374000000000000000000000000005f82015250565b5f61186260138361122f565b915061186d8261182e565b602082019050919050565b5f6020820190508181035f83015261188f81611856565b9050919050565b5f6118a082610cc1565b91506118ab83610cc1565b92508282039050818111156118c3576118c2611469565b5b92915050565b7f4e6f206c696b657320746f2072656d6f766500000000000000000000000000005f82015250565b5f6118fd60128361122f565b9150611908826118c9565b602082019050919050565b5f6020820190508181035f83015261192a816118f1565b9050919050565b5f61193b82610cc1565b91505f820361194d5761194c611469565b5b600182039050919050565b5f60408201905061196b5f830185611735565b6119786020830184611735565b9392505050565b5f61198982610cc1565b91507fffffffffffffffffffffffffffffffffffffffffffffffffffffffffffffffff82036119bb576119ba611469565b5b60018201905091905056fea26469706673582212202c98f5f2b133ab85aa37e4ed3a80203637b8678ee1bb4dc5ca71b965acb0578a64736f6c634300081a0033",
					"opcodes": "PUSH1 0x80 PUSH1 0x40 MSTORE PUSH2 0x118 PUSH0 DUP1 PUSH2 0x100 EXP DUP2 SLOAD DUP2 PUSH2 0xFFFF MUL NOT AND SWAP1 DUP4 PUSH2 0xFFFF AND MUL OR SWAP1 SSTORE POP CALLVALUE DUP1 ISZERO PUSH1 0x2B JUMPI PUSH0 DUP1 REVERT JUMPDEST POP CALLER PUSH1 0x2 PUSH0 PUSH2 0x100 EXP DUP2 SLOAD DUP2 PUSH20 0xFFFFFFFFFFFFFFFFFFFFFFFFFFFFFFFFFFFFFFFF MUL NOT AND SWAP1 DUP4 PUSH20 0xFFFFFFFFFFFFFFFFFFFFFFFFFFFFFFFFFFFFFFFF AND MUL OR SWAP1 SSTORE POP PUSH2 0x19FC DUP1 PUSH2 0x79 PUSH0 CODECOPY PUSH0 RETURN INVALID PUSH1 0x80 PUSH1 0x40 MSTORE CALLVALUE DUP1 ISZERO PUSH2 0xF JUMPI PUSH0 DUP1 REVERT JUMPDEST POP PUSH1 0x4 CALLDATASIZE LT PUSH2 0x86 JUMPI PUSH0 CALLDATALOAD PUSH1 0xE0 SHR DUP1 PUSH4 0x7C9CD2BC GT PUSH2 0x59 JUMPI DUP1 PUSH4 0x7C9CD2BC EQ PUSH2 0x124 JUMPI DUP1 PUSH4 0x8DA5CB5B EQ PUSH2 0x140 JUMPI DUP1 PUSH4 0xA1488F7C EQ PUSH2 0x15E JUMPI DUP1 PUSH4 0xD04DDAA0 EQ PUSH2 0x17A JUMPI PUSH2 0x86 JUMP JUMPDEST DUP1 PUSH4 0x112F54E3 EQ PUSH2 0x8A JUMPI DUP1 PUSH4 0x12E7EE1C EQ PUSH2 0xBA JUMPI DUP1 PUSH4 0x58BFA4AB EQ PUSH2 0xEA JUMPI DUP1 PUSH4 0x6EB10797 EQ PUSH2 0x106 JUMPI JUMPDEST PUSH0 DUP1 REVERT JUMPDEST PUSH2 0xA4 PUSH1 0x4 DUP1 CALLDATASIZE SUB DUP2 ADD SWAP1 PUSH2 0x9F SWAP2 SWAP1 PUSH2 0xCF4 JUMP JUMPDEST PUSH2 0x196 JUMP JUMPDEST PUSH1 0x40 MLOAD PUSH2 0xB1 SWAP2 SWAP1 PUSH2 0xE33 JUMP JUMPDEST PUSH1 0x40 MLOAD DUP1 SWAP2 SUB SWAP1 RETURN JUMPDEST PUSH2 0xD4 PUSH1 0x4 DUP1 CALLDATASIZE SUB DUP2 ADD SWAP1 PUSH2 0xCF SWAP2 SWAP1 PUSH2 0xE53 JUMP JUMPDEST PUSH2 0x390 JUMP JUMPDEST PUSH1 0x40 MLOAD PUSH2 0xE1 SWAP2 SWAP1 PUSH2 0xFAC JUMP JUMPDEST PUSH1 0x40 MLOAD DUP1 SWAP2 SUB SWAP1 RETURN JUMPDEST PUSH2 0x104 PUSH1 0x4 DUP1 CALLDATASIZE SUB DUP2 ADD SWAP1 PUSH2 0xFF SWAP2 SWAP1 PUSH2 0x1003 JUMP JUMPDEST PUSH2 0x52B JUMP JUMPDEST STOP JUMPDEST PUSH2 0x10E PUSH2 0x5D8 JUMP JUMPDEST PUSH1 0x40 MLOAD PUSH2 0x11B SWAP2 SWAP1 PUSH2 0x103D JUMP JUMPDEST PUSH1 0x40 MLOAD DUP1 SWAP2 SUB SWAP1 RETURN JUMPDEST PUSH2 0x13E PUSH1 0x4 DUP1 CALLDATASIZE SUB DUP2 ADD SWAP1 PUSH2 0x139 SWAP2 SWAP1 PUSH2 0x1182 JUMP JUMPDEST PUSH2 0x5E9 JUMP JUMPDEST STOP JUMPDEST PUSH2 0x148 PUSH2 0x83A JUMP JUMPDEST PUSH1 0x40 MLOAD PUSH2 0x155 SWAP2 SWAP1 PUSH2 0x11D8 JUMP JUMPDEST PUSH1 0x40 MLOAD DUP1 SWAP2 SUB SWAP1 RETURN JUMPDEST PUSH2 0x178 PUSH1 0x4 DUP1 CALLDATASIZE SUB DUP2 ADD SWAP1 PUSH2 0x173 SWAP2 SWAP1 PUSH2 0x11F1 JUMP JUMPDEST PUSH2 0x85F JUMP JUMPDEST STOP JUMPDEST PUSH2 0x194 PUSH1 0x4 DUP1 CALLDATASIZE SUB DUP2 ADD SWAP1 PUSH2 0x18F SWAP2 SWAP1 PUSH2 0x11F1 JUMP JUMPDEST PUSH2 0xA5D JUMP JUMPDEST STOP JUMPDEST PUSH2 0x19E PUSH2 0xC15 JUMP JUMPDEST PUSH1 0x1 PUSH0 DUP5 PUSH20 0xFFFFFFFFFFFFFFFFFFFFFFFFFFFFFFFFFFFFFFFF AND PUSH20 0xFFFFFFFFFFFFFFFFFFFFFFFFFFFFFFFFFFFFFFFF AND DUP2 MSTORE PUSH1 0x20 ADD SWAP1 DUP2 MSTORE PUSH1 0x20 ADD PUSH0 KECCAK256 DUP1 SLOAD SWAP1 POP DUP3 LT PUSH2 0x220 JUMPI PUSH1 0x40 MLOAD PUSH32 0x8C379A000000000000000000000000000000000000000000000000000000000 DUP2 MSTORE PUSH1 0x4 ADD PUSH2 0x217 SWAP1 PUSH2 0x1289 JUMP JUMPDEST PUSH1 0x40 MLOAD DUP1 SWAP2 SUB SWAP1 REVERT JUMPDEST PUSH1 0x1 PUSH0 DUP5 PUSH20 0xFFFFFFFFFFFFFFFFFFFFFFFFFFFFFFFFFFFFFFFF AND PUSH20 0xFFFFFFFFFFFFFFFFFFFFFFFFFFFFFFFFFFFFFFFF AND DUP2 MSTORE PUSH1 0x20 ADD SWAP1 DUP2 MSTORE PUSH1 0x20 ADD PUSH0 KECCAK256 DUP3 DUP2 SLOAD DUP2 LT PUSH2 0x26F JUMPI PUSH2 0x26E PUSH2 0x12A7 JUMP JUMPDEST JUMPDEST SWAP1 PUSH0 MSTORE PUSH1 0x20 PUSH0 KECCAK256 SWAP1 PUSH1 0x5 MUL ADD PUSH1 0x40 MLOAD DUP1 PUSH1 0xA0 ADD PUSH1 0x40 MSTORE SWAP1 DUP2 PUSH0 DUP3 ADD SLOAD DUP2 MSTORE PUSH1 0x20 ADD PUSH1 0x1 DUP3 ADD PUSH0 SWAP1 SLOAD SWAP1 PUSH2 0x100 EXP SWAP1 DIV PUSH20 0xFFFFFFFFFFFFFFFFFFFFFFFFFFFFFFFFFFFFFFFF AND PUSH20 0xFFFFFFFFFFFFFFFFFFFFFFFFFFFFFFFFFFFFFFFF AND PUSH20 0xFFFFFFFFFFFFFFFFFFFFFFFFFFFFFFFFFFFFFFFF AND DUP2 MSTORE PUSH1 0x20 ADD PUSH1 0x2 DUP3 ADD DUP1 SLOAD PUSH2 0x2F4 SWAP1 PUSH2 0x1301 JUMP JUMPDEST DUP1 PUSH1 0x1F ADD PUSH1 0x20 DUP1 SWAP2 DIV MUL PUSH1 0x20 ADD PUSH1 0x40 MLOAD SWAP1 DUP2 ADD PUSH1 0x40 MSTORE DUP1 SWAP3 SWAP2 SWAP1 DUP2 DUP2 MSTORE PUSH1 0x20 ADD DUP3 DUP1 SLOAD PUSH2 0x320 SWAP1 PUSH2 0x1301 JUMP JUMPDEST DUP1 ISZERO PUSH2 0x36B JUMPI DUP1 PUSH1 0x1F LT PUSH2 0x342 JUMPI PUSH2 0x100 DUP1 DUP4 SLOAD DIV MUL DUP4 MSTORE SWAP2 PUSH1 0x20 ADD SWAP2 PUSH2 0x36B JUMP JUMPDEST DUP3 ADD SWAP2 SWAP1 PUSH0 MSTORE PUSH1 0x20 PUSH0 KECCAK256 SWAP1 JUMPDEST DUP2 SLOAD DUP2 MSTORE SWAP1 PUSH1 0x1 ADD SWAP1 PUSH1 0x20 ADD DUP1 DUP4 GT PUSH2 0x34E JUMPI DUP3 SWAP1 SUB PUSH1 0x1F AND DUP3 ADD SWAP2 JUMPDEST POP POP POP POP POP DUP2 MSTORE PUSH1 0x20 ADD PUSH1 0x3 DUP3 ADD SLOAD DUP2 MSTORE PUSH1 0x20 ADD PUSH1 0x4 DUP3 ADD SLOAD DUP2 MSTORE POP POP SWAP1 POP SWAP3 SWAP2 POP POP JUMP JUMPDEST PUSH1 0x60 PUSH1 0x1 PUSH0 DUP4 PUSH20 0xFFFFFFFFFFFFFFFFFFFFFFFFFFFFFFFFFFFFFFFF AND PUSH20 0xFFFFFFFFFFFFFFFFFFFFFFFFFFFFFFFFFFFFFFFF AND DUP2 MSTORE PUSH1 0x20 ADD SWAP1 DUP2 MSTORE PUSH1 0x20 ADD PUSH0 KECCAK256 DUP1 SLOAD DUP1 PUSH1 0x20 MUL PUSH1 0x20 ADD PUSH1 0x40 MLOAD SWAP1 DUP2 ADD PUSH1 0x40 MSTORE DUP1 SWAP3 SWAP2 SWAP1 DUP2 DUP2 MSTORE PUSH1 0x20 ADD PUSH0 SWAP1 JUMPDEST DUP3 DUP3 LT ISZERO PUSH2 0x520 JUMPI DUP4 DUP3 SWAP1 PUSH0 MSTORE PUSH1 0x20 PUSH0 KECCAK256 SWAP1 PUSH1 0x5 MUL ADD PUSH1 0x40 MLOAD DUP1 PUSH1 0xA0 ADD PUSH1 0x40 MSTORE SWAP1 DUP2 PUSH0 DUP3 ADD SLOAD DUP2 MSTORE PUSH1 0x20 ADD PUSH1 0x1 DUP3 ADD PUSH0 SWAP1 SLOAD SWAP1 PUSH2 0x100 EXP SWAP1 DIV PUSH20 0xFFFFFFFFFFFFFFFFFFFFFFFFFFFFFFFFFFFFFFFF AND PUSH20 0xFFFFFFFFFFFFFFFFFFFFFFFFFFFFFFFFFFFFFFFF AND PUSH20 0xFFFFFFFFFFFFFFFFFFFFFFFFFFFFFFFFFFFFFFFF AND DUP2 MSTORE PUSH1 0x20 ADD PUSH1 0x2 DUP3 ADD DUP1 SLOAD PUSH2 0x47D SWAP1 PUSH2 0x1301 JUMP JUMPDEST DUP1 PUSH1 0x1F ADD PUSH1 0x20 DUP1 SWAP2 DIV MUL PUSH1 0x20 ADD PUSH1 0x40 MLOAD SWAP1 DUP2 ADD PUSH1 0x40 MSTORE DUP1 SWAP3 SWAP2 SWAP1 DUP2 DUP2 MSTORE PUSH1 0x20 ADD DUP3 DUP1 SLOAD PUSH2 0x4A9 SWAP1 PUSH2 0x1301 JUMP JUMPDEST DUP1 ISZERO PUSH2 0x4F4 JUMPI DUP1 PUSH1 0x1F LT PUSH2 0x4CB JUMPI PUSH2 0x100 DUP1 DUP4 SLOAD DIV MUL DUP4 MSTORE SWAP2 PUSH1 0x20 ADD SWAP2 PUSH2 0x4F4 JUMP JUMPDEST DUP3 ADD SWAP2 SWAP1 PUSH0 MSTORE PUSH1 0x20 PUSH0 KECCAK256 SWAP1 JUMPDEST DUP2 SLOAD DUP2 MSTORE SWAP1 PUSH1 0x1 ADD SWAP1 PUSH1 0x20 ADD DUP1 DUP4 GT PUSH2 0x4D7 JUMPI DUP3 SWAP1 SUB PUSH1 0x1F AND DUP3 ADD SWAP2 JUMPDEST POP POP POP POP POP DUP2 MSTORE PUSH1 0x20 ADD PUSH1 0x3 DUP3 ADD SLOAD DUP2 MSTORE PUSH1 0x20 ADD PUSH1 0x4 DUP3 ADD SLOAD DUP2 MSTORE POP POP DUP2 MSTORE PUSH1 0x20 ADD SWAP1 PUSH1 0x1 ADD SWAP1 PUSH2 0x3EE JUMP JUMPDEST POP POP POP POP SWAP1 POP SWAP2 SWAP1 POP JUMP JUMPDEST PUSH1 0x2 PUSH0 SWAP1 SLOAD SWAP1 PUSH2 0x100 EXP SWAP1 DIV PUSH20 0xFFFFFFFFFFFFFFFFFFFFFFFFFFFFFFFFFFFFFFFF AND PUSH20 0xFFFFFFFFFFFFFFFFFFFFFFFFFFFFFFFFFFFFFFFF AND CALLER PUSH20 0xFFFFFFFFFFFFFFFFFFFFFFFFFFFFFFFFFFFFFFFF AND EQ PUSH2 0x5BA JUMPI PUSH1 0x40 MLOAD PUSH32 0x8C379A000000000000000000000000000000000000000000000000000000000 DUP2 MSTORE PUSH1 0x4 ADD PUSH2 0x5B1 SWAP1 PUSH2 0x137B JUMP JUMPDEST PUSH1 0x40 MLOAD DUP1 SWAP2 SUB SWAP1 REVERT JUMPDEST DUP1 PUSH0 DUP1 PUSH2 0x100 EXP DUP2 SLOAD DUP2 PUSH2 0xFFFF MUL NOT AND SWAP1 DUP4 PUSH2 0xFFFF AND MUL OR SWAP1 SSTORE POP POP JUMP JUMPDEST PUSH0 DUP1 SLOAD SWAP1 PUSH2 0x100 EXP SWAP1 DIV PUSH2 0xFFFF AND DUP2 JUMP JUMPDEST PUSH0 DUP2 MLOAD GT PUSH2 0x62C JUMPI PUSH1 0x40 MLOAD PUSH32 0x8C379A000000000000000000000000000000000000000000000000000000000 DUP2 MSTORE PUSH1 0x4 ADD PUSH2 0x623 SWAP1 PUSH2 0x13E3 JUMP JUMPDEST PUSH1 0x40 MLOAD DUP1 SWAP2 SUB SWAP1 REVERT JUMPDEST PUSH0 DUP1 SLOAD SWAP1 PUSH2 0x100 EXP SWAP1 DIV PUSH2 0xFFFF AND PUSH2 0xFFFF AND DUP2 MLOAD GT ISZERO PUSH2 0x681 JUMPI PUSH1 0x40 MLOAD PUSH32 0x8C379A000000000000000000000000000000000000000000000000000000000 DUP2 MSTORE PUSH1 0x4 ADD PUSH2 0x678 SWAP1 PUSH2 0x144B JUMP JUMPDEST PUSH1 0x40 MLOAD DUP1 SWAP2 SUB SWAP1 REVERT JUMPDEST PUSH0 PUSH1 0x40 MLOAD DUP1 PUSH1 0xA0 ADD PUSH1 0x40 MSTORE DUP1 PUSH1 0x1 DUP1 PUSH0 CALLER PUSH20 0xFFFFFFFFFFFFFFFFFFFFFFFFFFFFFFFFFFFFFFFF AND PUSH20 0xFFFFFFFFFFFFFFFFFFFFFFFFFFFFFFFFFFFFFFFF AND DUP2 MSTORE PUSH1 0x20 ADD SWAP1 DUP2 MSTORE PUSH1 0x20 ADD PUSH0 KECCAK256 DUP1 SLOAD SWAP1 POP PUSH2 0x6D9 SWAP2 SWAP1 PUSH2 0x1496 JUMP JUMPDEST DUP2 MSTORE PUSH1 0x20 ADD CALLER PUSH20 0xFFFFFFFFFFFFFFFFFFFFFFFFFFFFFFFFFFFFFFFF AND DUP2 MSTORE PUSH1 0x20 ADD DUP4 DUP2 MSTORE PUSH1 0x20 ADD TIMESTAMP DUP2 MSTORE PUSH1 0x20 ADD PUSH0 DUP2 MSTORE POP SWAP1 POP PUSH1 0x1 PUSH0 CALLER PUSH20 0xFFFFFFFFFFFFFFFFFFFFFFFFFFFFFFFFFFFFFFFF AND PUSH20 0xFFFFFFFFFFFFFFFFFFFFFFFFFFFFFFFFFFFFFFFF AND DUP2 MSTORE PUSH1 0x20 ADD SWAP1 DUP2 MSTORE PUSH1 0x20 ADD PUSH0 KECCAK256 DUP2 SWAP1 DUP1 PUSH1 0x1 DUP2 SLOAD ADD DUP1 DUP3 SSTORE DUP1 SWAP2 POP POP PUSH1 0x1 SWAP1 SUB SWAP1 PUSH0 MSTORE PUSH1 0x20 PUSH0 KECCAK256 SWAP1 PUSH1 0x5 MUL ADD PUSH0 SWAP1 SWAP2 SWAP1 SWAP2 SWAP1 SWAP2 POP PUSH0 DUP3 ADD MLOAD DUP2 PUSH0 ADD SSTORE PUSH1 0x20 DUP3 ADD MLOAD DUP2 PUSH1 0x1 ADD PUSH0 PUSH2 0x100 EXP DUP2 SLOAD DUP2 PUSH20 0xFFFFFFFFFFFFFFFFFFFFFFFFFFFFFFFFFFFFFFFF MUL NOT AND SWAP1 DUP4 PUSH20 0xFFFFFFFFFFFFFFFFFFFFFFFFFFFFFFFFFFFFFFFF AND MUL OR SWAP1 SSTORE POP PUSH1 0x40 DUP3 ADD MLOAD DUP2 PUSH1 0x2 ADD SWAP1 DUP2 PUSH2 0x7D3 SWAP2 SWAP1 PUSH2 0x1666 JUMP JUMPDEST POP PUSH1 0x60 DUP3 ADD MLOAD DUP2 PUSH1 0x3 ADD SSTORE PUSH1 0x80 DUP3 ADD MLOAD DUP2 PUSH1 0x4 ADD SSTORE POP POP PUSH32 0x16FD3C13E9D46923E0A8BCE11C7B473EC508A72E6C96CD2404B29CE972AFC29E DUP2 PUSH0 ADD MLOAD DUP3 PUSH1 0x20 ADD MLOAD DUP4 PUSH1 0x40 ADD MLOAD DUP5 PUSH1 0x60 ADD MLOAD PUSH1 0x40 MLOAD PUSH2 0x82E SWAP5 SWAP4 SWAP3 SWAP2 SWAP1 PUSH2 0x177C JUMP JUMPDEST PUSH1 0x40 MLOAD DUP1 SWAP2 SUB SWAP1 LOG1 POP POP JUMP JUMPDEST PUSH1 0x2 PUSH0 SWAP1 SLOAD SWAP1 PUSH2 0x100 EXP SWAP1 DIV PUSH20 0xFFFFFFFFFFFFFFFFFFFFFFFFFFFFFFFFFFFFFFFF AND DUP2 JUMP JUMPDEST PUSH0 DUP3 GT PUSH2 0x8A1 JUMPI PUSH1 0x40 MLOAD PUSH32 0x8C379A000000000000000000000000000000000000000000000000000000000 DUP2 MSTORE PUSH1 0x4 ADD PUSH2 0x898 SWAP1 PUSH2 0x1810 JUMP JUMPDEST PUSH1 0x40 MLOAD DUP1 SWAP2 SUB SWAP1 REVERT JUMPDEST PUSH1 0x1 PUSH0 DUP3 PUSH20 0xFFFFFFFFFFFFFFFFFFFFFFFFFFFFFFFFFFFFFFFF AND PUSH20 0xFFFFFFFFFFFFFFFFFFFFFFFFFFFFFFFFFFFFFFFF AND DUP2 MSTORE PUSH1 0x20 ADD SWAP1 DUP2 MSTORE PUSH1 0x20 ADD PUSH0 KECCAK256 DUP1 SLOAD SWAP1 POP DUP3 GT ISZERO PUSH2 0x924 JUMPI PUSH1 0x40 MLOAD PUSH32 0x8C379A000000000000000000000000000000000000000000000000000000000 DUP2 MSTORE PUSH1 0x4 ADD PUSH2 0x91B SWAP1 PUSH2 0x1878 JUMP JUMPDEST PUSH1 0x40 MLOAD DUP1 SWAP2 SUB SWAP1 REVERT JUMPDEST PUSH0 PUSH1 0x1 PUSH0 DUP4 PUSH20 0xFFFFFFFFFFFFFFFFFFFFFFFFFFFFFFFFFFFFFFFF AND PUSH20 0xFFFFFFFFFFFFFFFFFFFFFFFFFFFFFFFFFFFFFFFF AND DUP2 MSTORE PUSH1 0x20 ADD SWAP1 DUP2 MSTORE PUSH1 0x20 ADD PUSH0 KECCAK256 PUSH1 0x1 DUP5 PUSH2 0x96F SWAP2 SWAP1 PUSH2 0x1896 JUMP JUMPDEST DUP2 SLOAD DUP2 LT PUSH2 0x980 JUMPI PUSH2 0x97F PUSH2 0x12A7 JUMP JUMPDEST JUMPDEST SWAP1 PUSH0 MSTORE PUSH1 0x20 PUSH0 KECCAK256 SWAP1 PUSH1 0x5 MUL ADD SWAP1 POP PUSH0 DUP2 PUSH1 0x4 ADD SLOAD GT PUSH2 0x9D4 JUMPI PUSH1 0x40 MLOAD PUSH32 0x8C379A000000000000000000000000000000000000000000000000000000000 DUP2 MSTORE PUSH1 0x4 ADD PUSH2 0x9CB SWAP1 PUSH2 0x1913 JUMP JUMPDEST PUSH1 0x40 MLOAD DUP1 SWAP2 SUB SWAP1 REVERT JUMPDEST DUP1 PUSH1 0x4 ADD PUSH0 DUP2 SLOAD DUP1 SWAP3 SWAP2 SWAP1 PUSH2 0x9E8 SWAP1 PUSH2 0x1931 JUMP JUMPDEST SWAP2 SWAP1 POP SSTORE POP DUP2 PUSH20 0xFFFFFFFFFFFFFFFFFFFFFFFFFFFFFFFFFFFFFFFF AND CALLER PUSH20 0xFFFFFFFFFFFFFFFFFFFFFFFFFFFFFFFFFFFFFFFF AND PUSH32 0x762C2616349603AC16EBA0DE8E6141B79129A07AB63BD99E0A80B3A471716943 DUP6 DUP5 PUSH1 0x4 ADD SLOAD PUSH1 0x40 MLOAD PUSH2 0xA50 SWAP3 SWAP2 SWAP1 PUSH2 0x1958 JUMP JUMPDEST PUSH1 0x40 MLOAD DUP1 SWAP2 SUB SWAP1 LOG3 POP POP POP JUMP JUMPDEST PUSH0 DUP3 GT PUSH2 0xA9F JUMPI PUSH1 0x40 MLOAD PUSH32 0x8C379A000000000000000000000000000000000000000000000000000000000 DUP2 MSTORE PUSH1 0x4 ADD PUSH2 0xA96 SWAP1 PUSH2 0x1810 JUMP JUMPDEST PUSH1 0x40 MLOAD DUP1 SWAP2 SUB SWAP1 REVERT JUMPDEST PUSH1 0x1 PUSH0 DUP3 PUSH20 0xFFFFFFFFFFFFFFFFFFFFFFFFFFFFFFFFFFFFFFFF AND PUSH20 0xFFFFFFFFFFFFFFFFFFFFFFFFFFFFFFFFFFFFFFFF AND DUP2 MSTORE PUSH1 0x20 ADD SWAP1 DUP2 MSTORE PUSH1 0x20 ADD PUSH0 KECCAK256 DUP1 SLOAD SWAP1 POP DUP3 GT ISZERO PUSH2 0xB22 JUMPI PUSH1 0x40 MLOAD PUSH32 0x8C379A000000000000000000000000000000000000000000000000000000000 DUP2 MSTORE PUSH1 0x4 ADD PUSH2 0xB19 SWAP1 PUSH2 0x1878 JUMP JUMPDEST PUSH1 0x40 MLOAD DUP1 SWAP2 SUB SWAP1 REVERT JUMPDEST PUSH0 PUSH1 0x1 PUSH0 DUP4 PUSH20 0xFFFFFFFFFFFFFFFFFFFFFFFFFFFFFFFFFFFFFFFF AND PUSH20 0xFFFFFFFFFFFFFFFFFFFFFFFFFFFFFFFFFFFFFFFF AND DUP2 MSTORE PUSH1 0x20 ADD SWAP1 DUP2 MSTORE PUSH1 0x20 ADD PUSH0 KECCAK256 PUSH1 0x1 DUP5 PUSH2 0xB6D SWAP2 SWAP1 PUSH2 0x1896 JUMP JUMPDEST DUP2 SLOAD DUP2 LT PUSH2 0xB7E JUMPI PUSH2 0xB7D PUSH2 0x12A7 JUMP JUMPDEST JUMPDEST SWAP1 PUSH0 MSTORE PUSH1 0x20 PUSH0 KECCAK256 SWAP1 PUSH1 0x5 MUL ADD SWAP1 POP DUP1 PUSH1 0x4 ADD PUSH0 DUP2 SLOAD DUP1 SWAP3 SWAP2 SWAP1 PUSH2 0xBA0 SWAP1 PUSH2 0x197F JUMP JUMPDEST SWAP2 SWAP1 POP SSTORE POP DUP2 PUSH20 0xFFFFFFFFFFFFFFFFFFFFFFFFFFFFFFFFFFFFFFFF AND CALLER PUSH20 0xFFFFFFFFFFFFFFFFFFFFFFFFFFFFFFFFFFFFFFFF AND PUSH32 0xE8A76FC0F16D11A00D1E93B689B63D76CF60AF914DD3D915375DC41D01A0C3C8 DUP6 DUP5 PUSH1 0x4 ADD SLOAD PUSH1 0x40 MLOAD PUSH2 0xC08 SWAP3 SWAP2 SWAP1 PUSH2 0x1958 JUMP JUMPDEST PUSH1 0x40 MLOAD DUP1 SWAP2 SUB SWAP1 LOG3 POP POP POP JUMP JUMPDEST PUSH1 0x40 MLOAD DUP1 PUSH1 0xA0 ADD PUSH1 0x40 MSTORE DUP1 PUSH0 DUP2 MSTORE PUSH1 0x20 ADD PUSH0 PUSH20 0xFFFFFFFFFFFFFFFFFFFFFFFFFFFFFFFFFFFFFFFF AND DUP2 MSTORE PUSH1 0x20 ADD PUSH1 0x60 DUP2 MSTORE PUSH1 0x20 ADD PUSH0 DUP2 MSTORE PUSH1 0x20 ADD PUSH0 DUP2 MSTORE POP SWAP1 JUMP JUMPDEST PUSH0 PUSH1 0x40 MLOAD SWAP1 POP SWAP1 JUMP JUMPDEST PUSH0 DUP1 REVERT JUMPDEST PUSH0 DUP1 REVERT JUMPDEST PUSH0 PUSH20 0xFFFFFFFFFFFFFFFFFFFFFFFFFFFFFFFFFFFFFFFF DUP3 AND SWAP1 POP SWAP2 SWAP1 POP JUMP JUMPDEST PUSH0 PUSH2 0xC90 DUP3 PUSH2 0xC67 JUMP JUMPDEST SWAP1 POP SWAP2 SWAP1 POP JUMP JUMPDEST PUSH2 0xCA0 DUP2 PUSH2 0xC86 JUMP JUMPDEST DUP2 EQ PUSH2 0xCAA JUMPI PUSH0 DUP1 REVERT JUMPDEST POP JUMP JUMPDEST PUSH0 DUP2 CALLDATALOAD SWAP1 POP PUSH2 0xCBB DUP2 PUSH2 0xC97 JUMP JUMPDEST SWAP3 SWAP2 POP POP JUMP JUMPDEST PUSH0 DUP2 SWAP1 POP SWAP2 SWAP1 POP JUMP JUMPDEST PUSH2 0xCD3 DUP2 PUSH2 0xCC1 JUMP JUMPDEST DUP2 EQ PUSH2 0xCDD JUMPI PUSH0 DUP1 REVERT JUMPDEST POP JUMP JUMPDEST PUSH0 DUP2 CALLDATALOAD SWAP1 POP PUSH2 0xCEE DUP2 PUSH2 0xCCA JUMP JUMPDEST SWAP3 SWAP2 POP POP JUMP JUMPDEST PUSH0 DUP1 PUSH1 0x40 DUP4 DUP6 SUB SLT ISZERO PUSH2 0xD0A JUMPI PUSH2 0xD09 PUSH2 0xC5F JUMP JUMPDEST JUMPDEST PUSH0 PUSH2 0xD17 DUP6 DUP3 DUP7 ADD PUSH2 0xCAD JUMP JUMPDEST SWAP3 POP POP PUSH1 0x20 PUSH2 0xD28 DUP6 DUP3 DUP7 ADD PUSH2 0xCE0 JUMP JUMPDEST SWAP2 POP POP SWAP3 POP SWAP3 SWAP1 POP JUMP JUMPDEST PUSH2 0xD3B DUP2 PUSH2 0xCC1 JUMP JUMPDEST DUP3 MSTORE POP POP JUMP JUMPDEST PUSH2 0xD4A DUP2 PUSH2 0xC86 JUMP JUMPDEST DUP3 MSTORE POP POP JUMP JUMPDEST PUSH0 DUP2 MLOAD SWAP1 POP SWAP2 SWAP1 POP JUMP JUMPDEST PUSH0 DUP3 DUP3 MSTORE PUSH1 0x20 DUP3 ADD SWAP1 POP SWAP3 SWAP2 POP POP JUMP JUMPDEST DUP3 DUP2 DUP4 MCOPY PUSH0 DUP4 DUP4 ADD MSTORE POP POP POP JUMP JUMPDEST PUSH0 PUSH1 0x1F NOT PUSH1 0x1F DUP4 ADD AND SWAP1 POP SWAP2 SWAP1 POP JUMP JUMPDEST PUSH0 PUSH2 0xD92 DUP3 PUSH2 0xD50 JUMP JUMPDEST PUSH2 0xD9C DUP2 DUP6 PUSH2 0xD5A JUMP JUMPDEST SWAP4 POP PUSH2 0xDAC DUP2 DUP6 PUSH1 0x20 DUP7 ADD PUSH2 0xD6A JUMP JUMPDEST PUSH2 0xDB5 DUP2 PUSH2 0xD78 JUMP JUMPDEST DUP5 ADD SWAP2 POP POP SWAP3 SWAP2 POP POP JUMP JUMPDEST PUSH0 PUSH1 0xA0 DUP4 ADD PUSH0 DUP4 ADD MLOAD PUSH2 0xDD5 PUSH0 DUP7 ADD DUP3 PUSH2 0xD32 JUMP JUMPDEST POP PUSH1 0x20 DUP4 ADD MLOAD PUSH2 0xDE8 PUSH1 0x20 DUP7 ADD DUP3 PUSH2 0xD41 JUMP JUMPDEST POP PUSH1 0x40 DUP4 ADD MLOAD DUP5 DUP3 SUB PUSH1 0x40 DUP7 ADD MSTORE PUSH2 0xE00 DUP3 DUP3 PUSH2 0xD88 JUMP JUMPDEST SWAP2 POP POP PUSH1 0x60 DUP4 ADD MLOAD PUSH2 0xE15 PUSH1 0x60 DUP7 ADD DUP3 PUSH2 0xD32 JUMP JUMPDEST POP PUSH1 0x80 DUP4 ADD MLOAD PUSH2 0xE28 PUSH1 0x80 DUP7 ADD DUP3 PUSH2 0xD32 JUMP JUMPDEST POP DUP1 SWAP2 POP POP SWAP3 SWAP2 POP POP JUMP JUMPDEST PUSH0 PUSH1 0x20 DUP3 ADD SWAP1 POP DUP2 DUP2 SUB PUSH0 DUP4 ADD MSTORE PUSH2 0xE4B DUP2 DUP5 PUSH2 0xDC0 JUMP JUMPDEST SWAP1 POP SWAP3 SWAP2 POP POP JUMP JUMPDEST PUSH0 PUSH1 0x20 DUP3 DUP5 SUB SLT ISZERO PUSH2 0xE68 JUMPI PUSH2 0xE67 PUSH2 0xC5F JUMP JUMPDEST JUMPDEST PUSH0 PUSH2 0xE75 DUP5 DUP3 DUP6 ADD PUSH2 0xCAD JUMP JUMPDEST SWAP2 POP POP SWAP3 SWAP2 POP POP JUMP JUMPDEST PUSH0 DUP2 MLOAD SWAP1 POP SWAP2 SWAP1 POP JUMP JUMPDEST PUSH0 DUP3 DUP3 MSTORE PUSH1 0x20 DUP3 ADD SWAP1 POP SWAP3 SWAP2 POP POP JUMP JUMPDEST PUSH0 DUP2 SWAP1 POP PUSH1 0x20 DUP3 ADD SWAP1 POP SWAP2 SWAP1 POP JUMP JUMPDEST PUSH0 PUSH1 0xA0 DUP4 ADD PUSH0 DUP4 ADD MLOAD PUSH2 0xEBC PUSH0 DUP7 ADD DUP3 PUSH2 0xD32 JUMP JUMPDEST POP PUSH1 0x20 DUP4 ADD MLOAD PUSH2 0xECF PUSH1 0x20 DUP7 ADD DUP3 PUSH2 0xD41 JUMP JUMPDEST POP PUSH1 0x40 DUP4 ADD MLOAD DUP5 DUP3 SUB PUSH1 0x40 DUP7 ADD MSTORE PUSH2 0xEE7 DUP3 DUP3 PUSH2 0xD88 JUMP JUMPDEST SWAP2 POP POP PUSH1 0x60 DUP4 ADD MLOAD PUSH2 0xEFC PUSH1 0x60 DUP7 ADD DUP3 PUSH2 0xD32 JUMP JUMPDEST POP PUSH1 0x80 DUP4 ADD MLOAD PUSH2 0xF0F PUSH1 0x80 DUP7 ADD DUP3 PUSH2 0xD32 JUMP JUMPDEST POP DUP1 SWAP2 POP POP SWAP3 SWAP2 POP POP JUMP JUMPDEST PUSH0 PUSH2 0xF25 DUP4 DUP4 PUSH2 0xEA7 JUMP JUMPDEST SWAP1 POP SWAP3 SWAP2 POP POP JUMP JUMPDEST PUSH0 PUSH1 0x20 DUP3 ADD SWAP1 POP SWAP2 SWAP1 POP JUMP JUMPDEST PUSH0 PUSH2 0xF43 DUP3 PUSH2 0xE7E JUMP JUMPDEST PUSH2 0xF4D DUP2 DUP6 PUSH2 0xE88 JUMP JUMPDEST SWAP4 POP DUP4 PUSH1 0x20 DUP3 MUL DUP6 ADD PUSH2 0xF5F DUP6 PUSH2 0xE98 JUMP JUMPDEST DUP1 PUSH0 JUMPDEST DUP6 DUP2 LT ISZERO PUSH2 0xF9A JUMPI DUP5 DUP5 SUB DUP10 MSTORE DUP2 MLOAD PUSH2 0xF7B DUP6 DUP3 PUSH2 0xF1A JUMP JUMPDEST SWAP5 POP PUSH2 0xF86 DUP4 PUSH2 0xF2D JUMP JUMPDEST SWAP3 POP PUSH1 0x20 DUP11 ADD SWAP10 POP POP PUSH1 0x1 DUP2 ADD SWAP1 POP PUSH2 0xF62 JUMP JUMPDEST POP DUP3 SWAP8 POP DUP8 SWAP6 POP POP POP POP POP POP SWAP3 SWAP2 POP POP JUMP JUMPDEST PUSH0 PUSH1 0x20 DUP3 ADD SWAP1 POP DUP2 DUP2 SUB PUSH0 DUP4 ADD MSTORE PUSH2 0xFC4 DUP2 DUP5 PUSH2 0xF39 JUMP JUMPDEST SWAP1 POP SWAP3 SWAP2 POP POP JUMP JUMPDEST PUSH0 PUSH2 0xFFFF DUP3 AND SWAP1 POP SWAP2 SWAP1 POP JUMP JUMPDEST PUSH2 0xFE2 DUP2 PUSH2 0xFCC JUMP JUMPDEST DUP2 EQ PUSH2 0xFEC JUMPI PUSH0 DUP1 REVERT JUMPDEST POP JUMP JUMPDEST PUSH0 DUP2 CALLDATALOAD SWAP1 POP PUSH2 0xFFD DUP2 PUSH2 0xFD9 JUMP JUMPDEST SWAP3 SWAP2 POP POP JUMP JUMPDEST PUSH0 PUSH1 0x20 DUP3 DUP5 SUB SLT ISZERO PUSH2 0x1018 JUMPI PUSH2 0x1017 PUSH2 0xC5F JUMP JUMPDEST JUMPDEST PUSH0 PUSH2 0x1025 DUP5 DUP3 DUP6 ADD PUSH2 0xFEF JUMP JUMPDEST SWAP2 POP POP SWAP3 SWAP2 POP POP JUMP JUMPDEST PUSH2 0x1037 DUP2 PUSH2 0xFCC JUMP JUMPDEST DUP3 MSTORE POP POP JUMP JUMPDEST PUSH0 PUSH1 0x20 DUP3 ADD SWAP1 POP PUSH2 0x1050 PUSH0 DUP4 ADD DUP5 PUSH2 0x102E JUMP JUMPDEST SWAP3 SWAP2 POP POP JUMP JUMPDEST PUSH0 DUP1 REVERT JUMPDEST PUSH0 DUP1 REVERT JUMPDEST PUSH32 0x4E487B7100000000000000000000000000000000000000000000000000000000 PUSH0 MSTORE PUSH1 0x41 PUSH1 0x4 MSTORE PUSH1 0x24 PUSH0 REVERT JUMPDEST PUSH2 0x1094 DUP3 PUSH2 0xD78 JUMP JUMPDEST DUP2 ADD DUP2 DUP2 LT PUSH8 0xFFFFFFFFFFFFFFFF DUP3 GT OR ISZERO PUSH2 0x10B3 JUMPI PUSH2 0x10B2 PUSH2 0x105E JUMP JUMPDEST JUMPDEST DUP1 PUSH1 0x40 MSTORE POP POP POP JUMP JUMPDEST PUSH0 PUSH2 0x10C5 PUSH2 0xC56 JUMP JUMPDEST SWAP1 POP PUSH2 0x10D1 DUP3 DUP3 PUSH2 0x108B JUMP JUMPDEST SWAP2 SWAP1 POP JUMP JUMPDEST PUSH0 PUSH8 0xFFFFFFFFFFFFFFFF DUP3 GT ISZERO PUSH2 0x10F0 JUMPI PUSH2 0x10EF PUSH2 0x105E JUMP JUMPDEST JUMPDEST PUSH2 0x10F9 DUP3 PUSH2 0xD78 JUMP JUMPDEST SWAP1 POP PUSH1 0x20 DUP2 ADD SWAP1 POP SWAP2 SWAP1 POP JUMP JUMPDEST DUP3 DUP2 DUP4 CALLDATACOPY PUSH0 DUP4 DUP4 ADD MSTORE POP POP POP JUMP JUMPDEST PUSH0 PUSH2 0x1126 PUSH2 0x1121 DUP5 PUSH2 0x10D6 JUMP JUMPDEST PUSH2 0x10BC JUMP JUMPDEST SWAP1 POP DUP3 DUP2 MSTORE PUSH1 0x20 DUP2 ADD DUP5 DUP5 DUP5 ADD GT ISZERO PUSH2 0x1142 JUMPI PUSH2 0x1141 PUSH2 0x105A JUMP JUMPDEST JUMPDEST PUSH2 0x114D DUP5 DUP3 DUP6 PUSH2 0x1106 JUMP JUMPDEST POP SWAP4 SWAP3 POP POP POP JUMP JUMPDEST PUSH0 DUP3 PUSH1 0x1F DUP4 ADD SLT PUSH2 0x1169 JUMPI PUSH2 0x1168 PUSH2 0x1056 JUMP JUMPDEST JUMPDEST DUP2 CALLDATALOAD PUSH2 0x1179 DUP5 DUP3 PUSH1 0x20 DUP7 ADD PUSH2 0x1114 JUMP JUMPDEST SWAP2 POP POP SWAP3 SWAP2 POP POP JUMP JUMPDEST PUSH0 PUSH1 0x20 DUP3 DUP5 SUB SLT ISZERO PUSH2 0x1197 JUMPI PUSH2 0x1196 PUSH2 0xC5F JUMP JUMPDEST JUMPDEST PUSH0 DUP3 ADD CALLDATALOAD PUSH8 0xFFFFFFFFFFFFFFFF DUP2 GT ISZERO PUSH2 0x11B4 JUMPI PUSH2 0x11B3 PUSH2 0xC63 JUMP JUMPDEST JUMPDEST PUSH2 0x11C0 DUP5 DUP3 DUP6 ADD PUSH2 0x1155 JUMP JUMPDEST SWAP2 POP POP SWAP3 SWAP2 POP POP JUMP JUMPDEST PUSH2 0x11D2 DUP2 PUSH2 0xC86 JUMP JUMPDEST DUP3 MSTORE POP POP JUMP JUMPDEST PUSH0 PUSH1 0x20 DUP3 ADD SWAP1 POP PUSH2 0x11EB PUSH0 DUP4 ADD DUP5 PUSH2 0x11C9 JUMP JUMPDEST SWAP3 SWAP2 POP POP JUMP JUMPDEST PUSH0 DUP1 PUSH1 0x40 DUP4 DUP6 SUB SLT ISZERO PUSH2 0x1207 JUMPI PUSH2 0x1206 PUSH2 0xC5F JUMP JUMPDEST JUMPDEST PUSH0 PUSH2 0x1214 DUP6 DUP3 DUP7 ADD PUSH2 0xCE0 JUMP JUMPDEST SWAP3 POP POP PUSH1 0x20 PUSH2 0x1225 DUP6 DUP3 DUP7 ADD PUSH2 0xCAD JUMP JUMPDEST SWAP2 POP POP SWAP3 POP SWAP3 SWAP1 POP JUMP JUMPDEST PUSH0 DUP3 DUP3 MSTORE PUSH1 0x20 DUP3 ADD SWAP1 POP SWAP3 SWAP2 POP POP JUMP JUMPDEST PUSH32 0x496E76616C696420747765657420696E64657800000000000000000000000000 PUSH0 DUP3 ADD MSTORE POP JUMP JUMPDEST PUSH0 PUSH2 0x1273 PUSH1 0x13 DUP4 PUSH2 0x122F JUMP JUMPDEST SWAP2 POP PUSH2 0x127E DUP3 PUSH2 0x123F JUMP JUMPDEST PUSH1 0x20 DUP3 ADD SWAP1 POP SWAP2 SWAP1 POP JUMP JUMPDEST PUSH0 PUSH1 0x20 DUP3 ADD SWAP1 POP DUP2 DUP2 SUB PUSH0 DUP4 ADD MSTORE PUSH2 0x12A0 DUP2 PUSH2 0x1267 JUMP JUMPDEST SWAP1 POP SWAP2 SWAP1 POP JUMP JUMPDEST PUSH32 0x4E487B7100000000000000000000000000000000000000000000000000000000 PUSH0 MSTORE PUSH1 0x32 PUSH1 0x4 MSTORE PUSH1 0x24 PUSH0 REVERT JUMPDEST PUSH32 0x4E487B7100000000000000000000000000000000000000000000000000000000 PUSH0 MSTORE PUSH1 0x22 PUSH1 0x4 MSTORE PUSH1 0x24 PUSH0 REVERT JUMPDEST PUSH0 PUSH1 0x2 DUP3 DIV SWAP1 POP PUSH1 0x1 DUP3 AND DUP1 PUSH2 0x1318 JUMPI PUSH1 0x7F DUP3 AND SWAP2 POP JUMPDEST PUSH1 0x20 DUP3 LT DUP2 SUB PUSH2 0x132B JUMPI PUSH2 0x132A PUSH2 0x12D4 JUMP JUMPDEST JUMPDEST POP SWAP2 SWAP1 POP JUMP JUMPDEST PUSH32 0x596F75206172656E277420746865206F776E6572210000000000000000000000 PUSH0 DUP3 ADD MSTORE POP JUMP JUMPDEST PUSH0 PUSH2 0x1365 PUSH1 0x15 DUP4 PUSH2 0x122F JUMP JUMPDEST SWAP2 POP PUSH2 0x1370 DUP3 PUSH2 0x1331 JUMP JUMPDEST PUSH1 0x20 DUP3 ADD SWAP1 POP SWAP2 SWAP1 POP JUMP JUMPDEST PUSH0 PUSH1 0x20 DUP3 ADD SWAP1 POP DUP2 DUP2 SUB PUSH0 DUP4 ADD MSTORE PUSH2 0x1392 DUP2 PUSH2 0x1359 JUMP JUMPDEST SWAP1 POP SWAP2 SWAP1 POP JUMP JUMPDEST PUSH32 0x547765657420636F6E74656E742063616E6E6F7420626520656D707479000000 PUSH0 DUP3 ADD MSTORE POP JUMP JUMPDEST PUSH0 PUSH2 0x13CD PUSH1 0x1D DUP4 PUSH2 0x122F JUMP JUMPDEST SWAP2 POP PUSH2 0x13D8 DUP3 PUSH2 0x1399 JUMP JUMPDEST PUSH1 0x20 DUP3 ADD SWAP1 POP SWAP2 SWAP1 POP JUMP JUMPDEST PUSH0 PUSH1 0x20 DUP3 ADD SWAP1 POP DUP2 DUP2 SUB PUSH0 DUP4 ADD MSTORE PUSH2 0x13FA DUP2 PUSH2 0x13C1 JUMP JUMPDEST SWAP1 POP SWAP2 SWAP1 POP JUMP JUMPDEST PUSH32 0x547765657420697320746F6F206C6F6E67000000000000000000000000000000 PUSH0 DUP3 ADD MSTORE POP JUMP JUMPDEST PUSH0 PUSH2 0x1435 PUSH1 0x11 DUP4 PUSH2 0x122F JUMP JUMPDEST SWAP2 POP PUSH2 0x1440 DUP3 PUSH2 0x1401 JUMP JUMPDEST PUSH1 0x20 DUP3 ADD SWAP1 POP SWAP2 SWAP1 POP JUMP JUMPDEST PUSH0 PUSH1 0x20 DUP3 ADD SWAP1 POP DUP2 DUP2 SUB PUSH0 DUP4 ADD MSTORE PUSH2 0x1462 DUP2 PUSH2 0x1429 JUMP JUMPDEST SWAP1 POP SWAP2 SWAP1 POP JUMP JUMPDEST PUSH32 0x4E487B7100000000000000000000000000000000000000000000000000000000 PUSH0 MSTORE PUSH1 0x11 PUSH1 0x4 MSTORE PUSH1 0x24 PUSH0 REVERT JUMPDEST PUSH0 PUSH2 0x14A0 DUP3 PUSH2 0xCC1 JUMP JUMPDEST SWAP2 POP PUSH2 0x14AB DUP4 PUSH2 0xCC1 JUMP JUMPDEST SWAP3 POP DUP3 DUP3 ADD SWAP1 POP DUP1 DUP3 GT ISZERO PUSH2 0x14C3 JUMPI PUSH2 0x14C2 PUSH2 0x1469 JUMP JUMPDEST JUMPDEST SWAP3 SWAP2 POP POP JUMP JUMPDEST PUSH0 DUP2 SWAP1 POP DUP2 PUSH0 MSTORE PUSH1 0x20 PUSH0 KECCAK256 SWAP1 POP SWAP2 SWAP1 POP JUMP JUMPDEST PUSH0 PUSH1 0x20 PUSH1 0x1F DUP4 ADD DIV SWAP1 POP SWAP2 SWAP1 POP JUMP JUMPDEST PUSH0 DUP3 DUP3 SHL SWAP1 POP SWAP3 SWAP2 POP POP JUMP JUMPDEST PUSH0 PUSH1 0x8 DUP4 MUL PUSH2 0x1525 PUSH32 0xFFFFFFFFFFFFFFFFFFFFFFFFFFFFFFFFFFFFFFFFFFFFFFFFFFFFFFFFFFFFFFFF DUP3 PUSH2 0x14EA JUMP JUMPDEST PUSH2 0x152F DUP7 DUP4 PUSH2 0x14EA JUMP JUMPDEST SWAP6 POP DUP1 NOT DUP5 AND SWAP4 POP DUP1 DUP7 AND DUP5 OR SWAP3 POP POP POP SWAP4 SWAP3 POP POP POP JUMP JUMPDEST PUSH0 DUP2 SWAP1 POP SWAP2 SWAP1 POP JUMP JUMPDEST PUSH0 PUSH2 0x156A PUSH2 0x1565 PUSH2 0x1560 DUP5 PUSH2 0xCC1 JUMP JUMPDEST PUSH2 0x1547 JUMP JUMPDEST PUSH2 0xCC1 JUMP JUMPDEST SWAP1 POP SWAP2 SWAP1 POP JUMP JUMPDEST PUSH0 DUP2 SWAP1 POP SWAP2 SWAP1 POP JUMP JUMPDEST PUSH2 0x1583 DUP4 PUSH2 0x1550 JUMP JUMPDEST PUSH2 0x1597 PUSH2 0x158F DUP3 PUSH2 0x1571 JUMP JUMPDEST DUP5 DUP5 SLOAD PUSH2 0x14F6 JUMP JUMPDEST DUP3 SSTORE POP POP POP POP JUMP JUMPDEST PUSH0 SWAP1 JUMP JUMPDEST PUSH2 0x15AB PUSH2 0x159F JUMP JUMPDEST PUSH2 0x15B6 DUP2 DUP5 DUP5 PUSH2 0x157A JUMP JUMPDEST POP POP POP JUMP JUMPDEST JUMPDEST DUP2 DUP2 LT ISZERO PUSH2 0x15D9 JUMPI PUSH2 0x15CE PUSH0 DUP3 PUSH2 0x15A3 JUMP JUMPDEST PUSH1 0x1 DUP2 ADD SWAP1 POP PUSH2 0x15BC JUMP JUMPDEST POP POP JUMP JUMPDEST PUSH1 0x1F DUP3 GT ISZERO PUSH2 0x161E JUMPI PUSH2 0x15EF DUP2 PUSH2 0x14C9 JUMP JUMPDEST PUSH2 0x15F8 DUP5 PUSH2 0x14DB JUMP JUMPDEST DUP2 ADD PUSH1 0x20 DUP6 LT ISZERO PUSH2 0x1607 JUMPI DUP2 SWAP1 POP JUMPDEST PUSH2 0x161B PUSH2 0x1613 DUP6 PUSH2 0x14DB JUMP JUMPDEST DUP4 ADD DUP3 PUSH2 0x15BB JUMP JUMPDEST POP POP JUMPDEST POP POP POP JUMP JUMPDEST PUSH0 DUP3 DUP3 SHR SWAP1 POP SWAP3 SWAP2 POP POP JUMP JUMPDEST PUSH0 PUSH2 0x163E PUSH0 NOT DUP5 PUSH1 0x8 MUL PUSH2 0x1623 JUMP JUMPDEST NOT DUP1 DUP4 AND SWAP2 POP POP SWAP3 SWAP2 POP POP JUMP JUMPDEST PUSH0 PUSH2 0x1656 DUP4 DUP4 PUSH2 0x162F JUMP JUMPDEST SWAP2 POP DUP3 PUSH1 0x2 MUL DUP3 OR SWAP1 POP SWAP3 SWAP2 POP POP JUMP JUMPDEST PUSH2 0x166F DUP3 PUSH2 0xD50 JUMP JUMPDEST PUSH8 0xFFFFFFFFFFFFFFFF DUP2 GT ISZERO PUSH2 0x1688 JUMPI PUSH2 0x1687 PUSH2 0x105E JUMP JUMPDEST JUMPDEST PUSH2 0x1692 DUP3 SLOAD PUSH2 0x1301 JUMP JUMPDEST PUSH2 0x169D DUP3 DUP3 DUP6 PUSH2 0x15DD JUMP JUMPDEST PUSH0 PUSH1 0x20 SWAP1 POP PUSH1 0x1F DUP4 GT PUSH1 0x1 DUP2 EQ PUSH2 0x16CE JUMPI PUSH0 DUP5 ISZERO PUSH2 0x16BC JUMPI DUP3 DUP8 ADD MLOAD SWAP1 POP JUMPDEST PUSH2 0x16C6 DUP6 DUP3 PUSH2 0x164B JUMP JUMPDEST DUP7 SSTORE POP PUSH2 0x172D JUMP JUMPDEST PUSH1 0x1F NOT DUP5 AND PUSH2 0x16DC DUP7 PUSH2 0x14C9 JUMP JUMPDEST PUSH0 JUMPDEST DUP3 DUP2 LT ISZERO PUSH2 0x1703 JUMPI DUP5 DUP10 ADD MLOAD DUP3 SSTORE PUSH1 0x1 DUP3 ADD SWAP2 POP PUSH1 0x20 DUP6 ADD SWAP5 POP PUSH1 0x20 DUP2 ADD SWAP1 POP PUSH2 0x16DE JUMP JUMPDEST DUP7 DUP4 LT ISZERO PUSH2 0x1720 JUMPI DUP5 DUP10 ADD MLOAD PUSH2 0x171C PUSH1 0x1F DUP10 AND DUP3 PUSH2 0x162F JUMP JUMPDEST DUP4 SSTORE POP JUMPDEST PUSH1 0x1 PUSH1 0x2 DUP9 MUL ADD DUP9 SSTORE POP POP POP JUMPDEST POP POP POP POP POP POP JUMP JUMPDEST PUSH2 0x173E DUP2 PUSH2 0xCC1 JUMP JUMPDEST DUP3 MSTORE POP POP JUMP JUMPDEST PUSH0 PUSH2 0x174E DUP3 PUSH2 0xD50 JUMP JUMPDEST PUSH2 0x1758 DUP2 DUP6 PUSH2 0x122F JUMP JUMPDEST SWAP4 POP PUSH2 0x1768 DUP2 DUP6 PUSH1 0x20 DUP7 ADD PUSH2 0xD6A JUMP JUMPDEST PUSH2 0x1771 DUP2 PUSH2 0xD78 JUMP JUMPDEST DUP5 ADD SWAP2 POP POP SWAP3 SWAP2 POP POP JUMP JUMPDEST PUSH0 PUSH1 0x80 DUP3 ADD SWAP1 POP PUSH2 0x178F PUSH0 DUP4 ADD DUP8 PUSH2 0x1735 JUMP JUMPDEST PUSH2 0x179C PUSH1 0x20 DUP4 ADD DUP7 PUSH2 0x11C9 JUMP JUMPDEST DUP2 DUP2 SUB PUSH1 0x40 DUP4 ADD MSTORE PUSH2 0x17AE DUP2 DUP6 PUSH2 0x1744 JUMP JUMPDEST SWAP1 POP PUSH2 0x17BD PUSH1 0x60 DUP4 ADD DUP5 PUSH2 0x1735 JUMP JUMPDEST SWAP6 SWAP5 POP POP POP POP POP JUMP JUMPDEST PUSH32 0x496E76616C696420747765657420494400000000000000000000000000000000 PUSH0 DUP3 ADD MSTORE POP JUMP JUMPDEST PUSH0 PUSH2 0x17FA PUSH1 0x10 DUP4 PUSH2 0x122F JUMP JUMPDEST SWAP2 POP PUSH2 0x1805 DUP3 PUSH2 0x17C6 JUMP JUMPDEST PUSH1 0x20 DUP3 ADD SWAP1 POP SWAP2 SWAP1 POP JUMP JUMPDEST PUSH0 PUSH1 0x20 DUP3 ADD SWAP1 POP DUP2 DUP2 SUB PUSH0 DUP4 ADD MSTORE PUSH2 0x1827 DUP2 PUSH2 0x17EE JUMP JUMPDEST SWAP1 POP SWAP2 SWAP1 POP JUMP JUMPDEST PUSH32 0x547765657420646F65736E277420657869737400000000000000000000000000 PUSH0 DUP3 ADD MSTORE POP JUMP JUMPDEST PUSH0 PUSH2 0x1862 PUSH1 0x13 DUP4 PUSH2 0x122F JUMP JUMPDEST SWAP2 POP PUSH2 0x186D DUP3 PUSH2 0x182E JUMP JUMPDEST PUSH1 0x20 DUP3 ADD SWAP1 POP SWAP2 SWAP1 POP JUMP JUMPDEST PUSH0 PUSH1 0x20 DUP3 ADD SWAP1 POP DUP2 DUP2 SUB PUSH0 DUP4 ADD MSTORE PUSH2 0x188F DUP2 PUSH2 0x1856 JUMP JUMPDEST SWAP1 POP SWAP2 SWAP1 POP JUMP JUMPDEST PUSH0 PUSH2 0x18A0 DUP3 PUSH2 0xCC1 JUMP JUMPDEST SWAP2 POP PUSH2 0x18AB DUP4 PUSH2 0xCC1 JUMP JUMPDEST SWAP3 POP DUP3 DUP3 SUB SWAP1 POP DUP2 DUP2 GT ISZERO PUSH2 0x18C3 JUMPI PUSH2 0x18C2 PUSH2 0x1469 JUMP JUMPDEST JUMPDEST SWAP3 SWAP2 POP POP JUMP JUMPDEST PUSH32 0x4E6F206C696B657320746F2072656D6F76650000000000000000000000000000 PUSH0 DUP3 ADD MSTORE POP JUMP JUMPDEST PUSH0 PUSH2 0x18FD PUSH1 0x12 DUP4 PUSH2 0x122F JUMP JUMPDEST SWAP2 POP PUSH2 0x1908 DUP3 PUSH2 0x18C9 JUMP JUMPDEST PUSH1 0x20 DUP3 ADD SWAP1 POP SWAP2 SWAP1 POP JUMP JUMPDEST PUSH0 PUSH1 0x20 DUP3 ADD SWAP1 POP DUP2 DUP2 SUB PUSH0 DUP4 ADD MSTORE PUSH2 0x192A DUP2 PUSH2 0x18F1 JUMP JUMPDEST SWAP1 POP SWAP2 SWAP1 POP JUMP JUMPDEST PUSH0 PUSH2 0x193B DUP3 PUSH2 0xCC1 JUMP JUMPDEST SWAP2 POP PUSH0 DUP3 SUB PUSH2 0x194D JUMPI PUSH2 0x194C PUSH2 0x1469 JUMP JUMPDEST JUMPDEST PUSH1 0x1 DUP3 SUB SWAP1 POP SWAP2 SWAP1 POP JUMP JUMPDEST PUSH0 PUSH1 0x40 DUP3 ADD SWAP1 POP PUSH2 0x196B PUSH0 DUP4 ADD DUP6 PUSH2 0x1735 JUMP JUMPDEST PUSH2 0x1978 PUSH1 0x20 DUP4 ADD DUP5 PUSH2 0x1735 JUMP JUMPDEST SWAP4 SWAP3 POP POP POP JUMP JUMPDEST PUSH0 PUSH2 0x1989 DUP3 PUSH2 0xCC1 JUMP JUMPDEST SWAP2 POP PUSH32 0xFFFFFFFFFFFFFFFFFFFFFFFFFFFFFFFFFFFFFFFFFFFFFFFFFFFFFFFFFFFFFFFF DUP3 SUB PUSH2 0x19BB JUMPI PUSH2 0x19BA PUSH2 0x1469 JUMP JUMPDEST JUMPDEST PUSH1 0x1 DUP3 ADD SWAP1 POP SWAP2 SWAP1 POP JUMP INVALID LOG2 PUSH5 0x6970667358 0x22 SLT KECCAK256 0x2C SWAP9 CREATE2 CALLCODE 0xB1 CALLER 0xAB DUP6 0xAA CALLDATACOPY 0xE4 0xED GASPRICE DUP1 KECCAK256 CALLDATASIZE CALLDATACOPY 0xB8 PUSH8 0x8EE1BB4DC5CA71B9 PUSH6 0xACB0578A6473 PUSH16 0x6C634300081A00330000000000000000 "
				},
				"gasEstimates": {
					"creation": {
						"codeDepositCost": "1330400",
						"executionCost": "49912",
						"totalCost": "1380312"
					},
					"external": {
						"MAX_TWEET_LENGTH()": "2530",
						"changeTweetLength(uint16)": "26887",
						"createTweet(string)": "infinite",
						"getAllTweets(address)": "infinite",
						"getTweet(address,uint256)": "infinite",
						"likeTweet(uint256,address)": "infinite",
						"owner()": "2530",
						"unlikeTweet(uint256,address)": "infinite"
					}
				},
				"methodIdentifiers": {
					"MAX_TWEET_LENGTH()": "6eb10797",
					"changeTweetLength(uint16)": "58bfa4ab",
					"createTweet(string)": "7c9cd2bc",
					"getAllTweets(address)": "12e7ee1c",
					"getTweet(address,uint256)": "112f54e3",
					"likeTweet(uint256,address)": "d04ddaa0",
					"owner()": "8da5cb5b",
					"unlikeTweet(uint256,address)": "a1488f7c"
				}
			},
			"storageLayout": {
				"storage": [
					{
						"astId": 4,
						"contract": "contracts/Twitter.sol:Twitter",
						"label": "MAX_TWEET_LENGTH",
						"offset": 0,
						"slot": "0",
						"type": "t_uint16"
					},
					{
						"astId": 21,
						"contract": "contracts/Twitter.sol:Twitter",
						"label": "tweets",
						"offset": 0,
						"slot": "1",
						"type": "t_mapping(t_address,t_array(t_struct(Tweet)15_storage)dyn_storage)"
					},
					{
						"astId": 23,
						"contract": "contracts/Twitter.sol:Twitter",
						"label": "owner",
						"offset": 0,
						"slot": "2",
						"type": "t_address"
					}
				],
				"types": {
					"t_address": {
						"encoding": "inplace",
						"label": "address",
						"numberOfBytes": "20"
					},
					"t_array(t_struct(Tweet)15_storage)dyn_storage": {
						"base": "t_struct(Tweet)15_storage",
						"encoding": "dynamic_array",
						"label": "struct Twitter.Tweet[]",
						"numberOfBytes": "32"
					},
					"t_mapping(t_address,t_array(t_struct(Tweet)15_storage)dyn_storage)": {
						"encoding": "mapping",
						"key": "t_address",
						"label": "mapping(address => struct Twitter.Tweet[])",
						"numberOfBytes": "32",
						"value": "t_array(t_struct(Tweet)15_storage)dyn_storage"
					},
					"t_string_storage": {
						"encoding": "bytes",
						"label": "string",
						"numberOfBytes": "32"
					},
					"t_struct(Tweet)15_storage": {
						"encoding": "inplace",
						"label": "struct Twitter.Tweet",
						"members": [
							{
								"astId": 6,
								"contract": "contracts/Twitter.sol:Twitter",
								"label": "id",
								"offset": 0,
								"slot": "0",
								"type": "t_uint256"
							},
							{
								"astId": 8,
								"contract": "contracts/Twitter.sol:Twitter",
								"label": "author",
								"offset": 0,
								"slot": "1",
								"type": "t_address"
							},
							{
								"astId": 10,
								"contract": "contracts/Twitter.sol:Twitter",
								"label": "content",
								"offset": 0,
								"slot": "2",
								"type": "t_string_storage"
							},
							{
								"astId": 12,
								"contract": "contracts/Twitter.sol:Twitter",
								"label": "timestamp",
								"offset": 0,
								"slot": "3",
								"type": "t_uint256"
							},
							{
								"astId": 14,
								"contract": "contracts/Twitter.sol:Twitter",
								"label": "likes",
								"offset": 0,
								"slot": "4",
								"type": "t_uint256"
							}
						],
						"numberOfBytes": "160"
					},
					"t_uint16": {
						"encoding": "inplace",
						"label": "uint16",
						"numberOfBytes": "2"
					},
					"t_uint256": {
						"encoding": "inplace",
						"label": "uint256",
						"numberOfBytes": "32"
					}
				}
			},
			"userdoc": {
				"kind": "user",
				"methods": {},
				"version": 1
			}
		}
	}
}