{
	"contracts/sendMoney.sol": {
		"DoubleMoneyContract": {
			"abi": [
				{
					"anonymous": false,
					"inputs": [
						{
							"indexed": true,
							"internalType": "address",
							"name": "from",
							"type": "address"
						},
						{
							"indexed": true,
							"internalType": "address",
							"name": "to",
							"type": "address"
						},
						{
							"indexed": false,
							"internalType": "uint256",
							"name": "amount",
							"type": "uint256"
						}
					],
					"name": "TransferSuccessful",
					"type": "event"
				},
				{
					"inputs": [],
					"name": "balance",
					"outputs": [
						{
							"internalType": "uint256",
							"name": "",
							"type": "uint256"
						}
					],
					"stateMutability": "view",
					"type": "function"
				},
				{
					"inputs": [],
					"name": "contractBalance",
					"outputs": [
						{
							"internalType": "uint256",
							"name": "",
							"type": "uint256"
						}
					],
					"stateMutability": "view",
					"type": "function"
				},
				{
					"inputs": [
						{
							"internalType": "uint256",
							"name": "_amt",
							"type": "uint256"
						}
					],
					"name": "doubleMoney",
					"outputs": [
						{
							"internalType": "uint256",
							"name": "",
							"type": "uint256"
						}
					],
					"stateMutability": "nonpayable",
					"type": "function"
				},
				{
					"inputs": [],
					"name": "getBalance",
					"outputs": [
						{
							"internalType": "uint256",
							"name": "",
							"type": "uint256"
						}
					],
					"stateMutability": "view",
					"type": "function"
				},
				{
					"inputs": [],
					"name": "sendMoneytoContract",
					"outputs": [],
					"stateMutability": "payable",
					"type": "function"
				},
				{
					"inputs": [
						{
							"internalType": "address payable",
							"name": "_recipient",
							"type": "address"
						}
					],
					"name": "transferMoney",
					"outputs": [],
					"stateMutability": "payable",
					"type": "function"
				},
				{
					"stateMutability": "payable",
					"type": "receive"
				}
			],
			"devdoc": {
				"kind": "dev",
				"methods": {},
				"version": 1
			},
			"evm": {
				"assembly": "    /* \"contracts/sendMoney.sol\":61:1297  contract DoubleMoneyContract {... */\n  mstore(0x40, 0x80)\n  callvalue\n  dup1\n  iszero\n  tag_1\n  jumpi\n  0x00\n  dup1\n  revert\ntag_1:\n  pop\n  dataSize(sub_0)\n  dup1\n  dataOffset(sub_0)\n  0x00\n  codecopy\n  0x00\n  return\nstop\n\nsub_0: assembly {\n        /* \"contracts/sendMoney.sol\":61:1297  contract DoubleMoneyContract {... */\n      mstore(0x40, 0x80)\n      jumpi(tag_1, lt(calldatasize, 0x04))\n      shr(0xe0, calldataload(0x00))\n      dup1\n      0x12065fe0\n      eq\n      tag_3\n      jumpi\n      dup1\n      0x56d8399c\n      eq\n      tag_4\n      jumpi\n      dup1\n      0x86ce9835\n      eq\n      tag_5\n      jumpi\n      dup1\n      0x8b7afe2e\n      eq\n      tag_6\n      jumpi\n      dup1\n      0x8e238ef1\n      eq\n      tag_7\n      jumpi\n      dup1\n      0xb69ef8a8\n      eq\n      tag_8\n      jumpi\n      jump(tag_2)\n    tag_1:\n      jumpi(tag_2, calldatasize)\n        /* \"contracts/sendMoney.sol\":634:643  msg.value */\n      callvalue\n        /* \"contracts/sendMoney.sol\":615:630  contractBalance */\n      0x01\n      0x00\n        /* \"contracts/sendMoney.sol\":615:643  contractBalance += msg.value */\n      dup3\n      dup3\n      sload\n      tag_11\n      swap2\n      swap1\n      tag_12\n      jump\t// in\n    tag_11:\n      swap3\n      pop\n      pop\n      dup2\n      swap1\n      sstore\n      stop\n        /* \"contracts/sendMoney.sol\":61:1297  contract DoubleMoneyContract {... */\n    tag_2:\n      0x00\n      dup1\n      revert\n        /* \"contracts/sendMoney.sol\":1198:1294  function getBalance() public view returns (uint) {... */\n    tag_3:\n      callvalue\n      dup1\n      iszero\n      tag_13\n      jumpi\n      0x00\n      dup1\n      revert\n    tag_13:\n      pop\n      tag_14\n      tag_15\n      jump\t// in\n    tag_14:\n      mload(0x40)\n      tag_16\n      swap2\n      swap1\n      tag_17\n      jump\t// in\n    tag_16:\n      mload(0x40)\n      dup1\n      swap2\n      sub\n      swap1\n      return\n        /* \"contracts/sendMoney.sol\":190:309  function doubleMoney(uint _amt) public returns (uint256){... */\n    tag_4:\n      callvalue\n      dup1\n      iszero\n      tag_18\n      jumpi\n      0x00\n      dup1\n      revert\n    tag_18:\n      pop\n      tag_19\n      0x04\n      dup1\n      calldatasize\n      sub\n      dup2\n      add\n      swap1\n      tag_20\n      swap2\n      swap1\n      tag_21\n      jump\t// in\n    tag_20:\n      tag_22\n      jump\t// in\n    tag_19:\n      mload(0x40)\n      tag_23\n      swap2\n      swap1\n      tag_17\n      jump\t// in\n    tag_23:\n      mload(0x40)\n      dup1\n      swap2\n      sub\n      swap1\n      return\n        /* \"contracts/sendMoney.sol\":720:1149  function transferMoney(address payable _recipient) public payable {... */\n    tag_5:\n      tag_24\n      0x04\n      dup1\n      calldatasize\n      sub\n      dup2\n      add\n      swap1\n      tag_25\n      swap2\n      swap1\n      tag_26\n      jump\t// in\n    tag_25:\n      tag_27\n      jump\t// in\n    tag_24:\n      stop\n        /* \"contracts/sendMoney.sol\":349:376  uint public contractBalance */\n    tag_6:\n      callvalue\n      dup1\n      iszero\n      tag_28\n      jumpi\n      0x00\n      dup1\n      revert\n    tag_28:\n      pop\n      tag_29\n      tag_30\n      jump\t// in\n    tag_29:\n      mload(0x40)\n      tag_31\n      swap2\n      swap1\n      tag_17\n      jump\t// in\n    tag_31:\n      mload(0x40)\n      dup1\n      swap2\n      sub\n      swap1\n      return\n        /* \"contracts/sendMoney.sol\":126:182  function sendMoneytoContract() public payable {... */\n    tag_7:\n      tag_32\n      tag_33\n      jump\t// in\n    tag_32:\n      stop\n        /* \"contracts/sendMoney.sol\":97:116  uint public balance */\n    tag_8:\n      callvalue\n      dup1\n      iszero\n      tag_34\n      jumpi\n      0x00\n      dup1\n      revert\n    tag_34:\n      pop\n      tag_35\n      tag_36\n      jump\t// in\n    tag_35:\n      mload(0x40)\n      tag_37\n      swap2\n      swap1\n      tag_17\n      jump\t// in\n    tag_37:\n      mload(0x40)\n      dup1\n      swap2\n      sub\n      swap1\n      return\n        /* \"contracts/sendMoney.sol\":1198:1294  function getBalance() public view returns (uint) {... */\n    tag_15:\n        /* \"contracts/sendMoney.sol\":1241:1245  uint */\n      0x00\n        /* \"contracts/sendMoney.sol\":1265:1286  address(this).balance */\n      selfbalance\n        /* \"contracts/sendMoney.sol\":1258:1286  return address(this).balance */\n      swap1\n      pop\n        /* \"contracts/sendMoney.sol\":1198:1294  function getBalance() public view returns (uint) {... */\n      swap1\n      jump\t// out\n        /* \"contracts/sendMoney.sol\":190:309  function doubleMoney(uint _amt) public returns (uint256){... */\n    tag_22:\n        /* \"contracts/sendMoney.sol\":238:245  uint256 */\n      0x00\n        /* \"contracts/sendMoney.sol\":274:275  2 */\n      0x02\n        /* \"contracts/sendMoney.sol\":267:271  _amt */\n      dup3\n        /* \"contracts/sendMoney.sol\":267:275  _amt * 2 */\n      tag_40\n      swap2\n      swap1\n      tag_41\n      jump\t// in\n    tag_40:\n        /* \"contracts/sendMoney.sol\":257:264  balance */\n      0x00\n        /* \"contracts/sendMoney.sol\":257:275  balance = _amt * 2 */\n      dup2\n      swap1\n      sstore\n      pop\n        /* \"contracts/sendMoney.sol\":294:301  balance */\n      sload(0x00)\n        /* \"contracts/sendMoney.sol\":287:301  return balance */\n      swap1\n      pop\n        /* \"contracts/sendMoney.sol\":190:309  function doubleMoney(uint _amt) public returns (uint256){... */\n      swap2\n      swap1\n      pop\n      jump\t// out\n        /* \"contracts/sendMoney.sol\":720:1149  function transferMoney(address payable _recipient) public payable {... */\n    tag_27:\n        /* \"contracts/sendMoney.sol\":817:818  0 */\n      0x00\n        /* \"contracts/sendMoney.sol\":805:814  msg.value */\n      callvalue\n        /* \"contracts/sendMoney.sol\":805:818  msg.value > 0 */\n      gt\n        /* \"contracts/sendMoney.sol\":797:855  require(msg.value > 0, \"Amount must be greater than zero\") */\n      tag_43\n      jumpi\n      mload(0x40)\n      0x08c379a000000000000000000000000000000000000000000000000000000000\n      dup2\n      mstore\n      0x04\n      add\n      tag_44\n      swap1\n      tag_45\n      jump\t// in\n    tag_44:\n      mload(0x40)\n      dup1\n      swap2\n      sub\n      swap1\n      revert\n    tag_43:\n        /* \"contracts/sendMoney.sol\":896:897  0 */\n      0x00\n        /* \"contracts/sendMoney.sol\":874:898  _recipient != address(0) */\n      0xffffffffffffffffffffffffffffffffffffffff\n      and\n        /* \"contracts/sendMoney.sol\":874:884  _recipient */\n      dup2\n        /* \"contracts/sendMoney.sol\":874:898  _recipient != address(0) */\n      0xffffffffffffffffffffffffffffffffffffffff\n      and\n      sub\n        /* \"contracts/sendMoney.sol\":866:928  require(_recipient != address(0), \"Invalid recipient address\") */\n      tag_46\n      jumpi\n      mload(0x40)\n      0x08c379a000000000000000000000000000000000000000000000000000000000\n      dup2\n      mstore\n      0x04\n      add\n      tag_47\n      swap1\n      tag_48\n      jump\t// in\n    tag_47:\n      mload(0x40)\n      dup1\n      swap2\n      sub\n      swap1\n      revert\n    tag_46:\n        /* \"contracts/sendMoney.sol\":990:1000  _recipient */\n      dup1\n        /* \"contracts/sendMoney.sol\":990:1009  _recipient.transfer */\n      0xffffffffffffffffffffffffffffffffffffffff\n      and\n        /* \"contracts/sendMoney.sol\":990:1020  _recipient.transfer(msg.value) */\n      0x08fc\n        /* \"contracts/sendMoney.sol\":1010:1019  msg.value */\n      callvalue\n        /* \"contracts/sendMoney.sol\":990:1020  _recipient.transfer(msg.value) */\n      swap1\n      dup2\n      iszero\n      mul\n      swap1\n      mload(0x40)\n      0x00\n      mload(0x40)\n      dup1\n      dup4\n      sub\n      dup2\n      dup6\n      dup9\n      dup9\n      call\n      swap4\n      pop\n      pop\n      pop\n      pop\n      iszero\n      dup1\n      iszero\n      tag_50\n      jumpi\n      returndatasize\n      0x00\n      dup1\n      returndatacopy\n      revert(0x00, returndatasize)\n    tag_50:\n      pop\n        /* \"contracts/sendMoney.sol\":1119:1129  _recipient */\n      dup1\n        /* \"contracts/sendMoney.sol\":1088:1141  TransferSuccessful(msg.sender, _recipient, msg.value) */\n      0xffffffffffffffffffffffffffffffffffffffff\n      and\n        /* \"contracts/sendMoney.sol\":1107:1117  msg.sender */\n      caller\n        /* \"contracts/sendMoney.sol\":1088:1141  TransferSuccessful(msg.sender, _recipient, msg.value) */\n      0xffffffffffffffffffffffffffffffffffffffff\n      and\n      0xd6d3eb25a413c05d8107fc49deb2789bef7f612582b2482804c0b0423b6638ee\n        /* \"contracts/sendMoney.sol\":1131:1140  msg.value */\n      callvalue\n        /* \"contracts/sendMoney.sol\":1088:1141  TransferSuccessful(msg.sender, _recipient, msg.value) */\n      mload(0x40)\n      tag_51\n      swap2\n      swap1\n      tag_17\n      jump\t// in\n    tag_51:\n      mload(0x40)\n      dup1\n      swap2\n      sub\n      swap1\n      log3\n        /* \"contracts/sendMoney.sol\":720:1149  function transferMoney(address payable _recipient) public payable {... */\n      pop\n      jump\t// out\n        /* \"contracts/sendMoney.sol\":349:376  uint public contractBalance */\n    tag_30:\n      sload(0x01)\n      dup2\n      jump\t// out\n        /* \"contracts/sendMoney.sol\":126:182  function sendMoneytoContract() public payable {... */\n    tag_33:\n      jump\t// out\n        /* \"contracts/sendMoney.sol\":97:116  uint public balance */\n    tag_36:\n      sload(0x00)\n      dup2\n      jump\t// out\n        /* \"#utility.yul\":7:84   */\n    tag_53:\n        /* \"#utility.yul\":44:51   */\n      0x00\n        /* \"#utility.yul\":73:78   */\n      dup2\n        /* \"#utility.yul\":62:78   */\n      swap1\n      pop\n        /* \"#utility.yul\":7:84   */\n      swap2\n      swap1\n      pop\n      jump\t// out\n        /* \"#utility.yul\":90:270   */\n    tag_54:\n        /* \"#utility.yul\":138:215   */\n      0x4e487b7100000000000000000000000000000000000000000000000000000000\n        /* \"#utility.yul\":135:136   */\n      0x00\n        /* \"#utility.yul\":128:216   */\n      mstore\n        /* \"#utility.yul\":235:239   */\n      0x11\n        /* \"#utility.yul\":232:233   */\n      0x04\n        /* \"#utility.yul\":225:240   */\n      mstore\n        /* \"#utility.yul\":259:263   */\n      0x24\n        /* \"#utility.yul\":256:257   */\n      0x00\n        /* \"#utility.yul\":249:264   */\n      revert\n        /* \"#utility.yul\":276:467   */\n    tag_12:\n        /* \"#utility.yul\":316:319   */\n      0x00\n        /* \"#utility.yul\":335:355   */\n      tag_74\n        /* \"#utility.yul\":353:354   */\n      dup3\n        /* \"#utility.yul\":335:355   */\n      tag_53\n      jump\t// in\n    tag_74:\n        /* \"#utility.yul\":330:355   */\n      swap2\n      pop\n        /* \"#utility.yul\":369:389   */\n      tag_75\n        /* \"#utility.yul\":387:388   */\n      dup4\n        /* \"#utility.yul\":369:389   */\n      tag_53\n      jump\t// in\n    tag_75:\n        /* \"#utility.yul\":364:389   */\n      swap3\n      pop\n        /* \"#utility.yul\":412:413   */\n      dup3\n        /* \"#utility.yul\":409:410   */\n      dup3\n        /* \"#utility.yul\":405:414   */\n      add\n        /* \"#utility.yul\":398:414   */\n      swap1\n      pop\n        /* \"#utility.yul\":433:436   */\n      dup1\n        /* \"#utility.yul\":430:431   */\n      dup3\n        /* \"#utility.yul\":427:437   */\n      gt\n        /* \"#utility.yul\":424:460   */\n      iszero\n      tag_76\n      jumpi\n        /* \"#utility.yul\":440:458   */\n      tag_77\n      tag_54\n      jump\t// in\n    tag_77:\n        /* \"#utility.yul\":424:460   */\n    tag_76:\n        /* \"#utility.yul\":276:467   */\n      swap3\n      swap2\n      pop\n      pop\n      jump\t// out\n        /* \"#utility.yul\":473:591   */\n    tag_55:\n        /* \"#utility.yul\":560:584   */\n      tag_79\n        /* \"#utility.yul\":578:583   */\n      dup2\n        /* \"#utility.yul\":560:584   */\n      tag_53\n      jump\t// in\n    tag_79:\n        /* \"#utility.yul\":555:558   */\n      dup3\n        /* \"#utility.yul\":548:585   */\n      mstore\n        /* \"#utility.yul\":473:591   */\n      pop\n      pop\n      jump\t// out\n        /* \"#utility.yul\":597:819   */\n    tag_17:\n        /* \"#utility.yul\":690:694   */\n      0x00\n        /* \"#utility.yul\":728:730   */\n      0x20\n        /* \"#utility.yul\":717:726   */\n      dup3\n        /* \"#utility.yul\":713:731   */\n      add\n        /* \"#utility.yul\":705:731   */\n      swap1\n      pop\n        /* \"#utility.yul\":741:812   */\n      tag_81\n        /* \"#utility.yul\":809:810   */\n      0x00\n        /* \"#utility.yul\":798:807   */\n      dup4\n        /* \"#utility.yul\":794:811   */\n      add\n        /* \"#utility.yul\":785:791   */\n      dup5\n        /* \"#utility.yul\":741:812   */\n      tag_55\n      jump\t// in\n    tag_81:\n        /* \"#utility.yul\":597:819   */\n      swap3\n      swap2\n      pop\n      pop\n      jump\t// out\n        /* \"#utility.yul\":906:1023   */\n    tag_57:\n        /* \"#utility.yul\":1015:1016   */\n      0x00\n        /* \"#utility.yul\":1012:1013   */\n      dup1\n        /* \"#utility.yul\":1005:1017   */\n      revert\n        /* \"#utility.yul\":1152:1274   */\n    tag_59:\n        /* \"#utility.yul\":1225:1249   */\n      tag_86\n        /* \"#utility.yul\":1243:1248   */\n      dup2\n        /* \"#utility.yul\":1225:1249   */\n      tag_53\n      jump\t// in\n    tag_86:\n        /* \"#utility.yul\":1218:1223   */\n      dup2\n        /* \"#utility.yul\":1215:1250   */\n      eq\n        /* \"#utility.yul\":1205:1268   */\n      tag_87\n      jumpi\n        /* \"#utility.yul\":1264:1265   */\n      0x00\n        /* \"#utility.yul\":1261:1262   */\n      dup1\n        /* \"#utility.yul\":1254:1266   */\n      revert\n        /* \"#utility.yul\":1205:1268   */\n    tag_87:\n        /* \"#utility.yul\":1152:1274   */\n      pop\n      jump\t// out\n        /* \"#utility.yul\":1280:1419   */\n    tag_60:\n        /* \"#utility.yul\":1326:1331   */\n      0x00\n        /* \"#utility.yul\":1364:1370   */\n      dup2\n        /* \"#utility.yul\":1351:1371   */\n      calldataload\n        /* \"#utility.yul\":1342:1371   */\n      swap1\n      pop\n        /* \"#utility.yul\":1380:1413   */\n      tag_89\n        /* \"#utility.yul\":1407:1412   */\n      dup2\n        /* \"#utility.yul\":1380:1413   */\n      tag_59\n      jump\t// in\n    tag_89:\n        /* \"#utility.yul\":1280:1419   */\n      swap3\n      swap2\n      pop\n      pop\n      jump\t// out\n        /* \"#utility.yul\":1425:1754   */\n    tag_21:\n        /* \"#utility.yul\":1484:1490   */\n      0x00\n        /* \"#utility.yul\":1533:1535   */\n      0x20\n        /* \"#utility.yul\":1521:1530   */\n      dup3\n        /* \"#utility.yul\":1512:1519   */\n      dup5\n        /* \"#utility.yul\":1508:1531   */\n      sub\n        /* \"#utility.yul\":1504:1536   */\n      slt\n        /* \"#utility.yul\":1501:1620   */\n      iszero\n      tag_91\n      jumpi\n        /* \"#utility.yul\":1539:1618   */\n      tag_92\n      tag_57\n      jump\t// in\n    tag_92:\n        /* \"#utility.yul\":1501:1620   */\n    tag_91:\n        /* \"#utility.yul\":1659:1660   */\n      0x00\n        /* \"#utility.yul\":1684:1737   */\n      tag_93\n        /* \"#utility.yul\":1729:1736   */\n      dup5\n        /* \"#utility.yul\":1720:1726   */\n      dup3\n        /* \"#utility.yul\":1709:1718   */\n      dup6\n        /* \"#utility.yul\":1705:1727   */\n      add\n        /* \"#utility.yul\":1684:1737   */\n      tag_60\n      jump\t// in\n    tag_93:\n        /* \"#utility.yul\":1674:1737   */\n      swap2\n      pop\n        /* \"#utility.yul\":1630:1747   */\n      pop\n        /* \"#utility.yul\":1425:1754   */\n      swap3\n      swap2\n      pop\n      pop\n      jump\t// out\n        /* \"#utility.yul\":1760:1886   */\n    tag_61:\n        /* \"#utility.yul\":1797:1804   */\n      0x00\n        /* \"#utility.yul\":1837:1879   */\n      0xffffffffffffffffffffffffffffffffffffffff\n        /* \"#utility.yul\":1830:1835   */\n      dup3\n        /* \"#utility.yul\":1826:1880   */\n      and\n        /* \"#utility.yul\":1815:1880   */\n      swap1\n      pop\n        /* \"#utility.yul\":1760:1886   */\n      swap2\n      swap1\n      pop\n      jump\t// out\n        /* \"#utility.yul\":1892:1996   */\n    tag_62:\n        /* \"#utility.yul\":1937:1944   */\n      0x00\n        /* \"#utility.yul\":1966:1990   */\n      tag_96\n        /* \"#utility.yul\":1984:1989   */\n      dup3\n        /* \"#utility.yul\":1966:1990   */\n      tag_61\n      jump\t// in\n    tag_96:\n        /* \"#utility.yul\":1955:1990   */\n      swap1\n      pop\n        /* \"#utility.yul\":1892:1996   */\n      swap2\n      swap1\n      pop\n      jump\t// out\n        /* \"#utility.yul\":2002:2140   */\n    tag_63:\n        /* \"#utility.yul\":2083:2115   */\n      tag_98\n        /* \"#utility.yul\":2109:2114   */\n      dup2\n        /* \"#utility.yul\":2083:2115   */\n      tag_62\n      jump\t// in\n    tag_98:\n        /* \"#utility.yul\":2076:2081   */\n      dup2\n        /* \"#utility.yul\":2073:2116   */\n      eq\n        /* \"#utility.yul\":2063:2134   */\n      tag_99\n      jumpi\n        /* \"#utility.yul\":2130:2131   */\n      0x00\n        /* \"#utility.yul\":2127:2128   */\n      dup1\n        /* \"#utility.yul\":2120:2132   */\n      revert\n        /* \"#utility.yul\":2063:2134   */\n    tag_99:\n        /* \"#utility.yul\":2002:2140   */\n      pop\n      jump\t// out\n        /* \"#utility.yul\":2146:2301   */\n    tag_64:\n        /* \"#utility.yul\":2200:2205   */\n      0x00\n        /* \"#utility.yul\":2238:2244   */\n      dup2\n        /* \"#utility.yul\":2225:2245   */\n      calldataload\n        /* \"#utility.yul\":2216:2245   */\n      swap1\n      pop\n        /* \"#utility.yul\":2254:2295   */\n      tag_101\n        /* \"#utility.yul\":2289:2294   */\n      dup2\n        /* \"#utility.yul\":2254:2295   */\n      tag_63\n      jump\t// in\n    tag_101:\n        /* \"#utility.yul\":2146:2301   */\n      swap3\n      swap2\n      pop\n      pop\n      jump\t// out\n        /* \"#utility.yul\":2307:2652   */\n    tag_26:\n        /* \"#utility.yul\":2374:2380   */\n      0x00\n        /* \"#utility.yul\":2423:2425   */\n      0x20\n        /* \"#utility.yul\":2411:2420   */\n      dup3\n        /* \"#utility.yul\":2402:2409   */\n      dup5\n        /* \"#utility.yul\":2398:2421   */\n      sub\n        /* \"#utility.yul\":2394:2426   */\n      slt\n        /* \"#utility.yul\":2391:2510   */\n      iszero\n      tag_103\n      jumpi\n        /* \"#utility.yul\":2429:2508   */\n      tag_104\n      tag_57\n      jump\t// in\n    tag_104:\n        /* \"#utility.yul\":2391:2510   */\n    tag_103:\n        /* \"#utility.yul\":2549:2550   */\n      0x00\n        /* \"#utility.yul\":2574:2635   */\n      tag_105\n        /* \"#utility.yul\":2627:2634   */\n      dup5\n        /* \"#utility.yul\":2618:2624   */\n      dup3\n        /* \"#utility.yul\":2607:2616   */\n      dup6\n        /* \"#utility.yul\":2603:2625   */\n      add\n        /* \"#utility.yul\":2574:2635   */\n      tag_64\n      jump\t// in\n    tag_105:\n        /* \"#utility.yul\":2564:2635   */\n      swap2\n      pop\n        /* \"#utility.yul\":2520:2645   */\n      pop\n        /* \"#utility.yul\":2307:2652   */\n      swap3\n      swap2\n      pop\n      pop\n      jump\t// out\n        /* \"#utility.yul\":2658:3068   */\n    tag_41:\n        /* \"#utility.yul\":2698:2705   */\n      0x00\n        /* \"#utility.yul\":2721:2741   */\n      tag_107\n        /* \"#utility.yul\":2739:2740   */\n      dup3\n        /* \"#utility.yul\":2721:2741   */\n      tag_53\n      jump\t// in\n    tag_107:\n        /* \"#utility.yul\":2716:2741   */\n      swap2\n      pop\n        /* \"#utility.yul\":2755:2775   */\n      tag_108\n        /* \"#utility.yul\":2773:2774   */\n      dup4\n        /* \"#utility.yul\":2755:2775   */\n      tag_53\n      jump\t// in\n    tag_108:\n        /* \"#utility.yul\":2750:2775   */\n      swap3\n      pop\n        /* \"#utility.yul\":2810:2811   */\n      dup3\n        /* \"#utility.yul\":2807:2808   */\n      dup3\n        /* \"#utility.yul\":2803:2812   */\n      mul\n        /* \"#utility.yul\":2832:2862   */\n      tag_109\n        /* \"#utility.yul\":2850:2861   */\n      dup2\n        /* \"#utility.yul\":2832:2862   */\n      tag_53\n      jump\t// in\n    tag_109:\n        /* \"#utility.yul\":2821:2862   */\n      swap2\n      pop\n        /* \"#utility.yul\":3011:3012   */\n      dup3\n        /* \"#utility.yul\":3002:3009   */\n      dup3\n        /* \"#utility.yul\":2998:3013   */\n      div\n        /* \"#utility.yul\":2995:2996   */\n      dup5\n        /* \"#utility.yul\":2992:3014   */\n      eq\n        /* \"#utility.yul\":2972:2973   */\n      dup4\n        /* \"#utility.yul\":2965:2974   */\n      iszero\n        /* \"#utility.yul\":2945:3028   */\n      or\n        /* \"#utility.yul\":2922:3061   */\n      tag_110\n      jumpi\n        /* \"#utility.yul\":3041:3059   */\n      tag_111\n      tag_54\n      jump\t// in\n    tag_111:\n        /* \"#utility.yul\":2922:3061   */\n    tag_110:\n        /* \"#utility.yul\":2706:3068   */\n      pop\n        /* \"#utility.yul\":2658:3068   */\n      swap3\n      swap2\n      pop\n      pop\n      jump\t// out\n        /* \"#utility.yul\":3074:3243   */\n    tag_65:\n        /* \"#utility.yul\":3158:3169   */\n      0x00\n        /* \"#utility.yul\":3192:3198   */\n      dup3\n        /* \"#utility.yul\":3187:3190   */\n      dup3\n        /* \"#utility.yul\":3180:3199   */\n      mstore\n        /* \"#utility.yul\":3232:3236   */\n      0x20\n        /* \"#utility.yul\":3227:3230   */\n      dup3\n        /* \"#utility.yul\":3223:3237   */\n      add\n        /* \"#utility.yul\":3208:3237   */\n      swap1\n      pop\n        /* \"#utility.yul\":3074:3243   */\n      swap3\n      swap2\n      pop\n      pop\n      jump\t// out\n        /* \"#utility.yul\":3249:3431   */\n    tag_66:\n        /* \"#utility.yul\":3389:3423   */\n      0x416d6f756e74206d7573742062652067726561746572207468616e207a65726f\n        /* \"#utility.yul\":3385:3386   */\n      0x00\n        /* \"#utility.yul\":3377:3383   */\n      dup3\n        /* \"#utility.yul\":3373:3387   */\n      add\n        /* \"#utility.yul\":3366:3424   */\n      mstore\n        /* \"#utility.yul\":3249:3431   */\n      pop\n      jump\t// out\n        /* \"#utility.yul\":3437:3803   */\n    tag_67:\n        /* \"#utility.yul\":3579:3582   */\n      0x00\n        /* \"#utility.yul\":3600:3667   */\n      tag_115\n        /* \"#utility.yul\":3664:3666   */\n      0x20\n        /* \"#utility.yul\":3659:3662   */\n      dup4\n        /* \"#utility.yul\":3600:3667   */\n      tag_65\n      jump\t// in\n    tag_115:\n        /* \"#utility.yul\":3593:3667   */\n      swap2\n      pop\n        /* \"#utility.yul\":3676:3769   */\n      tag_116\n        /* \"#utility.yul\":3765:3768   */\n      dup3\n        /* \"#utility.yul\":3676:3769   */\n      tag_66\n      jump\t// in\n    tag_116:\n        /* \"#utility.yul\":3794:3796   */\n      0x20\n        /* \"#utility.yul\":3789:3792   */\n      dup3\n        /* \"#utility.yul\":3785:3797   */\n      add\n        /* \"#utility.yul\":3778:3797   */\n      swap1\n      pop\n        /* \"#utility.yul\":3437:3803   */\n      swap2\n      swap1\n      pop\n      jump\t// out\n        /* \"#utility.yul\":3809:4228   */\n    tag_45:\n        /* \"#utility.yul\":3975:3979   */\n      0x00\n        /* \"#utility.yul\":4013:4015   */\n      0x20\n        /* \"#utility.yul\":4002:4011   */\n      dup3\n        /* \"#utility.yul\":3998:4016   */\n      add\n        /* \"#utility.yul\":3990:4016   */\n      swap1\n      pop\n        /* \"#utility.yul\":4062:4071   */\n      dup2\n        /* \"#utility.yul\":4056:4060   */\n      dup2\n        /* \"#utility.yul\":4052:4072   */\n      sub\n        /* \"#utility.yul\":4048:4049   */\n      0x00\n        /* \"#utility.yul\":4037:4046   */\n      dup4\n        /* \"#utility.yul\":4033:4050   */\n      add\n        /* \"#utility.yul\":4026:4073   */\n      mstore\n        /* \"#utility.yul\":4090:4221   */\n      tag_118\n        /* \"#utility.yul\":4216:4220   */\n      dup2\n        /* \"#utility.yul\":4090:4221   */\n      tag_67\n      jump\t// in\n    tag_118:\n        /* \"#utility.yul\":4082:4221   */\n      swap1\n      pop\n        /* \"#utility.yul\":3809:4228   */\n      swap2\n      swap1\n      pop\n      jump\t// out\n        /* \"#utility.yul\":4234:4409   */\n    tag_68:\n        /* \"#utility.yul\":4374:4401   */\n      0x496e76616c696420726563697069656e74206164647265737300000000000000\n        /* \"#utility.yul\":4370:4371   */\n      0x00\n        /* \"#utility.yul\":4362:4368   */\n      dup3\n        /* \"#utility.yul\":4358:4372   */\n      add\n        /* \"#utility.yul\":4351:4402   */\n      mstore\n        /* \"#utility.yul\":4234:4409   */\n      pop\n      jump\t// out\n        /* \"#utility.yul\":4415:4781   */\n    tag_69:\n        /* \"#utility.yul\":4557:4560   */\n      0x00\n        /* \"#utility.yul\":4578:4645   */\n      tag_121\n        /* \"#utility.yul\":4642:4644   */\n      0x19\n        /* \"#utility.yul\":4637:4640   */\n      dup4\n        /* \"#utility.yul\":4578:4645   */\n      tag_65\n      jump\t// in\n    tag_121:\n        /* \"#utility.yul\":4571:4645   */\n      swap2\n      pop\n        /* \"#utility.yul\":4654:4747   */\n      tag_122\n        /* \"#utility.yul\":4743:4746   */\n      dup3\n        /* \"#utility.yul\":4654:4747   */\n      tag_68\n      jump\t// in\n    tag_122:\n        /* \"#utility.yul\":4772:4774   */\n      0x20\n        /* \"#utility.yul\":4767:4770   */\n      dup3\n        /* \"#utility.yul\":4763:4775   */\n      add\n        /* \"#utility.yul\":4756:4775   */\n      swap1\n      pop\n        /* \"#utility.yul\":4415:4781   */\n      swap2\n      swap1\n      pop\n      jump\t// out\n        /* \"#utility.yul\":4787:5206   */\n    tag_48:\n        /* \"#utility.yul\":4953:4957   */\n      0x00\n        /* \"#utility.yul\":4991:4993   */\n      0x20\n        /* \"#utility.yul\":4980:4989   */\n      dup3\n        /* \"#utility.yul\":4976:4994   */\n      add\n        /* \"#utility.yul\":4968:4994   */\n      swap1\n      pop\n        /* \"#utility.yul\":5040:5049   */\n      dup2\n        /* \"#utility.yul\":5034:5038   */\n      dup2\n        /* \"#utility.yul\":5030:5050   */\n      sub\n        /* \"#utility.yul\":5026:5027   */\n      0x00\n        /* \"#utility.yul\":5015:5024   */\n      dup4\n        /* \"#utility.yul\":5011:5028   */\n      add\n        /* \"#utility.yul\":5004:5051   */\n      mstore\n        /* \"#utility.yul\":5068:5199   */\n      tag_124\n        /* \"#utility.yul\":5194:5198   */\n      dup2\n        /* \"#utility.yul\":5068:5199   */\n      tag_69\n      jump\t// in\n    tag_124:\n        /* \"#utility.yul\":5060:5199   */\n      swap1\n      pop\n        /* \"#utility.yul\":4787:5206   */\n      swap2\n      swap1\n      pop\n      jump\t// out\n\n    auxdata: 0xa26469706673582212209d4ced71a3e0e371d6d6fd9fa18c8e4c84adf01d3c6aeb91abf98c27b616bf7b64736f6c634300081a0033\n}\n",
				"bytecode": {
					"linkReferences": {},
					"object": "6080604052348015600e575f80fd5b506105ac8061001c5f395ff3fe608060405260043610610058575f3560e01c806312065fe01461007a57806356d8399c146100a457806386ce9835146100e05780638b7afe2e146100fc5780638e238ef114610126578063b69ef8a81461013057610076565b36610076573460015f82825461006e919061031c565b925050819055005b5f80fd5b348015610085575f80fd5b5061008e61015a565b60405161009b919061035e565b60405180910390f35b3480156100af575f80fd5b506100ca60048036038101906100c591906103a5565b610161565b6040516100d7919061035e565b60405180910390f35b6100fa60048036038101906100f5919061042a565b61017d565b005b348015610107575f80fd5b506101106102d9565b60405161011d919061035e565b60405180910390f35b61012e6102df565b005b34801561013b575f80fd5b506101446102e1565b604051610151919061035e565b60405180910390f35b5f47905090565b5f60028261016f9190610455565b5f819055505f549050919050565b5f34116101bf576040517f08c379a00000000000000000000000000000000000000000000000000000000081526004016101b6906104f0565b60405180910390fd5b5f73ffffffffffffffffffffffffffffffffffffffff168173ffffffffffffffffffffffffffffffffffffffff160361022d576040517f08c379a000000000000000000000000000000000000000000000000000000000815260040161022490610558565b60405180910390fd5b8073ffffffffffffffffffffffffffffffffffffffff166108fc3490811502906040515f60405180830381858888f19350505050158015610270573d5f803e3d5ffd5b508073ffffffffffffffffffffffffffffffffffffffff163373ffffffffffffffffffffffffffffffffffffffff167fd6d3eb25a413c05d8107fc49deb2789bef7f612582b2482804c0b0423b6638ee346040516102ce919061035e565b60405180910390a350565b60015481565b565b5f5481565b5f819050919050565b7f4e487b71000000000000000000000000000000000000000000000000000000005f52601160045260245ffd5b5f610326826102e6565b9150610331836102e6565b9250828201905080821115610349576103486102ef565b5b92915050565b610358816102e6565b82525050565b5f6020820190506103715f83018461034f565b92915050565b5f80fd5b610384816102e6565b811461038e575f80fd5b50565b5f8135905061039f8161037b565b92915050565b5f602082840312156103ba576103b9610377565b5b5f6103c784828501610391565b91505092915050565b5f73ffffffffffffffffffffffffffffffffffffffff82169050919050565b5f6103f9826103d0565b9050919050565b610409816103ef565b8114610413575f80fd5b50565b5f8135905061042481610400565b92915050565b5f6020828403121561043f5761043e610377565b5b5f61044c84828501610416565b91505092915050565b5f61045f826102e6565b915061046a836102e6565b9250828202610478816102e6565b9150828204841483151761048f5761048e6102ef565b5b5092915050565b5f82825260208201905092915050565b7f416d6f756e74206d7573742062652067726561746572207468616e207a65726f5f82015250565b5f6104da602083610496565b91506104e5826104a6565b602082019050919050565b5f6020820190508181035f830152610507816104ce565b9050919050565b7f496e76616c696420726563697069656e742061646472657373000000000000005f82015250565b5f610542601983610496565b915061054d8261050e565b602082019050919050565b5f6020820190508181035f83015261056f81610536565b905091905056fea26469706673582212209d4ced71a3e0e371d6d6fd9fa18c8e4c84adf01d3c6aeb91abf98c27b616bf7b64736f6c634300081a0033",
					"opcodes": "PUSH1 0x80 PUSH1 0x40 MSTORE CALLVALUE DUP1 ISZERO PUSH1 0xE JUMPI PUSH0 DUP1 REVERT JUMPDEST POP PUSH2 0x5AC DUP1 PUSH2 0x1C PUSH0 CODECOPY PUSH0 RETURN INVALID PUSH1 0x80 PUSH1 0x40 MSTORE PUSH1 0x4 CALLDATASIZE LT PUSH2 0x58 JUMPI PUSH0 CALLDATALOAD PUSH1 0xE0 SHR DUP1 PUSH4 0x12065FE0 EQ PUSH2 0x7A JUMPI DUP1 PUSH4 0x56D8399C EQ PUSH2 0xA4 JUMPI DUP1 PUSH4 0x86CE9835 EQ PUSH2 0xE0 JUMPI DUP1 PUSH4 0x8B7AFE2E EQ PUSH2 0xFC JUMPI DUP1 PUSH4 0x8E238EF1 EQ PUSH2 0x126 JUMPI DUP1 PUSH4 0xB69EF8A8 EQ PUSH2 0x130 JUMPI PUSH2 0x76 JUMP JUMPDEST CALLDATASIZE PUSH2 0x76 JUMPI CALLVALUE PUSH1 0x1 PUSH0 DUP3 DUP3 SLOAD PUSH2 0x6E SWAP2 SWAP1 PUSH2 0x31C JUMP JUMPDEST SWAP3 POP POP DUP2 SWAP1 SSTORE STOP JUMPDEST PUSH0 DUP1 REVERT JUMPDEST CALLVALUE DUP1 ISZERO PUSH2 0x85 JUMPI PUSH0 DUP1 REVERT JUMPDEST POP PUSH2 0x8E PUSH2 0x15A JUMP JUMPDEST PUSH1 0x40 MLOAD PUSH2 0x9B SWAP2 SWAP1 PUSH2 0x35E JUMP JUMPDEST PUSH1 0x40 MLOAD DUP1 SWAP2 SUB SWAP1 RETURN JUMPDEST CALLVALUE DUP1 ISZERO PUSH2 0xAF JUMPI PUSH0 DUP1 REVERT JUMPDEST POP PUSH2 0xCA PUSH1 0x4 DUP1 CALLDATASIZE SUB DUP2 ADD SWAP1 PUSH2 0xC5 SWAP2 SWAP1 PUSH2 0x3A5 JUMP JUMPDEST PUSH2 0x161 JUMP JUMPDEST PUSH1 0x40 MLOAD PUSH2 0xD7 SWAP2 SWAP1 PUSH2 0x35E JUMP JUMPDEST PUSH1 0x40 MLOAD DUP1 SWAP2 SUB SWAP1 RETURN JUMPDEST PUSH2 0xFA PUSH1 0x4 DUP1 CALLDATASIZE SUB DUP2 ADD SWAP1 PUSH2 0xF5 SWAP2 SWAP1 PUSH2 0x42A JUMP JUMPDEST PUSH2 0x17D JUMP JUMPDEST STOP JUMPDEST CALLVALUE DUP1 ISZERO PUSH2 0x107 JUMPI PUSH0 DUP1 REVERT JUMPDEST POP PUSH2 0x110 PUSH2 0x2D9 JUMP JUMPDEST PUSH1 0x40 MLOAD PUSH2 0x11D SWAP2 SWAP1 PUSH2 0x35E JUMP JUMPDEST PUSH1 0x40 MLOAD DUP1 SWAP2 SUB SWAP1 RETURN JUMPDEST PUSH2 0x12E PUSH2 0x2DF JUMP JUMPDEST STOP JUMPDEST CALLVALUE DUP1 ISZERO PUSH2 0x13B JUMPI PUSH0 DUP1 REVERT JUMPDEST POP PUSH2 0x144 PUSH2 0x2E1 JUMP JUMPDEST PUSH1 0x40 MLOAD PUSH2 0x151 SWAP2 SWAP1 PUSH2 0x35E JUMP JUMPDEST PUSH1 0x40 MLOAD DUP1 SWAP2 SUB SWAP1 RETURN JUMPDEST PUSH0 SELFBALANCE SWAP1 POP SWAP1 JUMP JUMPDEST PUSH0 PUSH1 0x2 DUP3 PUSH2 0x16F SWAP2 SWAP1 PUSH2 0x455 JUMP JUMPDEST PUSH0 DUP2 SWAP1 SSTORE POP PUSH0 SLOAD SWAP1 POP SWAP2 SWAP1 POP JUMP JUMPDEST PUSH0 CALLVALUE GT PUSH2 0x1BF JUMPI PUSH1 0x40 MLOAD PUSH32 0x8C379A000000000000000000000000000000000000000000000000000000000 DUP2 MSTORE PUSH1 0x4 ADD PUSH2 0x1B6 SWAP1 PUSH2 0x4F0 JUMP JUMPDEST PUSH1 0x40 MLOAD DUP1 SWAP2 SUB SWAP1 REVERT JUMPDEST PUSH0 PUSH20 0xFFFFFFFFFFFFFFFFFFFFFFFFFFFFFFFFFFFFFFFF AND DUP2 PUSH20 0xFFFFFFFFFFFFFFFFFFFFFFFFFFFFFFFFFFFFFFFF AND SUB PUSH2 0x22D JUMPI PUSH1 0x40 MLOAD PUSH32 0x8C379A000000000000000000000000000000000000000000000000000000000 DUP2 MSTORE PUSH1 0x4 ADD PUSH2 0x224 SWAP1 PUSH2 0x558 JUMP JUMPDEST PUSH1 0x40 MLOAD DUP1 SWAP2 SUB SWAP1 REVERT JUMPDEST DUP1 PUSH20 0xFFFFFFFFFFFFFFFFFFFFFFFFFFFFFFFFFFFFFFFF AND PUSH2 0x8FC CALLVALUE SWAP1 DUP2 ISZERO MUL SWAP1 PUSH1 0x40 MLOAD PUSH0 PUSH1 0x40 MLOAD DUP1 DUP4 SUB DUP2 DUP6 DUP9 DUP9 CALL SWAP4 POP POP POP POP ISZERO DUP1 ISZERO PUSH2 0x270 JUMPI RETURNDATASIZE PUSH0 DUP1 RETURNDATACOPY RETURNDATASIZE PUSH0 REVERT JUMPDEST POP DUP1 PUSH20 0xFFFFFFFFFFFFFFFFFFFFFFFFFFFFFFFFFFFFFFFF AND CALLER PUSH20 0xFFFFFFFFFFFFFFFFFFFFFFFFFFFFFFFFFFFFFFFF AND PUSH32 0xD6D3EB25A413C05D8107FC49DEB2789BEF7F612582B2482804C0B0423B6638EE CALLVALUE PUSH1 0x40 MLOAD PUSH2 0x2CE SWAP2 SWAP1 PUSH2 0x35E JUMP JUMPDEST PUSH1 0x40 MLOAD DUP1 SWAP2 SUB SWAP1 LOG3 POP JUMP JUMPDEST PUSH1 0x1 SLOAD DUP2 JUMP JUMPDEST JUMP JUMPDEST PUSH0 SLOAD DUP2 JUMP JUMPDEST PUSH0 DUP2 SWAP1 POP SWAP2 SWAP1 POP JUMP JUMPDEST PUSH32 0x4E487B7100000000000000000000000000000000000000000000000000000000 PUSH0 MSTORE PUSH1 0x11 PUSH1 0x4 MSTORE PUSH1 0x24 PUSH0 REVERT JUMPDEST PUSH0 PUSH2 0x326 DUP3 PUSH2 0x2E6 JUMP JUMPDEST SWAP2 POP PUSH2 0x331 DUP4 PUSH2 0x2E6 JUMP JUMPDEST SWAP3 POP DUP3 DUP3 ADD SWAP1 POP DUP1 DUP3 GT ISZERO PUSH2 0x349 JUMPI PUSH2 0x348 PUSH2 0x2EF JUMP JUMPDEST JUMPDEST SWAP3 SWAP2 POP POP JUMP JUMPDEST PUSH2 0x358 DUP2 PUSH2 0x2E6 JUMP JUMPDEST DUP3 MSTORE POP POP JUMP JUMPDEST PUSH0 PUSH1 0x20 DUP3 ADD SWAP1 POP PUSH2 0x371 PUSH0 DUP4 ADD DUP5 PUSH2 0x34F JUMP JUMPDEST SWAP3 SWAP2 POP POP JUMP JUMPDEST PUSH0 DUP1 REVERT JUMPDEST PUSH2 0x384 DUP2 PUSH2 0x2E6 JUMP JUMPDEST DUP2 EQ PUSH2 0x38E JUMPI PUSH0 DUP1 REVERT JUMPDEST POP JUMP JUMPDEST PUSH0 DUP2 CALLDATALOAD SWAP1 POP PUSH2 0x39F DUP2 PUSH2 0x37B JUMP JUMPDEST SWAP3 SWAP2 POP POP JUMP JUMPDEST PUSH0 PUSH1 0x20 DUP3 DUP5 SUB SLT ISZERO PUSH2 0x3BA JUMPI PUSH2 0x3B9 PUSH2 0x377 JUMP JUMPDEST JUMPDEST PUSH0 PUSH2 0x3C7 DUP5 DUP3 DUP6 ADD PUSH2 0x391 JUMP JUMPDEST SWAP2 POP POP SWAP3 SWAP2 POP POP JUMP JUMPDEST PUSH0 PUSH20 0xFFFFFFFFFFFFFFFFFFFFFFFFFFFFFFFFFFFFFFFF DUP3 AND SWAP1 POP SWAP2 SWAP1 POP JUMP JUMPDEST PUSH0 PUSH2 0x3F9 DUP3 PUSH2 0x3D0 JUMP JUMPDEST SWAP1 POP SWAP2 SWAP1 POP JUMP JUMPDEST PUSH2 0x409 DUP2 PUSH2 0x3EF JUMP JUMPDEST DUP2 EQ PUSH2 0x413 JUMPI PUSH0 DUP1 REVERT JUMPDEST POP JUMP JUMPDEST PUSH0 DUP2 CALLDATALOAD SWAP1 POP PUSH2 0x424 DUP2 PUSH2 0x400 JUMP JUMPDEST SWAP3 SWAP2 POP POP JUMP JUMPDEST PUSH0 PUSH1 0x20 DUP3 DUP5 SUB SLT ISZERO PUSH2 0x43F JUMPI PUSH2 0x43E PUSH2 0x377 JUMP JUMPDEST JUMPDEST PUSH0 PUSH2 0x44C DUP5 DUP3 DUP6 ADD PUSH2 0x416 JUMP JUMPDEST SWAP2 POP POP SWAP3 SWAP2 POP POP JUMP JUMPDEST PUSH0 PUSH2 0x45F DUP3 PUSH2 0x2E6 JUMP JUMPDEST SWAP2 POP PUSH2 0x46A DUP4 PUSH2 0x2E6 JUMP JUMPDEST SWAP3 POP DUP3 DUP3 MUL PUSH2 0x478 DUP2 PUSH2 0x2E6 JUMP JUMPDEST SWAP2 POP DUP3 DUP3 DIV DUP5 EQ DUP4 ISZERO OR PUSH2 0x48F JUMPI PUSH2 0x48E PUSH2 0x2EF JUMP JUMPDEST JUMPDEST POP SWAP3 SWAP2 POP POP JUMP JUMPDEST PUSH0 DUP3 DUP3 MSTORE PUSH1 0x20 DUP3 ADD SWAP1 POP SWAP3 SWAP2 POP POP JUMP JUMPDEST PUSH32 0x416D6F756E74206D7573742062652067726561746572207468616E207A65726F PUSH0 DUP3 ADD MSTORE POP JUMP JUMPDEST PUSH0 PUSH2 0x4DA PUSH1 0x20 DUP4 PUSH2 0x496 JUMP JUMPDEST SWAP2 POP PUSH2 0x4E5 DUP3 PUSH2 0x4A6 JUMP JUMPDEST PUSH1 0x20 DUP3 ADD SWAP1 POP SWAP2 SWAP1 POP JUMP JUMPDEST PUSH0 PUSH1 0x20 DUP3 ADD SWAP1 POP DUP2 DUP2 SUB PUSH0 DUP4 ADD MSTORE PUSH2 0x507 DUP2 PUSH2 0x4CE JUMP JUMPDEST SWAP1 POP SWAP2 SWAP1 POP JUMP JUMPDEST PUSH32 0x496E76616C696420726563697069656E74206164647265737300000000000000 PUSH0 DUP3 ADD MSTORE POP JUMP JUMPDEST PUSH0 PUSH2 0x542 PUSH1 0x19 DUP4 PUSH2 0x496 JUMP JUMPDEST SWAP2 POP PUSH2 0x54D DUP3 PUSH2 0x50E JUMP JUMPDEST PUSH1 0x20 DUP3 ADD SWAP1 POP SWAP2 SWAP1 POP JUMP JUMPDEST PUSH0 PUSH1 0x20 DUP3 ADD SWAP1 POP DUP2 DUP2 SUB PUSH0 DUP4 ADD MSTORE PUSH2 0x56F DUP2 PUSH2 0x536 JUMP JUMPDEST SWAP1 POP SWAP2 SWAP1 POP JUMP INVALID LOG2 PUSH5 0x6970667358 0x22 SLT KECCAK256 SWAP14 0x4C 0xED PUSH18 0xA3E0E371D6D6FD9FA18C8E4C84ADF01D3C6A 0xEB SWAP2 0xAB 0xF9 DUP13 0x27 0xB6 AND 0xBF PUSH28 0x64736F6C634300081A00330000000000000000000000000000000000 "
				},
				"gasEstimates": {
					"creation": {
						"codeDepositCost": "290400",
						"executionCost": "329",
						"totalCost": "290729"
					},
					"external": {
						"balance()": "2512",
						"contractBalance()": "2469",
						"doubleMoney(uint256)": "infinite",
						"getBalance()": "312",
						"sendMoneytoContract()": "185",
						"transferMoney(address)": "infinite"
					}
				},
				"methodIdentifiers": {
					"balance()": "b69ef8a8",
					"contractBalance()": "8b7afe2e",
					"doubleMoney(uint256)": "56d8399c",
					"getBalance()": "12065fe0",
					"sendMoneytoContract()": "8e238ef1",
					"transferMoney(address)": "86ce9835"
				}
			},
			"storageLayout": {
				"storage": [
					{
						"astId": 3,
						"contract": "contracts/sendMoney.sol:DoubleMoneyContract",
						"label": "balance",
						"offset": 0,
						"slot": "0",
						"type": "t_uint256"
					},
					{
						"astId": 25,
						"contract": "contracts/sendMoney.sol:DoubleMoneyContract",
						"label": "contractBalance",
						"offset": 0,
						"slot": "1",
						"type": "t_uint256"
					}
				],
				"types": {
					"t_uint256": {
						"encoding": "inplace",
						"label": "uint256",
						"numberOfBytes": "32"
					}
				}
			},
			"userdoc": {
				"kind": "user",
				"methods": {},
				"version": 1
			}
		}
	}
}